{"contracts/auction/NFTAuctionManager.sol":{"NFTAuctionManager":{"abi":[{"inputs":[{"internalType":"address","name":"owner","type":"address"}],"name":"OwnableInvalidOwner","type":"error"},{"inputs":[{"internalType":"address","name":"account","type":"address"}],"name":"OwnableUnauthorizedAccount","type":"error"},{"anonymous":false,"inputs":[{"indexed":false,"internalType":"address","name":"auctionId","type":"address"},{"indexed":false,"internalType":"uint256","name":"endedAt","type":"uint256"}],"name":"AuctionCancelled","type":"event"},{"anonymous":false,"inputs":[{"indexed":false,"internalType":"address","name":"auctionId","type":"address"},{"indexed":false,"internalType":"address","name":"seller","type":"address"},{"indexed":false,"internalType":"address","name":"tokenAddress","type":"address"},{"indexed":false,"internalType":"uint256","name":"tokenId","type":"uint256"},{"indexed":false,"internalType":"uint256","name":"startingPrice","type":"uint256"},{"indexed":false,"internalType":"uint256","name":"startedAt","type":"uint256"}],"name":"AuctionCreated","type":"event"},{"anonymous":false,"inputs":[{"indexed":false,"internalType":"address","name":"auctionId","type":"address"},{"indexed":false,"internalType":"uint256","name":"highestBid","type":"uint256"},{"indexed":false,"internalType":"address","name":"highestBidder","type":"address"},{"indexed":false,"internalType":"uint256","name":"endedAt","type":"uint256"}],"name":"AuctionEnded","type":"event"},{"anonymous":false,"inputs":[{"indexed":true,"internalType":"address","name":"bidder","type":"address"},{"indexed":true,"internalType":"address","name":"auctionId","type":"address"},{"indexed":false,"internalType":"uint256","name":"amount","type":"uint256"},{"indexed":false,"internalType":"uint256","name":"timestamp","type":"uint256"}],"name":"BidPlaced","type":"event"},{"anonymous":false,"inputs":[{"indexed":true,"internalType":"address","name":"bidder","type":"address"},{"indexed":true,"internalType":"address","name":"auctionId","type":"address"},{"indexed":false,"internalType":"uint256","name":"amount","type":"uint256"},{"indexed":false,"internalType":"uint256","name":"timestamp","type":"uint256"}],"name":"BidWithdrawn","type":"event"},{"anonymous":false,"inputs":[{"indexed":true,"internalType":"address","name":"donor","type":"address"},{"indexed":false,"internalType":"uint256","name":"amount","type":"uint256"},{"indexed":false,"internalType":"uint256","name":"timestamp","type":"uint256"}],"name":"Donation","type":"event"},{"anonymous":false,"inputs":[{"indexed":true,"internalType":"address","name":"auctionId","type":"address"},{"indexed":true,"internalType":"address","name":"receiver","type":"address"},{"indexed":false,"internalType":"uint256","name":"amount","type":"uint256"},{"indexed":false,"internalType":"uint256","name":"timestamp","type":"uint256"}],"name":"MoneyTransfered","type":"event"},{"anonymous":false,"inputs":[{"indexed":true,"internalType":"address","name":"previousOwner","type":"address"},{"indexed":true,"internalType":"address","name":"newOwner","type":"address"}],"name":"OwnershipTransferred","type":"event"},{"anonymous":false,"inputs":[{"indexed":true,"internalType":"address","name":"auctionId","type":"address"},{"indexed":true,"internalType":"address","name":"receiver","type":"address"},{"indexed":false,"internalType":"uint16","name":"percentage","type":"uint16"},{"indexed":false,"internalType":"uint256","name":"timestamp","type":"uint256"}],"name":"ReceiverAdded","type":"event"},{"anonymous":false,"inputs":[{"indexed":true,"internalType":"address","name":"auctionId","type":"address"},{"indexed":true,"internalType":"address","name":"receiver","type":"address"},{"indexed":false,"internalType":"uint256","name":"timestamp","type":"uint256"}],"name":"ReceiverRemoved","type":"event"},{"stateMutability":"payable","type":"fallback"},{"inputs":[{"internalType":"address","name":"_auctionId","type":"address"},{"internalType":"address","name":"_receiver","type":"address"},{"internalType":"uint16","name":"_percentage","type":"uint16"}],"name":"addReceiver","outputs":[],"stateMutability":"nonpayable","type":"function"},{"inputs":[{"internalType":"uint256","name":"","type":"uint256"}],"name":"auctionIds","outputs":[{"internalType":"address","name":"","type":"address"}],"stateMutability":"view","type":"function"},{"inputs":[{"internalType":"address","name":"","type":"address"}],"name":"auctions","outputs":[{"internalType":"address","name":"id","type":"address"},{"internalType":"address","name":"topicId","type":"address"},{"internalType":"string","name":"name","type":"string"},{"internalType":"string","name":"description","type":"string"},{"internalType":"address","name":"seller","type":"address"},{"internalType":"address","name":"tokenAddress","type":"address"},{"internalType":"uint256","name":"tokenId","type":"uint256"},{"internalType":"uint256","name":"startingPrice","type":"uint256"},{"internalType":"uint256","name":"minBidIncrement","type":"uint256"},{"internalType":"uint256","name":"endingPrice","type":"uint256"},{"internalType":"uint256","name":"startedAt","type":"uint256"},{"internalType":"uint256","name":"endingAt","type":"uint256"},{"internalType":"uint256","name":"endedAt","type":"uint256"},{"internalType":"uint256","name":"highestBid","type":"uint256"},{"internalType":"address","name":"highestBidder","type":"address"},{"internalType":"uint256","name":"donation","type":"uint256"}],"stateMutability":"view","type":"function"},{"inputs":[{"internalType":"address","name":"","type":"address"},{"internalType":"address","name":"","type":"address"}],"name":"bids","outputs":[{"internalType":"address","name":"bidder","type":"address"},{"internalType":"address","name":"auctionId","type":"address"},{"internalType":"uint256","name":"amount","type":"uint256"},{"internalType":"uint256","name":"timestamp","type":"uint256"}],"stateMutability":"view","type":"function"},{"inputs":[{"internalType":"address","name":"_auctionId","type":"address"}],"name":"cancelAuction","outputs":[{"internalType":"bool","name":"","type":"bool"}],"stateMutability":"nonpayable","type":"function"},{"inputs":[{"internalType":"string","name":"_name","type":"string"},{"internalType":"string","name":"_description","type":"string"},{"internalType":"address","name":"_tokenAddress","type":"address"},{"internalType":"uint256","name":"_tokenId","type":"uint256"},{"internalType":"address","name":"_topicId","type":"address"},{"internalType":"uint256","name":"_startingPrice","type":"uint256"},{"internalType":"uint256","name":"_minBidIncrement","type":"uint256"},{"internalType":"uint256","name":"_endingPrice","type":"uint256"},{"internalType":"uint256","name":"_endingAt","type":"uint256"},{"internalType":"address[]","name":"_receivers","type":"address[]"},{"internalType":"uint16[]","name":"_percentages","type":"uint16[]"}],"name":"createAuction","outputs":[{"internalType":"address","name":"","type":"address"}],"stateMutability":"nonpayable","type":"function"},{"inputs":[{"internalType":"address","name":"_auctionId","type":"address"}],"name":"donate","outputs":[],"stateMutability":"payable","type":"function"},{"inputs":[{"internalType":"address","name":"","type":"address"},{"internalType":"address","name":"","type":"address"}],"name":"donors","outputs":[{"internalType":"uint256","name":"","type":"uint256"}],"stateMutability":"view","type":"function"},{"inputs":[{"internalType":"address","name":"_auctionId","type":"address"}],"name":"endAuction","outputs":[{"internalType":"bool","name":"","type":"bool"}],"stateMutability":"nonpayable","type":"function"},{"inputs":[{"internalType":"address","name":"_auctionId","type":"address"}],"name":"getAuction","outputs":[{"components":[{"internalType":"address","name":"id","type":"address"},{"internalType":"address","name":"topicId","type":"address"},{"internalType":"string","name":"name","type":"string"},{"internalType":"string","name":"description","type":"string"},{"internalType":"address","name":"seller","type":"address"},{"internalType":"address","name":"tokenAddress","type":"address"},{"internalType":"uint256","name":"tokenId","type":"uint256"},{"internalType":"uint256","name":"startingPrice","type":"uint256"},{"internalType":"uint256","name":"minBidIncrement","type":"uint256"},{"internalType":"uint256","name":"endingPrice","type":"uint256"},{"internalType":"uint256","name":"startedAt","type":"uint256"},{"internalType":"uint256","name":"endingAt","type":"uint256"},{"internalType":"uint256","name":"endedAt","type":"uint256"},{"internalType":"uint256","name":"highestBid","type":"uint256"},{"internalType":"address","name":"highestBidder","type":"address"},{"internalType":"uint256","name":"donation","type":"uint256"},{"internalType":"address[]","name":"receivers","type":"address[]"},{"internalType":"uint16[]","name":"percentages","type":"uint16[]"}],"internalType":"struct IAuction.Auction","name":"","type":"tuple"}],"stateMutability":"view","type":"function"},{"inputs":[],"name":"getAuctions","outputs":[{"components":[{"internalType":"address","name":"id","type":"address"},{"internalType":"address","name":"topicId","type":"address"},{"internalType":"string","name":"name","type":"string"},{"internalType":"string","name":"description","type":"string"},{"internalType":"address","name":"seller","type":"address"},{"internalType":"address","name":"tokenAddress","type":"address"},{"internalType":"uint256","name":"tokenId","type":"uint256"},{"internalType":"uint256","name":"startingPrice","type":"uint256"},{"internalType":"uint256","name":"minBidIncrement","type":"uint256"},{"internalType":"uint256","name":"endingPrice","type":"uint256"},{"internalType":"uint256","name":"startedAt","type":"uint256"},{"internalType":"uint256","name":"endingAt","type":"uint256"},{"internalType":"uint256","name":"endedAt","type":"uint256"},{"internalType":"uint256","name":"highestBid","type":"uint256"},{"internalType":"address","name":"highestBidder","type":"address"},{"internalType":"uint256","name":"donation","type":"uint256"},{"internalType":"address[]","name":"receivers","type":"address[]"},{"internalType":"uint16[]","name":"percentages","type":"uint16[]"}],"internalType":"struct IAuction.Auction[]","name":"","type":"tuple[]"}],"stateMutability":"view","type":"function"},{"inputs":[{"internalType":"address","name":"_auctionId","type":"address"}],"name":"getDonors","outputs":[{"internalType":"address[]","name":"","type":"address[]"}],"stateMutability":"view","type":"function"},{"inputs":[{"internalType":"address","name":"_auctionId","type":"address"}],"name":"getHighestBid","outputs":[{"internalType":"uint256","name":"","type":"uint256"}],"stateMutability":"view","type":"function"},{"inputs":[{"internalType":"address","name":"_auctionId","type":"address"}],"name":"getHighestBidder","outputs":[{"internalType":"address","name":"","type":"address"}],"stateMutability":"view","type":"function"},{"inputs":[{"internalType":"address","name":"operator","type":"address"},{"internalType":"address","name":"from","type":"address"},{"internalType":"uint256","name":"tokenId","type":"uint256"},{"internalType":"bytes","name":"data","type":"bytes"}],"name":"onERC721Received","outputs":[{"internalType":"bytes4","name":"","type":"bytes4"}],"stateMutability":"pure","type":"function"},{"inputs":[],"name":"owner","outputs":[{"internalType":"address","name":"","type":"address"}],"stateMutability":"view","type":"function"},{"inputs":[{"internalType":"address","name":"_auctionId","type":"address"},{"internalType":"uint256","name":"_amount","type":"uint256"}],"name":"placeBid","outputs":[{"internalType":"bool","name":"","type":"bool"}],"stateMutability":"payable","type":"function"},{"inputs":[{"internalType":"address","name":"_auctionId","type":"address"},{"internalType":"address","name":"_receiver","type":"address"}],"name":"removeReceiver","outputs":[],"stateMutability":"nonpayable","type":"function"},{"inputs":[],"name":"renounceOwnership","outputs":[],"stateMutability":"nonpayable","type":"function"},{"inputs":[{"internalType":"address","name":"_auctionId","type":"address"},{"internalType":"address","name":"_receiver","type":"address"},{"internalType":"uint256","name":"_amount","type":"uint256"}],"name":"transferMoney","outputs":[],"stateMutability":"nonpayable","type":"function"},{"inputs":[{"internalType":"address","name":"newOwner","type":"address"}],"name":"transferOwnership","outputs":[],"stateMutability":"nonpayable","type":"function"},{"inputs":[{"internalType":"address","name":"_auctionId","type":"address"}],"name":"withdrawBid","outputs":[{"internalType":"bool","name":"","type":"bool"}],"stateMutability":"payable","type":"function"},{"stateMutability":"payable","type":"receive"}],"evm":{"bytecode":{"linkReferences":{},"object":"6080806040523461007a5733156100645760008054336001600160a01b03198216811783556040519290916001600160a01b0316907f8be0079c531659141344cd1fd0a4f28419497f9722a3daafe3b4186f6b6457e09080a361390f90816100808239f35b631e4fbdf760e01b815260006004820152602490fd5b600080fdfe60a080604052600436101561001a575b50361561001857005b005b60003560e01c908162362a95146130ae5750806306c6472614611fae578063150b7a0214611f455780631d59410a14611dfc5780631f03652414611d8657806323a7504914611d495780632872abbc146119a85780632a6433be146119665780633ae01466146119285780634ede3648146117fb5780636410381c1461165d578063694b2323146115f4578063715018a61461159b57806379deae7b1461110457806388c40d9414610e8b5780638da5cb5b14610e625780638f3ac94614610e11578063d22cf3a414610d21578063d7c06919146107ca578063d98b9bb51461047b578063e4a74366146101a65763f2fde38b14610118573861000f565b346101a15760203660031901126101a157610131613199565b6101396138ad565b6001600160a01b0390811690811561018857600054826001600160601b0360a01b821617600055167f8be0079c531659141344cd1fd0a4f28419497f9722a3daafe3b4186f6b6457e0600080a3005b604051631e4fbdf760e01b815260006004820152602490fd5b600080fd5b346101a15760603660031901126101a1576101bf613199565b6101c76131af565b6044916044359261ffff91828516908186036101a15760018060a01b03809116948560005260019460209760016020526040600020968460048901541699338b03610424579461021c8186169b8c14156137e5565b60009560108a01988954975b8d8b8a83106103c157505050505050851515806103b6575b61024c909891986135b0565b6000906011600091019889545b8a81841061038b57505050506064929161027291613842565b161161033757600160401b938483101561032157826102999160016102b7950181556133fe565b90919060018060a01b038084549260031b9316831b921b1916179055565b82549182101561032157806103116102f8847f3c2b0a7047f708ff533690d2cf89d62667a369de80d02a358419185b1f053bb19660016040970181556136ae565b819391549060031b9161ffff809116831b921b19161790565b90558151908152426020820152a3005b634e487b7160e01b600052604160045260246000fd5b60405162461bcd60e51b815260206004820152602660248201527f53756d206f662070657263656e746167657320697320677265617465722074686044820152650616e203130360d41b6064820152608490fd5b83948761039f85966103ad949695966136ae565b90549060031b1c1690613842565b93019190610259565b506064861115610240565b6103cc8387926133fe565b90549060031b1c16146103e0578401610228565b60405162461bcd60e51b815260048101849052601d60248201527f54686520726563656976657220697320616c726561647920616464656400000081840152606490fd5b60405162461bcd60e51b815260206004820152602960248201527f4f6e6c79207468652061756374696f6e206f776e65722063616e206164642061604482015268103932b1b2b4bb32b960b91b6064820152608490fd5b60403660031901126101a15761048f613199565b6024803560018060a01b038093169182600052602093600185526104c56040600020600a810154151590816107bc575b506136d1565b83600052600185526040600020600d810180548086111561076157600783015486106107035760088301546104f991613570565b85106106a25760098201548511610649578434036105ef57849055600e0180546001600160a01b031990811633179091556040519260808401906001600160401b038211858310176105db575090600392916040523384528684018681526040850191868352606086019342855288600052858a526040600020336000528a528060406000209751168288541617875560018701925116908254161790555160028401555191015560405190815242838201527fdd49bbb40d47a514dddcd458e9718364143bc24a0cca58439ee6f4f45e4ce10d60403392a360405160018152f35b634e487b7160e01b60009081526041600452fd5b60405162461bcd60e51b815260048101889052602d818601527f5468652076616c75652073656e74206973206e6f7420657175616c20746f207460448201526c1a1948189a5908185b5bdd5b9d609a1b6064820152608490fd5b60405162461bcd60e51b815260048101889052602c818601527f42696420616d6f756e74206973206e6f74206c657373207468616e207468652060448201526b656e64696e6720707269636560a01b6064820152608490fd5b60405162461bcd60e51b8152600481018890526034818601527f42696420616d6f756e74206973206e6f742067726561746572207468616e20746044820152731a19481b5a5b88189a59081a5b98dc995b595b9d60621b6064820152608490fd5b60405162461bcd60e51b8152600481018990526031818701527f42696420616d6f756e74206973206e6f742067726561746572207468616e20746044820152706865207374617274696e6720707269636560781b6064820152608490fd5b60405162461bcd60e51b815260048101899052602e818701527f42696420616d6f756e74206973206e6f742067726561746572207468616e207460448201526d1a19481a1a59da195cdd08189a5960921b6064820152608490fd5b600b915001544210876104bf565b346101a15760003660031901126101a1576002546107e781613273565b906107f560405192836131fc565b80825261080181613273565b601f190160005b818110610d0a57505060005b81811061088357826040518091602082016020835281518091526040830190602060408260051b8601019301916000905b82821061085457505050500390f35b919360019193955060206108738192603f198a82030186528851613416565b9601920192018594939192610845565b61088c816133b1565b9054600391821b1c6001600160a01b03166000908152600160205260409081902090519092916108f1906108bf836131c5565b84546001600160a01b03908116845260018601541660208401526108e5600286016132c4565b604084015284016132c4565b606082015260048301546001600160a01b0390811660808301526005840154811660a0830152600684015460c0830152600784015460e083015260088401546101008301526009840154610120830152600a840154610140830152600b840154610160830152600c840154610180830152600d8401546101a0830152600e840154166101c0820152600f8301546101e0820152604051601084018054808352600091825260208083209084019290915b808210610ce857505050816109b79103826131fc565b610200820152604051806011602081870154928381520195016000526020600020906000915b81600f840110610bfe5795610a799284926001985491818110610bea575b818110610bd3575b818110610bbd575b818110610ba6575b818110610b8f575b818110610b78575b818110610b61575b818110610b4a575b818110610b33575b818110610b1c575b818110610b05575b818110610aee575b818110610ad7575b818110610ac0575b818110610aa9575b10610a9b575b5003826131fc565b610220820152610a89828661359c565b52610a94818561359c565b5001610814565b60f01c815260200189610a71565b9260208a9161ffff8560e01c168152019301610a6b565b9260208a9161ffff8560d01c168152019301610a63565b9260208a9161ffff8560c01c168152019301610a5b565b9260208a9161ffff8560b01c168152019301610a53565b9260208a9161ffff8560a01c168152019301610a4b565b9260208a9161ffff8560901c168152019301610a43565b9260208a9161ffff8560801c168152019301610a3b565b9260208a9161ffff8560701c168152019301610a33565b9260208a9161ffff8560601c168152019301610a2b565b9260208a9161ffff8560501c168152019301610a23565b9260208a9161ffff8560401c168152019301610a1b565b9260208a9161ffff8560301c168152019301610a13565b9260208a9161ffff85831c168152019301610a0b565b9260208a9161ffff8560101c168152019301610a03565b9260208a9161ffff851681520193016109fb565b929394956001610200601092865461ffff8116825261ffff81861c16602083015261ffff8160201c16604083015261ffff8160301c16606083015261ffff8160401c16608083015261ffff8160501c1660a083015261ffff8160601c1660c083015261ffff8160701c1660e083015261ffff8160801c1661010083015261ffff8160901c1661012083015261ffff8160a01c1661014083015261ffff8160b01c1661016083015261ffff8160c01c1661018083015261ffff8160d01c166101a083015261ffff8160e01c166101c083015260f01c6101e082015201940192019195949392956109dd565b82546001600160a01b03168452602090930192600192830192909101906109a1565b602090610d15613762565b82828701015201610808565b346101a1576020806003193601126101a1576001600160a01b0380610d44613199565b16908160005260018352610d638160046040600020015416331461364f565b8160005260018352604060002090339060048301541603610dbd577f018b64b6242d32aa550e95d78985b938d71af5b3f10827b0683f55da1639304891604091600c4291015581519081524284820152a160405160018152f35b60405162461bcd60e51b815260048101849052602660248201527f4f6e6c79207468652073656c6c65722063616e2063616e63656c2074686520616044820152653ab1ba34b7b760d11b6064820152608490fd5b346101a15760403660031901126101a157610e2a613199565b610e326131af565b9060018060a01b038091166000526004602052604060002091166000526020526020604060002054604051908152f35b346101a15760003660031901126101a1576000546040516001600160a01b039091168152602090f35b346101a15760403660031901126101a157610ea4613199565b610eac6131af565b60018060a01b038092168060005260018060205260406000209380600486015416933385036110aa5790610ee78187949316958614156137e5565b60009260009360108201948554905b818110611070575b5050610f0990613716565b6000835b610f40575b86867f881201a365cfa7a30d2763840b70e4bb9c3b6417202491504fb1237b08a8c10f6020604051428152a3005b84548082101561106a57839088610f5784896133fe565b939054600394851b1c1614610f70575050830183610f0d565b939192945094600019938481019081116110545782610f92610fa392846133fe565b905490891b1c1661029985846133fe565b8054801561102a57840191610fb883836133fe565b9091825491891b1b1916905555601180930192835490838201918211611040575090610ffe610feb6102f89493866136ae565b905461ffff9591881b1c851692866136ae565b90558254801561102a57019261101484846136ae565b81939154921b1b19169055558280808080610f12565b634e487b7160e01b600052603160045260246000fd5b634e487b7160e01b60005260045260246000fd5b634e487b7160e01b600052601160045260246000fd5b50610f12565b8885611080838a969c9b9a6133fe565b90549060031b1c16146110995785019791959697610ef6565b5095965093945082610f0981610efe565b60405162461bcd60e51b815260206004820152602c60248201527f4f6e6c79207468652061756374696f6e206f776e65722063616e2072656d6f7660448201526b329030903932b1b2b4bb32b960a11b6064820152608490fd5b346101a15760203660031901126101a15761111d613199565b611125613762565b5060018060a01b031660005260016020526040600020604051611147816131c5565b81546001600160a01b039081168252600183015416602082015261116d600283016132c4565b604082015261117e600383016132c4565b606082015260048201546001600160a01b0390811660808301526005830154811660a0830152600683015460c0830152600783015460e083015260088301546101008301526009830154610120830152600a830154610140830152600b830154610160830152600c830154610180830152600d8301546101a0830152600e830154166101c0820152600f8201546101e08201526040516010830180548083526000918252602080832092849291830191905b818110611579575050611245925003826131fc565b610200820152604051806011602081860154928381520194016000526020600020906000915b81600f8401106114975794611307928492611321975491818110611482575b81811061146a575b818110611453575b81811061143b575b818110611423575b81811061140b575b8181106113f3575b8181106113db575b8181106113c3575b8181106113ab575b818110611393575b81811061137b575b818110611363575b81811061134b575b818110611333575b10611325575003826131fc565b610220820152604051918291602083526020830190613416565b0390f35b60f01c815260200186610a71565b92602060019161ffff8560e01c1681520193016112fa565b92602060019161ffff8560d01c1681520193016112f2565b92602060019161ffff8560c01c1681520193016112ea565b92602060019161ffff8560b01c1681520193016112e2565b92602060019161ffff8560a01c1681520193016112da565b92602060019161ffff8560901c1681520193016112d2565b92602060019161ffff8560801c1681520193016112ca565b92602060019161ffff8560701c1681520193016112c2565b92602060019161ffff8560601c1681520193016112ba565b92602060019161ffff8560501c1681520193016112b2565b92602060019161ffff8560401c1681520193016112aa565b92602060019161ffff8560301c1681520193016112a2565b92602060019161ffff85831c16815201930161129a565b92602060019161ffff8560101c168152019301611292565b92602060019161ffff8516815201930161128a565b946001610200601092885461ffff8116825261ffff81861c16602083015261ffff8160201c16604083015261ffff8160301c16606083015261ffff8160401c16608083015261ffff8160501c1660a083015261ffff8160601c1660c083015261ffff8160701c1660e083015261ffff8160801c1661010083015261ffff8160901c1661012083015261ffff8160a01c1661014083015261ffff8160b01c1661016083015261ffff8160c01c1661018083015261ffff8160d01c166101a083015261ffff8160e01c166101c083015260f01c6101e082015201960192019161126b565b84546001600160a01b0316835260019485019486945060209093019201611230565b346101a15760003660031901126101a1576115b46138ad565b600080546001600160a01b0319811682556001600160a01b03167f8be0079c531659141344cd1fd0a4f28419497f9722a3daafe3b4186f6b6457e08280a3005b346101a1576020806003193601126101a15761160e613199565b506040518091602082019060208352606051809252604083019160809160005b82811061163d57505050500390f35b83516001600160a01b03168552869550938101939281019260010161162e565b346101a15760603660031901126101a157611676613199565b61167e6131af565b9060018060a01b03809116908160005260019060016020526040600020918160048401541633036117a457600094919491600093600096601082018181549416985b84811061174c575b50505050505061ffff6064926116e06116e993613716565b1660443561363c565b04600081848115611742575b600092839283928392f1156117365760407f67b1d074e0231b1d5ea97c0b82a285837b236d627d5a9b89965f961963c39b6c918151908152426020820152a3005b6040513d6000823e3d90fd5b6108fc92506116f5565b828a61175883856133fe565b929054600393841b1c161461176f575085016116c0565b9150606497506116e996506116e093945061ffff958693509060116117959296016136ae565b9054911b1c16948294896116c8565b60405162461bcd60e51b815260206004820152602960248201527f4f6e6c79207468652061756374696f6e206f776e65722063616e207472616e73604482015268666572206d6f6e657960b81b6064820152608490fd5b6020806003193601126101a1576001600160a01b0380611819613199565b16806000526001835261183d6040600020600a8101541515908161191a57506136d1565b80600052600183526040600020600e81019283541633036118d55790600d600092019080825460405190815242878201527f785d85162ae7507dad1d0089ba072ba3f2b9c7538085649ddc9b039eadc1a3f660403392a3825260038452604082203383528452816003604082208281558260018201558260028201550155556001600160601b0360a01b815416905560405160018152f35b60405162461bcd60e51b815260048101859052601b60248201527f42696464657220686173206e6f7420706c6163656420612062696400000000006044820152606490fd5b600b915001544210856104bf565b346101a15760203660031901126101a15760206001600160a01b038061194c613199565b1660005260018252600e6040600020015416604051908152f35b346101a15760203660031901126101a1576004356002548110156101a15761198f6020916133b1565b905460405160039290921b1c6001600160a01b03168152f35b346101a1576020806003193601126101a1576001600160a01b03806119cb613199565b1680600052600191600184526119ec8160046040600020015416331461364f565b816000526001845260406000209060048201338282541603611cf857600c8301805415801590611cea575b15611cae57429055600d830194611a348654600f86015490613570565b600090601086019060118701845b611c45575b5050505050816005840154169260068101549160405163020604bf60e21b81528360048201528881602481895afa90811561173657600091611c18575b50841630148015611ba7575b15611b4b5783600e9154169101938385541690803b156101a1576000928360649260405196879586946323b872dd60e01b86526004860152602485015260448401525af1801561173657611b2b575b5090608092917f4d31a5599cdb48031c1f03259adbd513be468c5735012719a1a9850869b558b1945491541690604051928352858301526040820152426060820152a160405160018152f35b9291906001600160401b0384116103215760409390935290916080611adf565b60405162461bcd60e51b815260048101899052602e60248201527f436f6e7472616374206973206e6f7420617070726f76656420746f207472616e60448201526d39b332b9103a3432903a37b5b2b760911b6064820152608490fd5b50805460405163e985e9c560e01b815290851660048201523060248201528881604481895afa90811561173657600091611be2575b50611a90565b90508881813d8311611c11575b611bf981836131fc565b810103126101a1575180151581036101a15789611bdc565b503d611bef565b611c389150893d8b11611c3e575b611c3081836131fc565b81019061357d565b89611a84565b503d611c26565b8254841015611ca957600080808061ffff8b6064611c76611c668c8a6136ae565b949054600395861b1c168a61363c565b0491611c828b8b6133fe565b9054911b1c16828215611ca0575bf115611736578480940193611a42565b506108fc611c90565b611a47565b60405162461bcd60e51b8152600481018890526014602482015273105d58dd1a5bdb881a5cc81b9bdd08195b99195960621b6044820152606490fd5b50600b840154421015611a17565b60405162461bcd60e51b815260048101879052602360248201527f4f6e6c79207468652073656c6c65722063616e20656e6420746865206175637460448201526234b7b760e91b6064820152608490fd5b346101a15760203660031901126101a1576001600160a01b03611d6a613199565b1660005260016020526020600d60406000200154604051908152f35b346101a15760403660031901126101a1576080611da1613199565b611da96131af565b60018060a01b038092166000526003602052816040600020911660005260205260406000208181541691600182015416906003600282015491015491604051938452602084015260408301526060820152f35b346101a15760203660031901126101a1576001600160a01b0380611e1e613199565b166000526001602052604060002090808254169180826001820154169260028201611e48906132c4565b94611e55600384016132c4565b958260048501541696836005860154166006860154600787015490600888015492600989015494600a8a015496600b8b015498600c8c01549a600d8d01549c600e0154169c600f01549d604051608052610200916080515260805160200152806080516040015260805101611ec99161338c565b608051810360805160600152611ede9161338c565b9b6080516080015260805160a0015260805160c0015260805160e00152608051610100015260805161012001526080516101400152608051610160015260805161018001526080516101a001526080516101c001526080516101e001526080519003608051f35b346101a15760803660031901126101a157611f5e613199565b50611f676131af565b506064356001600160401b038082116101a157366023830112156101a15781600401359081116101a157369101602401116101a157604051630a85bd0160e11b8152602090f35b346101a1576101603660031901126101a1576004356001600160401b0381116101a157611fdf90369060040161321d565b6024356001600160401b0381116101a157611ffe90369060040161321d565b6044356001600160a01b03811690036101a1576084356001600160a01b038116036101a1576001600160401b0361012435116101a157366023610124350112156101a1576120526101243560040135613273565b61205f60405191826131fc565b61012435600401358152602081019283366024610124356004013560051b610124350101116101a15760246101243501905b6024610124356004013560051b610124350101821061308c5750506001600160401b0361014435116101a157366023610144350112156101a1576120db6101443560040135613273565b936120e960405195866131fc565b61014435600401358552602085019081366024610144356004013560051b610144350101116101a15760246101443501905b6024610144356004013560051b610144350101821061306f5750506040516331a9108f60e11b815260643560048201526020816024816044356001600160a01b03165afa90811561173657600091613050575b50336001600160a01b0390911603612fff578351865103612fa85760005b8451811015612236576001600160a01b036121a7828761359c565b5116156121f1576001906121d361ffff806121c2848c61359c565b5116151590816121d9575b506135b0565b0161218c565b606491506121e7848c61359c565b511611158a6121cd565b60405162461bcd60e51b815260206004820152601860248201527f496e76616c6964207265636569766572206164647265737300000000000000006044820152606490fd5b50859293946040513360601b60208201526001600160601b031960443560601b1660348201526064356048820152604881528060808101106001600160401b03608083011117610321576080810160405260018060a01b03906020815191012016948560005260016020526122bb60018060a01b036004604060002001541615613608565b6122c3613762565b506040516122d0816131e1565b600081526040516122e0816131e1565b60008152604051916122f1836131c5565b6000835260006020840152604051612308816131e1565b60008152604084015260405161231d816131e1565b60008152606084015260006080840152600060a0840152600060c0840152600060e08401526000610100840152600061012084015260006101408401526000610160840152600061018084015260006101a084015260006101c084015260006101e084015261020083015261022082015286600052600160205260406000209060018060a01b038151166001600160601b0360a01b8354161782556001820160018060a01b036020830151166001600160601b0360a01b82541617905560408101518051906001600160401b0382116103215781906123ff600286015461328a565b601f8111612f73575b50602090601f8311600114612f0157600092612ef6575b50508160011b916000199060031b1c19161760028301555b60608101518051906001600160401b03821161032157819061245c600386015461328a565b601f8111612ec1575b50602090601f8311600114612e4f57600092612e44575b50508160011b916000199060031b1c19161760038301555b60808101516004830180546001600160a01b039283166001600160a01b03199182161790915560a083015160058501805491841691831691909117905560c0830151600685015560e0830151600785015561010083015160088501556101208301516009850155610140830151600a850155610160830151600b850155610180830151600c8501556101a0830151600d8501556101c0830151600e850180549190931691161790556101e0810151600f8301556102008101518051906001600160401b03821161032157600160401b8211610321576020906010850154836010870155808410612e24575b500160108401600052602060002060005b838110612e07575050505061022001518051906001600160401b03821161032157600160401b8211610321576020601191828501548484870155808510612dad575b5001920160005260206000209060005b8160041c8110612d6c5750600f198116808203612d18575b5050505061261760405161260d816131e1565b6000815282613858565b612c05575b5061262c60405161260d816131e1565b612ae7575b506044356001600160a01b0316612ab6575b606435612a9c575b836000526001602052604060002060a435600782015560c435612a8f575b60e435612a82575b61010435612a74575b855191826129ef575b5050508151612894575b506128379061281e60209484600052600186526126bb3360018060a01b036004604060002001541614613608565b60008581526001875260409020600501546126e6906044356001600160a01b03908116911614613608565b846000526001865261270360643560066040600020015414613608565b846000526001865261272060a43560076040600020015414613608565b846000526001865261273d60c43560086040600020015414613608565b846000526001865261275a60e43560096040600020015414613608565b8460005260018652612775600a604060002001544214613608565b846000526001865261279361010435600b6040600020015414613608565b84600052600186526127ad600c6040600020015415613608565b84600052600186526127c7600d6040600020015415613608565b60008581526001875260409020600e01546127eb906001600160a01b031615613608565b8460005260018652612805600f6040600020015415613608565b8460005260018652601060406000200154905114613608565b8260005260018452601160406000200154905114613608565b7f4cbd4364540ca3a23c9b2864788cebf4a010674eb304d04a04578850ee34e2aa60c0604051838152338582015260018060a01b03604435166040820152606435606082015260a43560808201524260a0820152a1604051908152f35b928260005260016020526011604060002001938251906001600160401b03821161032157600160401b821161032157855482875580831061299d575b509460005260206000209060005b8160041c811061295c5750600f1981168082036128ff575b5050509261268d565b9560009660005b81840381106129295750505060041c019390935560209261281e612837866128f6565b909197602061295260019261ffff8c51169085851b60031b9161ffff809116831b921b19161790565b9901929101612906565b6000805b601081106129755750838201556001016128de565b885190989160019160209161ffff60048d901b81811b199092169216901b1792019801612960565b6129ce90876000526020600020600f80860160041c820192601e8760011b16806129d4575b500160041c0190613625565b866128d0565b600019908186019182549160200360031b1c1690558b6129c2565b6001600160401b03831161032157600160401b831161032157601090818301548483850155808510612a54575b509101600052602060002060005b838110612a375750612683565b82516001600160a01b031681830155602090920191600101612a2a565b612a6e908385016000528560206000209182019101613625565b88612a1c565b61010435600b82015561267a565b60e4356009820155612671565b60c4356008820155612669565b83600052600160205260643560066040600020015561264b565b600084815260016020526040902060050180546001600160a01b0319166044356001600160a01b0316179055612643565b8460005260016020526003604060002001908051906001600160401b038211610321578190612b16845461328a565b601f8111612bc8575b50602090601f8311600114612b5c57600092612b51575b50508160011b916000199060031b1c19161790555b85612631565b015190508880612b36565b9250836000526020600020906000935b601f1984168510612bad576001945083601f19811610612b94575b505050811b019055612b4b565b015160001960f88460031b161c19169055888080612b87565b81810151835560209485019460019093019290910190612b6c565b612bf590856000526020600020601f850160051c81019160208610612bfb575b601f0160051c0190613625565b89612b1f565b9091508190612be8565b8560005260016020526002604060002001908051906001600160401b038211610321578190612c34845461328a565b601f8111612ce6575b50602090601f8311600114612c7a57600092612c6f575b50508160011b916000199060031b1c19161790555b8661261c565b015190508980612c54565b9250836000526020600020906000935b601f1984168510612ccb576001945083601f19811610612cb2575b505050811b019055612c69565b015160001960f88460031b161c19169055898080612ca5565b81810151835560209485019460019093019290910190612c8a565b612d1290856000526020600020601f850160051c81019160208610612bfb57601f0160051c0190613625565b8a612c3d565b9260009360005b8184038110612d395750505060041c0155878080806125fa565b9091946020612d6260019261ffff8951169085851b60031b9161ffff809116831b921b19161790565b9601929101612d1f565b6000805b60108110612d855750838201556001016125e2565b855190959160019160209161ffff60048a901b81811b199092169216901b1792019501612d70565b612de090848701600052600f8460002091601e8860011b1680612de6575b500160041c810190600f870160041c01613625565b8c6125d2565b6000199081848b0160041c86010191825491890360031b1c16905538612dcb565b82516001600160a01b031681830155602090920191600101612590565b612e3e906010870160005284846000209182019101613625565b8c61257f565b015190508b8061247c565b9250600385016000526020600020906000935b601f1984168510612ea6576001945083601f19811610612e8d575b505050811b016003830155612494565b015160001960f88460031b161c191690558b8080612e7d565b81810151835560209485019460019093019290910190612e62565b612ef090600387016000526020600020601f850160051c81019160208610612bfb57601f0160051c0190613625565b8c612465565b015190508b8061241f565b9250600285016000526020600020906000935b601f1984168510612f58576001945083601f19811610612f3f575b505050811b016002830155612437565b015160001960f88460031b161c191690558b8080612f2f565b81810151835560209485019460019093019290910190612f14565b612fa290600287016000526020600020601f850160051c81019160208610612bfb57601f0160051c0190613625565b8c612408565b60405162461bcd60e51b815260206004820152602960248201527f52656365697665727320616e642070657263656e7461676573206c656e677468604482015268040dad2e6dac2e8c6d60bb1b6064820152608490fd5b60405162461bcd60e51b8152602060048201526024808201527f4f6e6c79204e4654206f776e65722063616e2063726561746520616e206175636044820152633a34b7b760e11b6064820152608490fd5b613069915060203d602011611c3e57611c3081836131fc565b8761216e565b61ffff8235168235036101a157813581526020918201910161211b565b81356001600160a01b03811690036101a1578135815260209182019101612091565b602090816003193601126101a1576130c4613199565b90341561314b57506001600160a01b031660008181526001835260409020600f0180546130f2903490613570565b905560405134815242838201527f106aac375bbcf013d1e52338bbf9e740009a1a3a6869f8daa1b72aa1620f5fec60403392a26000526004815260406000209033600052526040600020613147348254613570565b9055005b62461bcd60e51b8152600481018390526024808201527f5468652076616c75652073656e74206973206e6f7420677265617465722074686044820152630616e20360e41b6064820152608490fd5b600435906001600160a01b03821682036101a157565b602435906001600160a01b03821682036101a157565b61024081019081106001600160401b0382111761032157604052565b602081019081106001600160401b0382111761032157604052565b90601f801991011681019081106001600160401b0382111761032157604052565b81601f820112156101a1578035906001600160401b0382116103215760405192613251601f8401601f1916602001856131fc565b828452602083830101116101a157816000926020809301838601378301015290565b6001600160401b0381116103215760051b60200190565b90600182811c921680156132ba575b60208310146132a457565b634e487b7160e01b600052602260045260246000fd5b91607f1691613299565b906040519182600082546132d78161328a565b908184526020946001916001811690816000146133475750600114613308575b505050613306925003836131fc565b565b600090815285812095935091905b81831061332f57505061330693508201013880806132f7565b85548884018501529485019487945091830191613316565b9250505061330694925060ff191682840152151560051b8201013880806132f7565b60005b83811061337c5750506000910152565b818101518382015260200161336c565b906020916133a581518092818552858086019101613369565b601f01601f1916010190565b6002548110156133e85760026000527f405787fa12a823e0f2b7631cc41b3ba8828b3321ca811111fa75cd3aa3bb5ace0190600090565b634e487b7160e01b600052603260045260246000fd5b80548210156133e85760005260206000200190600090565b906102409060018060a01b03908184511681526134626134506020948486880151168685015260408701519080604086015284019061338c565b6060860151838203606085015261338c565b918060808601511660808301528060a08601511660a083015260c085015160c083015260e085015160e0830152610100808601519083015261012080860151908301526101408086015190830152610160808601519083015261018080860151908301526101a080860151908301526101c0818187015116908301526101e08086015190830152610200928386015193838203908401528480855192838152019401916000905b8282106135575750505050610220809401519381830391015281808451928381520193019160005b82811061353f575050505090565b835161ffff1685529381019392810192600101613531565b8351811686529486019492860192600190910190613509565b9190820180921161105457565b908160209103126101a157516001600160a01b03811681036101a15790565b80518210156133e85760209160051b010190565b156135b757565b60405162461bcd60e51b8152602060048201526024808201527f50657263656e74616765206d757374206265206265747765656e203120616e646044820152630203130360e41b6064820152608490fd5b1561360f57565b634e487b7160e01b600052600160045260246000fd5b818110613630575050565b60008155600101613625565b8181029291811591840414171561105457565b1561365657565b60405162461bcd60e51b815260206004820152602a60248201527f4f6e6c792061756374696f6e206f776e65722063616e20706572666f726d20746044820152693434b99030b1ba34b7b760b11b6064820152608490fd5b91909180548310156133e857600052601e60206000208360041c019260011b1690565b156136d857565b60405162461bcd60e51b815260206004820152601660248201527541756374696f6e206973206e6f74206f6e676f696e6760501b6044820152606490fd5b1561371d57565b60405162461bcd60e51b815260206004820152601960248201527f546865207265636569766572206973206e6f74206164646564000000000000006044820152606490fd5b6040519061376f826131c5565b606061022083600080825280602083015283604083015283808301528060808301528060a08301528060c08301528060e08301528061010083015280610120830152806101408301528061016083015280610180830152806101a0830152806101c08301526101e0820152826102008201520152565b156137ec57565b60405162461bcd60e51b815260206004820152602860248201527f5468652072656365697665722063616e6e6f742062652074686520617563746960448201526737b71037bbb732b960c11b6064820152608490fd5b91909161ffff8080941691160191821161105457565b90604051916020926138868482816138798183019687815193849201613369565b81010380845201826131fc565b519020916138a66040519182816138798183019687815193849201613369565b5190201490565b6000546001600160a01b031633036138c157565b60405163118cdaa760e01b8152336004820152602490fdfea26469706673582212205f5a59725469cad280b292f55e0d0517b02d2be0ff5ab6c0b83860f76795ba4464736f6c63430008180033","opcodes":"PUSH1 0x80 DUP1 PUSH1 0x40 MSTORE CALLVALUE PUSH2 0x7A JUMPI CALLER ISZERO PUSH2 0x64 JUMPI PUSH1 0x0 DUP1 SLOAD CALLER PUSH1 0x1 PUSH1 0x1 PUSH1 0xA0 SHL SUB NOT DUP3 AND DUP2 OR DUP4 SSTORE PUSH1 0x40 MLOAD SWAP3 SWAP1 SWAP2 PUSH1 0x1 PUSH1 0x1 PUSH1 0xA0 SHL SUB AND SWAP1 PUSH32 0x8BE0079C531659141344CD1FD0A4F28419497F9722A3DAAFE3B4186F6B6457E0 SWAP1 DUP1 LOG3 PUSH2 0x390F SWAP1 DUP2 PUSH2 0x80 DUP3 CODECOPY RETURN JUMPDEST PUSH4 0x1E4FBDF7 PUSH1 0xE0 SHL DUP2 MSTORE PUSH1 0x0 PUSH1 0x4 DUP3 ADD MSTORE PUSH1 0x24 SWAP1 REVERT JUMPDEST PUSH1 0x0 DUP1 REVERT INVALID PUSH1 0xA0 DUP1 PUSH1 0x40 MSTORE PUSH1 0x4 CALLDATASIZE LT ISZERO PUSH2 0x1A JUMPI JUMPDEST POP CALLDATASIZE ISZERO PUSH2 0x18 JUMPI STOP JUMPDEST STOP JUMPDEST PUSH1 0x0 CALLDATALOAD PUSH1 0xE0 SHR SWAP1 DUP2 PUSH3 0x362A95 EQ PUSH2 0x30AE JUMPI POP DUP1 PUSH4 0x6C64726 EQ PUSH2 0x1FAE JUMPI DUP1 PUSH4 0x150B7A02 EQ PUSH2 0x1F45 JUMPI DUP1 PUSH4 0x1D59410A EQ PUSH2 0x1DFC JUMPI DUP1 PUSH4 0x1F036524 EQ PUSH2 0x1D86 JUMPI DUP1 PUSH4 0x23A75049 EQ PUSH2 0x1D49 JUMPI DUP1 PUSH4 0x2872ABBC EQ PUSH2 0x19A8 JUMPI DUP1 PUSH4 0x2A6433BE EQ PUSH2 0x1966 JUMPI DUP1 PUSH4 0x3AE01466 EQ PUSH2 0x1928 JUMPI DUP1 PUSH4 0x4EDE3648 EQ PUSH2 0x17FB JUMPI DUP1 PUSH4 0x6410381C EQ PUSH2 0x165D JUMPI DUP1 PUSH4 0x694B2323 EQ PUSH2 0x15F4 JUMPI DUP1 PUSH4 0x715018A6 EQ PUSH2 0x159B JUMPI DUP1 PUSH4 0x79DEAE7B EQ PUSH2 0x1104 JUMPI DUP1 PUSH4 0x88C40D94 EQ PUSH2 0xE8B JUMPI DUP1 PUSH4 0x8DA5CB5B EQ PUSH2 0xE62 JUMPI DUP1 PUSH4 0x8F3AC946 EQ PUSH2 0xE11 JUMPI DUP1 PUSH4 0xD22CF3A4 EQ PUSH2 0xD21 JUMPI DUP1 PUSH4 0xD7C06919 EQ PUSH2 0x7CA JUMPI DUP1 PUSH4 0xD98B9BB5 EQ PUSH2 0x47B JUMPI DUP1 PUSH4 0xE4A74366 EQ PUSH2 0x1A6 JUMPI PUSH4 0xF2FDE38B EQ PUSH2 0x118 JUMPI CODESIZE PUSH2 0xF JUMP JUMPDEST CALLVALUE PUSH2 0x1A1 JUMPI PUSH1 0x20 CALLDATASIZE PUSH1 0x3 NOT ADD SLT PUSH2 0x1A1 JUMPI PUSH2 0x131 PUSH2 0x3199 JUMP JUMPDEST PUSH2 0x139 PUSH2 0x38AD JUMP JUMPDEST PUSH1 0x1 PUSH1 0x1 PUSH1 0xA0 SHL SUB SWAP1 DUP2 AND SWAP1 DUP2 ISZERO PUSH2 0x188 JUMPI PUSH1 0x0 SLOAD DUP3 PUSH1 0x1 PUSH1 0x1 PUSH1 0x60 SHL SUB PUSH1 0xA0 SHL DUP3 AND OR PUSH1 0x0 SSTORE AND PUSH32 0x8BE0079C531659141344CD1FD0A4F28419497F9722A3DAAFE3B4186F6B6457E0 PUSH1 0x0 DUP1 LOG3 STOP JUMPDEST PUSH1 0x40 MLOAD PUSH4 0x1E4FBDF7 PUSH1 0xE0 SHL DUP2 MSTORE PUSH1 0x0 PUSH1 0x4 DUP3 ADD MSTORE PUSH1 0x24 SWAP1 REVERT JUMPDEST PUSH1 0x0 DUP1 REVERT JUMPDEST CALLVALUE PUSH2 0x1A1 JUMPI PUSH1 0x60 CALLDATASIZE PUSH1 0x3 NOT ADD SLT PUSH2 0x1A1 JUMPI PUSH2 0x1BF PUSH2 0x3199 JUMP JUMPDEST PUSH2 0x1C7 PUSH2 0x31AF JUMP JUMPDEST PUSH1 0x44 SWAP2 PUSH1 0x44 CALLDATALOAD SWAP3 PUSH2 0xFFFF SWAP2 DUP3 DUP6 AND SWAP1 DUP2 DUP7 SUB PUSH2 0x1A1 JUMPI PUSH1 0x1 DUP1 PUSH1 0xA0 SHL SUB DUP1 SWAP2 AND SWAP5 DUP6 PUSH1 0x0 MSTORE PUSH1 0x1 SWAP5 PUSH1 0x20 SWAP8 PUSH1 0x1 PUSH1 0x20 MSTORE PUSH1 0x40 PUSH1 0x0 KECCAK256 SWAP7 DUP5 PUSH1 0x4 DUP10 ADD SLOAD AND SWAP10 CALLER DUP12 SUB PUSH2 0x424 JUMPI SWAP5 PUSH2 0x21C DUP2 DUP7 AND SWAP12 DUP13 EQ ISZERO PUSH2 0x37E5 JUMP JUMPDEST PUSH1 0x0 SWAP6 PUSH1 0x10 DUP11 ADD SWAP9 DUP10 SLOAD SWAP8 JUMPDEST DUP14 DUP12 DUP11 DUP4 LT PUSH2 0x3C1 JUMPI POP POP POP POP POP POP DUP6 ISZERO ISZERO DUP1 PUSH2 0x3B6 JUMPI JUMPDEST PUSH2 0x24C SWAP1 SWAP9 SWAP2 SWAP9 PUSH2 0x35B0 JUMP JUMPDEST PUSH1 0x0 SWAP1 PUSH1 0x11 PUSH1 0x0 SWAP2 ADD SWAP9 DUP10 SLOAD JUMPDEST DUP11 DUP2 DUP5 LT PUSH2 0x38B JUMPI POP POP POP POP PUSH1 0x64 SWAP3 SWAP2 PUSH2 0x272 SWAP2 PUSH2 0x3842 JUMP JUMPDEST AND GT PUSH2 0x337 JUMPI PUSH1 0x1 PUSH1 0x40 SHL SWAP4 DUP5 DUP4 LT ISZERO PUSH2 0x321 JUMPI DUP3 PUSH2 0x299 SWAP2 PUSH1 0x1 PUSH2 0x2B7 SWAP6 ADD DUP2 SSTORE PUSH2 0x33FE JUMP JUMPDEST SWAP1 SWAP2 SWAP1 PUSH1 0x1 DUP1 PUSH1 0xA0 SHL SUB DUP1 DUP5 SLOAD SWAP3 PUSH1 0x3 SHL SWAP4 AND DUP4 SHL SWAP3 SHL NOT AND OR SWAP1 SSTORE JUMP JUMPDEST DUP3 SLOAD SWAP2 DUP3 LT ISZERO PUSH2 0x321 JUMPI DUP1 PUSH2 0x311 PUSH2 0x2F8 DUP5 PUSH32 0x3C2B0A7047F708FF533690D2CF89D62667A369DE80D02A358419185B1F053BB1 SWAP7 PUSH1 0x1 PUSH1 0x40 SWAP8 ADD DUP2 SSTORE PUSH2 0x36AE JUMP JUMPDEST DUP2 SWAP4 SWAP2 SLOAD SWAP1 PUSH1 0x3 SHL SWAP2 PUSH2 0xFFFF DUP1 SWAP2 AND DUP4 SHL SWAP3 SHL NOT AND OR SWAP1 JUMP JUMPDEST SWAP1 SSTORE DUP2 MLOAD SWAP1 DUP2 MSTORE TIMESTAMP PUSH1 0x20 DUP3 ADD MSTORE LOG3 STOP JUMPDEST PUSH4 0x4E487B71 PUSH1 0xE0 SHL PUSH1 0x0 MSTORE PUSH1 0x41 PUSH1 0x4 MSTORE PUSH1 0x24 PUSH1 0x0 REVERT JUMPDEST PUSH1 0x40 MLOAD PUSH3 0x461BCD PUSH1 0xE5 SHL DUP2 MSTORE PUSH1 0x20 PUSH1 0x4 DUP3 ADD MSTORE PUSH1 0x26 PUSH1 0x24 DUP3 ADD MSTORE PUSH32 0x53756D206F662070657263656E74616765732069732067726561746572207468 PUSH1 0x44 DUP3 ADD MSTORE PUSH6 0x616E2031303 PUSH1 0xD4 SHL PUSH1 0x64 DUP3 ADD MSTORE PUSH1 0x84 SWAP1 REVERT JUMPDEST DUP4 SWAP5 DUP8 PUSH2 0x39F DUP6 SWAP7 PUSH2 0x3AD SWAP5 SWAP7 SWAP6 SWAP7 PUSH2 0x36AE JUMP JUMPDEST SWAP1 SLOAD SWAP1 PUSH1 0x3 SHL SHR AND SWAP1 PUSH2 0x3842 JUMP JUMPDEST SWAP4 ADD SWAP2 SWAP1 PUSH2 0x259 JUMP JUMPDEST POP PUSH1 0x64 DUP7 GT ISZERO PUSH2 0x240 JUMP JUMPDEST PUSH2 0x3CC DUP4 DUP8 SWAP3 PUSH2 0x33FE JUMP JUMPDEST SWAP1 SLOAD SWAP1 PUSH1 0x3 SHL SHR AND EQ PUSH2 0x3E0 JUMPI DUP5 ADD PUSH2 0x228 JUMP JUMPDEST PUSH1 0x40 MLOAD PUSH3 0x461BCD PUSH1 0xE5 SHL DUP2 MSTORE PUSH1 0x4 DUP2 ADD DUP5 SWAP1 MSTORE PUSH1 0x1D PUSH1 0x24 DUP3 ADD MSTORE PUSH32 0x54686520726563656976657220697320616C7265616479206164646564000000 DUP2 DUP5 ADD MSTORE PUSH1 0x64 SWAP1 REVERT JUMPDEST PUSH1 0x40 MLOAD PUSH3 0x461BCD PUSH1 0xE5 SHL DUP2 MSTORE PUSH1 0x20 PUSH1 0x4 DUP3 ADD MSTORE PUSH1 0x29 PUSH1 0x24 DUP3 ADD MSTORE PUSH32 0x4F6E6C79207468652061756374696F6E206F776E65722063616E206164642061 PUSH1 0x44 DUP3 ADD MSTORE PUSH9 0x103932B1B2B4BB32B9 PUSH1 0xB9 SHL PUSH1 0x64 DUP3 ADD MSTORE PUSH1 0x84 SWAP1 REVERT JUMPDEST PUSH1 0x40 CALLDATASIZE PUSH1 0x3 NOT ADD SLT PUSH2 0x1A1 JUMPI PUSH2 0x48F PUSH2 0x3199 JUMP JUMPDEST PUSH1 0x24 DUP1 CALLDATALOAD PUSH1 0x1 DUP1 PUSH1 0xA0 SHL SUB DUP1 SWAP4 AND SWAP2 DUP3 PUSH1 0x0 MSTORE PUSH1 0x20 SWAP4 PUSH1 0x1 DUP6 MSTORE PUSH2 0x4C5 PUSH1 0x40 PUSH1 0x0 KECCAK256 PUSH1 0xA DUP2 ADD SLOAD ISZERO ISZERO SWAP1 DUP2 PUSH2 0x7BC JUMPI JUMPDEST POP PUSH2 0x36D1 JUMP JUMPDEST DUP4 PUSH1 0x0 MSTORE PUSH1 0x1 DUP6 MSTORE PUSH1 0x40 PUSH1 0x0 KECCAK256 PUSH1 0xD DUP2 ADD DUP1 SLOAD DUP1 DUP7 GT ISZERO PUSH2 0x761 JUMPI PUSH1 0x7 DUP4 ADD SLOAD DUP7 LT PUSH2 0x703 JUMPI PUSH1 0x8 DUP4 ADD SLOAD PUSH2 0x4F9 SWAP2 PUSH2 0x3570 JUMP JUMPDEST DUP6 LT PUSH2 0x6A2 JUMPI PUSH1 0x9 DUP3 ADD SLOAD DUP6 GT PUSH2 0x649 JUMPI DUP5 CALLVALUE SUB PUSH2 0x5EF JUMPI DUP5 SWAP1 SSTORE PUSH1 0xE ADD DUP1 SLOAD PUSH1 0x1 PUSH1 0x1 PUSH1 0xA0 SHL SUB NOT SWAP1 DUP2 AND CALLER OR SWAP1 SWAP2 SSTORE PUSH1 0x40 MLOAD SWAP3 PUSH1 0x80 DUP5 ADD SWAP1 PUSH1 0x1 PUSH1 0x1 PUSH1 0x40 SHL SUB DUP3 GT DUP6 DUP4 LT OR PUSH2 0x5DB JUMPI POP SWAP1 PUSH1 0x3 SWAP3 SWAP2 PUSH1 0x40 MSTORE CALLER DUP5 MSTORE DUP7 DUP5 ADD DUP7 DUP2 MSTORE PUSH1 0x40 DUP6 ADD SWAP2 DUP7 DUP4 MSTORE PUSH1 0x60 DUP7 ADD SWAP4 TIMESTAMP DUP6 MSTORE DUP9 PUSH1 0x0 MSTORE DUP6 DUP11 MSTORE PUSH1 0x40 PUSH1 0x0 KECCAK256 CALLER PUSH1 0x0 MSTORE DUP11 MSTORE DUP1 PUSH1 0x40 PUSH1 0x0 KECCAK256 SWAP8 MLOAD AND DUP3 DUP9 SLOAD AND OR DUP8 SSTORE PUSH1 0x1 DUP8 ADD SWAP3 MLOAD AND SWAP1 DUP3 SLOAD AND OR SWAP1 SSTORE MLOAD PUSH1 0x2 DUP5 ADD SSTORE MLOAD SWAP2 ADD SSTORE PUSH1 0x40 MLOAD SWAP1 DUP2 MSTORE TIMESTAMP DUP4 DUP3 ADD MSTORE PUSH32 0xDD49BBB40D47A514DDDCD458E9718364143BC24A0CCA58439EE6F4F45E4CE10D PUSH1 0x40 CALLER SWAP3 LOG3 PUSH1 0x40 MLOAD PUSH1 0x1 DUP2 MSTORE RETURN JUMPDEST PUSH4 0x4E487B71 PUSH1 0xE0 SHL PUSH1 0x0 SWAP1 DUP2 MSTORE PUSH1 0x41 PUSH1 0x4 MSTORE REVERT JUMPDEST PUSH1 0x40 MLOAD PUSH3 0x461BCD PUSH1 0xE5 SHL DUP2 MSTORE PUSH1 0x4 DUP2 ADD DUP9 SWAP1 MSTORE PUSH1 0x2D DUP2 DUP7 ADD MSTORE PUSH32 0x5468652076616C75652073656E74206973206E6F7420657175616C20746F2074 PUSH1 0x44 DUP3 ADD MSTORE PUSH13 0x1A1948189A5908185B5BDD5B9D PUSH1 0x9A SHL PUSH1 0x64 DUP3 ADD MSTORE PUSH1 0x84 SWAP1 REVERT JUMPDEST PUSH1 0x40 MLOAD PUSH3 0x461BCD PUSH1 0xE5 SHL DUP2 MSTORE PUSH1 0x4 DUP2 ADD DUP9 SWAP1 MSTORE PUSH1 0x2C DUP2 DUP7 ADD MSTORE PUSH32 0x42696420616D6F756E74206973206E6F74206C657373207468616E2074686520 PUSH1 0x44 DUP3 ADD MSTORE PUSH12 0x656E64696E67207072696365 PUSH1 0xA0 SHL PUSH1 0x64 DUP3 ADD MSTORE PUSH1 0x84 SWAP1 REVERT JUMPDEST PUSH1 0x40 MLOAD PUSH3 0x461BCD PUSH1 0xE5 SHL DUP2 MSTORE PUSH1 0x4 DUP2 ADD DUP9 SWAP1 MSTORE PUSH1 0x34 DUP2 DUP7 ADD MSTORE PUSH32 0x42696420616D6F756E74206973206E6F742067726561746572207468616E2074 PUSH1 0x44 DUP3 ADD MSTORE PUSH20 0x1A19481B5A5B88189A59081A5B98DC995B595B9D PUSH1 0x62 SHL PUSH1 0x64 DUP3 ADD MSTORE PUSH1 0x84 SWAP1 REVERT JUMPDEST PUSH1 0x40 MLOAD PUSH3 0x461BCD PUSH1 0xE5 SHL DUP2 MSTORE PUSH1 0x4 DUP2 ADD DUP10 SWAP1 MSTORE PUSH1 0x31 DUP2 DUP8 ADD MSTORE PUSH32 0x42696420616D6F756E74206973206E6F742067726561746572207468616E2074 PUSH1 0x44 DUP3 ADD MSTORE PUSH17 0x6865207374617274696E67207072696365 PUSH1 0x78 SHL PUSH1 0x64 DUP3 ADD MSTORE PUSH1 0x84 SWAP1 REVERT JUMPDEST PUSH1 0x40 MLOAD PUSH3 0x461BCD PUSH1 0xE5 SHL DUP2 MSTORE PUSH1 0x4 DUP2 ADD DUP10 SWAP1 MSTORE PUSH1 0x2E DUP2 DUP8 ADD MSTORE PUSH32 0x42696420616D6F756E74206973206E6F742067726561746572207468616E2074 PUSH1 0x44 DUP3 ADD MSTORE PUSH14 0x1A19481A1A59DA195CDD08189A59 PUSH1 0x92 SHL PUSH1 0x64 DUP3 ADD MSTORE PUSH1 0x84 SWAP1 REVERT JUMPDEST PUSH1 0xB SWAP2 POP ADD SLOAD TIMESTAMP LT DUP8 PUSH2 0x4BF JUMP JUMPDEST CALLVALUE PUSH2 0x1A1 JUMPI PUSH1 0x0 CALLDATASIZE PUSH1 0x3 NOT ADD SLT PUSH2 0x1A1 JUMPI PUSH1 0x2 SLOAD PUSH2 0x7E7 DUP2 PUSH2 0x3273 JUMP JUMPDEST SWAP1 PUSH2 0x7F5 PUSH1 0x40 MLOAD SWAP3 DUP4 PUSH2 0x31FC JUMP JUMPDEST DUP1 DUP3 MSTORE PUSH2 0x801 DUP2 PUSH2 0x3273 JUMP JUMPDEST PUSH1 0x1F NOT ADD PUSH1 0x0 JUMPDEST DUP2 DUP2 LT PUSH2 0xD0A JUMPI POP POP PUSH1 0x0 JUMPDEST DUP2 DUP2 LT PUSH2 0x883 JUMPI DUP3 PUSH1 0x40 MLOAD DUP1 SWAP2 PUSH1 0x20 DUP3 ADD PUSH1 0x20 DUP4 MSTORE DUP2 MLOAD DUP1 SWAP2 MSTORE PUSH1 0x40 DUP4 ADD SWAP1 PUSH1 0x20 PUSH1 0x40 DUP3 PUSH1 0x5 SHL DUP7 ADD ADD SWAP4 ADD SWAP2 PUSH1 0x0 SWAP1 JUMPDEST DUP3 DUP3 LT PUSH2 0x854 JUMPI POP POP POP POP SUB SWAP1 RETURN JUMPDEST SWAP2 SWAP4 PUSH1 0x1 SWAP2 SWAP4 SWAP6 POP PUSH1 0x20 PUSH2 0x873 DUP2 SWAP3 PUSH1 0x3F NOT DUP11 DUP3 SUB ADD DUP7 MSTORE DUP9 MLOAD PUSH2 0x3416 JUMP JUMPDEST SWAP7 ADD SWAP3 ADD SWAP3 ADD DUP6 SWAP5 SWAP4 SWAP2 SWAP3 PUSH2 0x845 JUMP JUMPDEST PUSH2 0x88C DUP2 PUSH2 0x33B1 JUMP JUMPDEST SWAP1 SLOAD PUSH1 0x3 SWAP2 DUP3 SHL SHR PUSH1 0x1 PUSH1 0x1 PUSH1 0xA0 SHL SUB AND PUSH1 0x0 SWAP1 DUP2 MSTORE PUSH1 0x1 PUSH1 0x20 MSTORE PUSH1 0x40 SWAP1 DUP2 SWAP1 KECCAK256 SWAP1 MLOAD SWAP1 SWAP3 SWAP2 PUSH2 0x8F1 SWAP1 PUSH2 0x8BF DUP4 PUSH2 0x31C5 JUMP JUMPDEST DUP5 SLOAD PUSH1 0x1 PUSH1 0x1 PUSH1 0xA0 SHL SUB SWAP1 DUP2 AND DUP5 MSTORE PUSH1 0x1 DUP7 ADD SLOAD AND PUSH1 0x20 DUP5 ADD MSTORE PUSH2 0x8E5 PUSH1 0x2 DUP7 ADD PUSH2 0x32C4 JUMP JUMPDEST PUSH1 0x40 DUP5 ADD MSTORE DUP5 ADD PUSH2 0x32C4 JUMP JUMPDEST PUSH1 0x60 DUP3 ADD MSTORE PUSH1 0x4 DUP4 ADD SLOAD PUSH1 0x1 PUSH1 0x1 PUSH1 0xA0 SHL SUB SWAP1 DUP2 AND PUSH1 0x80 DUP4 ADD MSTORE PUSH1 0x5 DUP5 ADD SLOAD DUP2 AND PUSH1 0xA0 DUP4 ADD MSTORE PUSH1 0x6 DUP5 ADD SLOAD PUSH1 0xC0 DUP4 ADD MSTORE PUSH1 0x7 DUP5 ADD SLOAD PUSH1 0xE0 DUP4 ADD MSTORE PUSH1 0x8 DUP5 ADD SLOAD PUSH2 0x100 DUP4 ADD MSTORE PUSH1 0x9 DUP5 ADD SLOAD PUSH2 0x120 DUP4 ADD MSTORE PUSH1 0xA DUP5 ADD SLOAD PUSH2 0x140 DUP4 ADD MSTORE PUSH1 0xB DUP5 ADD SLOAD PUSH2 0x160 DUP4 ADD MSTORE PUSH1 0xC DUP5 ADD SLOAD PUSH2 0x180 DUP4 ADD MSTORE PUSH1 0xD DUP5 ADD SLOAD PUSH2 0x1A0 DUP4 ADD MSTORE PUSH1 0xE DUP5 ADD SLOAD AND PUSH2 0x1C0 DUP3 ADD MSTORE PUSH1 0xF DUP4 ADD SLOAD PUSH2 0x1E0 DUP3 ADD MSTORE PUSH1 0x40 MLOAD PUSH1 0x10 DUP5 ADD DUP1 SLOAD DUP1 DUP4 MSTORE PUSH1 0x0 SWAP2 DUP3 MSTORE PUSH1 0x20 DUP1 DUP4 KECCAK256 SWAP1 DUP5 ADD SWAP3 SWAP1 SWAP2 JUMPDEST DUP1 DUP3 LT PUSH2 0xCE8 JUMPI POP POP POP DUP2 PUSH2 0x9B7 SWAP2 SUB DUP3 PUSH2 0x31FC JUMP JUMPDEST PUSH2 0x200 DUP3 ADD MSTORE PUSH1 0x40 MLOAD DUP1 PUSH1 0x11 PUSH1 0x20 DUP2 DUP8 ADD SLOAD SWAP3 DUP4 DUP2 MSTORE ADD SWAP6 ADD PUSH1 0x0 MSTORE PUSH1 0x20 PUSH1 0x0 KECCAK256 SWAP1 PUSH1 0x0 SWAP2 JUMPDEST DUP2 PUSH1 0xF DUP5 ADD LT PUSH2 0xBFE JUMPI SWAP6 PUSH2 0xA79 SWAP3 DUP5 SWAP3 PUSH1 0x1 SWAP9 SLOAD SWAP2 DUP2 DUP2 LT PUSH2 0xBEA JUMPI JUMPDEST DUP2 DUP2 LT PUSH2 0xBD3 JUMPI JUMPDEST DUP2 DUP2 LT PUSH2 0xBBD JUMPI JUMPDEST DUP2 DUP2 LT PUSH2 0xBA6 JUMPI JUMPDEST DUP2 DUP2 LT PUSH2 0xB8F JUMPI JUMPDEST DUP2 DUP2 LT PUSH2 0xB78 JUMPI JUMPDEST DUP2 DUP2 LT PUSH2 0xB61 JUMPI JUMPDEST DUP2 DUP2 LT PUSH2 0xB4A JUMPI JUMPDEST DUP2 DUP2 LT PUSH2 0xB33 JUMPI JUMPDEST DUP2 DUP2 LT PUSH2 0xB1C JUMPI JUMPDEST DUP2 DUP2 LT PUSH2 0xB05 JUMPI JUMPDEST DUP2 DUP2 LT PUSH2 0xAEE JUMPI JUMPDEST DUP2 DUP2 LT PUSH2 0xAD7 JUMPI JUMPDEST DUP2 DUP2 LT PUSH2 0xAC0 JUMPI JUMPDEST DUP2 DUP2 LT PUSH2 0xAA9 JUMPI JUMPDEST LT PUSH2 0xA9B JUMPI JUMPDEST POP SUB DUP3 PUSH2 0x31FC JUMP JUMPDEST PUSH2 0x220 DUP3 ADD MSTORE PUSH2 0xA89 DUP3 DUP7 PUSH2 0x359C JUMP JUMPDEST MSTORE PUSH2 0xA94 DUP2 DUP6 PUSH2 0x359C JUMP JUMPDEST POP ADD PUSH2 0x814 JUMP JUMPDEST PUSH1 0xF0 SHR DUP2 MSTORE PUSH1 0x20 ADD DUP10 PUSH2 0xA71 JUMP JUMPDEST SWAP3 PUSH1 0x20 DUP11 SWAP2 PUSH2 0xFFFF DUP6 PUSH1 0xE0 SHR AND DUP2 MSTORE ADD SWAP4 ADD PUSH2 0xA6B JUMP JUMPDEST SWAP3 PUSH1 0x20 DUP11 SWAP2 PUSH2 0xFFFF DUP6 PUSH1 0xD0 SHR AND DUP2 MSTORE ADD SWAP4 ADD PUSH2 0xA63 JUMP JUMPDEST SWAP3 PUSH1 0x20 DUP11 SWAP2 PUSH2 0xFFFF DUP6 PUSH1 0xC0 SHR AND DUP2 MSTORE ADD SWAP4 ADD PUSH2 0xA5B JUMP JUMPDEST SWAP3 PUSH1 0x20 DUP11 SWAP2 PUSH2 0xFFFF DUP6 PUSH1 0xB0 SHR AND DUP2 MSTORE ADD SWAP4 ADD PUSH2 0xA53 JUMP JUMPDEST SWAP3 PUSH1 0x20 DUP11 SWAP2 PUSH2 0xFFFF DUP6 PUSH1 0xA0 SHR AND DUP2 MSTORE ADD SWAP4 ADD PUSH2 0xA4B JUMP JUMPDEST SWAP3 PUSH1 0x20 DUP11 SWAP2 PUSH2 0xFFFF DUP6 PUSH1 0x90 SHR AND DUP2 MSTORE ADD SWAP4 ADD PUSH2 0xA43 JUMP JUMPDEST SWAP3 PUSH1 0x20 DUP11 SWAP2 PUSH2 0xFFFF DUP6 PUSH1 0x80 SHR AND DUP2 MSTORE ADD SWAP4 ADD PUSH2 0xA3B JUMP JUMPDEST SWAP3 PUSH1 0x20 DUP11 SWAP2 PUSH2 0xFFFF DUP6 PUSH1 0x70 SHR AND DUP2 MSTORE ADD SWAP4 ADD PUSH2 0xA33 JUMP JUMPDEST SWAP3 PUSH1 0x20 DUP11 SWAP2 PUSH2 0xFFFF DUP6 PUSH1 0x60 SHR AND DUP2 MSTORE ADD SWAP4 ADD PUSH2 0xA2B JUMP JUMPDEST SWAP3 PUSH1 0x20 DUP11 SWAP2 PUSH2 0xFFFF DUP6 PUSH1 0x50 SHR AND DUP2 MSTORE ADD SWAP4 ADD PUSH2 0xA23 JUMP JUMPDEST SWAP3 PUSH1 0x20 DUP11 SWAP2 PUSH2 0xFFFF DUP6 PUSH1 0x40 SHR AND DUP2 MSTORE ADD SWAP4 ADD PUSH2 0xA1B JUMP JUMPDEST SWAP3 PUSH1 0x20 DUP11 SWAP2 PUSH2 0xFFFF DUP6 PUSH1 0x30 SHR AND DUP2 MSTORE ADD SWAP4 ADD PUSH2 0xA13 JUMP JUMPDEST SWAP3 PUSH1 0x20 DUP11 SWAP2 PUSH2 0xFFFF DUP6 DUP4 SHR AND DUP2 MSTORE ADD SWAP4 ADD PUSH2 0xA0B JUMP JUMPDEST SWAP3 PUSH1 0x20 DUP11 SWAP2 PUSH2 0xFFFF DUP6 PUSH1 0x10 SHR AND DUP2 MSTORE ADD SWAP4 ADD PUSH2 0xA03 JUMP JUMPDEST SWAP3 PUSH1 0x20 DUP11 SWAP2 PUSH2 0xFFFF DUP6 AND DUP2 MSTORE ADD SWAP4 ADD PUSH2 0x9FB JUMP JUMPDEST SWAP3 SWAP4 SWAP5 SWAP6 PUSH1 0x1 PUSH2 0x200 PUSH1 0x10 SWAP3 DUP7 SLOAD PUSH2 0xFFFF DUP2 AND DUP3 MSTORE PUSH2 0xFFFF DUP2 DUP7 SHR AND PUSH1 0x20 DUP4 ADD MSTORE PUSH2 0xFFFF DUP2 PUSH1 0x20 SHR AND PUSH1 0x40 DUP4 ADD MSTORE PUSH2 0xFFFF DUP2 PUSH1 0x30 SHR AND PUSH1 0x60 DUP4 ADD MSTORE PUSH2 0xFFFF DUP2 PUSH1 0x40 SHR AND PUSH1 0x80 DUP4 ADD MSTORE PUSH2 0xFFFF DUP2 PUSH1 0x50 SHR AND PUSH1 0xA0 DUP4 ADD MSTORE PUSH2 0xFFFF DUP2 PUSH1 0x60 SHR AND PUSH1 0xC0 DUP4 ADD MSTORE PUSH2 0xFFFF DUP2 PUSH1 0x70 SHR AND PUSH1 0xE0 DUP4 ADD MSTORE PUSH2 0xFFFF DUP2 PUSH1 0x80 SHR AND PUSH2 0x100 DUP4 ADD MSTORE PUSH2 0xFFFF DUP2 PUSH1 0x90 SHR AND PUSH2 0x120 DUP4 ADD MSTORE PUSH2 0xFFFF DUP2 PUSH1 0xA0 SHR AND PUSH2 0x140 DUP4 ADD MSTORE PUSH2 0xFFFF DUP2 PUSH1 0xB0 SHR AND PUSH2 0x160 DUP4 ADD MSTORE PUSH2 0xFFFF DUP2 PUSH1 0xC0 SHR AND PUSH2 0x180 DUP4 ADD MSTORE PUSH2 0xFFFF DUP2 PUSH1 0xD0 SHR AND PUSH2 0x1A0 DUP4 ADD MSTORE PUSH2 0xFFFF DUP2 PUSH1 0xE0 SHR AND PUSH2 0x1C0 DUP4 ADD MSTORE PUSH1 0xF0 SHR PUSH2 0x1E0 DUP3 ADD MSTORE ADD SWAP5 ADD SWAP3 ADD SWAP2 SWAP6 SWAP5 SWAP4 SWAP3 SWAP6 PUSH2 0x9DD JUMP JUMPDEST DUP3 SLOAD PUSH1 0x1 PUSH1 0x1 PUSH1 0xA0 SHL SUB AND DUP5 MSTORE PUSH1 0x20 SWAP1 SWAP4 ADD SWAP3 PUSH1 0x1 SWAP3 DUP4 ADD SWAP3 SWAP1 SWAP2 ADD SWAP1 PUSH2 0x9A1 JUMP JUMPDEST PUSH1 0x20 SWAP1 PUSH2 0xD15 PUSH2 0x3762 JUMP JUMPDEST DUP3 DUP3 DUP8 ADD ADD MSTORE ADD PUSH2 0x808 JUMP JUMPDEST CALLVALUE PUSH2 0x1A1 JUMPI PUSH1 0x20 DUP1 PUSH1 0x3 NOT CALLDATASIZE ADD SLT PUSH2 0x1A1 JUMPI PUSH1 0x1 PUSH1 0x1 PUSH1 0xA0 SHL SUB DUP1 PUSH2 0xD44 PUSH2 0x3199 JUMP JUMPDEST AND SWAP1 DUP2 PUSH1 0x0 MSTORE PUSH1 0x1 DUP4 MSTORE PUSH2 0xD63 DUP2 PUSH1 0x4 PUSH1 0x40 PUSH1 0x0 KECCAK256 ADD SLOAD AND CALLER EQ PUSH2 0x364F JUMP JUMPDEST DUP2 PUSH1 0x0 MSTORE PUSH1 0x1 DUP4 MSTORE PUSH1 0x40 PUSH1 0x0 KECCAK256 SWAP1 CALLER SWAP1 PUSH1 0x4 DUP4 ADD SLOAD AND SUB PUSH2 0xDBD JUMPI PUSH32 0x18B64B6242D32AA550E95D78985B938D71AF5B3F10827B0683F55DA16393048 SWAP2 PUSH1 0x40 SWAP2 PUSH1 0xC TIMESTAMP SWAP2 ADD SSTORE DUP2 MLOAD SWAP1 DUP2 MSTORE TIMESTAMP DUP5 DUP3 ADD MSTORE LOG1 PUSH1 0x40 MLOAD PUSH1 0x1 DUP2 MSTORE RETURN JUMPDEST PUSH1 0x40 MLOAD PUSH3 0x461BCD PUSH1 0xE5 SHL DUP2 MSTORE PUSH1 0x4 DUP2 ADD DUP5 SWAP1 MSTORE PUSH1 0x26 PUSH1 0x24 DUP3 ADD MSTORE PUSH32 0x4F6E6C79207468652073656C6C65722063616E2063616E63656C207468652061 PUSH1 0x44 DUP3 ADD MSTORE PUSH6 0x3AB1BA34B7B7 PUSH1 0xD1 SHL PUSH1 0x64 DUP3 ADD MSTORE PUSH1 0x84 SWAP1 REVERT JUMPDEST CALLVALUE PUSH2 0x1A1 JUMPI PUSH1 0x40 CALLDATASIZE PUSH1 0x3 NOT ADD SLT PUSH2 0x1A1 JUMPI PUSH2 0xE2A PUSH2 0x3199 JUMP JUMPDEST PUSH2 0xE32 PUSH2 0x31AF JUMP JUMPDEST SWAP1 PUSH1 0x1 DUP1 PUSH1 0xA0 SHL SUB DUP1 SWAP2 AND PUSH1 0x0 MSTORE PUSH1 0x4 PUSH1 0x20 MSTORE PUSH1 0x40 PUSH1 0x0 KECCAK256 SWAP2 AND PUSH1 0x0 MSTORE PUSH1 0x20 MSTORE PUSH1 0x20 PUSH1 0x40 PUSH1 0x0 KECCAK256 SLOAD PUSH1 0x40 MLOAD SWAP1 DUP2 MSTORE RETURN JUMPDEST CALLVALUE PUSH2 0x1A1 JUMPI PUSH1 0x0 CALLDATASIZE PUSH1 0x3 NOT ADD SLT PUSH2 0x1A1 JUMPI PUSH1 0x0 SLOAD PUSH1 0x40 MLOAD PUSH1 0x1 PUSH1 0x1 PUSH1 0xA0 SHL SUB SWAP1 SWAP2 AND DUP2 MSTORE PUSH1 0x20 SWAP1 RETURN JUMPDEST CALLVALUE PUSH2 0x1A1 JUMPI PUSH1 0x40 CALLDATASIZE PUSH1 0x3 NOT ADD SLT PUSH2 0x1A1 JUMPI PUSH2 0xEA4 PUSH2 0x3199 JUMP JUMPDEST PUSH2 0xEAC PUSH2 0x31AF JUMP JUMPDEST PUSH1 0x1 DUP1 PUSH1 0xA0 SHL SUB DUP1 SWAP3 AND DUP1 PUSH1 0x0 MSTORE PUSH1 0x1 DUP1 PUSH1 0x20 MSTORE PUSH1 0x40 PUSH1 0x0 KECCAK256 SWAP4 DUP1 PUSH1 0x4 DUP7 ADD SLOAD AND SWAP4 CALLER DUP6 SUB PUSH2 0x10AA JUMPI SWAP1 PUSH2 0xEE7 DUP2 DUP8 SWAP5 SWAP4 AND SWAP6 DUP7 EQ ISZERO PUSH2 0x37E5 JUMP JUMPDEST PUSH1 0x0 SWAP3 PUSH1 0x0 SWAP4 PUSH1 0x10 DUP3 ADD SWAP5 DUP6 SLOAD SWAP1 JUMPDEST DUP2 DUP2 LT PUSH2 0x1070 JUMPI JUMPDEST POP POP PUSH2 0xF09 SWAP1 PUSH2 0x3716 JUMP JUMPDEST PUSH1 0x0 DUP4 JUMPDEST PUSH2 0xF40 JUMPI JUMPDEST DUP7 DUP7 PUSH32 0x881201A365CFA7A30D2763840B70E4BB9C3B6417202491504FB1237B08A8C10F PUSH1 0x20 PUSH1 0x40 MLOAD TIMESTAMP DUP2 MSTORE LOG3 STOP JUMPDEST DUP5 SLOAD DUP1 DUP3 LT ISZERO PUSH2 0x106A JUMPI DUP4 SWAP1 DUP9 PUSH2 0xF57 DUP5 DUP10 PUSH2 0x33FE JUMP JUMPDEST SWAP4 SWAP1 SLOAD PUSH1 0x3 SWAP5 DUP6 SHL SHR AND EQ PUSH2 0xF70 JUMPI POP POP DUP4 ADD DUP4 PUSH2 0xF0D JUMP JUMPDEST SWAP4 SWAP2 SWAP3 SWAP5 POP SWAP5 PUSH1 0x0 NOT SWAP4 DUP5 DUP2 ADD SWAP1 DUP2 GT PUSH2 0x1054 JUMPI DUP3 PUSH2 0xF92 PUSH2 0xFA3 SWAP3 DUP5 PUSH2 0x33FE JUMP JUMPDEST SWAP1 SLOAD SWAP1 DUP10 SHL SHR AND PUSH2 0x299 DUP6 DUP5 PUSH2 0x33FE JUMP JUMPDEST DUP1 SLOAD DUP1 ISZERO PUSH2 0x102A JUMPI DUP5 ADD SWAP2 PUSH2 0xFB8 DUP4 DUP4 PUSH2 0x33FE JUMP JUMPDEST SWAP1 SWAP2 DUP3 SLOAD SWAP2 DUP10 SHL SHL NOT AND SWAP1 SSTORE SSTORE PUSH1 0x11 DUP1 SWAP4 ADD SWAP3 DUP4 SLOAD SWAP1 DUP4 DUP3 ADD SWAP2 DUP3 GT PUSH2 0x1040 JUMPI POP SWAP1 PUSH2 0xFFE PUSH2 0xFEB PUSH2 0x2F8 SWAP5 SWAP4 DUP7 PUSH2 0x36AE JUMP JUMPDEST SWAP1 SLOAD PUSH2 0xFFFF SWAP6 SWAP2 DUP9 SHL SHR DUP6 AND SWAP3 DUP7 PUSH2 0x36AE JUMP JUMPDEST SWAP1 SSTORE DUP3 SLOAD DUP1 ISZERO PUSH2 0x102A JUMPI ADD SWAP3 PUSH2 0x1014 DUP5 DUP5 PUSH2 0x36AE JUMP JUMPDEST DUP2 SWAP4 SWAP2 SLOAD SWAP3 SHL SHL NOT AND SWAP1 SSTORE SSTORE DUP3 DUP1 DUP1 DUP1 DUP1 PUSH2 0xF12 JUMP JUMPDEST PUSH4 0x4E487B71 PUSH1 0xE0 SHL PUSH1 0x0 MSTORE PUSH1 0x31 PUSH1 0x4 MSTORE PUSH1 0x24 PUSH1 0x0 REVERT JUMPDEST PUSH4 0x4E487B71 PUSH1 0xE0 SHL PUSH1 0x0 MSTORE PUSH1 0x4 MSTORE PUSH1 0x24 PUSH1 0x0 REVERT JUMPDEST PUSH4 0x4E487B71 PUSH1 0xE0 SHL PUSH1 0x0 MSTORE PUSH1 0x11 PUSH1 0x4 MSTORE PUSH1 0x24 PUSH1 0x0 REVERT JUMPDEST POP PUSH2 0xF12 JUMP JUMPDEST DUP9 DUP6 PUSH2 0x1080 DUP4 DUP11 SWAP7 SWAP13 SWAP12 SWAP11 PUSH2 0x33FE JUMP JUMPDEST SWAP1 SLOAD SWAP1 PUSH1 0x3 SHL SHR AND EQ PUSH2 0x1099 JUMPI DUP6 ADD SWAP8 SWAP2 SWAP6 SWAP7 SWAP8 PUSH2 0xEF6 JUMP JUMPDEST POP SWAP6 SWAP7 POP SWAP4 SWAP5 POP DUP3 PUSH2 0xF09 DUP2 PUSH2 0xEFE JUMP JUMPDEST PUSH1 0x40 MLOAD PUSH3 0x461BCD PUSH1 0xE5 SHL DUP2 MSTORE PUSH1 0x20 PUSH1 0x4 DUP3 ADD MSTORE PUSH1 0x2C PUSH1 0x24 DUP3 ADD MSTORE PUSH32 0x4F6E6C79207468652061756374696F6E206F776E65722063616E2072656D6F76 PUSH1 0x44 DUP3 ADD MSTORE PUSH12 0x329030903932B1B2B4BB32B9 PUSH1 0xA1 SHL PUSH1 0x64 DUP3 ADD MSTORE PUSH1 0x84 SWAP1 REVERT JUMPDEST CALLVALUE PUSH2 0x1A1 JUMPI PUSH1 0x20 CALLDATASIZE PUSH1 0x3 NOT ADD SLT PUSH2 0x1A1 JUMPI PUSH2 0x111D PUSH2 0x3199 JUMP JUMPDEST PUSH2 0x1125 PUSH2 0x3762 JUMP JUMPDEST POP PUSH1 0x1 DUP1 PUSH1 0xA0 SHL SUB AND PUSH1 0x0 MSTORE PUSH1 0x1 PUSH1 0x20 MSTORE PUSH1 0x40 PUSH1 0x0 KECCAK256 PUSH1 0x40 MLOAD PUSH2 0x1147 DUP2 PUSH2 0x31C5 JUMP JUMPDEST DUP2 SLOAD PUSH1 0x1 PUSH1 0x1 PUSH1 0xA0 SHL SUB SWAP1 DUP2 AND DUP3 MSTORE PUSH1 0x1 DUP4 ADD SLOAD AND PUSH1 0x20 DUP3 ADD MSTORE PUSH2 0x116D PUSH1 0x2 DUP4 ADD PUSH2 0x32C4 JUMP JUMPDEST PUSH1 0x40 DUP3 ADD MSTORE PUSH2 0x117E PUSH1 0x3 DUP4 ADD PUSH2 0x32C4 JUMP JUMPDEST PUSH1 0x60 DUP3 ADD MSTORE PUSH1 0x4 DUP3 ADD SLOAD PUSH1 0x1 PUSH1 0x1 PUSH1 0xA0 SHL SUB SWAP1 DUP2 AND PUSH1 0x80 DUP4 ADD MSTORE PUSH1 0x5 DUP4 ADD SLOAD DUP2 AND PUSH1 0xA0 DUP4 ADD MSTORE PUSH1 0x6 DUP4 ADD SLOAD PUSH1 0xC0 DUP4 ADD MSTORE PUSH1 0x7 DUP4 ADD SLOAD PUSH1 0xE0 DUP4 ADD MSTORE PUSH1 0x8 DUP4 ADD SLOAD PUSH2 0x100 DUP4 ADD MSTORE PUSH1 0x9 DUP4 ADD SLOAD PUSH2 0x120 DUP4 ADD MSTORE PUSH1 0xA DUP4 ADD SLOAD PUSH2 0x140 DUP4 ADD MSTORE PUSH1 0xB DUP4 ADD SLOAD PUSH2 0x160 DUP4 ADD MSTORE PUSH1 0xC DUP4 ADD SLOAD PUSH2 0x180 DUP4 ADD MSTORE PUSH1 0xD DUP4 ADD SLOAD PUSH2 0x1A0 DUP4 ADD MSTORE PUSH1 0xE DUP4 ADD SLOAD AND PUSH2 0x1C0 DUP3 ADD MSTORE PUSH1 0xF DUP3 ADD SLOAD PUSH2 0x1E0 DUP3 ADD MSTORE PUSH1 0x40 MLOAD PUSH1 0x10 DUP4 ADD DUP1 SLOAD DUP1 DUP4 MSTORE PUSH1 0x0 SWAP2 DUP3 MSTORE PUSH1 0x20 DUP1 DUP4 KECCAK256 SWAP3 DUP5 SWAP3 SWAP2 DUP4 ADD SWAP2 SWAP1 JUMPDEST DUP2 DUP2 LT PUSH2 0x1579 JUMPI POP POP PUSH2 0x1245 SWAP3 POP SUB DUP3 PUSH2 0x31FC JUMP JUMPDEST PUSH2 0x200 DUP3 ADD MSTORE PUSH1 0x40 MLOAD DUP1 PUSH1 0x11 PUSH1 0x20 DUP2 DUP7 ADD SLOAD SWAP3 DUP4 DUP2 MSTORE ADD SWAP5 ADD PUSH1 0x0 MSTORE PUSH1 0x20 PUSH1 0x0 KECCAK256 SWAP1 PUSH1 0x0 SWAP2 JUMPDEST DUP2 PUSH1 0xF DUP5 ADD LT PUSH2 0x1497 JUMPI SWAP5 PUSH2 0x1307 SWAP3 DUP5 SWAP3 PUSH2 0x1321 SWAP8 SLOAD SWAP2 DUP2 DUP2 LT PUSH2 0x1482 JUMPI JUMPDEST DUP2 DUP2 LT PUSH2 0x146A JUMPI JUMPDEST DUP2 DUP2 LT PUSH2 0x1453 JUMPI JUMPDEST DUP2 DUP2 LT PUSH2 0x143B JUMPI JUMPDEST DUP2 DUP2 LT PUSH2 0x1423 JUMPI JUMPDEST DUP2 DUP2 LT PUSH2 0x140B JUMPI JUMPDEST DUP2 DUP2 LT PUSH2 0x13F3 JUMPI JUMPDEST DUP2 DUP2 LT PUSH2 0x13DB JUMPI JUMPDEST DUP2 DUP2 LT PUSH2 0x13C3 JUMPI JUMPDEST DUP2 DUP2 LT PUSH2 0x13AB JUMPI JUMPDEST DUP2 DUP2 LT PUSH2 0x1393 JUMPI JUMPDEST DUP2 DUP2 LT PUSH2 0x137B JUMPI JUMPDEST DUP2 DUP2 LT PUSH2 0x1363 JUMPI JUMPDEST DUP2 DUP2 LT PUSH2 0x134B JUMPI JUMPDEST DUP2 DUP2 LT PUSH2 0x1333 JUMPI JUMPDEST LT PUSH2 0x1325 JUMPI POP SUB DUP3 PUSH2 0x31FC JUMP JUMPDEST PUSH2 0x220 DUP3 ADD MSTORE PUSH1 0x40 MLOAD SWAP2 DUP3 SWAP2 PUSH1 0x20 DUP4 MSTORE PUSH1 0x20 DUP4 ADD SWAP1 PUSH2 0x3416 JUMP JUMPDEST SUB SWAP1 RETURN JUMPDEST PUSH1 0xF0 SHR DUP2 MSTORE PUSH1 0x20 ADD DUP7 PUSH2 0xA71 JUMP JUMPDEST SWAP3 PUSH1 0x20 PUSH1 0x1 SWAP2 PUSH2 0xFFFF DUP6 PUSH1 0xE0 SHR AND DUP2 MSTORE ADD SWAP4 ADD PUSH2 0x12FA JUMP JUMPDEST SWAP3 PUSH1 0x20 PUSH1 0x1 SWAP2 PUSH2 0xFFFF DUP6 PUSH1 0xD0 SHR AND DUP2 MSTORE ADD SWAP4 ADD PUSH2 0x12F2 JUMP JUMPDEST SWAP3 PUSH1 0x20 PUSH1 0x1 SWAP2 PUSH2 0xFFFF DUP6 PUSH1 0xC0 SHR AND DUP2 MSTORE ADD SWAP4 ADD PUSH2 0x12EA JUMP JUMPDEST SWAP3 PUSH1 0x20 PUSH1 0x1 SWAP2 PUSH2 0xFFFF DUP6 PUSH1 0xB0 SHR AND DUP2 MSTORE ADD SWAP4 ADD PUSH2 0x12E2 JUMP JUMPDEST SWAP3 PUSH1 0x20 PUSH1 0x1 SWAP2 PUSH2 0xFFFF DUP6 PUSH1 0xA0 SHR AND DUP2 MSTORE ADD SWAP4 ADD PUSH2 0x12DA JUMP JUMPDEST SWAP3 PUSH1 0x20 PUSH1 0x1 SWAP2 PUSH2 0xFFFF DUP6 PUSH1 0x90 SHR AND DUP2 MSTORE ADD SWAP4 ADD PUSH2 0x12D2 JUMP JUMPDEST SWAP3 PUSH1 0x20 PUSH1 0x1 SWAP2 PUSH2 0xFFFF DUP6 PUSH1 0x80 SHR AND DUP2 MSTORE ADD SWAP4 ADD PUSH2 0x12CA JUMP JUMPDEST SWAP3 PUSH1 0x20 PUSH1 0x1 SWAP2 PUSH2 0xFFFF DUP6 PUSH1 0x70 SHR AND DUP2 MSTORE ADD SWAP4 ADD PUSH2 0x12C2 JUMP JUMPDEST SWAP3 PUSH1 0x20 PUSH1 0x1 SWAP2 PUSH2 0xFFFF DUP6 PUSH1 0x60 SHR AND DUP2 MSTORE ADD SWAP4 ADD PUSH2 0x12BA JUMP JUMPDEST SWAP3 PUSH1 0x20 PUSH1 0x1 SWAP2 PUSH2 0xFFFF DUP6 PUSH1 0x50 SHR AND DUP2 MSTORE ADD SWAP4 ADD PUSH2 0x12B2 JUMP JUMPDEST SWAP3 PUSH1 0x20 PUSH1 0x1 SWAP2 PUSH2 0xFFFF DUP6 PUSH1 0x40 SHR AND DUP2 MSTORE ADD SWAP4 ADD PUSH2 0x12AA JUMP JUMPDEST SWAP3 PUSH1 0x20 PUSH1 0x1 SWAP2 PUSH2 0xFFFF DUP6 PUSH1 0x30 SHR AND DUP2 MSTORE ADD SWAP4 ADD PUSH2 0x12A2 JUMP JUMPDEST SWAP3 PUSH1 0x20 PUSH1 0x1 SWAP2 PUSH2 0xFFFF DUP6 DUP4 SHR AND DUP2 MSTORE ADD SWAP4 ADD PUSH2 0x129A JUMP JUMPDEST SWAP3 PUSH1 0x20 PUSH1 0x1 SWAP2 PUSH2 0xFFFF DUP6 PUSH1 0x10 SHR AND DUP2 MSTORE ADD SWAP4 ADD PUSH2 0x1292 JUMP JUMPDEST SWAP3 PUSH1 0x20 PUSH1 0x1 SWAP2 PUSH2 0xFFFF DUP6 AND DUP2 MSTORE ADD SWAP4 ADD PUSH2 0x128A JUMP JUMPDEST SWAP5 PUSH1 0x1 PUSH2 0x200 PUSH1 0x10 SWAP3 DUP9 SLOAD PUSH2 0xFFFF DUP2 AND DUP3 MSTORE PUSH2 0xFFFF DUP2 DUP7 SHR AND PUSH1 0x20 DUP4 ADD MSTORE PUSH2 0xFFFF DUP2 PUSH1 0x20 SHR AND PUSH1 0x40 DUP4 ADD MSTORE PUSH2 0xFFFF DUP2 PUSH1 0x30 SHR AND PUSH1 0x60 DUP4 ADD MSTORE PUSH2 0xFFFF DUP2 PUSH1 0x40 SHR AND PUSH1 0x80 DUP4 ADD MSTORE PUSH2 0xFFFF DUP2 PUSH1 0x50 SHR AND PUSH1 0xA0 DUP4 ADD MSTORE PUSH2 0xFFFF DUP2 PUSH1 0x60 SHR AND PUSH1 0xC0 DUP4 ADD MSTORE PUSH2 0xFFFF DUP2 PUSH1 0x70 SHR AND PUSH1 0xE0 DUP4 ADD MSTORE PUSH2 0xFFFF DUP2 PUSH1 0x80 SHR AND PUSH2 0x100 DUP4 ADD MSTORE PUSH2 0xFFFF DUP2 PUSH1 0x90 SHR AND PUSH2 0x120 DUP4 ADD MSTORE PUSH2 0xFFFF DUP2 PUSH1 0xA0 SHR AND PUSH2 0x140 DUP4 ADD MSTORE PUSH2 0xFFFF DUP2 PUSH1 0xB0 SHR AND PUSH2 0x160 DUP4 ADD MSTORE PUSH2 0xFFFF DUP2 PUSH1 0xC0 SHR AND PUSH2 0x180 DUP4 ADD MSTORE PUSH2 0xFFFF DUP2 PUSH1 0xD0 SHR AND PUSH2 0x1A0 DUP4 ADD MSTORE PUSH2 0xFFFF DUP2 PUSH1 0xE0 SHR AND PUSH2 0x1C0 DUP4 ADD MSTORE PUSH1 0xF0 SHR PUSH2 0x1E0 DUP3 ADD MSTORE ADD SWAP7 ADD SWAP3 ADD SWAP2 PUSH2 0x126B JUMP JUMPDEST DUP5 SLOAD PUSH1 0x1 PUSH1 0x1 PUSH1 0xA0 SHL SUB AND DUP4 MSTORE PUSH1 0x1 SWAP5 DUP6 ADD SWAP5 DUP7 SWAP5 POP PUSH1 0x20 SWAP1 SWAP4 ADD SWAP3 ADD PUSH2 0x1230 JUMP JUMPDEST CALLVALUE PUSH2 0x1A1 JUMPI PUSH1 0x0 CALLDATASIZE PUSH1 0x3 NOT ADD SLT PUSH2 0x1A1 JUMPI PUSH2 0x15B4 PUSH2 0x38AD JUMP JUMPDEST PUSH1 0x0 DUP1 SLOAD PUSH1 0x1 PUSH1 0x1 PUSH1 0xA0 SHL SUB NOT DUP2 AND DUP3 SSTORE PUSH1 0x1 PUSH1 0x1 PUSH1 0xA0 SHL SUB AND PUSH32 0x8BE0079C531659141344CD1FD0A4F28419497F9722A3DAAFE3B4186F6B6457E0 DUP3 DUP1 LOG3 STOP JUMPDEST CALLVALUE PUSH2 0x1A1 JUMPI PUSH1 0x20 DUP1 PUSH1 0x3 NOT CALLDATASIZE ADD SLT PUSH2 0x1A1 JUMPI PUSH2 0x160E PUSH2 0x3199 JUMP JUMPDEST POP PUSH1 0x40 MLOAD DUP1 SWAP2 PUSH1 0x20 DUP3 ADD SWAP1 PUSH1 0x20 DUP4 MSTORE PUSH1 0x60 MLOAD DUP1 SWAP3 MSTORE PUSH1 0x40 DUP4 ADD SWAP2 PUSH1 0x80 SWAP2 PUSH1 0x0 JUMPDEST DUP3 DUP2 LT PUSH2 0x163D JUMPI POP POP POP POP SUB SWAP1 RETURN JUMPDEST DUP4 MLOAD PUSH1 0x1 PUSH1 0x1 PUSH1 0xA0 SHL SUB AND DUP6 MSTORE DUP7 SWAP6 POP SWAP4 DUP2 ADD SWAP4 SWAP3 DUP2 ADD SWAP3 PUSH1 0x1 ADD PUSH2 0x162E JUMP JUMPDEST CALLVALUE PUSH2 0x1A1 JUMPI PUSH1 0x60 CALLDATASIZE PUSH1 0x3 NOT ADD SLT PUSH2 0x1A1 JUMPI PUSH2 0x1676 PUSH2 0x3199 JUMP JUMPDEST PUSH2 0x167E PUSH2 0x31AF JUMP JUMPDEST SWAP1 PUSH1 0x1 DUP1 PUSH1 0xA0 SHL SUB DUP1 SWAP2 AND SWAP1 DUP2 PUSH1 0x0 MSTORE PUSH1 0x1 SWAP1 PUSH1 0x1 PUSH1 0x20 MSTORE PUSH1 0x40 PUSH1 0x0 KECCAK256 SWAP2 DUP2 PUSH1 0x4 DUP5 ADD SLOAD AND CALLER SUB PUSH2 0x17A4 JUMPI PUSH1 0x0 SWAP5 SWAP2 SWAP5 SWAP2 PUSH1 0x0 SWAP4 PUSH1 0x0 SWAP7 PUSH1 0x10 DUP3 ADD DUP2 DUP2 SLOAD SWAP5 AND SWAP9 JUMPDEST DUP5 DUP2 LT PUSH2 0x174C JUMPI JUMPDEST POP POP POP POP POP POP PUSH2 0xFFFF PUSH1 0x64 SWAP3 PUSH2 0x16E0 PUSH2 0x16E9 SWAP4 PUSH2 0x3716 JUMP JUMPDEST AND PUSH1 0x44 CALLDATALOAD PUSH2 0x363C JUMP JUMPDEST DIV PUSH1 0x0 DUP2 DUP5 DUP2 ISZERO PUSH2 0x1742 JUMPI JUMPDEST PUSH1 0x0 SWAP3 DUP4 SWAP3 DUP4 SWAP3 DUP4 SWAP3 CALL ISZERO PUSH2 0x1736 JUMPI PUSH1 0x40 PUSH32 0x67B1D074E0231B1D5EA97C0B82A285837B236D627D5A9B89965F961963C39B6C SWAP2 DUP2 MLOAD SWAP1 DUP2 MSTORE TIMESTAMP PUSH1 0x20 DUP3 ADD MSTORE LOG3 STOP JUMPDEST PUSH1 0x40 MLOAD RETURNDATASIZE PUSH1 0x0 DUP3 RETURNDATACOPY RETURNDATASIZE SWAP1 REVERT JUMPDEST PUSH2 0x8FC SWAP3 POP PUSH2 0x16F5 JUMP JUMPDEST DUP3 DUP11 PUSH2 0x1758 DUP4 DUP6 PUSH2 0x33FE JUMP JUMPDEST SWAP3 SWAP1 SLOAD PUSH1 0x3 SWAP4 DUP5 SHL SHR AND EQ PUSH2 0x176F JUMPI POP DUP6 ADD PUSH2 0x16C0 JUMP JUMPDEST SWAP2 POP PUSH1 0x64 SWAP8 POP PUSH2 0x16E9 SWAP7 POP PUSH2 0x16E0 SWAP4 SWAP5 POP PUSH2 0xFFFF SWAP6 DUP7 SWAP4 POP SWAP1 PUSH1 0x11 PUSH2 0x1795 SWAP3 SWAP7 ADD PUSH2 0x36AE JUMP JUMPDEST SWAP1 SLOAD SWAP2 SHL SHR AND SWAP5 DUP3 SWAP5 DUP10 PUSH2 0x16C8 JUMP JUMPDEST PUSH1 0x40 MLOAD PUSH3 0x461BCD PUSH1 0xE5 SHL DUP2 MSTORE PUSH1 0x20 PUSH1 0x4 DUP3 ADD MSTORE PUSH1 0x29 PUSH1 0x24 DUP3 ADD MSTORE PUSH32 0x4F6E6C79207468652061756374696F6E206F776E65722063616E207472616E73 PUSH1 0x44 DUP3 ADD MSTORE PUSH9 0x666572206D6F6E6579 PUSH1 0xB8 SHL PUSH1 0x64 DUP3 ADD MSTORE PUSH1 0x84 SWAP1 REVERT JUMPDEST PUSH1 0x20 DUP1 PUSH1 0x3 NOT CALLDATASIZE ADD SLT PUSH2 0x1A1 JUMPI PUSH1 0x1 PUSH1 0x1 PUSH1 0xA0 SHL SUB DUP1 PUSH2 0x1819 PUSH2 0x3199 JUMP JUMPDEST AND DUP1 PUSH1 0x0 MSTORE PUSH1 0x1 DUP4 MSTORE PUSH2 0x183D PUSH1 0x40 PUSH1 0x0 KECCAK256 PUSH1 0xA DUP2 ADD SLOAD ISZERO ISZERO SWAP1 DUP2 PUSH2 0x191A JUMPI POP PUSH2 0x36D1 JUMP JUMPDEST DUP1 PUSH1 0x0 MSTORE PUSH1 0x1 DUP4 MSTORE PUSH1 0x40 PUSH1 0x0 KECCAK256 PUSH1 0xE DUP2 ADD SWAP3 DUP4 SLOAD AND CALLER SUB PUSH2 0x18D5 JUMPI SWAP1 PUSH1 0xD PUSH1 0x0 SWAP3 ADD SWAP1 DUP1 DUP3 SLOAD PUSH1 0x40 MLOAD SWAP1 DUP2 MSTORE TIMESTAMP DUP8 DUP3 ADD MSTORE PUSH32 0x785D85162AE7507DAD1D0089BA072BA3F2B9C7538085649DDC9B039EADC1A3F6 PUSH1 0x40 CALLER SWAP3 LOG3 DUP3 MSTORE PUSH1 0x3 DUP5 MSTORE PUSH1 0x40 DUP3 KECCAK256 CALLER DUP4 MSTORE DUP5 MSTORE DUP2 PUSH1 0x3 PUSH1 0x40 DUP3 KECCAK256 DUP3 DUP2 SSTORE DUP3 PUSH1 0x1 DUP3 ADD SSTORE DUP3 PUSH1 0x2 DUP3 ADD SSTORE ADD SSTORE SSTORE PUSH1 0x1 PUSH1 0x1 PUSH1 0x60 SHL SUB PUSH1 0xA0 SHL DUP2 SLOAD AND SWAP1 SSTORE PUSH1 0x40 MLOAD PUSH1 0x1 DUP2 MSTORE RETURN JUMPDEST PUSH1 0x40 MLOAD PUSH3 0x461BCD PUSH1 0xE5 SHL DUP2 MSTORE PUSH1 0x4 DUP2 ADD DUP6 SWAP1 MSTORE PUSH1 0x1B PUSH1 0x24 DUP3 ADD MSTORE PUSH32 0x42696464657220686173206E6F7420706C616365642061206269640000000000 PUSH1 0x44 DUP3 ADD MSTORE PUSH1 0x64 SWAP1 REVERT JUMPDEST PUSH1 0xB SWAP2 POP ADD SLOAD TIMESTAMP LT DUP6 PUSH2 0x4BF JUMP JUMPDEST CALLVALUE PUSH2 0x1A1 JUMPI PUSH1 0x20 CALLDATASIZE PUSH1 0x3 NOT ADD SLT PUSH2 0x1A1 JUMPI PUSH1 0x20 PUSH1 0x1 PUSH1 0x1 PUSH1 0xA0 SHL SUB DUP1 PUSH2 0x194C PUSH2 0x3199 JUMP JUMPDEST AND PUSH1 0x0 MSTORE PUSH1 0x1 DUP3 MSTORE PUSH1 0xE PUSH1 0x40 PUSH1 0x0 KECCAK256 ADD SLOAD AND PUSH1 0x40 MLOAD SWAP1 DUP2 MSTORE RETURN JUMPDEST CALLVALUE PUSH2 0x1A1 JUMPI PUSH1 0x20 CALLDATASIZE PUSH1 0x3 NOT ADD SLT PUSH2 0x1A1 JUMPI PUSH1 0x4 CALLDATALOAD PUSH1 0x2 SLOAD DUP2 LT ISZERO PUSH2 0x1A1 JUMPI PUSH2 0x198F PUSH1 0x20 SWAP2 PUSH2 0x33B1 JUMP JUMPDEST SWAP1 SLOAD PUSH1 0x40 MLOAD PUSH1 0x3 SWAP3 SWAP1 SWAP3 SHL SHR PUSH1 0x1 PUSH1 0x1 PUSH1 0xA0 SHL SUB AND DUP2 MSTORE RETURN JUMPDEST CALLVALUE PUSH2 0x1A1 JUMPI PUSH1 0x20 DUP1 PUSH1 0x3 NOT CALLDATASIZE ADD SLT PUSH2 0x1A1 JUMPI PUSH1 0x1 PUSH1 0x1 PUSH1 0xA0 SHL SUB DUP1 PUSH2 0x19CB PUSH2 0x3199 JUMP JUMPDEST AND DUP1 PUSH1 0x0 MSTORE PUSH1 0x1 SWAP2 PUSH1 0x1 DUP5 MSTORE PUSH2 0x19EC DUP2 PUSH1 0x4 PUSH1 0x40 PUSH1 0x0 KECCAK256 ADD SLOAD AND CALLER EQ PUSH2 0x364F JUMP JUMPDEST DUP2 PUSH1 0x0 MSTORE PUSH1 0x1 DUP5 MSTORE PUSH1 0x40 PUSH1 0x0 KECCAK256 SWAP1 PUSH1 0x4 DUP3 ADD CALLER DUP3 DUP3 SLOAD AND SUB PUSH2 0x1CF8 JUMPI PUSH1 0xC DUP4 ADD DUP1 SLOAD ISZERO DUP1 ISZERO SWAP1 PUSH2 0x1CEA JUMPI JUMPDEST ISZERO PUSH2 0x1CAE JUMPI TIMESTAMP SWAP1 SSTORE PUSH1 0xD DUP4 ADD SWAP5 PUSH2 0x1A34 DUP7 SLOAD PUSH1 0xF DUP7 ADD SLOAD SWAP1 PUSH2 0x3570 JUMP JUMPDEST PUSH1 0x0 SWAP1 PUSH1 0x10 DUP7 ADD SWAP1 PUSH1 0x11 DUP8 ADD DUP5 JUMPDEST PUSH2 0x1C45 JUMPI JUMPDEST POP POP POP POP POP DUP2 PUSH1 0x5 DUP5 ADD SLOAD AND SWAP3 PUSH1 0x6 DUP2 ADD SLOAD SWAP2 PUSH1 0x40 MLOAD PUSH4 0x20604BF PUSH1 0xE2 SHL DUP2 MSTORE DUP4 PUSH1 0x4 DUP3 ADD MSTORE DUP9 DUP2 PUSH1 0x24 DUP2 DUP10 GAS STATICCALL SWAP1 DUP2 ISZERO PUSH2 0x1736 JUMPI PUSH1 0x0 SWAP2 PUSH2 0x1C18 JUMPI JUMPDEST POP DUP5 AND ADDRESS EQ DUP1 ISZERO PUSH2 0x1BA7 JUMPI JUMPDEST ISZERO PUSH2 0x1B4B JUMPI DUP4 PUSH1 0xE SWAP2 SLOAD AND SWAP2 ADD SWAP4 DUP4 DUP6 SLOAD AND SWAP1 DUP1 EXTCODESIZE ISZERO PUSH2 0x1A1 JUMPI PUSH1 0x0 SWAP3 DUP4 PUSH1 0x64 SWAP3 PUSH1 0x40 MLOAD SWAP7 DUP8 SWAP6 DUP7 SWAP5 PUSH4 0x23B872DD PUSH1 0xE0 SHL DUP7 MSTORE PUSH1 0x4 DUP7 ADD MSTORE PUSH1 0x24 DUP6 ADD MSTORE PUSH1 0x44 DUP5 ADD MSTORE GAS CALL DUP1 ISZERO PUSH2 0x1736 JUMPI PUSH2 0x1B2B JUMPI JUMPDEST POP SWAP1 PUSH1 0x80 SWAP3 SWAP2 PUSH32 0x4D31A5599CDB48031C1F03259ADBD513BE468C5735012719A1A9850869B558B1 SWAP5 SLOAD SWAP2 SLOAD AND SWAP1 PUSH1 0x40 MLOAD SWAP3 DUP4 MSTORE DUP6 DUP4 ADD MSTORE PUSH1 0x40 DUP3 ADD MSTORE TIMESTAMP PUSH1 0x60 DUP3 ADD MSTORE LOG1 PUSH1 0x40 MLOAD PUSH1 0x1 DUP2 MSTORE RETURN JUMPDEST SWAP3 SWAP2 SWAP1 PUSH1 0x1 PUSH1 0x1 PUSH1 0x40 SHL SUB DUP5 GT PUSH2 0x321 JUMPI PUSH1 0x40 SWAP4 SWAP1 SWAP4 MSTORE SWAP1 SWAP2 PUSH1 0x80 PUSH2 0x1ADF JUMP JUMPDEST PUSH1 0x40 MLOAD PUSH3 0x461BCD PUSH1 0xE5 SHL DUP2 MSTORE PUSH1 0x4 DUP2 ADD DUP10 SWAP1 MSTORE PUSH1 0x2E PUSH1 0x24 DUP3 ADD MSTORE PUSH32 0x436F6E7472616374206973206E6F7420617070726F76656420746F207472616E PUSH1 0x44 DUP3 ADD MSTORE PUSH14 0x39B332B9103A3432903A37B5B2B7 PUSH1 0x91 SHL PUSH1 0x64 DUP3 ADD MSTORE PUSH1 0x84 SWAP1 REVERT JUMPDEST POP DUP1 SLOAD PUSH1 0x40 MLOAD PUSH4 0xE985E9C5 PUSH1 0xE0 SHL DUP2 MSTORE SWAP1 DUP6 AND PUSH1 0x4 DUP3 ADD MSTORE ADDRESS PUSH1 0x24 DUP3 ADD MSTORE DUP9 DUP2 PUSH1 0x44 DUP2 DUP10 GAS STATICCALL SWAP1 DUP2 ISZERO PUSH2 0x1736 JUMPI PUSH1 0x0 SWAP2 PUSH2 0x1BE2 JUMPI JUMPDEST POP PUSH2 0x1A90 JUMP JUMPDEST SWAP1 POP DUP9 DUP2 DUP2 RETURNDATASIZE DUP4 GT PUSH2 0x1C11 JUMPI JUMPDEST PUSH2 0x1BF9 DUP2 DUP4 PUSH2 0x31FC JUMP JUMPDEST DUP2 ADD SUB SLT PUSH2 0x1A1 JUMPI MLOAD DUP1 ISZERO ISZERO DUP2 SUB PUSH2 0x1A1 JUMPI DUP10 PUSH2 0x1BDC JUMP JUMPDEST POP RETURNDATASIZE PUSH2 0x1BEF JUMP JUMPDEST PUSH2 0x1C38 SWAP2 POP DUP10 RETURNDATASIZE DUP12 GT PUSH2 0x1C3E JUMPI JUMPDEST PUSH2 0x1C30 DUP2 DUP4 PUSH2 0x31FC JUMP JUMPDEST DUP2 ADD SWAP1 PUSH2 0x357D JUMP JUMPDEST DUP10 PUSH2 0x1A84 JUMP JUMPDEST POP RETURNDATASIZE PUSH2 0x1C26 JUMP JUMPDEST DUP3 SLOAD DUP5 LT ISZERO PUSH2 0x1CA9 JUMPI PUSH1 0x0 DUP1 DUP1 DUP1 PUSH2 0xFFFF DUP12 PUSH1 0x64 PUSH2 0x1C76 PUSH2 0x1C66 DUP13 DUP11 PUSH2 0x36AE JUMP JUMPDEST SWAP5 SWAP1 SLOAD PUSH1 0x3 SWAP6 DUP7 SHL SHR AND DUP11 PUSH2 0x363C JUMP JUMPDEST DIV SWAP2 PUSH2 0x1C82 DUP12 DUP12 PUSH2 0x33FE JUMP JUMPDEST SWAP1 SLOAD SWAP2 SHL SHR AND DUP3 DUP3 ISZERO PUSH2 0x1CA0 JUMPI JUMPDEST CALL ISZERO PUSH2 0x1736 JUMPI DUP5 DUP1 SWAP5 ADD SWAP4 PUSH2 0x1A42 JUMP JUMPDEST POP PUSH2 0x8FC PUSH2 0x1C90 JUMP JUMPDEST PUSH2 0x1A47 JUMP JUMPDEST PUSH1 0x40 MLOAD PUSH3 0x461BCD PUSH1 0xE5 SHL DUP2 MSTORE PUSH1 0x4 DUP2 ADD DUP9 SWAP1 MSTORE PUSH1 0x14 PUSH1 0x24 DUP3 ADD MSTORE PUSH20 0x105D58DD1A5BDB881A5CC81B9BDD08195B991959 PUSH1 0x62 SHL PUSH1 0x44 DUP3 ADD MSTORE PUSH1 0x64 SWAP1 REVERT JUMPDEST POP PUSH1 0xB DUP5 ADD SLOAD TIMESTAMP LT ISZERO PUSH2 0x1A17 JUMP JUMPDEST PUSH1 0x40 MLOAD PUSH3 0x461BCD PUSH1 0xE5 SHL DUP2 MSTORE PUSH1 0x4 DUP2 ADD DUP8 SWAP1 MSTORE PUSH1 0x23 PUSH1 0x24 DUP3 ADD MSTORE PUSH32 0x4F6E6C79207468652073656C6C65722063616E20656E64207468652061756374 PUSH1 0x44 DUP3 ADD MSTORE PUSH3 0x34B7B7 PUSH1 0xE9 SHL PUSH1 0x64 DUP3 ADD MSTORE PUSH1 0x84 SWAP1 REVERT JUMPDEST CALLVALUE PUSH2 0x1A1 JUMPI PUSH1 0x20 CALLDATASIZE PUSH1 0x3 NOT ADD SLT PUSH2 0x1A1 JUMPI PUSH1 0x1 PUSH1 0x1 PUSH1 0xA0 SHL SUB PUSH2 0x1D6A PUSH2 0x3199 JUMP JUMPDEST AND PUSH1 0x0 MSTORE PUSH1 0x1 PUSH1 0x20 MSTORE PUSH1 0x20 PUSH1 0xD PUSH1 0x40 PUSH1 0x0 KECCAK256 ADD SLOAD PUSH1 0x40 MLOAD SWAP1 DUP2 MSTORE RETURN JUMPDEST CALLVALUE PUSH2 0x1A1 JUMPI PUSH1 0x40 CALLDATASIZE PUSH1 0x3 NOT ADD SLT PUSH2 0x1A1 JUMPI PUSH1 0x80 PUSH2 0x1DA1 PUSH2 0x3199 JUMP JUMPDEST PUSH2 0x1DA9 PUSH2 0x31AF JUMP JUMPDEST PUSH1 0x1 DUP1 PUSH1 0xA0 SHL SUB DUP1 SWAP3 AND PUSH1 0x0 MSTORE PUSH1 0x3 PUSH1 0x20 MSTORE DUP2 PUSH1 0x40 PUSH1 0x0 KECCAK256 SWAP2 AND PUSH1 0x0 MSTORE PUSH1 0x20 MSTORE PUSH1 0x40 PUSH1 0x0 KECCAK256 DUP2 DUP2 SLOAD AND SWAP2 PUSH1 0x1 DUP3 ADD SLOAD AND SWAP1 PUSH1 0x3 PUSH1 0x2 DUP3 ADD SLOAD SWAP2 ADD SLOAD SWAP2 PUSH1 0x40 MLOAD SWAP4 DUP5 MSTORE PUSH1 0x20 DUP5 ADD MSTORE PUSH1 0x40 DUP4 ADD MSTORE PUSH1 0x60 DUP3 ADD MSTORE RETURN JUMPDEST CALLVALUE PUSH2 0x1A1 JUMPI PUSH1 0x20 CALLDATASIZE PUSH1 0x3 NOT ADD SLT PUSH2 0x1A1 JUMPI PUSH1 0x1 PUSH1 0x1 PUSH1 0xA0 SHL SUB DUP1 PUSH2 0x1E1E PUSH2 0x3199 JUMP JUMPDEST AND PUSH1 0x0 MSTORE PUSH1 0x1 PUSH1 0x20 MSTORE PUSH1 0x40 PUSH1 0x0 KECCAK256 SWAP1 DUP1 DUP3 SLOAD AND SWAP2 DUP1 DUP3 PUSH1 0x1 DUP3 ADD SLOAD AND SWAP3 PUSH1 0x2 DUP3 ADD PUSH2 0x1E48 SWAP1 PUSH2 0x32C4 JUMP JUMPDEST SWAP5 PUSH2 0x1E55 PUSH1 0x3 DUP5 ADD PUSH2 0x32C4 JUMP JUMPDEST SWAP6 DUP3 PUSH1 0x4 DUP6 ADD SLOAD AND SWAP7 DUP4 PUSH1 0x5 DUP7 ADD SLOAD AND PUSH1 0x6 DUP7 ADD SLOAD PUSH1 0x7 DUP8 ADD SLOAD SWAP1 PUSH1 0x8 DUP9 ADD SLOAD SWAP3 PUSH1 0x9 DUP10 ADD SLOAD SWAP5 PUSH1 0xA DUP11 ADD SLOAD SWAP7 PUSH1 0xB DUP12 ADD SLOAD SWAP9 PUSH1 0xC DUP13 ADD SLOAD SWAP11 PUSH1 0xD DUP14 ADD SLOAD SWAP13 PUSH1 0xE ADD SLOAD AND SWAP13 PUSH1 0xF ADD SLOAD SWAP14 PUSH1 0x40 MLOAD PUSH1 0x80 MSTORE PUSH2 0x200 SWAP2 PUSH1 0x80 MLOAD MSTORE PUSH1 0x80 MLOAD PUSH1 0x20 ADD MSTORE DUP1 PUSH1 0x80 MLOAD PUSH1 0x40 ADD MSTORE PUSH1 0x80 MLOAD ADD PUSH2 0x1EC9 SWAP2 PUSH2 0x338C JUMP JUMPDEST PUSH1 0x80 MLOAD DUP2 SUB PUSH1 0x80 MLOAD PUSH1 0x60 ADD MSTORE PUSH2 0x1EDE SWAP2 PUSH2 0x338C JUMP JUMPDEST SWAP12 PUSH1 0x80 MLOAD PUSH1 0x80 ADD MSTORE PUSH1 0x80 MLOAD PUSH1 0xA0 ADD MSTORE PUSH1 0x80 MLOAD PUSH1 0xC0 ADD MSTORE PUSH1 0x80 MLOAD PUSH1 0xE0 ADD MSTORE PUSH1 0x80 MLOAD PUSH2 0x100 ADD MSTORE PUSH1 0x80 MLOAD PUSH2 0x120 ADD MSTORE PUSH1 0x80 MLOAD PUSH2 0x140 ADD MSTORE PUSH1 0x80 MLOAD PUSH2 0x160 ADD MSTORE PUSH1 0x80 MLOAD PUSH2 0x180 ADD MSTORE PUSH1 0x80 MLOAD PUSH2 0x1A0 ADD MSTORE PUSH1 0x80 MLOAD PUSH2 0x1C0 ADD MSTORE PUSH1 0x80 MLOAD PUSH2 0x1E0 ADD MSTORE PUSH1 0x80 MLOAD SWAP1 SUB PUSH1 0x80 MLOAD RETURN JUMPDEST CALLVALUE PUSH2 0x1A1 JUMPI PUSH1 0x80 CALLDATASIZE PUSH1 0x3 NOT ADD SLT PUSH2 0x1A1 JUMPI PUSH2 0x1F5E PUSH2 0x3199 JUMP JUMPDEST POP PUSH2 0x1F67 PUSH2 0x31AF JUMP JUMPDEST POP PUSH1 0x64 CALLDATALOAD PUSH1 0x1 PUSH1 0x1 PUSH1 0x40 SHL SUB DUP1 DUP3 GT PUSH2 0x1A1 JUMPI CALLDATASIZE PUSH1 0x23 DUP4 ADD SLT ISZERO PUSH2 0x1A1 JUMPI DUP2 PUSH1 0x4 ADD CALLDATALOAD SWAP1 DUP2 GT PUSH2 0x1A1 JUMPI CALLDATASIZE SWAP2 ADD PUSH1 0x24 ADD GT PUSH2 0x1A1 JUMPI PUSH1 0x40 MLOAD PUSH4 0xA85BD01 PUSH1 0xE1 SHL DUP2 MSTORE PUSH1 0x20 SWAP1 RETURN JUMPDEST CALLVALUE PUSH2 0x1A1 JUMPI PUSH2 0x160 CALLDATASIZE PUSH1 0x3 NOT ADD SLT PUSH2 0x1A1 JUMPI PUSH1 0x4 CALLDATALOAD PUSH1 0x1 PUSH1 0x1 PUSH1 0x40 SHL SUB DUP2 GT PUSH2 0x1A1 JUMPI PUSH2 0x1FDF SWAP1 CALLDATASIZE SWAP1 PUSH1 0x4 ADD PUSH2 0x321D JUMP JUMPDEST PUSH1 0x24 CALLDATALOAD PUSH1 0x1 PUSH1 0x1 PUSH1 0x40 SHL SUB DUP2 GT PUSH2 0x1A1 JUMPI PUSH2 0x1FFE SWAP1 CALLDATASIZE SWAP1 PUSH1 0x4 ADD PUSH2 0x321D JUMP JUMPDEST PUSH1 0x44 CALLDATALOAD PUSH1 0x1 PUSH1 0x1 PUSH1 0xA0 SHL SUB DUP2 AND SWAP1 SUB PUSH2 0x1A1 JUMPI PUSH1 0x84 CALLDATALOAD PUSH1 0x1 PUSH1 0x1 PUSH1 0xA0 SHL SUB DUP2 AND SUB PUSH2 0x1A1 JUMPI PUSH1 0x1 PUSH1 0x1 PUSH1 0x40 SHL SUB PUSH2 0x124 CALLDATALOAD GT PUSH2 0x1A1 JUMPI CALLDATASIZE PUSH1 0x23 PUSH2 0x124 CALLDATALOAD ADD SLT ISZERO PUSH2 0x1A1 JUMPI PUSH2 0x2052 PUSH2 0x124 CALLDATALOAD PUSH1 0x4 ADD CALLDATALOAD PUSH2 0x3273 JUMP JUMPDEST PUSH2 0x205F PUSH1 0x40 MLOAD SWAP2 DUP3 PUSH2 0x31FC JUMP JUMPDEST PUSH2 0x124 CALLDATALOAD PUSH1 0x4 ADD CALLDATALOAD DUP2 MSTORE PUSH1 0x20 DUP2 ADD SWAP3 DUP4 CALLDATASIZE PUSH1 0x24 PUSH2 0x124 CALLDATALOAD PUSH1 0x4 ADD CALLDATALOAD PUSH1 0x5 SHL PUSH2 0x124 CALLDATALOAD ADD ADD GT PUSH2 0x1A1 JUMPI PUSH1 0x24 PUSH2 0x124 CALLDATALOAD ADD SWAP1 JUMPDEST PUSH1 0x24 PUSH2 0x124 CALLDATALOAD PUSH1 0x4 ADD CALLDATALOAD PUSH1 0x5 SHL PUSH2 0x124 CALLDATALOAD ADD ADD DUP3 LT PUSH2 0x308C JUMPI POP POP PUSH1 0x1 PUSH1 0x1 PUSH1 0x40 SHL SUB PUSH2 0x144 CALLDATALOAD GT PUSH2 0x1A1 JUMPI CALLDATASIZE PUSH1 0x23 PUSH2 0x144 CALLDATALOAD ADD SLT ISZERO PUSH2 0x1A1 JUMPI PUSH2 0x20DB PUSH2 0x144 CALLDATALOAD PUSH1 0x4 ADD CALLDATALOAD PUSH2 0x3273 JUMP JUMPDEST SWAP4 PUSH2 0x20E9 PUSH1 0x40 MLOAD SWAP6 DUP7 PUSH2 0x31FC JUMP JUMPDEST PUSH2 0x144 CALLDATALOAD PUSH1 0x4 ADD CALLDATALOAD DUP6 MSTORE PUSH1 0x20 DUP6 ADD SWAP1 DUP2 CALLDATASIZE PUSH1 0x24 PUSH2 0x144 CALLDATALOAD PUSH1 0x4 ADD CALLDATALOAD PUSH1 0x5 SHL PUSH2 0x144 CALLDATALOAD ADD ADD GT PUSH2 0x1A1 JUMPI PUSH1 0x24 PUSH2 0x144 CALLDATALOAD ADD SWAP1 JUMPDEST PUSH1 0x24 PUSH2 0x144 CALLDATALOAD PUSH1 0x4 ADD CALLDATALOAD PUSH1 0x5 SHL PUSH2 0x144 CALLDATALOAD ADD ADD DUP3 LT PUSH2 0x306F JUMPI POP POP PUSH1 0x40 MLOAD PUSH4 0x31A9108F PUSH1 0xE1 SHL DUP2 MSTORE PUSH1 0x64 CALLDATALOAD PUSH1 0x4 DUP3 ADD MSTORE PUSH1 0x20 DUP2 PUSH1 0x24 DUP2 PUSH1 0x44 CALLDATALOAD PUSH1 0x1 PUSH1 0x1 PUSH1 0xA0 SHL SUB AND GAS STATICCALL SWAP1 DUP2 ISZERO PUSH2 0x1736 JUMPI PUSH1 0x0 SWAP2 PUSH2 0x3050 JUMPI JUMPDEST POP CALLER PUSH1 0x1 PUSH1 0x1 PUSH1 0xA0 SHL SUB SWAP1 SWAP2 AND SUB PUSH2 0x2FFF JUMPI DUP4 MLOAD DUP7 MLOAD SUB PUSH2 0x2FA8 JUMPI PUSH1 0x0 JUMPDEST DUP5 MLOAD DUP2 LT ISZERO PUSH2 0x2236 JUMPI PUSH1 0x1 PUSH1 0x1 PUSH1 0xA0 SHL SUB PUSH2 0x21A7 DUP3 DUP8 PUSH2 0x359C JUMP JUMPDEST MLOAD AND ISZERO PUSH2 0x21F1 JUMPI PUSH1 0x1 SWAP1 PUSH2 0x21D3 PUSH2 0xFFFF DUP1 PUSH2 0x21C2 DUP5 DUP13 PUSH2 0x359C JUMP JUMPDEST MLOAD AND ISZERO ISZERO SWAP1 DUP2 PUSH2 0x21D9 JUMPI JUMPDEST POP PUSH2 0x35B0 JUMP JUMPDEST ADD PUSH2 0x218C JUMP JUMPDEST PUSH1 0x64 SWAP2 POP PUSH2 0x21E7 DUP5 DUP13 PUSH2 0x359C JUMP JUMPDEST MLOAD AND GT ISZERO DUP11 PUSH2 0x21CD JUMP JUMPDEST PUSH1 0x40 MLOAD PUSH3 0x461BCD PUSH1 0xE5 SHL DUP2 MSTORE PUSH1 0x20 PUSH1 0x4 DUP3 ADD MSTORE PUSH1 0x18 PUSH1 0x24 DUP3 ADD MSTORE PUSH32 0x496E76616C696420726563656976657220616464726573730000000000000000 PUSH1 0x44 DUP3 ADD MSTORE PUSH1 0x64 SWAP1 REVERT JUMPDEST POP DUP6 SWAP3 SWAP4 SWAP5 PUSH1 0x40 MLOAD CALLER PUSH1 0x60 SHL PUSH1 0x20 DUP3 ADD MSTORE PUSH1 0x1 PUSH1 0x1 PUSH1 0x60 SHL SUB NOT PUSH1 0x44 CALLDATALOAD PUSH1 0x60 SHL AND PUSH1 0x34 DUP3 ADD MSTORE PUSH1 0x64 CALLDATALOAD PUSH1 0x48 DUP3 ADD MSTORE PUSH1 0x48 DUP2 MSTORE DUP1 PUSH1 0x80 DUP2 ADD LT PUSH1 0x1 PUSH1 0x1 PUSH1 0x40 SHL SUB PUSH1 0x80 DUP4 ADD GT OR PUSH2 0x321 JUMPI PUSH1 0x80 DUP2 ADD PUSH1 0x40 MSTORE PUSH1 0x1 DUP1 PUSH1 0xA0 SHL SUB SWAP1 PUSH1 0x20 DUP2 MLOAD SWAP2 ADD KECCAK256 AND SWAP5 DUP6 PUSH1 0x0 MSTORE PUSH1 0x1 PUSH1 0x20 MSTORE PUSH2 0x22BB PUSH1 0x1 DUP1 PUSH1 0xA0 SHL SUB PUSH1 0x4 PUSH1 0x40 PUSH1 0x0 KECCAK256 ADD SLOAD AND ISZERO PUSH2 0x3608 JUMP JUMPDEST PUSH2 0x22C3 PUSH2 0x3762 JUMP JUMPDEST POP PUSH1 0x40 MLOAD PUSH2 0x22D0 DUP2 PUSH2 0x31E1 JUMP JUMPDEST PUSH1 0x0 DUP2 MSTORE PUSH1 0x40 MLOAD PUSH2 0x22E0 DUP2 PUSH2 0x31E1 JUMP JUMPDEST PUSH1 0x0 DUP2 MSTORE PUSH1 0x40 MLOAD SWAP2 PUSH2 0x22F1 DUP4 PUSH2 0x31C5 JUMP JUMPDEST PUSH1 0x0 DUP4 MSTORE PUSH1 0x0 PUSH1 0x20 DUP5 ADD MSTORE PUSH1 0x40 MLOAD PUSH2 0x2308 DUP2 PUSH2 0x31E1 JUMP JUMPDEST PUSH1 0x0 DUP2 MSTORE PUSH1 0x40 DUP5 ADD MSTORE PUSH1 0x40 MLOAD PUSH2 0x231D DUP2 PUSH2 0x31E1 JUMP JUMPDEST PUSH1 0x0 DUP2 MSTORE PUSH1 0x60 DUP5 ADD MSTORE PUSH1 0x0 PUSH1 0x80 DUP5 ADD MSTORE PUSH1 0x0 PUSH1 0xA0 DUP5 ADD MSTORE PUSH1 0x0 PUSH1 0xC0 DUP5 ADD MSTORE PUSH1 0x0 PUSH1 0xE0 DUP5 ADD MSTORE PUSH1 0x0 PUSH2 0x100 DUP5 ADD MSTORE PUSH1 0x0 PUSH2 0x120 DUP5 ADD MSTORE PUSH1 0x0 PUSH2 0x140 DUP5 ADD MSTORE PUSH1 0x0 PUSH2 0x160 DUP5 ADD MSTORE PUSH1 0x0 PUSH2 0x180 DUP5 ADD MSTORE PUSH1 0x0 PUSH2 0x1A0 DUP5 ADD MSTORE PUSH1 0x0 PUSH2 0x1C0 DUP5 ADD MSTORE PUSH1 0x0 PUSH2 0x1E0 DUP5 ADD MSTORE PUSH2 0x200 DUP4 ADD MSTORE PUSH2 0x220 DUP3 ADD MSTORE DUP7 PUSH1 0x0 MSTORE PUSH1 0x1 PUSH1 0x20 MSTORE PUSH1 0x40 PUSH1 0x0 KECCAK256 SWAP1 PUSH1 0x1 DUP1 PUSH1 0xA0 SHL SUB DUP2 MLOAD AND PUSH1 0x1 PUSH1 0x1 PUSH1 0x60 SHL SUB PUSH1 0xA0 SHL DUP4 SLOAD AND OR DUP3 SSTORE PUSH1 0x1 DUP3 ADD PUSH1 0x1 DUP1 PUSH1 0xA0 SHL SUB PUSH1 0x20 DUP4 ADD MLOAD AND PUSH1 0x1 PUSH1 0x1 PUSH1 0x60 SHL SUB PUSH1 0xA0 SHL DUP3 SLOAD AND OR SWAP1 SSTORE PUSH1 0x40 DUP2 ADD MLOAD DUP1 MLOAD SWAP1 PUSH1 0x1 PUSH1 0x1 PUSH1 0x40 SHL SUB DUP3 GT PUSH2 0x321 JUMPI DUP2 SWAP1 PUSH2 0x23FF PUSH1 0x2 DUP7 ADD SLOAD PUSH2 0x328A JUMP JUMPDEST PUSH1 0x1F DUP2 GT PUSH2 0x2F73 JUMPI JUMPDEST POP PUSH1 0x20 SWAP1 PUSH1 0x1F DUP4 GT PUSH1 0x1 EQ PUSH2 0x2F01 JUMPI PUSH1 0x0 SWAP3 PUSH2 0x2EF6 JUMPI JUMPDEST POP POP DUP2 PUSH1 0x1 SHL SWAP2 PUSH1 0x0 NOT SWAP1 PUSH1 0x3 SHL SHR NOT AND OR PUSH1 0x2 DUP4 ADD SSTORE JUMPDEST PUSH1 0x60 DUP2 ADD MLOAD DUP1 MLOAD SWAP1 PUSH1 0x1 PUSH1 0x1 PUSH1 0x40 SHL SUB DUP3 GT PUSH2 0x321 JUMPI DUP2 SWAP1 PUSH2 0x245C PUSH1 0x3 DUP7 ADD SLOAD PUSH2 0x328A JUMP JUMPDEST PUSH1 0x1F DUP2 GT PUSH2 0x2EC1 JUMPI JUMPDEST POP PUSH1 0x20 SWAP1 PUSH1 0x1F DUP4 GT PUSH1 0x1 EQ PUSH2 0x2E4F JUMPI PUSH1 0x0 SWAP3 PUSH2 0x2E44 JUMPI JUMPDEST POP POP DUP2 PUSH1 0x1 SHL SWAP2 PUSH1 0x0 NOT SWAP1 PUSH1 0x3 SHL SHR NOT AND OR PUSH1 0x3 DUP4 ADD SSTORE JUMPDEST PUSH1 0x80 DUP2 ADD MLOAD PUSH1 0x4 DUP4 ADD DUP1 SLOAD PUSH1 0x1 PUSH1 0x1 PUSH1 0xA0 SHL SUB SWAP3 DUP4 AND PUSH1 0x1 PUSH1 0x1 PUSH1 0xA0 SHL SUB NOT SWAP2 DUP3 AND OR SWAP1 SWAP2 SSTORE PUSH1 0xA0 DUP4 ADD MLOAD PUSH1 0x5 DUP6 ADD DUP1 SLOAD SWAP2 DUP5 AND SWAP2 DUP4 AND SWAP2 SWAP1 SWAP2 OR SWAP1 SSTORE PUSH1 0xC0 DUP4 ADD MLOAD PUSH1 0x6 DUP6 ADD SSTORE PUSH1 0xE0 DUP4 ADD MLOAD PUSH1 0x7 DUP6 ADD SSTORE PUSH2 0x100 DUP4 ADD MLOAD PUSH1 0x8 DUP6 ADD SSTORE PUSH2 0x120 DUP4 ADD MLOAD PUSH1 0x9 DUP6 ADD SSTORE PUSH2 0x140 DUP4 ADD MLOAD PUSH1 0xA DUP6 ADD SSTORE PUSH2 0x160 DUP4 ADD MLOAD PUSH1 0xB DUP6 ADD SSTORE PUSH2 0x180 DUP4 ADD MLOAD PUSH1 0xC DUP6 ADD SSTORE PUSH2 0x1A0 DUP4 ADD MLOAD PUSH1 0xD DUP6 ADD SSTORE PUSH2 0x1C0 DUP4 ADD MLOAD PUSH1 0xE DUP6 ADD DUP1 SLOAD SWAP2 SWAP1 SWAP4 AND SWAP2 AND OR SWAP1 SSTORE PUSH2 0x1E0 DUP2 ADD MLOAD PUSH1 0xF DUP4 ADD SSTORE PUSH2 0x200 DUP2 ADD MLOAD DUP1 MLOAD SWAP1 PUSH1 0x1 PUSH1 0x1 PUSH1 0x40 SHL SUB DUP3 GT PUSH2 0x321 JUMPI PUSH1 0x1 PUSH1 0x40 SHL DUP3 GT PUSH2 0x321 JUMPI PUSH1 0x20 SWAP1 PUSH1 0x10 DUP6 ADD SLOAD DUP4 PUSH1 0x10 DUP8 ADD SSTORE DUP1 DUP5 LT PUSH2 0x2E24 JUMPI JUMPDEST POP ADD PUSH1 0x10 DUP5 ADD PUSH1 0x0 MSTORE PUSH1 0x20 PUSH1 0x0 KECCAK256 PUSH1 0x0 JUMPDEST DUP4 DUP2 LT PUSH2 0x2E07 JUMPI POP POP POP POP PUSH2 0x220 ADD MLOAD DUP1 MLOAD SWAP1 PUSH1 0x1 PUSH1 0x1 PUSH1 0x40 SHL SUB DUP3 GT PUSH2 0x321 JUMPI PUSH1 0x1 PUSH1 0x40 SHL DUP3 GT PUSH2 0x321 JUMPI PUSH1 0x20 PUSH1 0x11 SWAP2 DUP3 DUP6 ADD SLOAD DUP5 DUP5 DUP8 ADD SSTORE DUP1 DUP6 LT PUSH2 0x2DAD JUMPI JUMPDEST POP ADD SWAP3 ADD PUSH1 0x0 MSTORE PUSH1 0x20 PUSH1 0x0 KECCAK256 SWAP1 PUSH1 0x0 JUMPDEST DUP2 PUSH1 0x4 SHR DUP2 LT PUSH2 0x2D6C JUMPI POP PUSH1 0xF NOT DUP2 AND DUP1 DUP3 SUB PUSH2 0x2D18 JUMPI JUMPDEST POP POP POP POP PUSH2 0x2617 PUSH1 0x40 MLOAD PUSH2 0x260D DUP2 PUSH2 0x31E1 JUMP JUMPDEST PUSH1 0x0 DUP2 MSTORE DUP3 PUSH2 0x3858 JUMP JUMPDEST PUSH2 0x2C05 JUMPI JUMPDEST POP PUSH2 0x262C PUSH1 0x40 MLOAD PUSH2 0x260D DUP2 PUSH2 0x31E1 JUMP JUMPDEST PUSH2 0x2AE7 JUMPI JUMPDEST POP PUSH1 0x44 CALLDATALOAD PUSH1 0x1 PUSH1 0x1 PUSH1 0xA0 SHL SUB AND PUSH2 0x2AB6 JUMPI JUMPDEST PUSH1 0x64 CALLDATALOAD PUSH2 0x2A9C JUMPI JUMPDEST DUP4 PUSH1 0x0 MSTORE PUSH1 0x1 PUSH1 0x20 MSTORE PUSH1 0x40 PUSH1 0x0 KECCAK256 PUSH1 0xA4 CALLDATALOAD PUSH1 0x7 DUP3 ADD SSTORE PUSH1 0xC4 CALLDATALOAD PUSH2 0x2A8F JUMPI JUMPDEST PUSH1 0xE4 CALLDATALOAD PUSH2 0x2A82 JUMPI JUMPDEST PUSH2 0x104 CALLDATALOAD PUSH2 0x2A74 JUMPI JUMPDEST DUP6 MLOAD SWAP2 DUP3 PUSH2 0x29EF JUMPI JUMPDEST POP POP POP DUP2 MLOAD PUSH2 0x2894 JUMPI JUMPDEST POP PUSH2 0x2837 SWAP1 PUSH2 0x281E PUSH1 0x20 SWAP5 DUP5 PUSH1 0x0 MSTORE PUSH1 0x1 DUP7 MSTORE PUSH2 0x26BB CALLER PUSH1 0x1 DUP1 PUSH1 0xA0 SHL SUB PUSH1 0x4 PUSH1 0x40 PUSH1 0x0 KECCAK256 ADD SLOAD AND EQ PUSH2 0x3608 JUMP JUMPDEST PUSH1 0x0 DUP6 DUP2 MSTORE PUSH1 0x1 DUP8 MSTORE PUSH1 0x40 SWAP1 KECCAK256 PUSH1 0x5 ADD SLOAD PUSH2 0x26E6 SWAP1 PUSH1 0x44 CALLDATALOAD PUSH1 0x1 PUSH1 0x1 PUSH1 0xA0 SHL SUB SWAP1 DUP2 AND SWAP2 AND EQ PUSH2 0x3608 JUMP JUMPDEST DUP5 PUSH1 0x0 MSTORE PUSH1 0x1 DUP7 MSTORE PUSH2 0x2703 PUSH1 0x64 CALLDATALOAD PUSH1 0x6 PUSH1 0x40 PUSH1 0x0 KECCAK256 ADD SLOAD EQ PUSH2 0x3608 JUMP JUMPDEST DUP5 PUSH1 0x0 MSTORE PUSH1 0x1 DUP7 MSTORE PUSH2 0x2720 PUSH1 0xA4 CALLDATALOAD PUSH1 0x7 PUSH1 0x40 PUSH1 0x0 KECCAK256 ADD SLOAD EQ PUSH2 0x3608 JUMP JUMPDEST DUP5 PUSH1 0x0 MSTORE PUSH1 0x1 DUP7 MSTORE PUSH2 0x273D PUSH1 0xC4 CALLDATALOAD PUSH1 0x8 PUSH1 0x40 PUSH1 0x0 KECCAK256 ADD SLOAD EQ PUSH2 0x3608 JUMP JUMPDEST DUP5 PUSH1 0x0 MSTORE PUSH1 0x1 DUP7 MSTORE PUSH2 0x275A PUSH1 0xE4 CALLDATALOAD PUSH1 0x9 PUSH1 0x40 PUSH1 0x0 KECCAK256 ADD SLOAD EQ PUSH2 0x3608 JUMP JUMPDEST DUP5 PUSH1 0x0 MSTORE PUSH1 0x1 DUP7 MSTORE PUSH2 0x2775 PUSH1 0xA PUSH1 0x40 PUSH1 0x0 KECCAK256 ADD SLOAD TIMESTAMP EQ PUSH2 0x3608 JUMP JUMPDEST DUP5 PUSH1 0x0 MSTORE PUSH1 0x1 DUP7 MSTORE PUSH2 0x2793 PUSH2 0x104 CALLDATALOAD PUSH1 0xB PUSH1 0x40 PUSH1 0x0 KECCAK256 ADD SLOAD EQ PUSH2 0x3608 JUMP JUMPDEST DUP5 PUSH1 0x0 MSTORE PUSH1 0x1 DUP7 MSTORE PUSH2 0x27AD PUSH1 0xC PUSH1 0x40 PUSH1 0x0 KECCAK256 ADD SLOAD ISZERO PUSH2 0x3608 JUMP JUMPDEST DUP5 PUSH1 0x0 MSTORE PUSH1 0x1 DUP7 MSTORE PUSH2 0x27C7 PUSH1 0xD PUSH1 0x40 PUSH1 0x0 KECCAK256 ADD SLOAD ISZERO PUSH2 0x3608 JUMP JUMPDEST PUSH1 0x0 DUP6 DUP2 MSTORE PUSH1 0x1 DUP8 MSTORE PUSH1 0x40 SWAP1 KECCAK256 PUSH1 0xE ADD SLOAD PUSH2 0x27EB SWAP1 PUSH1 0x1 PUSH1 0x1 PUSH1 0xA0 SHL SUB AND ISZERO PUSH2 0x3608 JUMP JUMPDEST DUP5 PUSH1 0x0 MSTORE PUSH1 0x1 DUP7 MSTORE PUSH2 0x2805 PUSH1 0xF PUSH1 0x40 PUSH1 0x0 KECCAK256 ADD SLOAD ISZERO PUSH2 0x3608 JUMP JUMPDEST DUP5 PUSH1 0x0 MSTORE PUSH1 0x1 DUP7 MSTORE PUSH1 0x10 PUSH1 0x40 PUSH1 0x0 KECCAK256 ADD SLOAD SWAP1 MLOAD EQ PUSH2 0x3608 JUMP JUMPDEST DUP3 PUSH1 0x0 MSTORE PUSH1 0x1 DUP5 MSTORE PUSH1 0x11 PUSH1 0x40 PUSH1 0x0 KECCAK256 ADD SLOAD SWAP1 MLOAD EQ PUSH2 0x3608 JUMP JUMPDEST PUSH32 0x4CBD4364540CA3A23C9B2864788CEBF4A010674EB304D04A04578850EE34E2AA PUSH1 0xC0 PUSH1 0x40 MLOAD DUP4 DUP2 MSTORE CALLER DUP6 DUP3 ADD MSTORE PUSH1 0x1 DUP1 PUSH1 0xA0 SHL SUB PUSH1 0x44 CALLDATALOAD AND PUSH1 0x40 DUP3 ADD MSTORE PUSH1 0x64 CALLDATALOAD PUSH1 0x60 DUP3 ADD MSTORE PUSH1 0xA4 CALLDATALOAD PUSH1 0x80 DUP3 ADD MSTORE TIMESTAMP PUSH1 0xA0 DUP3 ADD MSTORE LOG1 PUSH1 0x40 MLOAD SWAP1 DUP2 MSTORE RETURN JUMPDEST SWAP3 DUP3 PUSH1 0x0 MSTORE PUSH1 0x1 PUSH1 0x20 MSTORE PUSH1 0x11 PUSH1 0x40 PUSH1 0x0 KECCAK256 ADD SWAP4 DUP3 MLOAD SWAP1 PUSH1 0x1 PUSH1 0x1 PUSH1 0x40 SHL SUB DUP3 GT PUSH2 0x321 JUMPI PUSH1 0x1 PUSH1 0x40 SHL DUP3 GT PUSH2 0x321 JUMPI DUP6 SLOAD DUP3 DUP8 SSTORE DUP1 DUP4 LT PUSH2 0x299D JUMPI JUMPDEST POP SWAP5 PUSH1 0x0 MSTORE PUSH1 0x20 PUSH1 0x0 KECCAK256 SWAP1 PUSH1 0x0 JUMPDEST DUP2 PUSH1 0x4 SHR DUP2 LT PUSH2 0x295C JUMPI POP PUSH1 0xF NOT DUP2 AND DUP1 DUP3 SUB PUSH2 0x28FF JUMPI JUMPDEST POP POP POP SWAP3 PUSH2 0x268D JUMP JUMPDEST SWAP6 PUSH1 0x0 SWAP7 PUSH1 0x0 JUMPDEST DUP2 DUP5 SUB DUP2 LT PUSH2 0x2929 JUMPI POP POP POP PUSH1 0x4 SHR ADD SWAP4 SWAP1 SWAP4 SSTORE PUSH1 0x20 SWAP3 PUSH2 0x281E PUSH2 0x2837 DUP7 PUSH2 0x28F6 JUMP JUMPDEST SWAP1 SWAP2 SWAP8 PUSH1 0x20 PUSH2 0x2952 PUSH1 0x1 SWAP3 PUSH2 0xFFFF DUP13 MLOAD AND SWAP1 DUP6 DUP6 SHL PUSH1 0x3 SHL SWAP2 PUSH2 0xFFFF DUP1 SWAP2 AND DUP4 SHL SWAP3 SHL NOT AND OR SWAP1 JUMP JUMPDEST SWAP10 ADD SWAP3 SWAP2 ADD PUSH2 0x2906 JUMP JUMPDEST PUSH1 0x0 DUP1 JUMPDEST PUSH1 0x10 DUP2 LT PUSH2 0x2975 JUMPI POP DUP4 DUP3 ADD SSTORE PUSH1 0x1 ADD PUSH2 0x28DE JUMP JUMPDEST DUP9 MLOAD SWAP1 SWAP9 SWAP2 PUSH1 0x1 SWAP2 PUSH1 0x20 SWAP2 PUSH2 0xFFFF PUSH1 0x4 DUP14 SWAP1 SHL DUP2 DUP2 SHL NOT SWAP1 SWAP3 AND SWAP3 AND SWAP1 SHL OR SWAP3 ADD SWAP9 ADD PUSH2 0x2960 JUMP JUMPDEST PUSH2 0x29CE SWAP1 DUP8 PUSH1 0x0 MSTORE PUSH1 0x20 PUSH1 0x0 KECCAK256 PUSH1 0xF DUP1 DUP7 ADD PUSH1 0x4 SHR DUP3 ADD SWAP3 PUSH1 0x1E DUP8 PUSH1 0x1 SHL AND DUP1 PUSH2 0x29D4 JUMPI JUMPDEST POP ADD PUSH1 0x4 SHR ADD SWAP1 PUSH2 0x3625 JUMP JUMPDEST DUP7 PUSH2 0x28D0 JUMP JUMPDEST PUSH1 0x0 NOT SWAP1 DUP2 DUP7 ADD SWAP2 DUP3 SLOAD SWAP2 PUSH1 0x20 SUB PUSH1 0x3 SHL SHR AND SWAP1 SSTORE DUP12 PUSH2 0x29C2 JUMP JUMPDEST PUSH1 0x1 PUSH1 0x1 PUSH1 0x40 SHL SUB DUP4 GT PUSH2 0x321 JUMPI PUSH1 0x1 PUSH1 0x40 SHL DUP4 GT PUSH2 0x321 JUMPI PUSH1 0x10 SWAP1 DUP2 DUP4 ADD SLOAD DUP5 DUP4 DUP6 ADD SSTORE DUP1 DUP6 LT PUSH2 0x2A54 JUMPI JUMPDEST POP SWAP2 ADD PUSH1 0x0 MSTORE PUSH1 0x20 PUSH1 0x0 KECCAK256 PUSH1 0x0 JUMPDEST DUP4 DUP2 LT PUSH2 0x2A37 JUMPI POP PUSH2 0x2683 JUMP JUMPDEST DUP3 MLOAD PUSH1 0x1 PUSH1 0x1 PUSH1 0xA0 SHL SUB AND DUP2 DUP4 ADD SSTORE PUSH1 0x20 SWAP1 SWAP3 ADD SWAP2 PUSH1 0x1 ADD PUSH2 0x2A2A JUMP JUMPDEST PUSH2 0x2A6E SWAP1 DUP4 DUP6 ADD PUSH1 0x0 MSTORE DUP6 PUSH1 0x20 PUSH1 0x0 KECCAK256 SWAP2 DUP3 ADD SWAP2 ADD PUSH2 0x3625 JUMP JUMPDEST DUP9 PUSH2 0x2A1C JUMP JUMPDEST PUSH2 0x104 CALLDATALOAD PUSH1 0xB DUP3 ADD SSTORE PUSH2 0x267A JUMP JUMPDEST PUSH1 0xE4 CALLDATALOAD PUSH1 0x9 DUP3 ADD SSTORE PUSH2 0x2671 JUMP JUMPDEST PUSH1 0xC4 CALLDATALOAD PUSH1 0x8 DUP3 ADD SSTORE PUSH2 0x2669 JUMP JUMPDEST DUP4 PUSH1 0x0 MSTORE PUSH1 0x1 PUSH1 0x20 MSTORE PUSH1 0x64 CALLDATALOAD PUSH1 0x6 PUSH1 0x40 PUSH1 0x0 KECCAK256 ADD SSTORE PUSH2 0x264B JUMP JUMPDEST PUSH1 0x0 DUP5 DUP2 MSTORE PUSH1 0x1 PUSH1 0x20 MSTORE PUSH1 0x40 SWAP1 KECCAK256 PUSH1 0x5 ADD DUP1 SLOAD PUSH1 0x1 PUSH1 0x1 PUSH1 0xA0 SHL SUB NOT AND PUSH1 0x44 CALLDATALOAD PUSH1 0x1 PUSH1 0x1 PUSH1 0xA0 SHL SUB AND OR SWAP1 SSTORE PUSH2 0x2643 JUMP JUMPDEST DUP5 PUSH1 0x0 MSTORE PUSH1 0x1 PUSH1 0x20 MSTORE PUSH1 0x3 PUSH1 0x40 PUSH1 0x0 KECCAK256 ADD SWAP1 DUP1 MLOAD SWAP1 PUSH1 0x1 PUSH1 0x1 PUSH1 0x40 SHL SUB DUP3 GT PUSH2 0x321 JUMPI DUP2 SWAP1 PUSH2 0x2B16 DUP5 SLOAD PUSH2 0x328A JUMP JUMPDEST PUSH1 0x1F DUP2 GT PUSH2 0x2BC8 JUMPI JUMPDEST POP PUSH1 0x20 SWAP1 PUSH1 0x1F DUP4 GT PUSH1 0x1 EQ PUSH2 0x2B5C JUMPI PUSH1 0x0 SWAP3 PUSH2 0x2B51 JUMPI JUMPDEST POP POP DUP2 PUSH1 0x1 SHL SWAP2 PUSH1 0x0 NOT SWAP1 PUSH1 0x3 SHL SHR NOT AND OR SWAP1 SSTORE JUMPDEST DUP6 PUSH2 0x2631 JUMP JUMPDEST ADD MLOAD SWAP1 POP DUP9 DUP1 PUSH2 0x2B36 JUMP JUMPDEST SWAP3 POP DUP4 PUSH1 0x0 MSTORE PUSH1 0x20 PUSH1 0x0 KECCAK256 SWAP1 PUSH1 0x0 SWAP4 JUMPDEST PUSH1 0x1F NOT DUP5 AND DUP6 LT PUSH2 0x2BAD JUMPI PUSH1 0x1 SWAP5 POP DUP4 PUSH1 0x1F NOT DUP2 AND LT PUSH2 0x2B94 JUMPI JUMPDEST POP POP POP DUP2 SHL ADD SWAP1 SSTORE PUSH2 0x2B4B JUMP JUMPDEST ADD MLOAD PUSH1 0x0 NOT PUSH1 0xF8 DUP5 PUSH1 0x3 SHL AND SHR NOT AND SWAP1 SSTORE DUP9 DUP1 DUP1 PUSH2 0x2B87 JUMP JUMPDEST DUP2 DUP2 ADD MLOAD DUP4 SSTORE PUSH1 0x20 SWAP5 DUP6 ADD SWAP5 PUSH1 0x1 SWAP1 SWAP4 ADD SWAP3 SWAP1 SWAP2 ADD SWAP1 PUSH2 0x2B6C JUMP JUMPDEST PUSH2 0x2BF5 SWAP1 DUP6 PUSH1 0x0 MSTORE PUSH1 0x20 PUSH1 0x0 KECCAK256 PUSH1 0x1F DUP6 ADD PUSH1 0x5 SHR DUP2 ADD SWAP2 PUSH1 0x20 DUP7 LT PUSH2 0x2BFB JUMPI JUMPDEST PUSH1 0x1F ADD PUSH1 0x5 SHR ADD SWAP1 PUSH2 0x3625 JUMP JUMPDEST DUP10 PUSH2 0x2B1F JUMP JUMPDEST SWAP1 SWAP2 POP DUP2 SWAP1 PUSH2 0x2BE8 JUMP JUMPDEST DUP6 PUSH1 0x0 MSTORE PUSH1 0x1 PUSH1 0x20 MSTORE PUSH1 0x2 PUSH1 0x40 PUSH1 0x0 KECCAK256 ADD SWAP1 DUP1 MLOAD SWAP1 PUSH1 0x1 PUSH1 0x1 PUSH1 0x40 SHL SUB DUP3 GT PUSH2 0x321 JUMPI DUP2 SWAP1 PUSH2 0x2C34 DUP5 SLOAD PUSH2 0x328A JUMP JUMPDEST PUSH1 0x1F DUP2 GT PUSH2 0x2CE6 JUMPI JUMPDEST POP PUSH1 0x20 SWAP1 PUSH1 0x1F DUP4 GT PUSH1 0x1 EQ PUSH2 0x2C7A JUMPI PUSH1 0x0 SWAP3 PUSH2 0x2C6F JUMPI JUMPDEST POP POP DUP2 PUSH1 0x1 SHL SWAP2 PUSH1 0x0 NOT SWAP1 PUSH1 0x3 SHL SHR NOT AND OR SWAP1 SSTORE JUMPDEST DUP7 PUSH2 0x261C JUMP JUMPDEST ADD MLOAD SWAP1 POP DUP10 DUP1 PUSH2 0x2C54 JUMP JUMPDEST SWAP3 POP DUP4 PUSH1 0x0 MSTORE PUSH1 0x20 PUSH1 0x0 KECCAK256 SWAP1 PUSH1 0x0 SWAP4 JUMPDEST PUSH1 0x1F NOT DUP5 AND DUP6 LT PUSH2 0x2CCB JUMPI PUSH1 0x1 SWAP5 POP DUP4 PUSH1 0x1F NOT DUP2 AND LT PUSH2 0x2CB2 JUMPI JUMPDEST POP POP POP DUP2 SHL ADD SWAP1 SSTORE PUSH2 0x2C69 JUMP JUMPDEST ADD MLOAD PUSH1 0x0 NOT PUSH1 0xF8 DUP5 PUSH1 0x3 SHL AND SHR NOT AND SWAP1 SSTORE DUP10 DUP1 DUP1 PUSH2 0x2CA5 JUMP JUMPDEST DUP2 DUP2 ADD MLOAD DUP4 SSTORE PUSH1 0x20 SWAP5 DUP6 ADD SWAP5 PUSH1 0x1 SWAP1 SWAP4 ADD SWAP3 SWAP1 SWAP2 ADD SWAP1 PUSH2 0x2C8A JUMP JUMPDEST PUSH2 0x2D12 SWAP1 DUP6 PUSH1 0x0 MSTORE PUSH1 0x20 PUSH1 0x0 KECCAK256 PUSH1 0x1F DUP6 ADD PUSH1 0x5 SHR DUP2 ADD SWAP2 PUSH1 0x20 DUP7 LT PUSH2 0x2BFB JUMPI PUSH1 0x1F ADD PUSH1 0x5 SHR ADD SWAP1 PUSH2 0x3625 JUMP JUMPDEST DUP11 PUSH2 0x2C3D JUMP JUMPDEST SWAP3 PUSH1 0x0 SWAP4 PUSH1 0x0 JUMPDEST DUP2 DUP5 SUB DUP2 LT PUSH2 0x2D39 JUMPI POP POP POP PUSH1 0x4 SHR ADD SSTORE DUP8 DUP1 DUP1 DUP1 PUSH2 0x25FA JUMP JUMPDEST SWAP1 SWAP2 SWAP5 PUSH1 0x20 PUSH2 0x2D62 PUSH1 0x1 SWAP3 PUSH2 0xFFFF DUP10 MLOAD AND SWAP1 DUP6 DUP6 SHL PUSH1 0x3 SHL SWAP2 PUSH2 0xFFFF DUP1 SWAP2 AND DUP4 SHL SWAP3 SHL NOT AND OR SWAP1 JUMP JUMPDEST SWAP7 ADD SWAP3 SWAP2 ADD PUSH2 0x2D1F JUMP JUMPDEST PUSH1 0x0 DUP1 JUMPDEST PUSH1 0x10 DUP2 LT PUSH2 0x2D85 JUMPI POP DUP4 DUP3 ADD SSTORE PUSH1 0x1 ADD PUSH2 0x25E2 JUMP JUMPDEST DUP6 MLOAD SWAP1 SWAP6 SWAP2 PUSH1 0x1 SWAP2 PUSH1 0x20 SWAP2 PUSH2 0xFFFF PUSH1 0x4 DUP11 SWAP1 SHL DUP2 DUP2 SHL NOT SWAP1 SWAP3 AND SWAP3 AND SWAP1 SHL OR SWAP3 ADD SWAP6 ADD PUSH2 0x2D70 JUMP JUMPDEST PUSH2 0x2DE0 SWAP1 DUP5 DUP8 ADD PUSH1 0x0 MSTORE PUSH1 0xF DUP5 PUSH1 0x0 KECCAK256 SWAP2 PUSH1 0x1E DUP9 PUSH1 0x1 SHL AND DUP1 PUSH2 0x2DE6 JUMPI JUMPDEST POP ADD PUSH1 0x4 SHR DUP2 ADD SWAP1 PUSH1 0xF DUP8 ADD PUSH1 0x4 SHR ADD PUSH2 0x3625 JUMP JUMPDEST DUP13 PUSH2 0x25D2 JUMP JUMPDEST PUSH1 0x0 NOT SWAP1 DUP2 DUP5 DUP12 ADD PUSH1 0x4 SHR DUP7 ADD ADD SWAP2 DUP3 SLOAD SWAP2 DUP10 SUB PUSH1 0x3 SHL SHR AND SWAP1 SSTORE CODESIZE PUSH2 0x2DCB JUMP JUMPDEST DUP3 MLOAD PUSH1 0x1 PUSH1 0x1 PUSH1 0xA0 SHL SUB AND DUP2 DUP4 ADD SSTORE PUSH1 0x20 SWAP1 SWAP3 ADD SWAP2 PUSH1 0x1 ADD PUSH2 0x2590 JUMP JUMPDEST PUSH2 0x2E3E SWAP1 PUSH1 0x10 DUP8 ADD PUSH1 0x0 MSTORE DUP5 DUP5 PUSH1 0x0 KECCAK256 SWAP2 DUP3 ADD SWAP2 ADD PUSH2 0x3625 JUMP JUMPDEST DUP13 PUSH2 0x257F JUMP JUMPDEST ADD MLOAD SWAP1 POP DUP12 DUP1 PUSH2 0x247C JUMP JUMPDEST SWAP3 POP PUSH1 0x3 DUP6 ADD PUSH1 0x0 MSTORE PUSH1 0x20 PUSH1 0x0 KECCAK256 SWAP1 PUSH1 0x0 SWAP4 JUMPDEST PUSH1 0x1F NOT DUP5 AND DUP6 LT PUSH2 0x2EA6 JUMPI PUSH1 0x1 SWAP5 POP DUP4 PUSH1 0x1F NOT DUP2 AND LT PUSH2 0x2E8D JUMPI JUMPDEST POP POP POP DUP2 SHL ADD PUSH1 0x3 DUP4 ADD SSTORE PUSH2 0x2494 JUMP JUMPDEST ADD MLOAD PUSH1 0x0 NOT PUSH1 0xF8 DUP5 PUSH1 0x3 SHL AND SHR NOT AND SWAP1 SSTORE DUP12 DUP1 DUP1 PUSH2 0x2E7D JUMP JUMPDEST DUP2 DUP2 ADD MLOAD DUP4 SSTORE PUSH1 0x20 SWAP5 DUP6 ADD SWAP5 PUSH1 0x1 SWAP1 SWAP4 ADD SWAP3 SWAP1 SWAP2 ADD SWAP1 PUSH2 0x2E62 JUMP JUMPDEST PUSH2 0x2EF0 SWAP1 PUSH1 0x3 DUP8 ADD PUSH1 0x0 MSTORE PUSH1 0x20 PUSH1 0x0 KECCAK256 PUSH1 0x1F DUP6 ADD PUSH1 0x5 SHR DUP2 ADD SWAP2 PUSH1 0x20 DUP7 LT PUSH2 0x2BFB JUMPI PUSH1 0x1F ADD PUSH1 0x5 SHR ADD SWAP1 PUSH2 0x3625 JUMP JUMPDEST DUP13 PUSH2 0x2465 JUMP JUMPDEST ADD MLOAD SWAP1 POP DUP12 DUP1 PUSH2 0x241F JUMP JUMPDEST SWAP3 POP PUSH1 0x2 DUP6 ADD PUSH1 0x0 MSTORE PUSH1 0x20 PUSH1 0x0 KECCAK256 SWAP1 PUSH1 0x0 SWAP4 JUMPDEST PUSH1 0x1F NOT DUP5 AND DUP6 LT PUSH2 0x2F58 JUMPI PUSH1 0x1 SWAP5 POP DUP4 PUSH1 0x1F NOT DUP2 AND LT PUSH2 0x2F3F JUMPI JUMPDEST POP POP POP DUP2 SHL ADD PUSH1 0x2 DUP4 ADD SSTORE PUSH2 0x2437 JUMP JUMPDEST ADD MLOAD PUSH1 0x0 NOT PUSH1 0xF8 DUP5 PUSH1 0x3 SHL AND SHR NOT AND SWAP1 SSTORE DUP12 DUP1 DUP1 PUSH2 0x2F2F JUMP JUMPDEST DUP2 DUP2 ADD MLOAD DUP4 SSTORE PUSH1 0x20 SWAP5 DUP6 ADD SWAP5 PUSH1 0x1 SWAP1 SWAP4 ADD SWAP3 SWAP1 SWAP2 ADD SWAP1 PUSH2 0x2F14 JUMP JUMPDEST PUSH2 0x2FA2 SWAP1 PUSH1 0x2 DUP8 ADD PUSH1 0x0 MSTORE PUSH1 0x20 PUSH1 0x0 KECCAK256 PUSH1 0x1F DUP6 ADD PUSH1 0x5 SHR DUP2 ADD SWAP2 PUSH1 0x20 DUP7 LT PUSH2 0x2BFB JUMPI PUSH1 0x1F ADD PUSH1 0x5 SHR ADD SWAP1 PUSH2 0x3625 JUMP JUMPDEST DUP13 PUSH2 0x2408 JUMP JUMPDEST PUSH1 0x40 MLOAD PUSH3 0x461BCD PUSH1 0xE5 SHL DUP2 MSTORE PUSH1 0x20 PUSH1 0x4 DUP3 ADD MSTORE PUSH1 0x29 PUSH1 0x24 DUP3 ADD MSTORE PUSH32 0x52656365697665727320616E642070657263656E7461676573206C656E677468 PUSH1 0x44 DUP3 ADD MSTORE PUSH9 0x40DAD2E6DAC2E8C6D PUSH1 0xBB SHL PUSH1 0x64 DUP3 ADD MSTORE PUSH1 0x84 SWAP1 REVERT JUMPDEST PUSH1 0x40 MLOAD PUSH3 0x461BCD PUSH1 0xE5 SHL DUP2 MSTORE PUSH1 0x20 PUSH1 0x4 DUP3 ADD MSTORE PUSH1 0x24 DUP1 DUP3 ADD MSTORE PUSH32 0x4F6E6C79204E4654206F776E65722063616E2063726561746520616E20617563 PUSH1 0x44 DUP3 ADD MSTORE PUSH4 0x3A34B7B7 PUSH1 0xE1 SHL PUSH1 0x64 DUP3 ADD MSTORE PUSH1 0x84 SWAP1 REVERT JUMPDEST PUSH2 0x3069 SWAP2 POP PUSH1 0x20 RETURNDATASIZE PUSH1 0x20 GT PUSH2 0x1C3E JUMPI PUSH2 0x1C30 DUP2 DUP4 PUSH2 0x31FC JUMP JUMPDEST DUP8 PUSH2 0x216E JUMP JUMPDEST PUSH2 0xFFFF DUP3 CALLDATALOAD AND DUP3 CALLDATALOAD SUB PUSH2 0x1A1 JUMPI DUP2 CALLDATALOAD DUP2 MSTORE PUSH1 0x20 SWAP2 DUP3 ADD SWAP2 ADD PUSH2 0x211B JUMP JUMPDEST DUP2 CALLDATALOAD PUSH1 0x1 PUSH1 0x1 PUSH1 0xA0 SHL SUB DUP2 AND SWAP1 SUB PUSH2 0x1A1 JUMPI DUP2 CALLDATALOAD DUP2 MSTORE PUSH1 0x20 SWAP2 DUP3 ADD SWAP2 ADD PUSH2 0x2091 JUMP JUMPDEST PUSH1 0x20 SWAP1 DUP2 PUSH1 0x3 NOT CALLDATASIZE ADD SLT PUSH2 0x1A1 JUMPI PUSH2 0x30C4 PUSH2 0x3199 JUMP JUMPDEST SWAP1 CALLVALUE ISZERO PUSH2 0x314B JUMPI POP PUSH1 0x1 PUSH1 0x1 PUSH1 0xA0 SHL SUB AND PUSH1 0x0 DUP2 DUP2 MSTORE PUSH1 0x1 DUP4 MSTORE PUSH1 0x40 SWAP1 KECCAK256 PUSH1 0xF ADD DUP1 SLOAD PUSH2 0x30F2 SWAP1 CALLVALUE SWAP1 PUSH2 0x3570 JUMP JUMPDEST SWAP1 SSTORE PUSH1 0x40 MLOAD CALLVALUE DUP2 MSTORE TIMESTAMP DUP4 DUP3 ADD MSTORE PUSH32 0x106AAC375BBCF013D1E52338BBF9E740009A1A3A6869F8DAA1B72AA1620F5FEC PUSH1 0x40 CALLER SWAP3 LOG2 PUSH1 0x0 MSTORE PUSH1 0x4 DUP2 MSTORE PUSH1 0x40 PUSH1 0x0 KECCAK256 SWAP1 CALLER PUSH1 0x0 MSTORE MSTORE PUSH1 0x40 PUSH1 0x0 KECCAK256 PUSH2 0x3147 CALLVALUE DUP3 SLOAD PUSH2 0x3570 JUMP JUMPDEST SWAP1 SSTORE STOP JUMPDEST PUSH3 0x461BCD PUSH1 0xE5 SHL DUP2 MSTORE PUSH1 0x4 DUP2 ADD DUP4 SWAP1 MSTORE PUSH1 0x24 DUP1 DUP3 ADD MSTORE PUSH32 0x5468652076616C75652073656E74206973206E6F742067726561746572207468 PUSH1 0x44 DUP3 ADD MSTORE PUSH4 0x616E203 PUSH1 0xE4 SHL PUSH1 0x64 DUP3 ADD MSTORE PUSH1 0x84 SWAP1 REVERT JUMPDEST PUSH1 0x4 CALLDATALOAD SWAP1 PUSH1 0x1 PUSH1 0x1 PUSH1 0xA0 SHL SUB DUP3 AND DUP3 SUB PUSH2 0x1A1 JUMPI JUMP JUMPDEST PUSH1 0x24 CALLDATALOAD SWAP1 PUSH1 0x1 PUSH1 0x1 PUSH1 0xA0 SHL SUB DUP3 AND DUP3 SUB PUSH2 0x1A1 JUMPI JUMP JUMPDEST PUSH2 0x240 DUP2 ADD SWAP1 DUP2 LT PUSH1 0x1 PUSH1 0x1 PUSH1 0x40 SHL SUB DUP3 GT OR PUSH2 0x321 JUMPI PUSH1 0x40 MSTORE JUMP JUMPDEST PUSH1 0x20 DUP2 ADD SWAP1 DUP2 LT PUSH1 0x1 PUSH1 0x1 PUSH1 0x40 SHL SUB DUP3 GT OR PUSH2 0x321 JUMPI PUSH1 0x40 MSTORE JUMP JUMPDEST SWAP1 PUSH1 0x1F DUP1 NOT SWAP2 ADD AND DUP2 ADD SWAP1 DUP2 LT PUSH1 0x1 PUSH1 0x1 PUSH1 0x40 SHL SUB DUP3 GT OR PUSH2 0x321 JUMPI PUSH1 0x40 MSTORE JUMP JUMPDEST DUP2 PUSH1 0x1F DUP3 ADD SLT ISZERO PUSH2 0x1A1 JUMPI DUP1 CALLDATALOAD SWAP1 PUSH1 0x1 PUSH1 0x1 PUSH1 0x40 SHL SUB DUP3 GT PUSH2 0x321 JUMPI PUSH1 0x40 MLOAD SWAP3 PUSH2 0x3251 PUSH1 0x1F DUP5 ADD PUSH1 0x1F NOT AND PUSH1 0x20 ADD DUP6 PUSH2 0x31FC JUMP JUMPDEST DUP3 DUP5 MSTORE PUSH1 0x20 DUP4 DUP4 ADD ADD GT PUSH2 0x1A1 JUMPI DUP2 PUSH1 0x0 SWAP3 PUSH1 0x20 DUP1 SWAP4 ADD DUP4 DUP7 ADD CALLDATACOPY DUP4 ADD ADD MSTORE SWAP1 JUMP JUMPDEST PUSH1 0x1 PUSH1 0x1 PUSH1 0x40 SHL SUB DUP2 GT PUSH2 0x321 JUMPI PUSH1 0x5 SHL PUSH1 0x20 ADD SWAP1 JUMP JUMPDEST SWAP1 PUSH1 0x1 DUP3 DUP2 SHR SWAP3 AND DUP1 ISZERO PUSH2 0x32BA JUMPI JUMPDEST PUSH1 0x20 DUP4 LT EQ PUSH2 0x32A4 JUMPI JUMP JUMPDEST PUSH4 0x4E487B71 PUSH1 0xE0 SHL PUSH1 0x0 MSTORE PUSH1 0x22 PUSH1 0x4 MSTORE PUSH1 0x24 PUSH1 0x0 REVERT JUMPDEST SWAP2 PUSH1 0x7F AND SWAP2 PUSH2 0x3299 JUMP JUMPDEST SWAP1 PUSH1 0x40 MLOAD SWAP2 DUP3 PUSH1 0x0 DUP3 SLOAD PUSH2 0x32D7 DUP2 PUSH2 0x328A JUMP JUMPDEST SWAP1 DUP2 DUP5 MSTORE PUSH1 0x20 SWAP5 PUSH1 0x1 SWAP2 PUSH1 0x1 DUP2 AND SWAP1 DUP2 PUSH1 0x0 EQ PUSH2 0x3347 JUMPI POP PUSH1 0x1 EQ PUSH2 0x3308 JUMPI JUMPDEST POP POP POP PUSH2 0x3306 SWAP3 POP SUB DUP4 PUSH2 0x31FC JUMP JUMPDEST JUMP JUMPDEST PUSH1 0x0 SWAP1 DUP2 MSTORE DUP6 DUP2 KECCAK256 SWAP6 SWAP4 POP SWAP2 SWAP1 JUMPDEST DUP2 DUP4 LT PUSH2 0x332F JUMPI POP POP PUSH2 0x3306 SWAP4 POP DUP3 ADD ADD CODESIZE DUP1 DUP1 PUSH2 0x32F7 JUMP JUMPDEST DUP6 SLOAD DUP9 DUP5 ADD DUP6 ADD MSTORE SWAP5 DUP6 ADD SWAP5 DUP8 SWAP5 POP SWAP2 DUP4 ADD SWAP2 PUSH2 0x3316 JUMP JUMPDEST SWAP3 POP POP POP PUSH2 0x3306 SWAP5 SWAP3 POP PUSH1 0xFF NOT AND DUP3 DUP5 ADD MSTORE ISZERO ISZERO PUSH1 0x5 SHL DUP3 ADD ADD CODESIZE DUP1 DUP1 PUSH2 0x32F7 JUMP JUMPDEST PUSH1 0x0 JUMPDEST DUP4 DUP2 LT PUSH2 0x337C JUMPI POP POP PUSH1 0x0 SWAP2 ADD MSTORE JUMP JUMPDEST DUP2 DUP2 ADD MLOAD DUP4 DUP3 ADD MSTORE PUSH1 0x20 ADD PUSH2 0x336C JUMP JUMPDEST SWAP1 PUSH1 0x20 SWAP2 PUSH2 0x33A5 DUP2 MLOAD DUP1 SWAP3 DUP2 DUP6 MSTORE DUP6 DUP1 DUP7 ADD SWAP2 ADD PUSH2 0x3369 JUMP JUMPDEST PUSH1 0x1F ADD PUSH1 0x1F NOT AND ADD ADD SWAP1 JUMP JUMPDEST PUSH1 0x2 SLOAD DUP2 LT ISZERO PUSH2 0x33E8 JUMPI PUSH1 0x2 PUSH1 0x0 MSTORE PUSH32 0x405787FA12A823E0F2B7631CC41B3BA8828B3321CA811111FA75CD3AA3BB5ACE ADD SWAP1 PUSH1 0x0 SWAP1 JUMP JUMPDEST PUSH4 0x4E487B71 PUSH1 0xE0 SHL PUSH1 0x0 MSTORE PUSH1 0x32 PUSH1 0x4 MSTORE PUSH1 0x24 PUSH1 0x0 REVERT JUMPDEST DUP1 SLOAD DUP3 LT ISZERO PUSH2 0x33E8 JUMPI PUSH1 0x0 MSTORE PUSH1 0x20 PUSH1 0x0 KECCAK256 ADD SWAP1 PUSH1 0x0 SWAP1 JUMP JUMPDEST SWAP1 PUSH2 0x240 SWAP1 PUSH1 0x1 DUP1 PUSH1 0xA0 SHL SUB SWAP1 DUP2 DUP5 MLOAD AND DUP2 MSTORE PUSH2 0x3462 PUSH2 0x3450 PUSH1 0x20 SWAP5 DUP5 DUP7 DUP9 ADD MLOAD AND DUP7 DUP6 ADD MSTORE PUSH1 0x40 DUP8 ADD MLOAD SWAP1 DUP1 PUSH1 0x40 DUP7 ADD MSTORE DUP5 ADD SWAP1 PUSH2 0x338C JUMP JUMPDEST PUSH1 0x60 DUP7 ADD MLOAD DUP4 DUP3 SUB PUSH1 0x60 DUP6 ADD MSTORE PUSH2 0x338C JUMP JUMPDEST SWAP2 DUP1 PUSH1 0x80 DUP7 ADD MLOAD AND PUSH1 0x80 DUP4 ADD MSTORE DUP1 PUSH1 0xA0 DUP7 ADD MLOAD AND PUSH1 0xA0 DUP4 ADD MSTORE PUSH1 0xC0 DUP6 ADD MLOAD PUSH1 0xC0 DUP4 ADD MSTORE PUSH1 0xE0 DUP6 ADD MLOAD PUSH1 0xE0 DUP4 ADD MSTORE PUSH2 0x100 DUP1 DUP7 ADD MLOAD SWAP1 DUP4 ADD MSTORE PUSH2 0x120 DUP1 DUP7 ADD MLOAD SWAP1 DUP4 ADD MSTORE PUSH2 0x140 DUP1 DUP7 ADD MLOAD SWAP1 DUP4 ADD MSTORE PUSH2 0x160 DUP1 DUP7 ADD MLOAD SWAP1 DUP4 ADD MSTORE PUSH2 0x180 DUP1 DUP7 ADD MLOAD SWAP1 DUP4 ADD MSTORE PUSH2 0x1A0 DUP1 DUP7 ADD MLOAD SWAP1 DUP4 ADD MSTORE PUSH2 0x1C0 DUP2 DUP2 DUP8 ADD MLOAD AND SWAP1 DUP4 ADD MSTORE PUSH2 0x1E0 DUP1 DUP7 ADD MLOAD SWAP1 DUP4 ADD MSTORE PUSH2 0x200 SWAP3 DUP4 DUP7 ADD MLOAD SWAP4 DUP4 DUP3 SUB SWAP1 DUP5 ADD MSTORE DUP5 DUP1 DUP6 MLOAD SWAP3 DUP4 DUP2 MSTORE ADD SWAP5 ADD SWAP2 PUSH1 0x0 SWAP1 JUMPDEST DUP3 DUP3 LT PUSH2 0x3557 JUMPI POP POP POP POP PUSH2 0x220 DUP1 SWAP5 ADD MLOAD SWAP4 DUP2 DUP4 SUB SWAP2 ADD MSTORE DUP2 DUP1 DUP5 MLOAD SWAP3 DUP4 DUP2 MSTORE ADD SWAP4 ADD SWAP2 PUSH1 0x0 JUMPDEST DUP3 DUP2 LT PUSH2 0x353F JUMPI POP POP POP POP SWAP1 JUMP JUMPDEST DUP4 MLOAD PUSH2 0xFFFF AND DUP6 MSTORE SWAP4 DUP2 ADD SWAP4 SWAP3 DUP2 ADD SWAP3 PUSH1 0x1 ADD PUSH2 0x3531 JUMP JUMPDEST DUP4 MLOAD DUP2 AND DUP7 MSTORE SWAP5 DUP7 ADD SWAP5 SWAP3 DUP7 ADD SWAP3 PUSH1 0x1 SWAP1 SWAP2 ADD SWAP1 PUSH2 0x3509 JUMP JUMPDEST SWAP2 SWAP1 DUP3 ADD DUP1 SWAP3 GT PUSH2 0x1054 JUMPI JUMP JUMPDEST SWAP1 DUP2 PUSH1 0x20 SWAP2 SUB SLT PUSH2 0x1A1 JUMPI MLOAD PUSH1 0x1 PUSH1 0x1 PUSH1 0xA0 SHL SUB DUP2 AND DUP2 SUB PUSH2 0x1A1 JUMPI SWAP1 JUMP JUMPDEST DUP1 MLOAD DUP3 LT ISZERO PUSH2 0x33E8 JUMPI PUSH1 0x20 SWAP2 PUSH1 0x5 SHL ADD ADD SWAP1 JUMP JUMPDEST ISZERO PUSH2 0x35B7 JUMPI JUMP JUMPDEST PUSH1 0x40 MLOAD PUSH3 0x461BCD PUSH1 0xE5 SHL DUP2 MSTORE PUSH1 0x20 PUSH1 0x4 DUP3 ADD MSTORE PUSH1 0x24 DUP1 DUP3 ADD MSTORE PUSH32 0x50657263656E74616765206D757374206265206265747765656E203120616E64 PUSH1 0x44 DUP3 ADD MSTORE PUSH4 0x2031303 PUSH1 0xE4 SHL PUSH1 0x64 DUP3 ADD MSTORE PUSH1 0x84 SWAP1 REVERT JUMPDEST ISZERO PUSH2 0x360F JUMPI JUMP JUMPDEST PUSH4 0x4E487B71 PUSH1 0xE0 SHL PUSH1 0x0 MSTORE PUSH1 0x1 PUSH1 0x4 MSTORE PUSH1 0x24 PUSH1 0x0 REVERT JUMPDEST DUP2 DUP2 LT PUSH2 0x3630 JUMPI POP POP JUMP JUMPDEST PUSH1 0x0 DUP2 SSTORE PUSH1 0x1 ADD PUSH2 0x3625 JUMP JUMPDEST DUP2 DUP2 MUL SWAP3 SWAP2 DUP2 ISZERO SWAP2 DUP5 DIV EQ OR ISZERO PUSH2 0x1054 JUMPI JUMP JUMPDEST ISZERO PUSH2 0x3656 JUMPI JUMP JUMPDEST PUSH1 0x40 MLOAD PUSH3 0x461BCD PUSH1 0xE5 SHL DUP2 MSTORE PUSH1 0x20 PUSH1 0x4 DUP3 ADD MSTORE PUSH1 0x2A PUSH1 0x24 DUP3 ADD MSTORE PUSH32 0x4F6E6C792061756374696F6E206F776E65722063616E20706572666F726D2074 PUSH1 0x44 DUP3 ADD MSTORE PUSH10 0x3434B99030B1BA34B7B7 PUSH1 0xB1 SHL PUSH1 0x64 DUP3 ADD MSTORE PUSH1 0x84 SWAP1 REVERT JUMPDEST SWAP2 SWAP1 SWAP2 DUP1 SLOAD DUP4 LT ISZERO PUSH2 0x33E8 JUMPI PUSH1 0x0 MSTORE PUSH1 0x1E PUSH1 0x20 PUSH1 0x0 KECCAK256 DUP4 PUSH1 0x4 SHR ADD SWAP3 PUSH1 0x1 SHL AND SWAP1 JUMP JUMPDEST ISZERO PUSH2 0x36D8 JUMPI JUMP JUMPDEST PUSH1 0x40 MLOAD PUSH3 0x461BCD PUSH1 0xE5 SHL DUP2 MSTORE PUSH1 0x20 PUSH1 0x4 DUP3 ADD MSTORE PUSH1 0x16 PUSH1 0x24 DUP3 ADD MSTORE PUSH22 0x41756374696F6E206973206E6F74206F6E676F696E67 PUSH1 0x50 SHL PUSH1 0x44 DUP3 ADD MSTORE PUSH1 0x64 SWAP1 REVERT JUMPDEST ISZERO PUSH2 0x371D JUMPI JUMP JUMPDEST PUSH1 0x40 MLOAD PUSH3 0x461BCD PUSH1 0xE5 SHL DUP2 MSTORE PUSH1 0x20 PUSH1 0x4 DUP3 ADD MSTORE PUSH1 0x19 PUSH1 0x24 DUP3 ADD MSTORE PUSH32 0x546865207265636569766572206973206E6F7420616464656400000000000000 PUSH1 0x44 DUP3 ADD MSTORE PUSH1 0x64 SWAP1 REVERT JUMPDEST PUSH1 0x40 MLOAD SWAP1 PUSH2 0x376F DUP3 PUSH2 0x31C5 JUMP JUMPDEST PUSH1 0x60 PUSH2 0x220 DUP4 PUSH1 0x0 DUP1 DUP3 MSTORE DUP1 PUSH1 0x20 DUP4 ADD MSTORE DUP4 PUSH1 0x40 DUP4 ADD MSTORE DUP4 DUP1 DUP4 ADD MSTORE DUP1 PUSH1 0x80 DUP4 ADD MSTORE DUP1 PUSH1 0xA0 DUP4 ADD MSTORE DUP1 PUSH1 0xC0 DUP4 ADD MSTORE DUP1 PUSH1 0xE0 DUP4 ADD MSTORE DUP1 PUSH2 0x100 DUP4 ADD MSTORE DUP1 PUSH2 0x120 DUP4 ADD MSTORE DUP1 PUSH2 0x140 DUP4 ADD MSTORE DUP1 PUSH2 0x160 DUP4 ADD MSTORE DUP1 PUSH2 0x180 DUP4 ADD MSTORE DUP1 PUSH2 0x1A0 DUP4 ADD MSTORE DUP1 PUSH2 0x1C0 DUP4 ADD MSTORE PUSH2 0x1E0 DUP3 ADD MSTORE DUP3 PUSH2 0x200 DUP3 ADD MSTORE ADD MSTORE JUMP JUMPDEST ISZERO PUSH2 0x37EC JUMPI JUMP JUMPDEST PUSH1 0x40 MLOAD PUSH3 0x461BCD PUSH1 0xE5 SHL DUP2 MSTORE PUSH1 0x20 PUSH1 0x4 DUP3 ADD MSTORE PUSH1 0x28 PUSH1 0x24 DUP3 ADD MSTORE PUSH32 0x5468652072656365697665722063616E6E6F7420626520746865206175637469 PUSH1 0x44 DUP3 ADD MSTORE PUSH8 0x37B71037BBB732B9 PUSH1 0xC1 SHL PUSH1 0x64 DUP3 ADD MSTORE PUSH1 0x84 SWAP1 REVERT JUMPDEST SWAP2 SWAP1 SWAP2 PUSH2 0xFFFF DUP1 DUP1 SWAP5 AND SWAP2 AND ADD SWAP2 DUP3 GT PUSH2 0x1054 JUMPI JUMP JUMPDEST SWAP1 PUSH1 0x40 MLOAD SWAP2 PUSH1 0x20 SWAP3 PUSH2 0x3886 DUP5 DUP3 DUP2 PUSH2 0x3879 DUP2 DUP4 ADD SWAP7 DUP8 DUP2 MLOAD SWAP4 DUP5 SWAP3 ADD PUSH2 0x3369 JUMP JUMPDEST DUP2 ADD SUB DUP1 DUP5 MSTORE ADD DUP3 PUSH2 0x31FC JUMP JUMPDEST MLOAD SWAP1 KECCAK256 SWAP2 PUSH2 0x38A6 PUSH1 0x40 MLOAD SWAP2 DUP3 DUP2 PUSH2 0x3879 DUP2 DUP4 ADD SWAP7 DUP8 DUP2 MLOAD SWAP4 DUP5 SWAP3 ADD PUSH2 0x3369 JUMP JUMPDEST MLOAD SWAP1 KECCAK256 EQ SWAP1 JUMP JUMPDEST PUSH1 0x0 SLOAD PUSH1 0x1 PUSH1 0x1 PUSH1 0xA0 SHL SUB AND CALLER SUB PUSH2 0x38C1 JUMPI JUMP JUMPDEST PUSH1 0x40 MLOAD PUSH4 0x118CDAA7 PUSH1 0xE0 SHL DUP2 MSTORE CALLER PUSH1 0x4 DUP3 ADD MSTORE PUSH1 0x24 SWAP1 REVERT INVALID LOG2 PUSH5 0x6970667358 0x22 SLT KECCAK256 PUSH0 GAS MSIZE PUSH19 0x5469CAD280B292F55E0D0517B02D2BE0FF5AB6 0xC0 0xB8 CODESIZE PUSH1 0xF7 PUSH8 0x95BA4464736F6C63 NUMBER STOP ADDMOD XOR STOP CALLER "},"methodIdentifiers":{"addReceiver(address,address,uint16)":"e4a74366","auctionIds(uint256)":"2a6433be","auctions(address)":"1d59410a","bids(address,address)":"1f036524","cancelAuction(address)":"d22cf3a4","createAuction(string,string,address,uint256,address,uint256,uint256,uint256,uint256,address[],uint16[])":"06c64726","donate(address)":"00362a95","donors(address,address)":"8f3ac946","endAuction(address)":"2872abbc","getAuction(address)":"79deae7b","getAuctions()":"d7c06919","getDonors(address)":"694b2323","getHighestBid(address)":"23a75049","getHighestBidder(address)":"3ae01466","onERC721Received(address,address,uint256,bytes)":"150b7a02","owner()":"8da5cb5b","placeBid(address,uint256)":"d98b9bb5","removeReceiver(address,address)":"88c40d94","renounceOwnership()":"715018a6","transferMoney(address,address,uint256)":"6410381c","transferOwnership(address)":"f2fde38b","withdrawBid(address)":"4ede3648"}}}}}