{"contracts/auction/NFTAuctionManager.sol":{"NFTAuctionManager":{"abi":[{"inputs":[{"internalType":"address","name":"owner","type":"address"}],"name":"OwnableInvalidOwner","type":"error"},{"inputs":[{"internalType":"address","name":"account","type":"address"}],"name":"OwnableUnauthorizedAccount","type":"error"},{"anonymous":false,"inputs":[{"indexed":false,"internalType":"address","name":"auctionId","type":"address"},{"indexed":false,"internalType":"uint256","name":"endedAt","type":"uint256"}],"name":"AuctionCancelled","type":"event"},{"anonymous":false,"inputs":[{"indexed":false,"internalType":"address","name":"auctionId","type":"address"},{"indexed":false,"internalType":"address","name":"seller","type":"address"},{"indexed":false,"internalType":"uint256","name":"startingPrice","type":"uint256"},{"indexed":false,"internalType":"uint256","name":"endingPrice","type":"uint256"},{"indexed":false,"internalType":"uint32","name":"bidPeriod","type":"uint32"},{"indexed":false,"internalType":"uint256","name":"duration","type":"uint256"},{"indexed":false,"internalType":"uint256","name":"startedAt","type":"uint256"}],"name":"AuctionCreated","type":"event"},{"anonymous":false,"inputs":[{"indexed":false,"internalType":"address","name":"auctionId","type":"address"},{"indexed":false,"internalType":"uint256","name":"highestBid","type":"uint256"},{"indexed":false,"internalType":"address","name":"highestBidder","type":"address"},{"indexed":false,"internalType":"uint256","name":"endedAt","type":"uint256"}],"name":"AuctionEnded","type":"event"},{"anonymous":false,"inputs":[{"indexed":true,"internalType":"address","name":"bidder","type":"address"},{"indexed":true,"internalType":"address","name":"auctionId","type":"address"},{"indexed":false,"internalType":"uint256","name":"amount","type":"uint256"},{"indexed":false,"internalType":"uint256","name":"timestamp","type":"uint256"}],"name":"BidPlaced","type":"event"},{"anonymous":false,"inputs":[{"indexed":true,"internalType":"address","name":"bidder","type":"address"},{"indexed":true,"internalType":"address","name":"auctionId","type":"address"},{"indexed":false,"internalType":"uint256","name":"amount","type":"uint256"},{"indexed":false,"internalType":"uint256","name":"timestamp","type":"uint256"}],"name":"BidWithdrawn","type":"event"},{"anonymous":false,"inputs":[{"indexed":true,"internalType":"address","name":"donor","type":"address"},{"indexed":false,"internalType":"uint256","name":"amount","type":"uint256"},{"indexed":false,"internalType":"uint256","name":"timestamp","type":"uint256"}],"name":"Donation","type":"event"},{"anonymous":false,"inputs":[{"indexed":true,"internalType":"address","name":"auctionId","type":"address"},{"indexed":true,"internalType":"address","name":"receiver","type":"address"},{"indexed":false,"internalType":"uint256","name":"amount","type":"uint256"},{"indexed":false,"internalType":"uint256","name":"timestamp","type":"uint256"}],"name":"MoneyTransfered","type":"event"},{"anonymous":false,"inputs":[{"indexed":true,"internalType":"address","name":"previousOwner","type":"address"},{"indexed":true,"internalType":"address","name":"newOwner","type":"address"}],"name":"OwnershipTransferred","type":"event"},{"anonymous":false,"inputs":[{"indexed":true,"internalType":"address","name":"auctionId","type":"address"},{"indexed":true,"internalType":"address","name":"receiver","type":"address"},{"indexed":false,"internalType":"uint16","name":"percentage","type":"uint16"},{"indexed":false,"internalType":"uint256","name":"timestamp","type":"uint256"}],"name":"ReceiverAdded","type":"event"},{"anonymous":false,"inputs":[{"indexed":true,"internalType":"address","name":"auctionId","type":"address"},{"indexed":true,"internalType":"address","name":"receiver","type":"address"},{"indexed":false,"internalType":"uint256","name":"timestamp","type":"uint256"}],"name":"ReceiverRemoved","type":"event"},{"stateMutability":"payable","type":"fallback"},{"inputs":[{"internalType":"address","name":"_auctionId","type":"address"},{"internalType":"address","name":"_receiver","type":"address"},{"internalType":"uint16","name":"_percentage","type":"uint16"}],"name":"addReceiver","outputs":[],"stateMutability":"nonpayable","type":"function"},{"inputs":[{"internalType":"address","name":"","type":"address"}],"name":"auctions","outputs":[{"internalType":"string","name":"name","type":"string"},{"internalType":"string","name":"description","type":"string"},{"internalType":"address","name":"seller","type":"address"},{"internalType":"address","name":"tokenAddress","type":"address"},{"internalType":"uint256","name":"tokenId","type":"uint256"},{"internalType":"uint256","name":"startingPrice","type":"uint256"},{"internalType":"uint256","name":"endingPrice","type":"uint256"},{"internalType":"uint32","name":"bidPeriod","type":"uint32"},{"internalType":"uint256","name":"duration","type":"uint256"},{"internalType":"uint256","name":"startedAt","type":"uint256"},{"internalType":"uint256","name":"endedAt","type":"uint256"},{"internalType":"uint256","name":"highestBid","type":"uint256"},{"internalType":"address","name":"highestBidder","type":"address"}],"stateMutability":"view","type":"function"},{"inputs":[{"internalType":"address","name":"","type":"address"},{"internalType":"address","name":"","type":"address"}],"name":"bids","outputs":[{"internalType":"address","name":"bidder","type":"address"},{"internalType":"address","name":"auctionId","type":"address"},{"internalType":"uint256","name":"amount","type":"uint256"},{"internalType":"uint256","name":"timestamp","type":"uint256"}],"stateMutability":"view","type":"function"},{"inputs":[{"internalType":"address","name":"_auctionId","type":"address"}],"name":"cancelAuction","outputs":[{"internalType":"bool","name":"","type":"bool"}],"stateMutability":"nonpayable","type":"function"},{"inputs":[{"internalType":"string","name":"_name","type":"string"},{"internalType":"string","name":"_description","type":"string"},{"internalType":"address","name":"_tokenAddress","type":"address"},{"internalType":"uint256","name":"_tokenId","type":"uint256"},{"internalType":"uint256","name":"_startingPrice","type":"uint256"},{"internalType":"uint256","name":"_endingPrice","type":"uint256"},{"internalType":"uint32","name":"_bidPeriod","type":"uint32"},{"internalType":"uint256","name":"_duration","type":"uint256"},{"internalType":"address[]","name":"_receivers","type":"address[]"},{"internalType":"uint16[]","name":"_percentages","type":"uint16[]"}],"name":"createAuction","outputs":[{"internalType":"address","name":"","type":"address"}],"stateMutability":"nonpayable","type":"function"},{"inputs":[],"name":"donate","outputs":[],"stateMutability":"payable","type":"function"},{"inputs":[],"name":"donation","outputs":[{"internalType":"uint256","name":"","type":"uint256"}],"stateMutability":"view","type":"function"},{"inputs":[{"internalType":"address","name":"","type":"address"}],"name":"donors","outputs":[{"internalType":"uint256","name":"","type":"uint256"}],"stateMutability":"view","type":"function"},{"inputs":[{"internalType":"address","name":"_auctionId","type":"address"}],"name":"endAuction","outputs":[{"internalType":"bool","name":"","type":"bool"}],"stateMutability":"nonpayable","type":"function"},{"inputs":[{"internalType":"address","name":"_auctionId","type":"address"}],"name":"getHighestBid","outputs":[{"internalType":"uint256","name":"","type":"uint256"}],"stateMutability":"view","type":"function"},{"inputs":[{"internalType":"address","name":"_auctionId","type":"address"}],"name":"getHighestBidder","outputs":[{"internalType":"address","name":"","type":"address"}],"stateMutability":"view","type":"function"},{"inputs":[{"internalType":"address","name":"operator","type":"address"},{"internalType":"address","name":"from","type":"address"},{"internalType":"uint256","name":"tokenId","type":"uint256"},{"internalType":"bytes","name":"data","type":"bytes"}],"name":"onERC721Received","outputs":[{"internalType":"bytes4","name":"","type":"bytes4"}],"stateMutability":"pure","type":"function"},{"inputs":[],"name":"owner","outputs":[{"internalType":"address","name":"","type":"address"}],"stateMutability":"view","type":"function"},{"inputs":[{"internalType":"address","name":"_auctionId","type":"address"},{"internalType":"uint256","name":"_amount","type":"uint256"}],"name":"placeBid","outputs":[{"internalType":"bool","name":"","type":"bool"}],"stateMutability":"payable","type":"function"},{"inputs":[{"internalType":"address","name":"_auctionId","type":"address"},{"internalType":"address","name":"_receiver","type":"address"}],"name":"removeReceiver","outputs":[],"stateMutability":"nonpayable","type":"function"},{"inputs":[],"name":"renounceOwnership","outputs":[],"stateMutability":"nonpayable","type":"function"},{"inputs":[{"internalType":"address","name":"_auctionId","type":"address"},{"internalType":"address","name":"_receiver","type":"address"},{"internalType":"uint256","name":"_amount","type":"uint256"}],"name":"transferMoney","outputs":[],"stateMutability":"nonpayable","type":"function"},{"inputs":[{"internalType":"address","name":"newOwner","type":"address"}],"name":"transferOwnership","outputs":[],"stateMutability":"nonpayable","type":"function"},{"inputs":[{"internalType":"address","name":"_auctionId","type":"address"}],"name":"withdrawBid","outputs":[{"internalType":"bool","name":"","type":"bool"}],"stateMutability":"payable","type":"function"},{"stateMutability":"payable","type":"receive"}],"evm":{"bytecode":{"linkReferences":{},"object":"6080806040523461007f5733156100695760008054336001600160a01b03198216811783556040519290916001600160a01b0316907f8be0079c531659141344cd1fd0a4f28419497f9722a3daafe3b4186f6b6457e09080a360006004556123e190816100858239f35b631e4fbdf760e01b815260006004820152602490fd5b600080fdfe608080604052600436101561001a575b50361561001857005b005b600090813560e01c908163150b7a0214611f0a575080631d59410a14611e0f5780631f03652414611d9c57806323a7504914611d5f5780632872abbc14611c005780633ae0146614611bc05780634ede36481461186057806357b42c4414610e435780636410381c14610c95578063715018a614610c3b57806388c40d94146109aa5780638da5cb5b146109835780638edeb15d14610965578063ca0cdea81461092c578063d22cf3a414610840578063d98b9bb514610528578063e4a7436614610241578063ed88c68e146101815763f2fde38b0361000f573461017e57602036600319011261017e5761010d611f72565b61011561237f565b6001600160a01b0390811690811561016557600054826001600160601b0360a01b821617600055167f8be0079c531659141344cd1fd0a4f28419497f9722a3daafe3b4186f6b6457e0600080a380f35b604051631e4fbdf760e01b815260048101849052602490fd5b80fd5b508060031936011261017e5734156101f05761019f346004546121aa565b6004556040513481524260208201527f106aac375bbcf013d1e52338bbf9e740009a1a3a6869f8daa1b72aa1620f5fec60403392a23381526003602052604081206101eb3482546121aa565b905580f35b60405162461bcd60e51b8152602060048201526024808201527f5468652076616c75652073656e74206973206e6f7420677265617465722074686044820152630616e20360e41b6064820152608490fd5b503461017e57606036600319011261017e5761025b611f72565b610263611f88565b906044916044359261ffff808516928386036105235760018060a01b0380951694858852600192602097600160205260408a20948360028701541699338b036104cc57936102b68187169b8c141561230c565b8b94600d8801988954965b8d8b898310610469575050505050508715158061045e575b6102e590969196612216565b8a90600e8c91019687545b808310610435575050506064929161030791612369565b16116103e157600160401b93848210156103cd578161032f91600161034d9594018155612285565b90919060018060a01b038084549260031b9316831b921b1916179055565b8054918210156103b95791806103a861038f847f3c2b0a7047f708ff533690d2cf89d62667a369de80d02a358419185b1f053bb196600160409701815561229d565b819391549060031b9161ffff809116831b921b19161790565b90558151908152426020820152a380f35b634e487b7160e01b86526041600452602486fd5b634e487b7160e01b89526041600452602489fd5b60405162461bcd60e51b815260206004820152602660248201527f53756d206f662070657263656e746167657320697320677265617465722074686044820152650616e203130360d41b6064820152608490fd5b9061045583948761044784968d61229d565b90549060031b1c1690612369565b930191906102f0565b5060648811156102d9565b610474838792612285565b90549060031b1c16146104885784016102c1565b60405162461bcd60e51b815260048101849052601d60248201527f54686520726563656976657220697320616c726561647920616464656400000081840152606490fd5b60405162461bcd60e51b815260206004820152602960248201527f4f6e6c79207468652061756374696f6e206f776e65722063616e206164642061604482015268103932b1b2b4bb32b960b91b6064820152608490fd5b600080fd5b50604036600319011261017e5761053d611f72565b90602480359060018060a01b03809416928381526020946001865260408220600981015415159081610833575b50156107ef578482526001865260408220600b81018054861115610794576005820154861061073657600682015486116106dd5785340361068357859055600c0180546001600160a01b031990811633179091556040519360808501906001600160401b0382118683101761066f5750906003939291604052338552878501908782526040860192878452604060608801954287528a815260028c5220336000528a528060406000209751168288541617875560018701925116908254161790555160028401555191015560405190815242838201527fdd49bbb40d47a514dddcd458e9718364143bc24a0cca58439ee6f4f45e4ce10d60403392a360405160018152f35b634e487b7160e01b60009081526041600452fd5b60405162461bcd60e51b815260048101899052602d818701527f5468652076616c75652073656e74206973206e6f7420657175616c20746f207460448201526c1a1948189a5908185b5bdd5b9d609a1b6064820152608490fd5b60405162461bcd60e51b815260048101899052602c818701527f42696420616d6f756e74206973206e6f74206c657373207468616e207468652060448201526b656e64696e6720707269636560a01b6064820152608490fd5b60405162461bcd60e51b8152600481018990526031818701527f42696420616d6f756e74206973206e6f742067726561746572207468616e20746044820152706865207374617274696e6720707269636560781b6064820152608490fd5b60405162461bcd60e51b815260048101899052602e818701527f42696420616d6f756e74206973206e6f742067726561746572207468616e207460448201526d1a19481a1a59da195cdd08189a5960921b6064820152608490fd5b60405162461bcd60e51b8152600481018790526017818501527f41756374696f6e206973206e6f74206f6e20676f696e670000000000000000006044820152606490fd5b600a91500154153861056a565b503461017e576020908160031936011261017e576001600160a01b03604081610867611f72565b169283815260018552610883836002848420015416331461214b565b8381526001855220903390600283015416036108d8577f018b64b6242d32aa550e95d78985b938d71af5b3f10827b0683f55da1639304891604091600a4291015581519081524284820152a160405160018152f35b60405162461bcd60e51b815260048101849052602660248201527f4f6e6c79207468652073656c6c65722063616e2063616e63656c2074686520616044820152653ab1ba34b7b760d11b6064820152608490fd5b503461017e57602036600319011261017e576020906040906001600160a01b03610954611f72565b168152600383522054604051908152f35b503461017e578060031936011261017e576020600454604051908152f35b503461017e578060031936011261017e57546040516001600160a01b039091168152602090f35b503461017e57604036600319011261017e576109c4611f72565b906109cd611f88565b6001600160a01b0392831680835260016020819052604084206002810154909590811693338503610be15790610a0a81889493169586141561230c565b85928693600d8201948554905b818110610ba1575b5050610a2a906122c0565b86835b610a62575b8787877f881201a365cfa7a30d2763840b70e4bb9c3b6417202491504fb1237b08a8c10f6020604051428152a380f35b845480821015610b9b57839088610a798489612285565b939054600394851b1c1614610a92575050830183610a2d565b939194509460001993848101908111610b875782610ab3610ac49284612285565b905490891b1c1661032f8784612285565b80548015610b73579084600e9493920191610adf8383612285565b90918254918a1b1b191690555501918254828101908111610b5f5790610b1f610b0c61038f94938661229d565b905461ffff9591881b1c8516928661229d565b905582548015610b4b570192610b35848461229d565b81939154921b1b19169055558380808080610a32565b634e487b7160e01b88526031600452602488fd5b634e487b7160e01b88526011600452602488fd5b634e487b7160e01b8a52603160045260248afd5b634e487b7160e01b8a52601160045260248afd5b50610a32565b8885610bb3838a97969d9c9b9a612285565b90549060031b1c1614610bce57850198919295969798610a17565b50969750949550929382610a2a81610a1f565b60405162461bcd60e51b815260206004820152602c60248201527f4f6e6c79207468652061756374696f6e206f776e65722063616e2072656d6f7660448201526b329030903932b1b2b4bb32b960a11b6064820152608490fd5b503461017e578060031936011261017e57610c5461237f565b600080546001600160a01b0319811682556001600160a01b03167f8be0079c531659141344cd1fd0a4f28419497f9722a3daafe3b4186f6b6457e08280a380f35b503461017e57606036600319011261017e57610caf611f72565b610cb7611f88565b9060443560018060a01b038092169182855260019060016020526040862091816002840154163303610dec57869591959187938897600d82018181549416995b848110610d9a575b50505050505090610d1261ffff926122c0565b1690818102918183041490151715610d865760649004838184828215610d7d575b839283928392f115610d725760407f67b1d074e0231b1d5ea97c0b82a285837b236d627d5a9b89965f961963c39b6c918151908152426020820152a380f35b6040513d85823e3d90fd5b506108fc610d33565b634e487b7160e01b84526011600452602484fd5b828b610da68385612285565b929054600393841b1c1614610dbd57508501610cf7565b939650905061ffff9650869350610ddc9150600e610d1295960161229d565b9054911b1c169238808080610cff565b60405162461bcd60e51b815260206004820152602960248201527f4f6e6c79207468652061756374696f6e206f776e65722063616e207472616e73604482015268666572206d6f6e657960b81b6064820152608490fd5b503461017e5761014036600319011261017e576004356001600160401b03811161182c57610e759036906004016120de565b6024356001600160401b03811161185c57610e949036906004016120de565b906044356001600160a01b03811690036105235760c43563ffffffff81168103611858576001600160401b036101043511611858573660236101043501121561185857610ee76101043560040135612134565b91610ef56040519384611fd8565b6101043560040135835260208301366024610104356004013560051b610104350101116118545760246101043501905b6024610104356004013560051b61010435010182106118345750506001600160401b036101243511611830573660236101243501121561183057610f6f6101243560040135612134565b94610f7d6040519687611fd8565b6101243560040135865260208601366024610124356004013560051b6101243501011161182c5760246101243501905b6024610124356004013560051b61012435010182106118115750506040516331a9108f60e11b815260643560048201526020816024816044356001600160a01b03165afa9081156118065782916117d7575b50336001600160a01b039091160361178657835186510361172f57805b84518110156110c6576001600160a01b0361103782876121ec565b5116156110815760019061106361ffff80611052848c6121ec565b511615159081611069575b50612216565b0161101c565b60649150611077848c6121ec565b511611153861105d565b60405162461bcd60e51b815260206004820152601860248201527f496e76616c6964207265636569766572206164647265737300000000000000006044820152606490fd5b50848685604051924260208501523360601b60408501526001600160601b031960443560601b1660548501526064356068850152606884528360a08101106001600160401b0360a0860111176117195760a084016040819052845160208601206001600160a01b031696906001600160401b03610280870190811191111761171957610280850160405260a085015260c08401523360e084015260018060a01b036044351661010084015260643561012084015260843561014084015260a43561016084015263ffffffff861661018084015260e4356101a0840152426101c0840152836101e0840152836102008401528361022084015261024083015261026082015282825260016020526040822060a08201518051906001600160401b0382116115a95781906111f88454611f9e565b601f81116116e9575b50602090601f8311600114611680578692611675575b50508160011b916000199060031b1c19161781555b60c08201518051906001600160401b0382116115a95781906112516001850154611f9e565b601f8111611637575b50602090601f83116001146115c85786926115bd575b50508160011b916000199060031b1c19161760018201555b60e08201516002820180546001600160a01b03199081166001600160a01b0393841617909155610100840151600384018054831691841691909117905561012084015160048401556101408401516005840155610160840151600684015561018084015160078401805463ffffffff191663ffffffff929092169190911790556101a084015160088401556101c084015160098401556101e0840151600a840155610200840151600b840155610220840151600c8401805490921692169190911790556102408201518051906001600160401b0382116115a957600160401b82116115a957602090600d84015483600d86015580841061158c575b5001600d8301855260208520855b83811061156f5750505050600e61026091019101518051906001600160401b03821161155b57600160401b821161155b57602090835483855580841061150d575b500191835260208320908060041c92845b8481106114cd5750600f198216909103908161145f575b6020867fe98ed15ae59d71e47b556b1164ab1d4cf06e34971b124935263c5f08b02a357f60e08a63ffffffff604051918583523387840152608435604084015260a435606084015216608082015260e43560a08201524260c0820152a1604051908152f35b90845b81811061149a5750505001557fe98ed15ae59d71e47b556b1164ab1d4cf06e34971b124935263c5f08b02a357f60e0602085806113fa565b90919460206114c360019261ffff8951169085851b60031b9161ffff809116831b921b19161790565b9601929101611462565b85865b601081106114e55750848201556001016113e3565b835190939160019160209161ffff600488901b81811b199092169216901b17920193016114d0565b61153b90858752838720600f80870160041c820192601e8860011b1680611541575b500160041c019061226e565b876113d2565b60001990818601918254918a0360031b1c1690558c61152f565b634e487b7160e01b84526041600452602484fd5b82516001600160a01b031681830155602090920191600101611391565b600d850187528287206115a391810190850161226e565b88611383565b634e487b7160e01b85526041600452602485fd5b015190508780611270565b9250600184018652602086209086935b601f198416851061161c576001945083601f19811610611603575b505050811b016001820155611288565b015160001960f88460031b161c191690558780806115f3565b818101518355602094850194600190930192909101906115d8565b6116659060018601885260208820601f850160051c8101916020861061166b575b601f0160051c019061226e565b8861125a565b9091508190611658565b015190508780611217565b9250838652602086209086935b601f19841685106116ce576001945083601f198116106116b5575b505050811b01815561122c565b015160001960f88460031b161c191690558780806116a8565b8181015183556020948501946001909301929091019061168d565b6117139085885260208820601f850160051c8101916020861061166b57601f0160051c019061226e565b88611201565b634e487b7160e01b600052604160045260246000fd5b60405162461bcd60e51b815260206004820152602960248201527f52656365697665727320616e642070657263656e7461676573206c656e677468604482015268040dad2e6dac2e8c6d60bb1b6064820152608490fd5b60405162461bcd60e51b8152602060048201526024808201527f4f6e6c79204e4654206f776e65722063616e2063726561746520616e206175636044820152633a34b7b760e11b6064820152608490fd5b6117f9915060203d6020116117ff575b6117f18183611fd8565b8101906121cd565b38610fff565b503d6117e7565b6040513d84823e3d90fd5b813561ffff8116810361052357815260209182019101610fad565b5080fd5b8480fd5b81356001600160a01b038116810361052357815260209182019101610f25565b8580fd5b8380fd5b8280fd5b506020908160031936011261017e576001600160a01b0380611880611f72565b16908183526001845260408320906118a160098301546008840154906121aa565b421015611b8257600c820191818354163303611b3d57600b810192858080808754818115611b34575b3390f115611b205785808080600454818115611b2b575b3390f115611b20578584556001600160601b0360a01b8154169055816003820154169160048201549160405163020604bf60e21b81528360048201528881602481885afa908115611af8578891611b03575b50821630148015611a81575b15611a25576002015416823b156118545790606486928360405195869485936323b872dd60e01b8552600485015233602485015260448401525af18015611a1a576119eb575b5081905460405190815242858201527f785d85162ae7507dad1d0089ba072ba3f2b9c7538085649ddc9b039eadc1a3f660403392a38152600282526040812033600052825260036040600020828155826001820155826002820155015560405160018152f35b6001600160401b038194929411611a06576040529181611985565b634e487b7160e01b82526041600452602482fd5b6040513d86823e3d90fd5b60405162461bcd60e51b815260048101899052602e60248201527f436f6e7472616374206973206e6f7420617070726f76656420746f207472616e60448201526d39b332b9103a3432903a37b5b2b760911b6064820152608490fd5b50600281015460405163e985e9c560e01b815290831660048201523060248201528881604481885afa908115611af8578891611abe575b5061193f565b90508881813d8311611af1575b611ad58183611fd8565b81010312611aed57518015158103611aed5738611ab8565b8780fd5b503d611acb565b6040513d8a823e3d90fd5b611b1a9150893d8b116117ff576117f18183611fd8565b38611933565b6040513d87823e3d90fd5b506108fc6118e1565b506108fc6118ca565b60405162461bcd60e51b815260048101879052601b60248201527f42696464657220686173206e6f7420706c6163656420612062696400000000006044820152606490fd5b60405162461bcd60e51b815260048101869052601660248201527541756374696f6e206973206e6f74206f6e676f696e6760501b6044820152606490fd5b503461017e57602036600319011261017e576020906001600160a01b0390600c9060409083611bed611f72565b1681526001855220015416604051908152f35b503461017e576020908160031936011261017e576001600160a01b03604081611c27611f72565b169283815260018552611c43836002848420015416331461214b565b838152600185522090338160028401541603611d0e57611c6c60098301546008840154906121aa565b4210611cc957916080917f4d31a5599cdb48031c1f03259adbd513be468c5735012719a1a9850869b558b19342600a830155600c600b8301549201541690604051928352858301526040820152426060820152a160405160018152f35b60405162461bcd60e51b815260048101859052601e60248201527f41756374696f6e206475726174696f6e20686173206e6f7420656e64656400006044820152606490fd5b60405162461bcd60e51b815260048101859052602360248201527f4f6e6c79207468652073656c6c65722063616e20656e6420746865206175637460448201526234b7b760e91b6064820152608490fd5b503461017e57602036600319011261017e57602090600b906040906001600160a01b03611d8a611f72565b16815260018452200154604051908152f35b503461017e57604036600319011261017e576080906040611dbb611f72565b91611dc4611f88565b60018060a01b03809416825260026020528383832091168252602052208181541691600182015416906003600282015491015491604051938452602084015260408301526060820152f35b503461017e57602036600319011261017e576001600160a01b0390611ebb9060409083611e3a611f72565b16815260016020522091611e4d83611ff9565b611e5960018501611ff9565b9382600282015416928060038301541660048301546005840154600685015463ffffffff60078701541691600887015493600988015495611ec9600a8a015498600c600b8c01549b0154169a6040519e8f9e8f926101a080855284019061209e565b91602081840391015261209e565b9a60408d015260608c015260808b015260a08a015260c089015260e08801526101008701526101208601526101408501526101608401526101808301520390f35b90503461182c57608036600319011261182c57611f25611f72565b50611f2e611f88565b506064356001600160401b038082116118585736602383011215611858578160040135908111611858573691016024011161182c57630a85bd0160e11b8152602090f35b600435906001600160a01b038216820361052357565b602435906001600160a01b038216820361052357565b90600182811c92168015611fce575b6020831014611fb857565b634e487b7160e01b600052602260045260246000fd5b91607f1691611fad565b90601f801991011681019081106001600160401b0382111761171957604052565b9060405191826000825461200c81611f9e565b9081845260209460019160018116908160001461207c575060011461203d575b50505061203b92500383611fd8565b565b600090815285812095935091905b81831061206457505061203b935082010138808061202c565b8554888401850152948501948794509183019161204b565b9250505061203b94925060ff191682840152151560051b82010138808061202c565b919082519283825260005b8481106120ca575050826000602080949584010152601f8019910116010190565b6020818301810151848301820152016120a9565b81601f82011215610523578035906001600160401b0382116117195760405192612112601f8401601f191660200185611fd8565b8284526020838301011161052357816000926020809301838601378301015290565b6001600160401b0381116117195760051b60200190565b1561215257565b60405162461bcd60e51b815260206004820152602a60248201527f4f6e6c792061756374696f6e206f776e65722063616e20706572666f726d20746044820152693434b99030b1ba34b7b760b11b6064820152608490fd5b919082018092116121b757565b634e487b7160e01b600052601160045260246000fd5b9081602091031261052357516001600160a01b03811681036105235790565b80518210156122005760209160051b010190565b634e487b7160e01b600052603260045260246000fd5b1561221d57565b60405162461bcd60e51b8152602060048201526024808201527f50657263656e74616765206d757374206265206265747765656e203120616e646044820152630203130360e41b6064820152608490fd5b818110612279575050565b6000815560010161226e565b80548210156122005760005260206000200190600090565b919091805483101561220057600052601e60206000208360041c019260011b1690565b156122c757565b60405162461bcd60e51b815260206004820152601960248201527f546865207265636569766572206973206e6f74206164646564000000000000006044820152606490fd5b1561231357565b60405162461bcd60e51b815260206004820152602860248201527f5468652072656365697665722063616e6e6f742062652074686520617563746960448201526737b71037bbb732b960c11b6064820152608490fd5b91909161ffff808094169116019182116121b757565b6000546001600160a01b0316330361239357565b60405163118cdaa760e01b8152336004820152602490fdfea26469706673582212205997affb97775f755884adfc4379383298aaf14085842effa21804d6bac876fa64736f6c63430008180033","opcodes":"PUSH1 0x80 DUP1 PUSH1 0x40 MSTORE CALLVALUE PUSH2 0x7F JUMPI CALLER ISZERO PUSH2 0x69 JUMPI PUSH1 0x0 DUP1 SLOAD CALLER PUSH1 0x1 PUSH1 0x1 PUSH1 0xA0 SHL SUB NOT DUP3 AND DUP2 OR DUP4 SSTORE PUSH1 0x40 MLOAD SWAP3 SWAP1 SWAP2 PUSH1 0x1 PUSH1 0x1 PUSH1 0xA0 SHL SUB AND SWAP1 PUSH32 0x8BE0079C531659141344CD1FD0A4F28419497F9722A3DAAFE3B4186F6B6457E0 SWAP1 DUP1 LOG3 PUSH1 0x0 PUSH1 0x4 SSTORE PUSH2 0x23E1 SWAP1 DUP2 PUSH2 0x85 DUP3 CODECOPY RETURN JUMPDEST PUSH4 0x1E4FBDF7 PUSH1 0xE0 SHL DUP2 MSTORE PUSH1 0x0 PUSH1 0x4 DUP3 ADD MSTORE PUSH1 0x24 SWAP1 REVERT JUMPDEST PUSH1 0x0 DUP1 REVERT INVALID PUSH1 0x80 DUP1 PUSH1 0x40 MSTORE PUSH1 0x4 CALLDATASIZE LT ISZERO PUSH2 0x1A JUMPI JUMPDEST POP CALLDATASIZE ISZERO PUSH2 0x18 JUMPI STOP JUMPDEST STOP JUMPDEST PUSH1 0x0 SWAP1 DUP2 CALLDATALOAD PUSH1 0xE0 SHR SWAP1 DUP2 PUSH4 0x150B7A02 EQ PUSH2 0x1F0A JUMPI POP DUP1 PUSH4 0x1D59410A EQ PUSH2 0x1E0F JUMPI DUP1 PUSH4 0x1F036524 EQ PUSH2 0x1D9C JUMPI DUP1 PUSH4 0x23A75049 EQ PUSH2 0x1D5F JUMPI DUP1 PUSH4 0x2872ABBC EQ PUSH2 0x1C00 JUMPI DUP1 PUSH4 0x3AE01466 EQ PUSH2 0x1BC0 JUMPI DUP1 PUSH4 0x4EDE3648 EQ PUSH2 0x1860 JUMPI DUP1 PUSH4 0x57B42C44 EQ PUSH2 0xE43 JUMPI DUP1 PUSH4 0x6410381C EQ PUSH2 0xC95 JUMPI DUP1 PUSH4 0x715018A6 EQ PUSH2 0xC3B JUMPI DUP1 PUSH4 0x88C40D94 EQ PUSH2 0x9AA JUMPI DUP1 PUSH4 0x8DA5CB5B EQ PUSH2 0x983 JUMPI DUP1 PUSH4 0x8EDEB15D EQ PUSH2 0x965 JUMPI DUP1 PUSH4 0xCA0CDEA8 EQ PUSH2 0x92C JUMPI DUP1 PUSH4 0xD22CF3A4 EQ PUSH2 0x840 JUMPI DUP1 PUSH4 0xD98B9BB5 EQ PUSH2 0x528 JUMPI DUP1 PUSH4 0xE4A74366 EQ PUSH2 0x241 JUMPI DUP1 PUSH4 0xED88C68E EQ PUSH2 0x181 JUMPI PUSH4 0xF2FDE38B SUB PUSH2 0xF JUMPI CALLVALUE PUSH2 0x17E JUMPI PUSH1 0x20 CALLDATASIZE PUSH1 0x3 NOT ADD SLT PUSH2 0x17E JUMPI PUSH2 0x10D PUSH2 0x1F72 JUMP JUMPDEST PUSH2 0x115 PUSH2 0x237F JUMP JUMPDEST PUSH1 0x1 PUSH1 0x1 PUSH1 0xA0 SHL SUB SWAP1 DUP2 AND SWAP1 DUP2 ISZERO PUSH2 0x165 JUMPI PUSH1 0x0 SLOAD DUP3 PUSH1 0x1 PUSH1 0x1 PUSH1 0x60 SHL SUB PUSH1 0xA0 SHL DUP3 AND OR PUSH1 0x0 SSTORE AND PUSH32 0x8BE0079C531659141344CD1FD0A4F28419497F9722A3DAAFE3B4186F6B6457E0 PUSH1 0x0 DUP1 LOG3 DUP1 RETURN JUMPDEST PUSH1 0x40 MLOAD PUSH4 0x1E4FBDF7 PUSH1 0xE0 SHL DUP2 MSTORE PUSH1 0x4 DUP2 ADD DUP5 SWAP1 MSTORE PUSH1 0x24 SWAP1 REVERT JUMPDEST DUP1 REVERT JUMPDEST POP DUP1 PUSH1 0x3 NOT CALLDATASIZE ADD SLT PUSH2 0x17E JUMPI CALLVALUE ISZERO PUSH2 0x1F0 JUMPI PUSH2 0x19F CALLVALUE PUSH1 0x4 SLOAD PUSH2 0x21AA JUMP JUMPDEST PUSH1 0x4 SSTORE PUSH1 0x40 MLOAD CALLVALUE DUP2 MSTORE TIMESTAMP PUSH1 0x20 DUP3 ADD MSTORE PUSH32 0x106AAC375BBCF013D1E52338BBF9E740009A1A3A6869F8DAA1B72AA1620F5FEC PUSH1 0x40 CALLER SWAP3 LOG2 CALLER DUP2 MSTORE PUSH1 0x3 PUSH1 0x20 MSTORE PUSH1 0x40 DUP2 KECCAK256 PUSH2 0x1EB CALLVALUE DUP3 SLOAD PUSH2 0x21AA JUMP JUMPDEST SWAP1 SSTORE DUP1 RETURN JUMPDEST PUSH1 0x40 MLOAD PUSH3 0x461BCD PUSH1 0xE5 SHL DUP2 MSTORE PUSH1 0x20 PUSH1 0x4 DUP3 ADD MSTORE PUSH1 0x24 DUP1 DUP3 ADD MSTORE PUSH32 0x5468652076616C75652073656E74206973206E6F742067726561746572207468 PUSH1 0x44 DUP3 ADD MSTORE PUSH4 0x616E203 PUSH1 0xE4 SHL PUSH1 0x64 DUP3 ADD MSTORE PUSH1 0x84 SWAP1 REVERT JUMPDEST POP CALLVALUE PUSH2 0x17E JUMPI PUSH1 0x60 CALLDATASIZE PUSH1 0x3 NOT ADD SLT PUSH2 0x17E JUMPI PUSH2 0x25B PUSH2 0x1F72 JUMP JUMPDEST PUSH2 0x263 PUSH2 0x1F88 JUMP JUMPDEST SWAP1 PUSH1 0x44 SWAP2 PUSH1 0x44 CALLDATALOAD SWAP3 PUSH2 0xFFFF DUP1 DUP6 AND SWAP3 DUP4 DUP7 SUB PUSH2 0x523 JUMPI PUSH1 0x1 DUP1 PUSH1 0xA0 SHL SUB DUP1 SWAP6 AND SWAP5 DUP6 DUP9 MSTORE PUSH1 0x1 SWAP3 PUSH1 0x20 SWAP8 PUSH1 0x1 PUSH1 0x20 MSTORE PUSH1 0x40 DUP11 KECCAK256 SWAP5 DUP4 PUSH1 0x2 DUP8 ADD SLOAD AND SWAP10 CALLER DUP12 SUB PUSH2 0x4CC JUMPI SWAP4 PUSH2 0x2B6 DUP2 DUP8 AND SWAP12 DUP13 EQ ISZERO PUSH2 0x230C JUMP JUMPDEST DUP12 SWAP5 PUSH1 0xD DUP9 ADD SWAP9 DUP10 SLOAD SWAP7 JUMPDEST DUP14 DUP12 DUP10 DUP4 LT PUSH2 0x469 JUMPI POP POP POP POP POP POP DUP8 ISZERO ISZERO DUP1 PUSH2 0x45E JUMPI JUMPDEST PUSH2 0x2E5 SWAP1 SWAP7 SWAP2 SWAP7 PUSH2 0x2216 JUMP JUMPDEST DUP11 SWAP1 PUSH1 0xE DUP13 SWAP2 ADD SWAP7 DUP8 SLOAD JUMPDEST DUP1 DUP4 LT PUSH2 0x435 JUMPI POP POP POP PUSH1 0x64 SWAP3 SWAP2 PUSH2 0x307 SWAP2 PUSH2 0x2369 JUMP JUMPDEST AND GT PUSH2 0x3E1 JUMPI PUSH1 0x1 PUSH1 0x40 SHL SWAP4 DUP5 DUP3 LT ISZERO PUSH2 0x3CD JUMPI DUP2 PUSH2 0x32F SWAP2 PUSH1 0x1 PUSH2 0x34D SWAP6 SWAP5 ADD DUP2 SSTORE PUSH2 0x2285 JUMP JUMPDEST SWAP1 SWAP2 SWAP1 PUSH1 0x1 DUP1 PUSH1 0xA0 SHL SUB DUP1 DUP5 SLOAD SWAP3 PUSH1 0x3 SHL SWAP4 AND DUP4 SHL SWAP3 SHL NOT AND OR SWAP1 SSTORE JUMP JUMPDEST DUP1 SLOAD SWAP2 DUP3 LT ISZERO PUSH2 0x3B9 JUMPI SWAP2 DUP1 PUSH2 0x3A8 PUSH2 0x38F DUP5 PUSH32 0x3C2B0A7047F708FF533690D2CF89D62667A369DE80D02A358419185B1F053BB1 SWAP7 PUSH1 0x1 PUSH1 0x40 SWAP8 ADD DUP2 SSTORE PUSH2 0x229D JUMP JUMPDEST DUP2 SWAP4 SWAP2 SLOAD SWAP1 PUSH1 0x3 SHL SWAP2 PUSH2 0xFFFF DUP1 SWAP2 AND DUP4 SHL SWAP3 SHL NOT AND OR SWAP1 JUMP JUMPDEST SWAP1 SSTORE DUP2 MLOAD SWAP1 DUP2 MSTORE TIMESTAMP PUSH1 0x20 DUP3 ADD MSTORE LOG3 DUP1 RETURN JUMPDEST PUSH4 0x4E487B71 PUSH1 0xE0 SHL DUP7 MSTORE PUSH1 0x41 PUSH1 0x4 MSTORE PUSH1 0x24 DUP7 REVERT JUMPDEST PUSH4 0x4E487B71 PUSH1 0xE0 SHL DUP10 MSTORE PUSH1 0x41 PUSH1 0x4 MSTORE PUSH1 0x24 DUP10 REVERT JUMPDEST PUSH1 0x40 MLOAD PUSH3 0x461BCD PUSH1 0xE5 SHL DUP2 MSTORE PUSH1 0x20 PUSH1 0x4 DUP3 ADD MSTORE PUSH1 0x26 PUSH1 0x24 DUP3 ADD MSTORE PUSH32 0x53756D206F662070657263656E74616765732069732067726561746572207468 PUSH1 0x44 DUP3 ADD MSTORE PUSH6 0x616E2031303 PUSH1 0xD4 SHL PUSH1 0x64 DUP3 ADD MSTORE PUSH1 0x84 SWAP1 REVERT JUMPDEST SWAP1 PUSH2 0x455 DUP4 SWAP5 DUP8 PUSH2 0x447 DUP5 SWAP7 DUP14 PUSH2 0x229D JUMP JUMPDEST SWAP1 SLOAD SWAP1 PUSH1 0x3 SHL SHR AND SWAP1 PUSH2 0x2369 JUMP JUMPDEST SWAP4 ADD SWAP2 SWAP1 PUSH2 0x2F0 JUMP JUMPDEST POP PUSH1 0x64 DUP9 GT ISZERO PUSH2 0x2D9 JUMP JUMPDEST PUSH2 0x474 DUP4 DUP8 SWAP3 PUSH2 0x2285 JUMP JUMPDEST SWAP1 SLOAD SWAP1 PUSH1 0x3 SHL SHR AND EQ PUSH2 0x488 JUMPI DUP5 ADD PUSH2 0x2C1 JUMP JUMPDEST PUSH1 0x40 MLOAD PUSH3 0x461BCD PUSH1 0xE5 SHL DUP2 MSTORE PUSH1 0x4 DUP2 ADD DUP5 SWAP1 MSTORE PUSH1 0x1D PUSH1 0x24 DUP3 ADD MSTORE PUSH32 0x54686520726563656976657220697320616C7265616479206164646564000000 DUP2 DUP5 ADD MSTORE PUSH1 0x64 SWAP1 REVERT JUMPDEST PUSH1 0x40 MLOAD PUSH3 0x461BCD PUSH1 0xE5 SHL DUP2 MSTORE PUSH1 0x20 PUSH1 0x4 DUP3 ADD MSTORE PUSH1 0x29 PUSH1 0x24 DUP3 ADD MSTORE PUSH32 0x4F6E6C79207468652061756374696F6E206F776E65722063616E206164642061 PUSH1 0x44 DUP3 ADD MSTORE PUSH9 0x103932B1B2B4BB32B9 PUSH1 0xB9 SHL PUSH1 0x64 DUP3 ADD MSTORE PUSH1 0x84 SWAP1 REVERT JUMPDEST PUSH1 0x0 DUP1 REVERT JUMPDEST POP PUSH1 0x40 CALLDATASIZE PUSH1 0x3 NOT ADD SLT PUSH2 0x17E JUMPI PUSH2 0x53D PUSH2 0x1F72 JUMP JUMPDEST SWAP1 PUSH1 0x24 DUP1 CALLDATALOAD SWAP1 PUSH1 0x1 DUP1 PUSH1 0xA0 SHL SUB DUP1 SWAP5 AND SWAP3 DUP4 DUP2 MSTORE PUSH1 0x20 SWAP5 PUSH1 0x1 DUP7 MSTORE PUSH1 0x40 DUP3 KECCAK256 PUSH1 0x9 DUP2 ADD SLOAD ISZERO ISZERO SWAP1 DUP2 PUSH2 0x833 JUMPI JUMPDEST POP ISZERO PUSH2 0x7EF JUMPI DUP5 DUP3 MSTORE PUSH1 0x1 DUP7 MSTORE PUSH1 0x40 DUP3 KECCAK256 PUSH1 0xB DUP2 ADD DUP1 SLOAD DUP7 GT ISZERO PUSH2 0x794 JUMPI PUSH1 0x5 DUP3 ADD SLOAD DUP7 LT PUSH2 0x736 JUMPI PUSH1 0x6 DUP3 ADD SLOAD DUP7 GT PUSH2 0x6DD JUMPI DUP6 CALLVALUE SUB PUSH2 0x683 JUMPI DUP6 SWAP1 SSTORE PUSH1 0xC ADD DUP1 SLOAD PUSH1 0x1 PUSH1 0x1 PUSH1 0xA0 SHL SUB NOT SWAP1 DUP2 AND CALLER OR SWAP1 SWAP2 SSTORE PUSH1 0x40 MLOAD SWAP4 PUSH1 0x80 DUP6 ADD SWAP1 PUSH1 0x1 PUSH1 0x1 PUSH1 0x40 SHL SUB DUP3 GT DUP7 DUP4 LT OR PUSH2 0x66F JUMPI POP SWAP1 PUSH1 0x3 SWAP4 SWAP3 SWAP2 PUSH1 0x40 MSTORE CALLER DUP6 MSTORE DUP8 DUP6 ADD SWAP1 DUP8 DUP3 MSTORE PUSH1 0x40 DUP7 ADD SWAP3 DUP8 DUP5 MSTORE PUSH1 0x40 PUSH1 0x60 DUP9 ADD SWAP6 TIMESTAMP DUP8 MSTORE DUP11 DUP2 MSTORE PUSH1 0x2 DUP13 MSTORE KECCAK256 CALLER PUSH1 0x0 MSTORE DUP11 MSTORE DUP1 PUSH1 0x40 PUSH1 0x0 KECCAK256 SWAP8 MLOAD AND DUP3 DUP9 SLOAD AND OR DUP8 SSTORE PUSH1 0x1 DUP8 ADD SWAP3 MLOAD AND SWAP1 DUP3 SLOAD AND OR SWAP1 SSTORE MLOAD PUSH1 0x2 DUP5 ADD SSTORE MLOAD SWAP2 ADD SSTORE PUSH1 0x40 MLOAD SWAP1 DUP2 MSTORE TIMESTAMP DUP4 DUP3 ADD MSTORE PUSH32 0xDD49BBB40D47A514DDDCD458E9718364143BC24A0CCA58439EE6F4F45E4CE10D PUSH1 0x40 CALLER SWAP3 LOG3 PUSH1 0x40 MLOAD PUSH1 0x1 DUP2 MSTORE RETURN JUMPDEST PUSH4 0x4E487B71 PUSH1 0xE0 SHL PUSH1 0x0 SWAP1 DUP2 MSTORE PUSH1 0x41 PUSH1 0x4 MSTORE REVERT JUMPDEST PUSH1 0x40 MLOAD PUSH3 0x461BCD PUSH1 0xE5 SHL DUP2 MSTORE PUSH1 0x4 DUP2 ADD DUP10 SWAP1 MSTORE PUSH1 0x2D DUP2 DUP8 ADD MSTORE PUSH32 0x5468652076616C75652073656E74206973206E6F7420657175616C20746F2074 PUSH1 0x44 DUP3 ADD MSTORE PUSH13 0x1A1948189A5908185B5BDD5B9D PUSH1 0x9A SHL PUSH1 0x64 DUP3 ADD MSTORE PUSH1 0x84 SWAP1 REVERT JUMPDEST PUSH1 0x40 MLOAD PUSH3 0x461BCD PUSH1 0xE5 SHL DUP2 MSTORE PUSH1 0x4 DUP2 ADD DUP10 SWAP1 MSTORE PUSH1 0x2C DUP2 DUP8 ADD MSTORE PUSH32 0x42696420616D6F756E74206973206E6F74206C657373207468616E2074686520 PUSH1 0x44 DUP3 ADD MSTORE PUSH12 0x656E64696E67207072696365 PUSH1 0xA0 SHL PUSH1 0x64 DUP3 ADD MSTORE PUSH1 0x84 SWAP1 REVERT JUMPDEST PUSH1 0x40 MLOAD PUSH3 0x461BCD PUSH1 0xE5 SHL DUP2 MSTORE PUSH1 0x4 DUP2 ADD DUP10 SWAP1 MSTORE PUSH1 0x31 DUP2 DUP8 ADD MSTORE PUSH32 0x42696420616D6F756E74206973206E6F742067726561746572207468616E2074 PUSH1 0x44 DUP3 ADD MSTORE PUSH17 0x6865207374617274696E67207072696365 PUSH1 0x78 SHL PUSH1 0x64 DUP3 ADD MSTORE PUSH1 0x84 SWAP1 REVERT JUMPDEST PUSH1 0x40 MLOAD PUSH3 0x461BCD PUSH1 0xE5 SHL DUP2 MSTORE PUSH1 0x4 DUP2 ADD DUP10 SWAP1 MSTORE PUSH1 0x2E DUP2 DUP8 ADD MSTORE PUSH32 0x42696420616D6F756E74206973206E6F742067726561746572207468616E2074 PUSH1 0x44 DUP3 ADD MSTORE PUSH14 0x1A19481A1A59DA195CDD08189A59 PUSH1 0x92 SHL PUSH1 0x64 DUP3 ADD MSTORE PUSH1 0x84 SWAP1 REVERT JUMPDEST PUSH1 0x40 MLOAD PUSH3 0x461BCD PUSH1 0xE5 SHL DUP2 MSTORE PUSH1 0x4 DUP2 ADD DUP8 SWAP1 MSTORE PUSH1 0x17 DUP2 DUP6 ADD MSTORE PUSH32 0x41756374696F6E206973206E6F74206F6E20676F696E67000000000000000000 PUSH1 0x44 DUP3 ADD MSTORE PUSH1 0x64 SWAP1 REVERT JUMPDEST PUSH1 0xA SWAP2 POP ADD SLOAD ISZERO CODESIZE PUSH2 0x56A JUMP JUMPDEST POP CALLVALUE PUSH2 0x17E JUMPI PUSH1 0x20 SWAP1 DUP2 PUSH1 0x3 NOT CALLDATASIZE ADD SLT PUSH2 0x17E JUMPI PUSH1 0x1 PUSH1 0x1 PUSH1 0xA0 SHL SUB PUSH1 0x40 DUP2 PUSH2 0x867 PUSH2 0x1F72 JUMP JUMPDEST AND SWAP3 DUP4 DUP2 MSTORE PUSH1 0x1 DUP6 MSTORE PUSH2 0x883 DUP4 PUSH1 0x2 DUP5 DUP5 KECCAK256 ADD SLOAD AND CALLER EQ PUSH2 0x214B JUMP JUMPDEST DUP4 DUP2 MSTORE PUSH1 0x1 DUP6 MSTORE KECCAK256 SWAP1 CALLER SWAP1 PUSH1 0x2 DUP4 ADD SLOAD AND SUB PUSH2 0x8D8 JUMPI PUSH32 0x18B64B6242D32AA550E95D78985B938D71AF5B3F10827B0683F55DA16393048 SWAP2 PUSH1 0x40 SWAP2 PUSH1 0xA TIMESTAMP SWAP2 ADD SSTORE DUP2 MLOAD SWAP1 DUP2 MSTORE TIMESTAMP DUP5 DUP3 ADD MSTORE LOG1 PUSH1 0x40 MLOAD PUSH1 0x1 DUP2 MSTORE RETURN JUMPDEST PUSH1 0x40 MLOAD PUSH3 0x461BCD PUSH1 0xE5 SHL DUP2 MSTORE PUSH1 0x4 DUP2 ADD DUP5 SWAP1 MSTORE PUSH1 0x26 PUSH1 0x24 DUP3 ADD MSTORE PUSH32 0x4F6E6C79207468652073656C6C65722063616E2063616E63656C207468652061 PUSH1 0x44 DUP3 ADD MSTORE PUSH6 0x3AB1BA34B7B7 PUSH1 0xD1 SHL PUSH1 0x64 DUP3 ADD MSTORE PUSH1 0x84 SWAP1 REVERT JUMPDEST POP CALLVALUE PUSH2 0x17E JUMPI PUSH1 0x20 CALLDATASIZE PUSH1 0x3 NOT ADD SLT PUSH2 0x17E JUMPI PUSH1 0x20 SWAP1 PUSH1 0x40 SWAP1 PUSH1 0x1 PUSH1 0x1 PUSH1 0xA0 SHL SUB PUSH2 0x954 PUSH2 0x1F72 JUMP JUMPDEST AND DUP2 MSTORE PUSH1 0x3 DUP4 MSTORE KECCAK256 SLOAD PUSH1 0x40 MLOAD SWAP1 DUP2 MSTORE RETURN JUMPDEST POP CALLVALUE PUSH2 0x17E JUMPI DUP1 PUSH1 0x3 NOT CALLDATASIZE ADD SLT PUSH2 0x17E JUMPI PUSH1 0x20 PUSH1 0x4 SLOAD PUSH1 0x40 MLOAD SWAP1 DUP2 MSTORE RETURN JUMPDEST POP CALLVALUE PUSH2 0x17E JUMPI DUP1 PUSH1 0x3 NOT CALLDATASIZE ADD SLT PUSH2 0x17E JUMPI SLOAD PUSH1 0x40 MLOAD PUSH1 0x1 PUSH1 0x1 PUSH1 0xA0 SHL SUB SWAP1 SWAP2 AND DUP2 MSTORE PUSH1 0x20 SWAP1 RETURN JUMPDEST POP CALLVALUE PUSH2 0x17E JUMPI PUSH1 0x40 CALLDATASIZE PUSH1 0x3 NOT ADD SLT PUSH2 0x17E JUMPI PUSH2 0x9C4 PUSH2 0x1F72 JUMP JUMPDEST SWAP1 PUSH2 0x9CD PUSH2 0x1F88 JUMP JUMPDEST PUSH1 0x1 PUSH1 0x1 PUSH1 0xA0 SHL SUB SWAP3 DUP4 AND DUP1 DUP4 MSTORE PUSH1 0x1 PUSH1 0x20 DUP2 SWAP1 MSTORE PUSH1 0x40 DUP5 KECCAK256 PUSH1 0x2 DUP2 ADD SLOAD SWAP1 SWAP6 SWAP1 DUP2 AND SWAP4 CALLER DUP6 SUB PUSH2 0xBE1 JUMPI SWAP1 PUSH2 0xA0A DUP2 DUP9 SWAP5 SWAP4 AND SWAP6 DUP7 EQ ISZERO PUSH2 0x230C JUMP JUMPDEST DUP6 SWAP3 DUP7 SWAP4 PUSH1 0xD DUP3 ADD SWAP5 DUP6 SLOAD SWAP1 JUMPDEST DUP2 DUP2 LT PUSH2 0xBA1 JUMPI JUMPDEST POP POP PUSH2 0xA2A SWAP1 PUSH2 0x22C0 JUMP JUMPDEST DUP7 DUP4 JUMPDEST PUSH2 0xA62 JUMPI JUMPDEST DUP8 DUP8 DUP8 PUSH32 0x881201A365CFA7A30D2763840B70E4BB9C3B6417202491504FB1237B08A8C10F PUSH1 0x20 PUSH1 0x40 MLOAD TIMESTAMP DUP2 MSTORE LOG3 DUP1 RETURN JUMPDEST DUP5 SLOAD DUP1 DUP3 LT ISZERO PUSH2 0xB9B JUMPI DUP4 SWAP1 DUP9 PUSH2 0xA79 DUP5 DUP10 PUSH2 0x2285 JUMP JUMPDEST SWAP4 SWAP1 SLOAD PUSH1 0x3 SWAP5 DUP6 SHL SHR AND EQ PUSH2 0xA92 JUMPI POP POP DUP4 ADD DUP4 PUSH2 0xA2D JUMP JUMPDEST SWAP4 SWAP2 SWAP5 POP SWAP5 PUSH1 0x0 NOT SWAP4 DUP5 DUP2 ADD SWAP1 DUP2 GT PUSH2 0xB87 JUMPI DUP3 PUSH2 0xAB3 PUSH2 0xAC4 SWAP3 DUP5 PUSH2 0x2285 JUMP JUMPDEST SWAP1 SLOAD SWAP1 DUP10 SHL SHR AND PUSH2 0x32F DUP8 DUP5 PUSH2 0x2285 JUMP JUMPDEST DUP1 SLOAD DUP1 ISZERO PUSH2 0xB73 JUMPI SWAP1 DUP5 PUSH1 0xE SWAP5 SWAP4 SWAP3 ADD SWAP2 PUSH2 0xADF DUP4 DUP4 PUSH2 0x2285 JUMP JUMPDEST SWAP1 SWAP2 DUP3 SLOAD SWAP2 DUP11 SHL SHL NOT AND SWAP1 SSTORE SSTORE ADD SWAP2 DUP3 SLOAD DUP3 DUP2 ADD SWAP1 DUP2 GT PUSH2 0xB5F JUMPI SWAP1 PUSH2 0xB1F PUSH2 0xB0C PUSH2 0x38F SWAP5 SWAP4 DUP7 PUSH2 0x229D JUMP JUMPDEST SWAP1 SLOAD PUSH2 0xFFFF SWAP6 SWAP2 DUP9 SHL SHR DUP6 AND SWAP3 DUP7 PUSH2 0x229D JUMP JUMPDEST SWAP1 SSTORE DUP3 SLOAD DUP1 ISZERO PUSH2 0xB4B JUMPI ADD SWAP3 PUSH2 0xB35 DUP5 DUP5 PUSH2 0x229D JUMP JUMPDEST DUP2 SWAP4 SWAP2 SLOAD SWAP3 SHL SHL NOT AND SWAP1 SSTORE SSTORE DUP4 DUP1 DUP1 DUP1 DUP1 PUSH2 0xA32 JUMP JUMPDEST PUSH4 0x4E487B71 PUSH1 0xE0 SHL DUP9 MSTORE PUSH1 0x31 PUSH1 0x4 MSTORE PUSH1 0x24 DUP9 REVERT JUMPDEST PUSH4 0x4E487B71 PUSH1 0xE0 SHL DUP9 MSTORE PUSH1 0x11 PUSH1 0x4 MSTORE PUSH1 0x24 DUP9 REVERT JUMPDEST PUSH4 0x4E487B71 PUSH1 0xE0 SHL DUP11 MSTORE PUSH1 0x31 PUSH1 0x4 MSTORE PUSH1 0x24 DUP11 REVERT JUMPDEST PUSH4 0x4E487B71 PUSH1 0xE0 SHL DUP11 MSTORE PUSH1 0x11 PUSH1 0x4 MSTORE PUSH1 0x24 DUP11 REVERT JUMPDEST POP PUSH2 0xA32 JUMP JUMPDEST DUP9 DUP6 PUSH2 0xBB3 DUP4 DUP11 SWAP8 SWAP7 SWAP14 SWAP13 SWAP12 SWAP11 PUSH2 0x2285 JUMP JUMPDEST SWAP1 SLOAD SWAP1 PUSH1 0x3 SHL SHR AND EQ PUSH2 0xBCE JUMPI DUP6 ADD SWAP9 SWAP2 SWAP3 SWAP6 SWAP7 SWAP8 SWAP9 PUSH2 0xA17 JUMP JUMPDEST POP SWAP7 SWAP8 POP SWAP5 SWAP6 POP SWAP3 SWAP4 DUP3 PUSH2 0xA2A DUP2 PUSH2 0xA1F JUMP JUMPDEST PUSH1 0x40 MLOAD PUSH3 0x461BCD PUSH1 0xE5 SHL DUP2 MSTORE PUSH1 0x20 PUSH1 0x4 DUP3 ADD MSTORE PUSH1 0x2C PUSH1 0x24 DUP3 ADD MSTORE PUSH32 0x4F6E6C79207468652061756374696F6E206F776E65722063616E2072656D6F76 PUSH1 0x44 DUP3 ADD MSTORE PUSH12 0x329030903932B1B2B4BB32B9 PUSH1 0xA1 SHL PUSH1 0x64 DUP3 ADD MSTORE PUSH1 0x84 SWAP1 REVERT JUMPDEST POP CALLVALUE PUSH2 0x17E JUMPI DUP1 PUSH1 0x3 NOT CALLDATASIZE ADD SLT PUSH2 0x17E JUMPI PUSH2 0xC54 PUSH2 0x237F JUMP JUMPDEST PUSH1 0x0 DUP1 SLOAD PUSH1 0x1 PUSH1 0x1 PUSH1 0xA0 SHL SUB NOT DUP2 AND DUP3 SSTORE PUSH1 0x1 PUSH1 0x1 PUSH1 0xA0 SHL SUB AND PUSH32 0x8BE0079C531659141344CD1FD0A4F28419497F9722A3DAAFE3B4186F6B6457E0 DUP3 DUP1 LOG3 DUP1 RETURN JUMPDEST POP CALLVALUE PUSH2 0x17E JUMPI PUSH1 0x60 CALLDATASIZE PUSH1 0x3 NOT ADD SLT PUSH2 0x17E JUMPI PUSH2 0xCAF PUSH2 0x1F72 JUMP JUMPDEST PUSH2 0xCB7 PUSH2 0x1F88 JUMP JUMPDEST SWAP1 PUSH1 0x44 CALLDATALOAD PUSH1 0x1 DUP1 PUSH1 0xA0 SHL SUB DUP1 SWAP3 AND SWAP2 DUP3 DUP6 MSTORE PUSH1 0x1 SWAP1 PUSH1 0x1 PUSH1 0x20 MSTORE PUSH1 0x40 DUP7 KECCAK256 SWAP2 DUP2 PUSH1 0x2 DUP5 ADD SLOAD AND CALLER SUB PUSH2 0xDEC JUMPI DUP7 SWAP6 SWAP2 SWAP6 SWAP2 DUP8 SWAP4 DUP9 SWAP8 PUSH1 0xD DUP3 ADD DUP2 DUP2 SLOAD SWAP5 AND SWAP10 JUMPDEST DUP5 DUP2 LT PUSH2 0xD9A JUMPI JUMPDEST POP POP POP POP POP POP SWAP1 PUSH2 0xD12 PUSH2 0xFFFF SWAP3 PUSH2 0x22C0 JUMP JUMPDEST AND SWAP1 DUP2 DUP2 MUL SWAP2 DUP2 DUP4 DIV EQ SWAP1 ISZERO OR ISZERO PUSH2 0xD86 JUMPI PUSH1 0x64 SWAP1 DIV DUP4 DUP2 DUP5 DUP3 DUP3 ISZERO PUSH2 0xD7D JUMPI JUMPDEST DUP4 SWAP3 DUP4 SWAP3 DUP4 SWAP3 CALL ISZERO PUSH2 0xD72 JUMPI PUSH1 0x40 PUSH32 0x67B1D074E0231B1D5EA97C0B82A285837B236D627D5A9B89965F961963C39B6C SWAP2 DUP2 MLOAD SWAP1 DUP2 MSTORE TIMESTAMP PUSH1 0x20 DUP3 ADD MSTORE LOG3 DUP1 RETURN JUMPDEST PUSH1 0x40 MLOAD RETURNDATASIZE DUP6 DUP3 RETURNDATACOPY RETURNDATASIZE SWAP1 REVERT JUMPDEST POP PUSH2 0x8FC PUSH2 0xD33 JUMP JUMPDEST PUSH4 0x4E487B71 PUSH1 0xE0 SHL DUP5 MSTORE PUSH1 0x11 PUSH1 0x4 MSTORE PUSH1 0x24 DUP5 REVERT JUMPDEST DUP3 DUP12 PUSH2 0xDA6 DUP4 DUP6 PUSH2 0x2285 JUMP JUMPDEST SWAP3 SWAP1 SLOAD PUSH1 0x3 SWAP4 DUP5 SHL SHR AND EQ PUSH2 0xDBD JUMPI POP DUP6 ADD PUSH2 0xCF7 JUMP JUMPDEST SWAP4 SWAP7 POP SWAP1 POP PUSH2 0xFFFF SWAP7 POP DUP7 SWAP4 POP PUSH2 0xDDC SWAP2 POP PUSH1 0xE PUSH2 0xD12 SWAP6 SWAP7 ADD PUSH2 0x229D JUMP JUMPDEST SWAP1 SLOAD SWAP2 SHL SHR AND SWAP3 CODESIZE DUP1 DUP1 DUP1 PUSH2 0xCFF JUMP JUMPDEST PUSH1 0x40 MLOAD PUSH3 0x461BCD PUSH1 0xE5 SHL DUP2 MSTORE PUSH1 0x20 PUSH1 0x4 DUP3 ADD MSTORE PUSH1 0x29 PUSH1 0x24 DUP3 ADD MSTORE PUSH32 0x4F6E6C79207468652061756374696F6E206F776E65722063616E207472616E73 PUSH1 0x44 DUP3 ADD MSTORE PUSH9 0x666572206D6F6E6579 PUSH1 0xB8 SHL PUSH1 0x64 DUP3 ADD MSTORE PUSH1 0x84 SWAP1 REVERT JUMPDEST POP CALLVALUE PUSH2 0x17E JUMPI PUSH2 0x140 CALLDATASIZE PUSH1 0x3 NOT ADD SLT PUSH2 0x17E JUMPI PUSH1 0x4 CALLDATALOAD PUSH1 0x1 PUSH1 0x1 PUSH1 0x40 SHL SUB DUP2 GT PUSH2 0x182C JUMPI PUSH2 0xE75 SWAP1 CALLDATASIZE SWAP1 PUSH1 0x4 ADD PUSH2 0x20DE JUMP JUMPDEST PUSH1 0x24 CALLDATALOAD PUSH1 0x1 PUSH1 0x1 PUSH1 0x40 SHL SUB DUP2 GT PUSH2 0x185C JUMPI PUSH2 0xE94 SWAP1 CALLDATASIZE SWAP1 PUSH1 0x4 ADD PUSH2 0x20DE JUMP JUMPDEST SWAP1 PUSH1 0x44 CALLDATALOAD PUSH1 0x1 PUSH1 0x1 PUSH1 0xA0 SHL SUB DUP2 AND SWAP1 SUB PUSH2 0x523 JUMPI PUSH1 0xC4 CALLDATALOAD PUSH4 0xFFFFFFFF DUP2 AND DUP2 SUB PUSH2 0x1858 JUMPI PUSH1 0x1 PUSH1 0x1 PUSH1 0x40 SHL SUB PUSH2 0x104 CALLDATALOAD GT PUSH2 0x1858 JUMPI CALLDATASIZE PUSH1 0x23 PUSH2 0x104 CALLDATALOAD ADD SLT ISZERO PUSH2 0x1858 JUMPI PUSH2 0xEE7 PUSH2 0x104 CALLDATALOAD PUSH1 0x4 ADD CALLDATALOAD PUSH2 0x2134 JUMP JUMPDEST SWAP2 PUSH2 0xEF5 PUSH1 0x40 MLOAD SWAP4 DUP5 PUSH2 0x1FD8 JUMP JUMPDEST PUSH2 0x104 CALLDATALOAD PUSH1 0x4 ADD CALLDATALOAD DUP4 MSTORE PUSH1 0x20 DUP4 ADD CALLDATASIZE PUSH1 0x24 PUSH2 0x104 CALLDATALOAD PUSH1 0x4 ADD CALLDATALOAD PUSH1 0x5 SHL PUSH2 0x104 CALLDATALOAD ADD ADD GT PUSH2 0x1854 JUMPI PUSH1 0x24 PUSH2 0x104 CALLDATALOAD ADD SWAP1 JUMPDEST PUSH1 0x24 PUSH2 0x104 CALLDATALOAD PUSH1 0x4 ADD CALLDATALOAD PUSH1 0x5 SHL PUSH2 0x104 CALLDATALOAD ADD ADD DUP3 LT PUSH2 0x1834 JUMPI POP POP PUSH1 0x1 PUSH1 0x1 PUSH1 0x40 SHL SUB PUSH2 0x124 CALLDATALOAD GT PUSH2 0x1830 JUMPI CALLDATASIZE PUSH1 0x23 PUSH2 0x124 CALLDATALOAD ADD SLT ISZERO PUSH2 0x1830 JUMPI PUSH2 0xF6F PUSH2 0x124 CALLDATALOAD PUSH1 0x4 ADD CALLDATALOAD PUSH2 0x2134 JUMP JUMPDEST SWAP5 PUSH2 0xF7D PUSH1 0x40 MLOAD SWAP7 DUP8 PUSH2 0x1FD8 JUMP JUMPDEST PUSH2 0x124 CALLDATALOAD PUSH1 0x4 ADD CALLDATALOAD DUP7 MSTORE PUSH1 0x20 DUP7 ADD CALLDATASIZE PUSH1 0x24 PUSH2 0x124 CALLDATALOAD PUSH1 0x4 ADD CALLDATALOAD PUSH1 0x5 SHL PUSH2 0x124 CALLDATALOAD ADD ADD GT PUSH2 0x182C JUMPI PUSH1 0x24 PUSH2 0x124 CALLDATALOAD ADD SWAP1 JUMPDEST PUSH1 0x24 PUSH2 0x124 CALLDATALOAD PUSH1 0x4 ADD CALLDATALOAD PUSH1 0x5 SHL PUSH2 0x124 CALLDATALOAD ADD ADD DUP3 LT PUSH2 0x1811 JUMPI POP POP PUSH1 0x40 MLOAD PUSH4 0x31A9108F PUSH1 0xE1 SHL DUP2 MSTORE PUSH1 0x64 CALLDATALOAD PUSH1 0x4 DUP3 ADD MSTORE PUSH1 0x20 DUP2 PUSH1 0x24 DUP2 PUSH1 0x44 CALLDATALOAD PUSH1 0x1 PUSH1 0x1 PUSH1 0xA0 SHL SUB AND GAS STATICCALL SWAP1 DUP2 ISZERO PUSH2 0x1806 JUMPI DUP3 SWAP2 PUSH2 0x17D7 JUMPI JUMPDEST POP CALLER PUSH1 0x1 PUSH1 0x1 PUSH1 0xA0 SHL SUB SWAP1 SWAP2 AND SUB PUSH2 0x1786 JUMPI DUP4 MLOAD DUP7 MLOAD SUB PUSH2 0x172F JUMPI DUP1 JUMPDEST DUP5 MLOAD DUP2 LT ISZERO PUSH2 0x10C6 JUMPI PUSH1 0x1 PUSH1 0x1 PUSH1 0xA0 SHL SUB PUSH2 0x1037 DUP3 DUP8 PUSH2 0x21EC JUMP JUMPDEST MLOAD AND ISZERO PUSH2 0x1081 JUMPI PUSH1 0x1 SWAP1 PUSH2 0x1063 PUSH2 0xFFFF DUP1 PUSH2 0x1052 DUP5 DUP13 PUSH2 0x21EC JUMP JUMPDEST MLOAD AND ISZERO ISZERO SWAP1 DUP2 PUSH2 0x1069 JUMPI JUMPDEST POP PUSH2 0x2216 JUMP JUMPDEST ADD PUSH2 0x101C JUMP JUMPDEST PUSH1 0x64 SWAP2 POP PUSH2 0x1077 DUP5 DUP13 PUSH2 0x21EC JUMP JUMPDEST MLOAD AND GT ISZERO CODESIZE PUSH2 0x105D JUMP JUMPDEST PUSH1 0x40 MLOAD PUSH3 0x461BCD PUSH1 0xE5 SHL DUP2 MSTORE PUSH1 0x20 PUSH1 0x4 DUP3 ADD MSTORE PUSH1 0x18 PUSH1 0x24 DUP3 ADD MSTORE PUSH32 0x496E76616C696420726563656976657220616464726573730000000000000000 PUSH1 0x44 DUP3 ADD MSTORE PUSH1 0x64 SWAP1 REVERT JUMPDEST POP DUP5 DUP7 DUP6 PUSH1 0x40 MLOAD SWAP3 TIMESTAMP PUSH1 0x20 DUP6 ADD MSTORE CALLER PUSH1 0x60 SHL PUSH1 0x40 DUP6 ADD MSTORE PUSH1 0x1 PUSH1 0x1 PUSH1 0x60 SHL SUB NOT PUSH1 0x44 CALLDATALOAD PUSH1 0x60 SHL AND PUSH1 0x54 DUP6 ADD MSTORE PUSH1 0x64 CALLDATALOAD PUSH1 0x68 DUP6 ADD MSTORE PUSH1 0x68 DUP5 MSTORE DUP4 PUSH1 0xA0 DUP2 ADD LT PUSH1 0x1 PUSH1 0x1 PUSH1 0x40 SHL SUB PUSH1 0xA0 DUP7 ADD GT OR PUSH2 0x1719 JUMPI PUSH1 0xA0 DUP5 ADD PUSH1 0x40 DUP2 SWAP1 MSTORE DUP5 MLOAD PUSH1 0x20 DUP7 ADD KECCAK256 PUSH1 0x1 PUSH1 0x1 PUSH1 0xA0 SHL SUB AND SWAP7 SWAP1 PUSH1 0x1 PUSH1 0x1 PUSH1 0x40 SHL SUB PUSH2 0x280 DUP8 ADD SWAP1 DUP2 GT SWAP2 GT OR PUSH2 0x1719 JUMPI PUSH2 0x280 DUP6 ADD PUSH1 0x40 MSTORE PUSH1 0xA0 DUP6 ADD MSTORE PUSH1 0xC0 DUP5 ADD MSTORE CALLER PUSH1 0xE0 DUP5 ADD MSTORE PUSH1 0x1 DUP1 PUSH1 0xA0 SHL SUB PUSH1 0x44 CALLDATALOAD AND PUSH2 0x100 DUP5 ADD MSTORE PUSH1 0x64 CALLDATALOAD PUSH2 0x120 DUP5 ADD MSTORE PUSH1 0x84 CALLDATALOAD PUSH2 0x140 DUP5 ADD MSTORE PUSH1 0xA4 CALLDATALOAD PUSH2 0x160 DUP5 ADD MSTORE PUSH4 0xFFFFFFFF DUP7 AND PUSH2 0x180 DUP5 ADD MSTORE PUSH1 0xE4 CALLDATALOAD PUSH2 0x1A0 DUP5 ADD MSTORE TIMESTAMP PUSH2 0x1C0 DUP5 ADD MSTORE DUP4 PUSH2 0x1E0 DUP5 ADD MSTORE DUP4 PUSH2 0x200 DUP5 ADD MSTORE DUP4 PUSH2 0x220 DUP5 ADD MSTORE PUSH2 0x240 DUP4 ADD MSTORE PUSH2 0x260 DUP3 ADD MSTORE DUP3 DUP3 MSTORE PUSH1 0x1 PUSH1 0x20 MSTORE PUSH1 0x40 DUP3 KECCAK256 PUSH1 0xA0 DUP3 ADD MLOAD DUP1 MLOAD SWAP1 PUSH1 0x1 PUSH1 0x1 PUSH1 0x40 SHL SUB DUP3 GT PUSH2 0x15A9 JUMPI DUP2 SWAP1 PUSH2 0x11F8 DUP5 SLOAD PUSH2 0x1F9E JUMP JUMPDEST PUSH1 0x1F DUP2 GT PUSH2 0x16E9 JUMPI JUMPDEST POP PUSH1 0x20 SWAP1 PUSH1 0x1F DUP4 GT PUSH1 0x1 EQ PUSH2 0x1680 JUMPI DUP7 SWAP3 PUSH2 0x1675 JUMPI JUMPDEST POP POP DUP2 PUSH1 0x1 SHL SWAP2 PUSH1 0x0 NOT SWAP1 PUSH1 0x3 SHL SHR NOT AND OR DUP2 SSTORE JUMPDEST PUSH1 0xC0 DUP3 ADD MLOAD DUP1 MLOAD SWAP1 PUSH1 0x1 PUSH1 0x1 PUSH1 0x40 SHL SUB DUP3 GT PUSH2 0x15A9 JUMPI DUP2 SWAP1 PUSH2 0x1251 PUSH1 0x1 DUP6 ADD SLOAD PUSH2 0x1F9E JUMP JUMPDEST PUSH1 0x1F DUP2 GT PUSH2 0x1637 JUMPI JUMPDEST POP PUSH1 0x20 SWAP1 PUSH1 0x1F DUP4 GT PUSH1 0x1 EQ PUSH2 0x15C8 JUMPI DUP7 SWAP3 PUSH2 0x15BD JUMPI JUMPDEST POP POP DUP2 PUSH1 0x1 SHL SWAP2 PUSH1 0x0 NOT SWAP1 PUSH1 0x3 SHL SHR NOT AND OR PUSH1 0x1 DUP3 ADD SSTORE JUMPDEST PUSH1 0xE0 DUP3 ADD MLOAD PUSH1 0x2 DUP3 ADD DUP1 SLOAD PUSH1 0x1 PUSH1 0x1 PUSH1 0xA0 SHL SUB NOT SWAP1 DUP2 AND PUSH1 0x1 PUSH1 0x1 PUSH1 0xA0 SHL SUB SWAP4 DUP5 AND OR SWAP1 SWAP2 SSTORE PUSH2 0x100 DUP5 ADD MLOAD PUSH1 0x3 DUP5 ADD DUP1 SLOAD DUP4 AND SWAP2 DUP5 AND SWAP2 SWAP1 SWAP2 OR SWAP1 SSTORE PUSH2 0x120 DUP5 ADD MLOAD PUSH1 0x4 DUP5 ADD SSTORE PUSH2 0x140 DUP5 ADD MLOAD PUSH1 0x5 DUP5 ADD SSTORE PUSH2 0x160 DUP5 ADD MLOAD PUSH1 0x6 DUP5 ADD SSTORE PUSH2 0x180 DUP5 ADD MLOAD PUSH1 0x7 DUP5 ADD DUP1 SLOAD PUSH4 0xFFFFFFFF NOT AND PUSH4 0xFFFFFFFF SWAP3 SWAP1 SWAP3 AND SWAP2 SWAP1 SWAP2 OR SWAP1 SSTORE PUSH2 0x1A0 DUP5 ADD MLOAD PUSH1 0x8 DUP5 ADD SSTORE PUSH2 0x1C0 DUP5 ADD MLOAD PUSH1 0x9 DUP5 ADD SSTORE PUSH2 0x1E0 DUP5 ADD MLOAD PUSH1 0xA DUP5 ADD SSTORE PUSH2 0x200 DUP5 ADD MLOAD PUSH1 0xB DUP5 ADD SSTORE PUSH2 0x220 DUP5 ADD MLOAD PUSH1 0xC DUP5 ADD DUP1 SLOAD SWAP1 SWAP3 AND SWAP3 AND SWAP2 SWAP1 SWAP2 OR SWAP1 SSTORE PUSH2 0x240 DUP3 ADD MLOAD DUP1 MLOAD SWAP1 PUSH1 0x1 PUSH1 0x1 PUSH1 0x40 SHL SUB DUP3 GT PUSH2 0x15A9 JUMPI PUSH1 0x1 PUSH1 0x40 SHL DUP3 GT PUSH2 0x15A9 JUMPI PUSH1 0x20 SWAP1 PUSH1 0xD DUP5 ADD SLOAD DUP4 PUSH1 0xD DUP7 ADD SSTORE DUP1 DUP5 LT PUSH2 0x158C JUMPI JUMPDEST POP ADD PUSH1 0xD DUP4 ADD DUP6 MSTORE PUSH1 0x20 DUP6 KECCAK256 DUP6 JUMPDEST DUP4 DUP2 LT PUSH2 0x156F JUMPI POP POP POP POP PUSH1 0xE PUSH2 0x260 SWAP2 ADD SWAP2 ADD MLOAD DUP1 MLOAD SWAP1 PUSH1 0x1 PUSH1 0x1 PUSH1 0x40 SHL SUB DUP3 GT PUSH2 0x155B JUMPI PUSH1 0x1 PUSH1 0x40 SHL DUP3 GT PUSH2 0x155B JUMPI PUSH1 0x20 SWAP1 DUP4 SLOAD DUP4 DUP6 SSTORE DUP1 DUP5 LT PUSH2 0x150D JUMPI JUMPDEST POP ADD SWAP2 DUP4 MSTORE PUSH1 0x20 DUP4 KECCAK256 SWAP1 DUP1 PUSH1 0x4 SHR SWAP3 DUP5 JUMPDEST DUP5 DUP2 LT PUSH2 0x14CD JUMPI POP PUSH1 0xF NOT DUP3 AND SWAP1 SWAP2 SUB SWAP1 DUP2 PUSH2 0x145F JUMPI JUMPDEST PUSH1 0x20 DUP7 PUSH32 0xE98ED15AE59D71E47B556B1164AB1D4CF06E34971B124935263C5F08B02A357F PUSH1 0xE0 DUP11 PUSH4 0xFFFFFFFF PUSH1 0x40 MLOAD SWAP2 DUP6 DUP4 MSTORE CALLER DUP8 DUP5 ADD MSTORE PUSH1 0x84 CALLDATALOAD PUSH1 0x40 DUP5 ADD MSTORE PUSH1 0xA4 CALLDATALOAD PUSH1 0x60 DUP5 ADD MSTORE AND PUSH1 0x80 DUP3 ADD MSTORE PUSH1 0xE4 CALLDATALOAD PUSH1 0xA0 DUP3 ADD MSTORE TIMESTAMP PUSH1 0xC0 DUP3 ADD MSTORE LOG1 PUSH1 0x40 MLOAD SWAP1 DUP2 MSTORE RETURN JUMPDEST SWAP1 DUP5 JUMPDEST DUP2 DUP2 LT PUSH2 0x149A JUMPI POP POP POP ADD SSTORE PUSH32 0xE98ED15AE59D71E47B556B1164AB1D4CF06E34971B124935263C5F08B02A357F PUSH1 0xE0 PUSH1 0x20 DUP6 DUP1 PUSH2 0x13FA JUMP JUMPDEST SWAP1 SWAP2 SWAP5 PUSH1 0x20 PUSH2 0x14C3 PUSH1 0x1 SWAP3 PUSH2 0xFFFF DUP10 MLOAD AND SWAP1 DUP6 DUP6 SHL PUSH1 0x3 SHL SWAP2 PUSH2 0xFFFF DUP1 SWAP2 AND DUP4 SHL SWAP3 SHL NOT AND OR SWAP1 JUMP JUMPDEST SWAP7 ADD SWAP3 SWAP2 ADD PUSH2 0x1462 JUMP JUMPDEST DUP6 DUP7 JUMPDEST PUSH1 0x10 DUP2 LT PUSH2 0x14E5 JUMPI POP DUP5 DUP3 ADD SSTORE PUSH1 0x1 ADD PUSH2 0x13E3 JUMP JUMPDEST DUP4 MLOAD SWAP1 SWAP4 SWAP2 PUSH1 0x1 SWAP2 PUSH1 0x20 SWAP2 PUSH2 0xFFFF PUSH1 0x4 DUP9 SWAP1 SHL DUP2 DUP2 SHL NOT SWAP1 SWAP3 AND SWAP3 AND SWAP1 SHL OR SWAP3 ADD SWAP4 ADD PUSH2 0x14D0 JUMP JUMPDEST PUSH2 0x153B SWAP1 DUP6 DUP8 MSTORE DUP4 DUP8 KECCAK256 PUSH1 0xF DUP1 DUP8 ADD PUSH1 0x4 SHR DUP3 ADD SWAP3 PUSH1 0x1E DUP9 PUSH1 0x1 SHL AND DUP1 PUSH2 0x1541 JUMPI JUMPDEST POP ADD PUSH1 0x4 SHR ADD SWAP1 PUSH2 0x226E JUMP JUMPDEST DUP8 PUSH2 0x13D2 JUMP JUMPDEST PUSH1 0x0 NOT SWAP1 DUP2 DUP7 ADD SWAP2 DUP3 SLOAD SWAP2 DUP11 SUB PUSH1 0x3 SHL SHR AND SWAP1 SSTORE DUP13 PUSH2 0x152F JUMP JUMPDEST PUSH4 0x4E487B71 PUSH1 0xE0 SHL DUP5 MSTORE PUSH1 0x41 PUSH1 0x4 MSTORE PUSH1 0x24 DUP5 REVERT JUMPDEST DUP3 MLOAD PUSH1 0x1 PUSH1 0x1 PUSH1 0xA0 SHL SUB AND DUP2 DUP4 ADD SSTORE PUSH1 0x20 SWAP1 SWAP3 ADD SWAP2 PUSH1 0x1 ADD PUSH2 0x1391 JUMP JUMPDEST PUSH1 0xD DUP6 ADD DUP8 MSTORE DUP3 DUP8 KECCAK256 PUSH2 0x15A3 SWAP2 DUP2 ADD SWAP1 DUP6 ADD PUSH2 0x226E JUMP JUMPDEST DUP9 PUSH2 0x1383 JUMP JUMPDEST PUSH4 0x4E487B71 PUSH1 0xE0 SHL DUP6 MSTORE PUSH1 0x41 PUSH1 0x4 MSTORE PUSH1 0x24 DUP6 REVERT JUMPDEST ADD MLOAD SWAP1 POP DUP8 DUP1 PUSH2 0x1270 JUMP JUMPDEST SWAP3 POP PUSH1 0x1 DUP5 ADD DUP7 MSTORE PUSH1 0x20 DUP7 KECCAK256 SWAP1 DUP7 SWAP4 JUMPDEST PUSH1 0x1F NOT DUP5 AND DUP6 LT PUSH2 0x161C JUMPI PUSH1 0x1 SWAP5 POP DUP4 PUSH1 0x1F NOT DUP2 AND LT PUSH2 0x1603 JUMPI JUMPDEST POP POP POP DUP2 SHL ADD PUSH1 0x1 DUP3 ADD SSTORE PUSH2 0x1288 JUMP JUMPDEST ADD MLOAD PUSH1 0x0 NOT PUSH1 0xF8 DUP5 PUSH1 0x3 SHL AND SHR NOT AND SWAP1 SSTORE DUP8 DUP1 DUP1 PUSH2 0x15F3 JUMP JUMPDEST DUP2 DUP2 ADD MLOAD DUP4 SSTORE PUSH1 0x20 SWAP5 DUP6 ADD SWAP5 PUSH1 0x1 SWAP1 SWAP4 ADD SWAP3 SWAP1 SWAP2 ADD SWAP1 PUSH2 0x15D8 JUMP JUMPDEST PUSH2 0x1665 SWAP1 PUSH1 0x1 DUP7 ADD DUP9 MSTORE PUSH1 0x20 DUP9 KECCAK256 PUSH1 0x1F DUP6 ADD PUSH1 0x5 SHR DUP2 ADD SWAP2 PUSH1 0x20 DUP7 LT PUSH2 0x166B JUMPI JUMPDEST PUSH1 0x1F ADD PUSH1 0x5 SHR ADD SWAP1 PUSH2 0x226E JUMP JUMPDEST DUP9 PUSH2 0x125A JUMP JUMPDEST SWAP1 SWAP2 POP DUP2 SWAP1 PUSH2 0x1658 JUMP JUMPDEST ADD MLOAD SWAP1 POP DUP8 DUP1 PUSH2 0x1217 JUMP JUMPDEST SWAP3 POP DUP4 DUP7 MSTORE PUSH1 0x20 DUP7 KECCAK256 SWAP1 DUP7 SWAP4 JUMPDEST PUSH1 0x1F NOT DUP5 AND DUP6 LT PUSH2 0x16CE JUMPI PUSH1 0x1 SWAP5 POP DUP4 PUSH1 0x1F NOT DUP2 AND LT PUSH2 0x16B5 JUMPI JUMPDEST POP POP POP DUP2 SHL ADD DUP2 SSTORE PUSH2 0x122C JUMP JUMPDEST ADD MLOAD PUSH1 0x0 NOT PUSH1 0xF8 DUP5 PUSH1 0x3 SHL AND SHR NOT AND SWAP1 SSTORE DUP8 DUP1 DUP1 PUSH2 0x16A8 JUMP JUMPDEST DUP2 DUP2 ADD MLOAD DUP4 SSTORE PUSH1 0x20 SWAP5 DUP6 ADD SWAP5 PUSH1 0x1 SWAP1 SWAP4 ADD SWAP3 SWAP1 SWAP2 ADD SWAP1 PUSH2 0x168D JUMP JUMPDEST PUSH2 0x1713 SWAP1 DUP6 DUP9 MSTORE PUSH1 0x20 DUP9 KECCAK256 PUSH1 0x1F DUP6 ADD PUSH1 0x5 SHR DUP2 ADD SWAP2 PUSH1 0x20 DUP7 LT PUSH2 0x166B JUMPI PUSH1 0x1F ADD PUSH1 0x5 SHR ADD SWAP1 PUSH2 0x226E JUMP JUMPDEST DUP9 PUSH2 0x1201 JUMP JUMPDEST PUSH4 0x4E487B71 PUSH1 0xE0 SHL PUSH1 0x0 MSTORE PUSH1 0x41 PUSH1 0x4 MSTORE PUSH1 0x24 PUSH1 0x0 REVERT JUMPDEST PUSH1 0x40 MLOAD PUSH3 0x461BCD PUSH1 0xE5 SHL DUP2 MSTORE PUSH1 0x20 PUSH1 0x4 DUP3 ADD MSTORE PUSH1 0x29 PUSH1 0x24 DUP3 ADD MSTORE PUSH32 0x52656365697665727320616E642070657263656E7461676573206C656E677468 PUSH1 0x44 DUP3 ADD MSTORE PUSH9 0x40DAD2E6DAC2E8C6D PUSH1 0xBB SHL PUSH1 0x64 DUP3 ADD MSTORE PUSH1 0x84 SWAP1 REVERT JUMPDEST PUSH1 0x40 MLOAD PUSH3 0x461BCD PUSH1 0xE5 SHL DUP2 MSTORE PUSH1 0x20 PUSH1 0x4 DUP3 ADD MSTORE PUSH1 0x24 DUP1 DUP3 ADD MSTORE PUSH32 0x4F6E6C79204E4654206F776E65722063616E2063726561746520616E20617563 PUSH1 0x44 DUP3 ADD MSTORE PUSH4 0x3A34B7B7 PUSH1 0xE1 SHL PUSH1 0x64 DUP3 ADD MSTORE PUSH1 0x84 SWAP1 REVERT JUMPDEST PUSH2 0x17F9 SWAP2 POP PUSH1 0x20 RETURNDATASIZE PUSH1 0x20 GT PUSH2 0x17FF JUMPI JUMPDEST PUSH2 0x17F1 DUP2 DUP4 PUSH2 0x1FD8 JUMP JUMPDEST DUP2 ADD SWAP1 PUSH2 0x21CD JUMP JUMPDEST CODESIZE PUSH2 0xFFF JUMP JUMPDEST POP RETURNDATASIZE PUSH2 0x17E7 JUMP JUMPDEST PUSH1 0x40 MLOAD RETURNDATASIZE DUP5 DUP3 RETURNDATACOPY RETURNDATASIZE SWAP1 REVERT JUMPDEST DUP2 CALLDATALOAD PUSH2 0xFFFF DUP2 AND DUP2 SUB PUSH2 0x523 JUMPI DUP2 MSTORE PUSH1 0x20 SWAP2 DUP3 ADD SWAP2 ADD PUSH2 0xFAD JUMP JUMPDEST POP DUP1 REVERT JUMPDEST DUP5 DUP1 REVERT JUMPDEST DUP2 CALLDATALOAD PUSH1 0x1 PUSH1 0x1 PUSH1 0xA0 SHL SUB DUP2 AND DUP2 SUB PUSH2 0x523 JUMPI DUP2 MSTORE PUSH1 0x20 SWAP2 DUP3 ADD SWAP2 ADD PUSH2 0xF25 JUMP JUMPDEST DUP6 DUP1 REVERT JUMPDEST DUP4 DUP1 REVERT JUMPDEST DUP3 DUP1 REVERT JUMPDEST POP PUSH1 0x20 SWAP1 DUP2 PUSH1 0x3 NOT CALLDATASIZE ADD SLT PUSH2 0x17E JUMPI PUSH1 0x1 PUSH1 0x1 PUSH1 0xA0 SHL SUB DUP1 PUSH2 0x1880 PUSH2 0x1F72 JUMP JUMPDEST AND SWAP1 DUP2 DUP4 MSTORE PUSH1 0x1 DUP5 MSTORE PUSH1 0x40 DUP4 KECCAK256 SWAP1 PUSH2 0x18A1 PUSH1 0x9 DUP4 ADD SLOAD PUSH1 0x8 DUP5 ADD SLOAD SWAP1 PUSH2 0x21AA JUMP JUMPDEST TIMESTAMP LT ISZERO PUSH2 0x1B82 JUMPI PUSH1 0xC DUP3 ADD SWAP2 DUP2 DUP4 SLOAD AND CALLER SUB PUSH2 0x1B3D JUMPI PUSH1 0xB DUP2 ADD SWAP3 DUP6 DUP1 DUP1 DUP1 DUP8 SLOAD DUP2 DUP2 ISZERO PUSH2 0x1B34 JUMPI JUMPDEST CALLER SWAP1 CALL ISZERO PUSH2 0x1B20 JUMPI DUP6 DUP1 DUP1 DUP1 PUSH1 0x4 SLOAD DUP2 DUP2 ISZERO PUSH2 0x1B2B JUMPI JUMPDEST CALLER SWAP1 CALL ISZERO PUSH2 0x1B20 JUMPI DUP6 DUP5 SSTORE PUSH1 0x1 PUSH1 0x1 PUSH1 0x60 SHL SUB PUSH1 0xA0 SHL DUP2 SLOAD AND SWAP1 SSTORE DUP2 PUSH1 0x3 DUP3 ADD SLOAD AND SWAP2 PUSH1 0x4 DUP3 ADD SLOAD SWAP2 PUSH1 0x40 MLOAD PUSH4 0x20604BF PUSH1 0xE2 SHL DUP2 MSTORE DUP4 PUSH1 0x4 DUP3 ADD MSTORE DUP9 DUP2 PUSH1 0x24 DUP2 DUP9 GAS STATICCALL SWAP1 DUP2 ISZERO PUSH2 0x1AF8 JUMPI DUP9 SWAP2 PUSH2 0x1B03 JUMPI JUMPDEST POP DUP3 AND ADDRESS EQ DUP1 ISZERO PUSH2 0x1A81 JUMPI JUMPDEST ISZERO PUSH2 0x1A25 JUMPI PUSH1 0x2 ADD SLOAD AND DUP3 EXTCODESIZE ISZERO PUSH2 0x1854 JUMPI SWAP1 PUSH1 0x64 DUP7 SWAP3 DUP4 PUSH1 0x40 MLOAD SWAP6 DUP7 SWAP5 DUP6 SWAP4 PUSH4 0x23B872DD PUSH1 0xE0 SHL DUP6 MSTORE PUSH1 0x4 DUP6 ADD MSTORE CALLER PUSH1 0x24 DUP6 ADD MSTORE PUSH1 0x44 DUP5 ADD MSTORE GAS CALL DUP1 ISZERO PUSH2 0x1A1A JUMPI PUSH2 0x19EB JUMPI JUMPDEST POP DUP2 SWAP1 SLOAD PUSH1 0x40 MLOAD SWAP1 DUP2 MSTORE TIMESTAMP DUP6 DUP3 ADD MSTORE PUSH32 0x785D85162AE7507DAD1D0089BA072BA3F2B9C7538085649DDC9B039EADC1A3F6 PUSH1 0x40 CALLER SWAP3 LOG3 DUP2 MSTORE PUSH1 0x2 DUP3 MSTORE PUSH1 0x40 DUP2 KECCAK256 CALLER PUSH1 0x0 MSTORE DUP3 MSTORE PUSH1 0x3 PUSH1 0x40 PUSH1 0x0 KECCAK256 DUP3 DUP2 SSTORE DUP3 PUSH1 0x1 DUP3 ADD SSTORE DUP3 PUSH1 0x2 DUP3 ADD SSTORE ADD SSTORE PUSH1 0x40 MLOAD PUSH1 0x1 DUP2 MSTORE RETURN JUMPDEST PUSH1 0x1 PUSH1 0x1 PUSH1 0x40 SHL SUB DUP2 SWAP5 SWAP3 SWAP5 GT PUSH2 0x1A06 JUMPI PUSH1 0x40 MSTORE SWAP2 DUP2 PUSH2 0x1985 JUMP JUMPDEST PUSH4 0x4E487B71 PUSH1 0xE0 SHL DUP3 MSTORE PUSH1 0x41 PUSH1 0x4 MSTORE PUSH1 0x24 DUP3 REVERT JUMPDEST PUSH1 0x40 MLOAD RETURNDATASIZE DUP7 DUP3 RETURNDATACOPY RETURNDATASIZE SWAP1 REVERT JUMPDEST PUSH1 0x40 MLOAD PUSH3 0x461BCD PUSH1 0xE5 SHL DUP2 MSTORE PUSH1 0x4 DUP2 ADD DUP10 SWAP1 MSTORE PUSH1 0x2E PUSH1 0x24 DUP3 ADD MSTORE PUSH32 0x436F6E7472616374206973206E6F7420617070726F76656420746F207472616E PUSH1 0x44 DUP3 ADD MSTORE PUSH14 0x39B332B9103A3432903A37B5B2B7 PUSH1 0x91 SHL PUSH1 0x64 DUP3 ADD MSTORE PUSH1 0x84 SWAP1 REVERT JUMPDEST POP PUSH1 0x2 DUP2 ADD SLOAD PUSH1 0x40 MLOAD PUSH4 0xE985E9C5 PUSH1 0xE0 SHL DUP2 MSTORE SWAP1 DUP4 AND PUSH1 0x4 DUP3 ADD MSTORE ADDRESS PUSH1 0x24 DUP3 ADD MSTORE DUP9 DUP2 PUSH1 0x44 DUP2 DUP9 GAS STATICCALL SWAP1 DUP2 ISZERO PUSH2 0x1AF8 JUMPI DUP9 SWAP2 PUSH2 0x1ABE JUMPI JUMPDEST POP PUSH2 0x193F JUMP JUMPDEST SWAP1 POP DUP9 DUP2 DUP2 RETURNDATASIZE DUP4 GT PUSH2 0x1AF1 JUMPI JUMPDEST PUSH2 0x1AD5 DUP2 DUP4 PUSH2 0x1FD8 JUMP JUMPDEST DUP2 ADD SUB SLT PUSH2 0x1AED JUMPI MLOAD DUP1 ISZERO ISZERO DUP2 SUB PUSH2 0x1AED JUMPI CODESIZE PUSH2 0x1AB8 JUMP JUMPDEST DUP8 DUP1 REVERT JUMPDEST POP RETURNDATASIZE PUSH2 0x1ACB JUMP JUMPDEST PUSH1 0x40 MLOAD RETURNDATASIZE DUP11 DUP3 RETURNDATACOPY RETURNDATASIZE SWAP1 REVERT JUMPDEST PUSH2 0x1B1A SWAP2 POP DUP10 RETURNDATASIZE DUP12 GT PUSH2 0x17FF JUMPI PUSH2 0x17F1 DUP2 DUP4 PUSH2 0x1FD8 JUMP JUMPDEST CODESIZE PUSH2 0x1933 JUMP JUMPDEST PUSH1 0x40 MLOAD RETURNDATASIZE DUP8 DUP3 RETURNDATACOPY RETURNDATASIZE SWAP1 REVERT JUMPDEST POP PUSH2 0x8FC PUSH2 0x18E1 JUMP JUMPDEST POP PUSH2 0x8FC PUSH2 0x18CA JUMP JUMPDEST PUSH1 0x40 MLOAD PUSH3 0x461BCD PUSH1 0xE5 SHL DUP2 MSTORE PUSH1 0x4 DUP2 ADD DUP8 SWAP1 MSTORE PUSH1 0x1B PUSH1 0x24 DUP3 ADD MSTORE PUSH32 0x42696464657220686173206E6F7420706C616365642061206269640000000000 PUSH1 0x44 DUP3 ADD MSTORE PUSH1 0x64 SWAP1 REVERT JUMPDEST PUSH1 0x40 MLOAD PUSH3 0x461BCD PUSH1 0xE5 SHL DUP2 MSTORE PUSH1 0x4 DUP2 ADD DUP7 SWAP1 MSTORE PUSH1 0x16 PUSH1 0x24 DUP3 ADD MSTORE PUSH22 0x41756374696F6E206973206E6F74206F6E676F696E67 PUSH1 0x50 SHL PUSH1 0x44 DUP3 ADD MSTORE PUSH1 0x64 SWAP1 REVERT JUMPDEST POP CALLVALUE PUSH2 0x17E JUMPI PUSH1 0x20 CALLDATASIZE PUSH1 0x3 NOT ADD SLT PUSH2 0x17E JUMPI PUSH1 0x20 SWAP1 PUSH1 0x1 PUSH1 0x1 PUSH1 0xA0 SHL SUB SWAP1 PUSH1 0xC SWAP1 PUSH1 0x40 SWAP1 DUP4 PUSH2 0x1BED PUSH2 0x1F72 JUMP JUMPDEST AND DUP2 MSTORE PUSH1 0x1 DUP6 MSTORE KECCAK256 ADD SLOAD AND PUSH1 0x40 MLOAD SWAP1 DUP2 MSTORE RETURN JUMPDEST POP CALLVALUE PUSH2 0x17E JUMPI PUSH1 0x20 SWAP1 DUP2 PUSH1 0x3 NOT CALLDATASIZE ADD SLT PUSH2 0x17E JUMPI PUSH1 0x1 PUSH1 0x1 PUSH1 0xA0 SHL SUB PUSH1 0x40 DUP2 PUSH2 0x1C27 PUSH2 0x1F72 JUMP JUMPDEST AND SWAP3 DUP4 DUP2 MSTORE PUSH1 0x1 DUP6 MSTORE PUSH2 0x1C43 DUP4 PUSH1 0x2 DUP5 DUP5 KECCAK256 ADD SLOAD AND CALLER EQ PUSH2 0x214B JUMP JUMPDEST DUP4 DUP2 MSTORE PUSH1 0x1 DUP6 MSTORE KECCAK256 SWAP1 CALLER DUP2 PUSH1 0x2 DUP5 ADD SLOAD AND SUB PUSH2 0x1D0E JUMPI PUSH2 0x1C6C PUSH1 0x9 DUP4 ADD SLOAD PUSH1 0x8 DUP5 ADD SLOAD SWAP1 PUSH2 0x21AA JUMP JUMPDEST TIMESTAMP LT PUSH2 0x1CC9 JUMPI SWAP2 PUSH1 0x80 SWAP2 PUSH32 0x4D31A5599CDB48031C1F03259ADBD513BE468C5735012719A1A9850869B558B1 SWAP4 TIMESTAMP PUSH1 0xA DUP4 ADD SSTORE PUSH1 0xC PUSH1 0xB DUP4 ADD SLOAD SWAP3 ADD SLOAD AND SWAP1 PUSH1 0x40 MLOAD SWAP3 DUP4 MSTORE DUP6 DUP4 ADD MSTORE PUSH1 0x40 DUP3 ADD MSTORE TIMESTAMP PUSH1 0x60 DUP3 ADD MSTORE LOG1 PUSH1 0x40 MLOAD PUSH1 0x1 DUP2 MSTORE RETURN JUMPDEST PUSH1 0x40 MLOAD PUSH3 0x461BCD PUSH1 0xE5 SHL DUP2 MSTORE PUSH1 0x4 DUP2 ADD DUP6 SWAP1 MSTORE PUSH1 0x1E PUSH1 0x24 DUP3 ADD MSTORE PUSH32 0x41756374696F6E206475726174696F6E20686173206E6F7420656E6465640000 PUSH1 0x44 DUP3 ADD MSTORE PUSH1 0x64 SWAP1 REVERT JUMPDEST PUSH1 0x40 MLOAD PUSH3 0x461BCD PUSH1 0xE5 SHL DUP2 MSTORE PUSH1 0x4 DUP2 ADD DUP6 SWAP1 MSTORE PUSH1 0x23 PUSH1 0x24 DUP3 ADD MSTORE PUSH32 0x4F6E6C79207468652073656C6C65722063616E20656E64207468652061756374 PUSH1 0x44 DUP3 ADD MSTORE PUSH3 0x34B7B7 PUSH1 0xE9 SHL PUSH1 0x64 DUP3 ADD MSTORE PUSH1 0x84 SWAP1 REVERT JUMPDEST POP CALLVALUE PUSH2 0x17E JUMPI PUSH1 0x20 CALLDATASIZE PUSH1 0x3 NOT ADD SLT PUSH2 0x17E JUMPI PUSH1 0x20 SWAP1 PUSH1 0xB SWAP1 PUSH1 0x40 SWAP1 PUSH1 0x1 PUSH1 0x1 PUSH1 0xA0 SHL SUB PUSH2 0x1D8A PUSH2 0x1F72 JUMP JUMPDEST AND DUP2 MSTORE PUSH1 0x1 DUP5 MSTORE KECCAK256 ADD SLOAD PUSH1 0x40 MLOAD SWAP1 DUP2 MSTORE RETURN JUMPDEST POP CALLVALUE PUSH2 0x17E JUMPI PUSH1 0x40 CALLDATASIZE PUSH1 0x3 NOT ADD SLT PUSH2 0x17E JUMPI PUSH1 0x80 SWAP1 PUSH1 0x40 PUSH2 0x1DBB PUSH2 0x1F72 JUMP JUMPDEST SWAP2 PUSH2 0x1DC4 PUSH2 0x1F88 JUMP JUMPDEST PUSH1 0x1 DUP1 PUSH1 0xA0 SHL SUB DUP1 SWAP5 AND DUP3 MSTORE PUSH1 0x2 PUSH1 0x20 MSTORE DUP4 DUP4 DUP4 KECCAK256 SWAP2 AND DUP3 MSTORE PUSH1 0x20 MSTORE KECCAK256 DUP2 DUP2 SLOAD AND SWAP2 PUSH1 0x1 DUP3 ADD SLOAD AND SWAP1 PUSH1 0x3 PUSH1 0x2 DUP3 ADD SLOAD SWAP2 ADD SLOAD SWAP2 PUSH1 0x40 MLOAD SWAP4 DUP5 MSTORE PUSH1 0x20 DUP5 ADD MSTORE PUSH1 0x40 DUP4 ADD MSTORE PUSH1 0x60 DUP3 ADD MSTORE RETURN JUMPDEST POP CALLVALUE PUSH2 0x17E JUMPI PUSH1 0x20 CALLDATASIZE PUSH1 0x3 NOT ADD SLT PUSH2 0x17E JUMPI PUSH1 0x1 PUSH1 0x1 PUSH1 0xA0 SHL SUB SWAP1 PUSH2 0x1EBB SWAP1 PUSH1 0x40 SWAP1 DUP4 PUSH2 0x1E3A PUSH2 0x1F72 JUMP JUMPDEST AND DUP2 MSTORE PUSH1 0x1 PUSH1 0x20 MSTORE KECCAK256 SWAP2 PUSH2 0x1E4D DUP4 PUSH2 0x1FF9 JUMP JUMPDEST PUSH2 0x1E59 PUSH1 0x1 DUP6 ADD PUSH2 0x1FF9 JUMP JUMPDEST SWAP4 DUP3 PUSH1 0x2 DUP3 ADD SLOAD AND SWAP3 DUP1 PUSH1 0x3 DUP4 ADD SLOAD AND PUSH1 0x4 DUP4 ADD SLOAD PUSH1 0x5 DUP5 ADD SLOAD PUSH1 0x6 DUP6 ADD SLOAD PUSH4 0xFFFFFFFF PUSH1 0x7 DUP8 ADD SLOAD AND SWAP2 PUSH1 0x8 DUP8 ADD SLOAD SWAP4 PUSH1 0x9 DUP9 ADD SLOAD SWAP6 PUSH2 0x1EC9 PUSH1 0xA DUP11 ADD SLOAD SWAP9 PUSH1 0xC PUSH1 0xB DUP13 ADD SLOAD SWAP12 ADD SLOAD AND SWAP11 PUSH1 0x40 MLOAD SWAP15 DUP16 SWAP15 DUP16 SWAP3 PUSH2 0x1A0 DUP1 DUP6 MSTORE DUP5 ADD SWAP1 PUSH2 0x209E JUMP JUMPDEST SWAP2 PUSH1 0x20 DUP2 DUP5 SUB SWAP2 ADD MSTORE PUSH2 0x209E JUMP JUMPDEST SWAP11 PUSH1 0x40 DUP14 ADD MSTORE PUSH1 0x60 DUP13 ADD MSTORE PUSH1 0x80 DUP12 ADD MSTORE PUSH1 0xA0 DUP11 ADD MSTORE PUSH1 0xC0 DUP10 ADD MSTORE PUSH1 0xE0 DUP9 ADD MSTORE PUSH2 0x100 DUP8 ADD MSTORE PUSH2 0x120 DUP7 ADD MSTORE PUSH2 0x140 DUP6 ADD MSTORE PUSH2 0x160 DUP5 ADD MSTORE PUSH2 0x180 DUP4 ADD MSTORE SUB SWAP1 RETURN JUMPDEST SWAP1 POP CALLVALUE PUSH2 0x182C JUMPI PUSH1 0x80 CALLDATASIZE PUSH1 0x3 NOT ADD SLT PUSH2 0x182C JUMPI PUSH2 0x1F25 PUSH2 0x1F72 JUMP JUMPDEST POP PUSH2 0x1F2E PUSH2 0x1F88 JUMP JUMPDEST POP PUSH1 0x64 CALLDATALOAD PUSH1 0x1 PUSH1 0x1 PUSH1 0x40 SHL SUB DUP1 DUP3 GT PUSH2 0x1858 JUMPI CALLDATASIZE PUSH1 0x23 DUP4 ADD SLT ISZERO PUSH2 0x1858 JUMPI DUP2 PUSH1 0x4 ADD CALLDATALOAD SWAP1 DUP2 GT PUSH2 0x1858 JUMPI CALLDATASIZE SWAP2 ADD PUSH1 0x24 ADD GT PUSH2 0x182C JUMPI PUSH4 0xA85BD01 PUSH1 0xE1 SHL DUP2 MSTORE PUSH1 0x20 SWAP1 RETURN JUMPDEST PUSH1 0x4 CALLDATALOAD SWAP1 PUSH1 0x1 PUSH1 0x1 PUSH1 0xA0 SHL SUB DUP3 AND DUP3 SUB PUSH2 0x523 JUMPI JUMP JUMPDEST PUSH1 0x24 CALLDATALOAD SWAP1 PUSH1 0x1 PUSH1 0x1 PUSH1 0xA0 SHL SUB DUP3 AND DUP3 SUB PUSH2 0x523 JUMPI JUMP JUMPDEST SWAP1 PUSH1 0x1 DUP3 DUP2 SHR SWAP3 AND DUP1 ISZERO PUSH2 0x1FCE JUMPI JUMPDEST PUSH1 0x20 DUP4 LT EQ PUSH2 0x1FB8 JUMPI JUMP JUMPDEST PUSH4 0x4E487B71 PUSH1 0xE0 SHL PUSH1 0x0 MSTORE PUSH1 0x22 PUSH1 0x4 MSTORE PUSH1 0x24 PUSH1 0x0 REVERT JUMPDEST SWAP2 PUSH1 0x7F AND SWAP2 PUSH2 0x1FAD JUMP JUMPDEST SWAP1 PUSH1 0x1F DUP1 NOT SWAP2 ADD AND DUP2 ADD SWAP1 DUP2 LT PUSH1 0x1 PUSH1 0x1 PUSH1 0x40 SHL SUB DUP3 GT OR PUSH2 0x1719 JUMPI PUSH1 0x40 MSTORE JUMP JUMPDEST SWAP1 PUSH1 0x40 MLOAD SWAP2 DUP3 PUSH1 0x0 DUP3 SLOAD PUSH2 0x200C DUP2 PUSH2 0x1F9E JUMP JUMPDEST SWAP1 DUP2 DUP5 MSTORE PUSH1 0x20 SWAP5 PUSH1 0x1 SWAP2 PUSH1 0x1 DUP2 AND SWAP1 DUP2 PUSH1 0x0 EQ PUSH2 0x207C JUMPI POP PUSH1 0x1 EQ PUSH2 0x203D JUMPI JUMPDEST POP POP POP PUSH2 0x203B SWAP3 POP SUB DUP4 PUSH2 0x1FD8 JUMP JUMPDEST JUMP JUMPDEST PUSH1 0x0 SWAP1 DUP2 MSTORE DUP6 DUP2 KECCAK256 SWAP6 SWAP4 POP SWAP2 SWAP1 JUMPDEST DUP2 DUP4 LT PUSH2 0x2064 JUMPI POP POP PUSH2 0x203B SWAP4 POP DUP3 ADD ADD CODESIZE DUP1 DUP1 PUSH2 0x202C JUMP JUMPDEST DUP6 SLOAD DUP9 DUP5 ADD DUP6 ADD MSTORE SWAP5 DUP6 ADD SWAP5 DUP8 SWAP5 POP SWAP2 DUP4 ADD SWAP2 PUSH2 0x204B JUMP JUMPDEST SWAP3 POP POP POP PUSH2 0x203B SWAP5 SWAP3 POP PUSH1 0xFF NOT AND DUP3 DUP5 ADD MSTORE ISZERO ISZERO PUSH1 0x5 SHL DUP3 ADD ADD CODESIZE DUP1 DUP1 PUSH2 0x202C JUMP JUMPDEST SWAP2 SWAP1 DUP3 MLOAD SWAP3 DUP4 DUP3 MSTORE PUSH1 0x0 JUMPDEST DUP5 DUP2 LT PUSH2 0x20CA JUMPI POP POP DUP3 PUSH1 0x0 PUSH1 0x20 DUP1 SWAP5 SWAP6 DUP5 ADD ADD MSTORE PUSH1 0x1F DUP1 NOT SWAP2 ADD AND ADD ADD SWAP1 JUMP JUMPDEST PUSH1 0x20 DUP2 DUP4 ADD DUP2 ADD MLOAD DUP5 DUP4 ADD DUP3 ADD MSTORE ADD PUSH2 0x20A9 JUMP JUMPDEST DUP2 PUSH1 0x1F DUP3 ADD SLT ISZERO PUSH2 0x523 JUMPI DUP1 CALLDATALOAD SWAP1 PUSH1 0x1 PUSH1 0x1 PUSH1 0x40 SHL SUB DUP3 GT PUSH2 0x1719 JUMPI PUSH1 0x40 MLOAD SWAP3 PUSH2 0x2112 PUSH1 0x1F DUP5 ADD PUSH1 0x1F NOT AND PUSH1 0x20 ADD DUP6 PUSH2 0x1FD8 JUMP JUMPDEST DUP3 DUP5 MSTORE PUSH1 0x20 DUP4 DUP4 ADD ADD GT PUSH2 0x523 JUMPI DUP2 PUSH1 0x0 SWAP3 PUSH1 0x20 DUP1 SWAP4 ADD DUP4 DUP7 ADD CALLDATACOPY DUP4 ADD ADD MSTORE SWAP1 JUMP JUMPDEST PUSH1 0x1 PUSH1 0x1 PUSH1 0x40 SHL SUB DUP2 GT PUSH2 0x1719 JUMPI PUSH1 0x5 SHL PUSH1 0x20 ADD SWAP1 JUMP JUMPDEST ISZERO PUSH2 0x2152 JUMPI JUMP JUMPDEST PUSH1 0x40 MLOAD PUSH3 0x461BCD PUSH1 0xE5 SHL DUP2 MSTORE PUSH1 0x20 PUSH1 0x4 DUP3 ADD MSTORE PUSH1 0x2A PUSH1 0x24 DUP3 ADD MSTORE PUSH32 0x4F6E6C792061756374696F6E206F776E65722063616E20706572666F726D2074 PUSH1 0x44 DUP3 ADD MSTORE PUSH10 0x3434B99030B1BA34B7B7 PUSH1 0xB1 SHL PUSH1 0x64 DUP3 ADD MSTORE PUSH1 0x84 SWAP1 REVERT JUMPDEST SWAP2 SWAP1 DUP3 ADD DUP1 SWAP3 GT PUSH2 0x21B7 JUMPI JUMP JUMPDEST PUSH4 0x4E487B71 PUSH1 0xE0 SHL PUSH1 0x0 MSTORE PUSH1 0x11 PUSH1 0x4 MSTORE PUSH1 0x24 PUSH1 0x0 REVERT JUMPDEST SWAP1 DUP2 PUSH1 0x20 SWAP2 SUB SLT PUSH2 0x523 JUMPI MLOAD PUSH1 0x1 PUSH1 0x1 PUSH1 0xA0 SHL SUB DUP2 AND DUP2 SUB PUSH2 0x523 JUMPI SWAP1 JUMP JUMPDEST DUP1 MLOAD DUP3 LT ISZERO PUSH2 0x2200 JUMPI PUSH1 0x20 SWAP2 PUSH1 0x5 SHL ADD ADD SWAP1 JUMP JUMPDEST PUSH4 0x4E487B71 PUSH1 0xE0 SHL PUSH1 0x0 MSTORE PUSH1 0x32 PUSH1 0x4 MSTORE PUSH1 0x24 PUSH1 0x0 REVERT JUMPDEST ISZERO PUSH2 0x221D JUMPI JUMP JUMPDEST PUSH1 0x40 MLOAD PUSH3 0x461BCD PUSH1 0xE5 SHL DUP2 MSTORE PUSH1 0x20 PUSH1 0x4 DUP3 ADD MSTORE PUSH1 0x24 DUP1 DUP3 ADD MSTORE PUSH32 0x50657263656E74616765206D757374206265206265747765656E203120616E64 PUSH1 0x44 DUP3 ADD MSTORE PUSH4 0x2031303 PUSH1 0xE4 SHL PUSH1 0x64 DUP3 ADD MSTORE PUSH1 0x84 SWAP1 REVERT JUMPDEST DUP2 DUP2 LT PUSH2 0x2279 JUMPI POP POP JUMP JUMPDEST PUSH1 0x0 DUP2 SSTORE PUSH1 0x1 ADD PUSH2 0x226E JUMP JUMPDEST DUP1 SLOAD DUP3 LT ISZERO PUSH2 0x2200 JUMPI PUSH1 0x0 MSTORE PUSH1 0x20 PUSH1 0x0 KECCAK256 ADD SWAP1 PUSH1 0x0 SWAP1 JUMP JUMPDEST SWAP2 SWAP1 SWAP2 DUP1 SLOAD DUP4 LT ISZERO PUSH2 0x2200 JUMPI PUSH1 0x0 MSTORE PUSH1 0x1E PUSH1 0x20 PUSH1 0x0 KECCAK256 DUP4 PUSH1 0x4 SHR ADD SWAP3 PUSH1 0x1 SHL AND SWAP1 JUMP JUMPDEST ISZERO PUSH2 0x22C7 JUMPI JUMP JUMPDEST PUSH1 0x40 MLOAD PUSH3 0x461BCD PUSH1 0xE5 SHL DUP2 MSTORE PUSH1 0x20 PUSH1 0x4 DUP3 ADD MSTORE PUSH1 0x19 PUSH1 0x24 DUP3 ADD MSTORE PUSH32 0x546865207265636569766572206973206E6F7420616464656400000000000000 PUSH1 0x44 DUP3 ADD MSTORE PUSH1 0x64 SWAP1 REVERT JUMPDEST ISZERO PUSH2 0x2313 JUMPI JUMP JUMPDEST PUSH1 0x40 MLOAD PUSH3 0x461BCD PUSH1 0xE5 SHL DUP2 MSTORE PUSH1 0x20 PUSH1 0x4 DUP3 ADD MSTORE PUSH1 0x28 PUSH1 0x24 DUP3 ADD MSTORE PUSH32 0x5468652072656365697665722063616E6E6F7420626520746865206175637469 PUSH1 0x44 DUP3 ADD MSTORE PUSH8 0x37B71037BBB732B9 PUSH1 0xC1 SHL PUSH1 0x64 DUP3 ADD MSTORE PUSH1 0x84 SWAP1 REVERT JUMPDEST SWAP2 SWAP1 SWAP2 PUSH2 0xFFFF DUP1 DUP1 SWAP5 AND SWAP2 AND ADD SWAP2 DUP3 GT PUSH2 0x21B7 JUMPI JUMP JUMPDEST PUSH1 0x0 SLOAD PUSH1 0x1 PUSH1 0x1 PUSH1 0xA0 SHL SUB AND CALLER SUB PUSH2 0x2393 JUMPI JUMP JUMPDEST PUSH1 0x40 MLOAD PUSH4 0x118CDAA7 PUSH1 0xE0 SHL DUP2 MSTORE CALLER PUSH1 0x4 DUP3 ADD MSTORE PUSH1 0x24 SWAP1 REVERT INVALID LOG2 PUSH5 0x6970667358 0x22 SLT KECCAK256 MSIZE SWAP8 0xAF 0xFB SWAP8 PUSH24 0x5F755884ADFC4379383298AAF14085842EFFA21804D6BAC8 PUSH23 0xFA64736F6C634300081800330000000000000000000000 "},"methodIdentifiers":{"addReceiver(address,address,uint16)":"e4a74366","auctions(address)":"1d59410a","bids(address,address)":"1f036524","cancelAuction(address)":"d22cf3a4","createAuction(string,string,address,uint256,uint256,uint256,uint32,uint256,address[],uint16[])":"57b42c44","donate()":"ed88c68e","donation()":"8edeb15d","donors(address)":"ca0cdea8","endAuction(address)":"2872abbc","getHighestBid(address)":"23a75049","getHighestBidder(address)":"3ae01466","onERC721Received(address,address,uint256,bytes)":"150b7a02","owner()":"8da5cb5b","placeBid(address,uint256)":"d98b9bb5","removeReceiver(address,address)":"88c40d94","renounceOwnership()":"715018a6","transferMoney(address,address,uint256)":"6410381c","transferOwnership(address)":"f2fde38b","withdrawBid(address)":"4ede3648"}}}}}