{"contracts/auction/NFTAuctionManager.sol":{"NFTAuctionManager":{"abi":[{"inputs":[{"internalType":"address","name":"owner","type":"address"}],"name":"OwnableInvalidOwner","type":"error"},{"inputs":[{"internalType":"address","name":"account","type":"address"}],"name":"OwnableUnauthorizedAccount","type":"error"},{"anonymous":false,"inputs":[{"indexed":false,"internalType":"address","name":"auctionId","type":"address"},{"indexed":false,"internalType":"uint256","name":"endedAt","type":"uint256"}],"name":"AuctionCancelled","type":"event"},{"anonymous":false,"inputs":[{"indexed":false,"internalType":"address","name":"auctionId","type":"address"},{"indexed":false,"internalType":"address","name":"seller","type":"address"},{"indexed":false,"internalType":"address","name":"tokenAddress","type":"address"},{"indexed":false,"internalType":"uint256","name":"tokenId","type":"uint256"}],"name":"AuctionCreated","type":"event"},{"anonymous":false,"inputs":[{"indexed":false,"internalType":"address","name":"auctionId","type":"address"},{"indexed":false,"internalType":"uint256","name":"highestBid","type":"uint256"},{"indexed":false,"internalType":"address","name":"highestBidder","type":"address"},{"indexed":false,"internalType":"uint256","name":"endedAt","type":"uint256"}],"name":"AuctionEnded","type":"event"},{"anonymous":false,"inputs":[{"indexed":true,"internalType":"address","name":"bidder","type":"address"},{"indexed":true,"internalType":"address","name":"auctionId","type":"address"},{"indexed":false,"internalType":"uint256","name":"amount","type":"uint256"},{"indexed":false,"internalType":"uint256","name":"timestamp","type":"uint256"}],"name":"BidPlaced","type":"event"},{"anonymous":false,"inputs":[{"indexed":true,"internalType":"address","name":"bidder","type":"address"},{"indexed":true,"internalType":"address","name":"auctionId","type":"address"},{"indexed":false,"internalType":"uint256","name":"amount","type":"uint256"},{"indexed":false,"internalType":"uint256","name":"timestamp","type":"uint256"}],"name":"BidWithdrawn","type":"event"},{"anonymous":false,"inputs":[{"indexed":true,"internalType":"address","name":"donor","type":"address"},{"indexed":false,"internalType":"uint256","name":"amount","type":"uint256"},{"indexed":false,"internalType":"uint256","name":"timestamp","type":"uint256"}],"name":"Donation","type":"event"},{"anonymous":false,"inputs":[{"indexed":true,"internalType":"address","name":"auctionId","type":"address"},{"indexed":true,"internalType":"address","name":"receiver","type":"address"},{"indexed":false,"internalType":"uint256","name":"amount","type":"uint256"},{"indexed":false,"internalType":"uint256","name":"timestamp","type":"uint256"}],"name":"MoneyTransfered","type":"event"},{"anonymous":false,"inputs":[{"indexed":true,"internalType":"address","name":"previousOwner","type":"address"},{"indexed":true,"internalType":"address","name":"newOwner","type":"address"}],"name":"OwnershipTransferred","type":"event"},{"anonymous":false,"inputs":[{"indexed":true,"internalType":"address","name":"auctionId","type":"address"},{"indexed":true,"internalType":"address","name":"receiver","type":"address"},{"indexed":false,"internalType":"uint16","name":"percentage","type":"uint16"},{"indexed":false,"internalType":"uint256","name":"timestamp","type":"uint256"}],"name":"ReceiverAdded","type":"event"},{"anonymous":false,"inputs":[{"indexed":true,"internalType":"address","name":"auctionId","type":"address"},{"indexed":true,"internalType":"address","name":"receiver","type":"address"},{"indexed":false,"internalType":"uint256","name":"timestamp","type":"uint256"}],"name":"ReceiverRemoved","type":"event"},{"stateMutability":"payable","type":"fallback"},{"inputs":[{"internalType":"address","name":"_auctionId","type":"address"},{"internalType":"address","name":"_receiver","type":"address"},{"internalType":"uint16","name":"_percentage","type":"uint16"}],"name":"addReceiver","outputs":[],"stateMutability":"nonpayable","type":"function"},{"inputs":[{"internalType":"uint256","name":"","type":"uint256"}],"name":"auctionIds","outputs":[{"internalType":"address","name":"","type":"address"}],"stateMutability":"view","type":"function"},{"inputs":[{"internalType":"address","name":"","type":"address"}],"name":"auctions","outputs":[{"internalType":"address","name":"id","type":"address"},{"internalType":"address","name":"topicId","type":"address"},{"internalType":"string","name":"name","type":"string"},{"internalType":"string","name":"description","type":"string"},{"internalType":"address","name":"seller","type":"address"},{"internalType":"address","name":"tokenAddress","type":"address"},{"internalType":"uint256","name":"tokenId","type":"uint256"},{"internalType":"uint256","name":"startingPrice","type":"uint256"},{"internalType":"uint256","name":"minBidIncrement","type":"uint256"},{"internalType":"uint256","name":"endingPrice","type":"uint256"},{"internalType":"uint256","name":"startedAt","type":"uint256"},{"internalType":"uint256","name":"endingAt","type":"uint256"},{"internalType":"uint256","name":"endedAt","type":"uint256"},{"internalType":"uint256","name":"highestBid","type":"uint256"},{"internalType":"address","name":"highestBidder","type":"address"},{"internalType":"uint256","name":"donation","type":"uint256"}],"stateMutability":"view","type":"function"},{"inputs":[{"internalType":"address","name":"","type":"address"},{"internalType":"address","name":"","type":"address"}],"name":"bids","outputs":[{"internalType":"address","name":"bidder","type":"address"},{"internalType":"address","name":"auctionId","type":"address"},{"internalType":"uint256","name":"amount","type":"uint256"},{"internalType":"uint256","name":"timestamp","type":"uint256"}],"stateMutability":"view","type":"function"},{"inputs":[{"internalType":"address","name":"_auctionId","type":"address"}],"name":"cancelAuction","outputs":[{"internalType":"bool","name":"","type":"bool"}],"stateMutability":"nonpayable","type":"function"},{"inputs":[{"internalType":"string","name":"_name","type":"string"},{"internalType":"string","name":"_description","type":"string"},{"internalType":"address","name":"_tokenAddress","type":"address"},{"internalType":"uint256","name":"_tokenId","type":"uint256"},{"internalType":"address","name":"_topicId","type":"address"},{"internalType":"uint256","name":"_startingPrice","type":"uint256"},{"internalType":"uint256","name":"_minBidIncrement","type":"uint256"},{"internalType":"uint256","name":"_endingPrice","type":"uint256"},{"internalType":"uint256","name":"_endingAt","type":"uint256"},{"internalType":"address[]","name":"_receivers","type":"address[]"},{"internalType":"uint16[]","name":"_percentages","type":"uint16[]"}],"name":"createAuction","outputs":[{"internalType":"address","name":"","type":"address"}],"stateMutability":"nonpayable","type":"function"},{"inputs":[{"internalType":"address","name":"_auctionId","type":"address"}],"name":"donate","outputs":[],"stateMutability":"payable","type":"function"},{"inputs":[{"internalType":"address","name":"","type":"address"},{"internalType":"address","name":"","type":"address"}],"name":"donors","outputs":[{"internalType":"uint256","name":"","type":"uint256"}],"stateMutability":"view","type":"function"},{"inputs":[{"internalType":"address","name":"_auctionId","type":"address"}],"name":"endAuction","outputs":[{"internalType":"bool","name":"","type":"bool"}],"stateMutability":"nonpayable","type":"function"},{"inputs":[{"internalType":"address","name":"_auctionId","type":"address"}],"name":"getAuction","outputs":[{"components":[{"internalType":"address","name":"id","type":"address"},{"internalType":"address","name":"topicId","type":"address"},{"internalType":"string","name":"name","type":"string"},{"internalType":"string","name":"description","type":"string"},{"internalType":"address","name":"seller","type":"address"},{"internalType":"address","name":"tokenAddress","type":"address"},{"internalType":"uint256","name":"tokenId","type":"uint256"},{"internalType":"uint256","name":"startingPrice","type":"uint256"},{"internalType":"uint256","name":"minBidIncrement","type":"uint256"},{"internalType":"uint256","name":"endingPrice","type":"uint256"},{"internalType":"uint256","name":"startedAt","type":"uint256"},{"internalType":"uint256","name":"endingAt","type":"uint256"},{"internalType":"uint256","name":"endedAt","type":"uint256"},{"internalType":"uint256","name":"highestBid","type":"uint256"},{"internalType":"address","name":"highestBidder","type":"address"},{"internalType":"uint256","name":"donation","type":"uint256"},{"internalType":"address[]","name":"receivers","type":"address[]"},{"internalType":"uint16[]","name":"percentages","type":"uint16[]"}],"internalType":"struct IAuction.Auction","name":"","type":"tuple"}],"stateMutability":"view","type":"function"},{"inputs":[],"name":"getAuctions","outputs":[{"components":[{"internalType":"address","name":"id","type":"address"},{"internalType":"address","name":"topicId","type":"address"},{"internalType":"string","name":"name","type":"string"},{"internalType":"string","name":"description","type":"string"},{"internalType":"address","name":"seller","type":"address"},{"internalType":"address","name":"tokenAddress","type":"address"},{"internalType":"uint256","name":"tokenId","type":"uint256"},{"internalType":"uint256","name":"startingPrice","type":"uint256"},{"internalType":"uint256","name":"minBidIncrement","type":"uint256"},{"internalType":"uint256","name":"endingPrice","type":"uint256"},{"internalType":"uint256","name":"startedAt","type":"uint256"},{"internalType":"uint256","name":"endingAt","type":"uint256"},{"internalType":"uint256","name":"endedAt","type":"uint256"},{"internalType":"uint256","name":"highestBid","type":"uint256"},{"internalType":"address","name":"highestBidder","type":"address"},{"internalType":"uint256","name":"donation","type":"uint256"},{"internalType":"address[]","name":"receivers","type":"address[]"},{"internalType":"uint16[]","name":"percentages","type":"uint16[]"}],"internalType":"struct IAuction.Auction[]","name":"","type":"tuple[]"}],"stateMutability":"view","type":"function"},{"inputs":[{"internalType":"address","name":"_auctionId","type":"address"}],"name":"getDonors","outputs":[{"internalType":"address[]","name":"","type":"address[]"}],"stateMutability":"view","type":"function"},{"inputs":[{"internalType":"address","name":"_auctionId","type":"address"}],"name":"getHighestBid","outputs":[{"internalType":"uint256","name":"","type":"uint256"}],"stateMutability":"view","type":"function"},{"inputs":[{"internalType":"address","name":"_auctionId","type":"address"}],"name":"getHighestBidder","outputs":[{"internalType":"address","name":"","type":"address"}],"stateMutability":"view","type":"function"},{"inputs":[{"internalType":"address","name":"_auctionId","type":"address"}],"name":"getPercentages","outputs":[{"internalType":"uint16[]","name":"","type":"uint16[]"}],"stateMutability":"view","type":"function"},{"inputs":[{"internalType":"address","name":"_auctionId","type":"address"}],"name":"getReceivers","outputs":[{"internalType":"address[]","name":"","type":"address[]"}],"stateMutability":"view","type":"function"},{"inputs":[{"internalType":"address","name":"operator","type":"address"},{"internalType":"address","name":"from","type":"address"},{"internalType":"uint256","name":"tokenId","type":"uint256"},{"internalType":"bytes","name":"data","type":"bytes"}],"name":"onERC721Received","outputs":[{"internalType":"bytes4","name":"","type":"bytes4"}],"stateMutability":"pure","type":"function"},{"inputs":[],"name":"owner","outputs":[{"internalType":"address","name":"","type":"address"}],"stateMutability":"view","type":"function"},{"inputs":[{"internalType":"address","name":"_auctionId","type":"address"}],"name":"placeBid","outputs":[{"internalType":"bool","name":"","type":"bool"}],"stateMutability":"payable","type":"function"},{"inputs":[{"internalType":"address","name":"_auctionId","type":"address"},{"internalType":"address","name":"_receiver","type":"address"}],"name":"removeReceiver","outputs":[],"stateMutability":"nonpayable","type":"function"},{"inputs":[],"name":"renounceOwnership","outputs":[],"stateMutability":"nonpayable","type":"function"},{"inputs":[{"internalType":"address","name":"_auctionId","type":"address"},{"internalType":"address","name":"_receiver","type":"address"},{"internalType":"uint256","name":"_amount","type":"uint256"}],"name":"transferMoney","outputs":[],"stateMutability":"nonpayable","type":"function"},{"inputs":[{"internalType":"address","name":"newOwner","type":"address"}],"name":"transferOwnership","outputs":[],"stateMutability":"nonpayable","type":"function"},{"inputs":[{"internalType":"address","name":"_auctionId","type":"address"}],"name":"withdrawBid","outputs":[{"internalType":"bool","name":"","type":"bool"}],"stateMutability":"payable","type":"function"},{"stateMutability":"payable","type":"receive"}],"evm":{"bytecode":{"linkReferences":{},"object":"6080806040523461007a5733156100645760008054336001600160a01b03198216811783556040519290916001600160a01b0316907f8be0079c531659141344cd1fd0a4f28419497f9722a3daafe3b4186f6b6457e09080a361345b90816100808239f35b631e4fbdf760e01b815260006004820152602490fd5b600080fdfe60a06040526004361015610018575b361561001657005b005b60e060003560e01c908162362a951461286a57816306c64726146118b9578163150b7a02146118505781631d59410a146117075781631f0365241461169157816323a75049146116545781632872abbc146112b35781632a6433be146112715781633ae01466146112335781634ede3648146111145781636410381c14610f76578163694b232314610f0d578163715018a614610eb457816379deae7b14610d875781638146bcea14610d3657816388c40d9414610abd5781638da5cb5b14610a945781638f3ac94614610a43578163d22cf3a414610953578163d496d2cb146108fe578163d7c069191461070657508063e49401571461048b578063e4a74366146101b65763f2fde38b0361000e57346101b15760203660031901126101b15761014161290c565b6101496133f9565b6001600160a01b0390811690811561019857600054826001600160601b0360a01b821617600055167f8be0079c531659141344cd1fd0a4f28419497f9722a3daafe3b4186f6b6457e0600080a3005b604051631e4fbdf760e01b815260006004820152602490fd5b600080fd5b346101b15760603660031901126101b1576101cf61290c565b6101d7612922565b6044916044359261ffff91828516908186036101b15760018060a01b03809116948560005260019460209760016020526040600020968460048901541699338b03610434579461022c8186169b8c14156132fa565b60009560108a01988954975b8d8b8a83106103d157505050505050851515806103c6575b61025c90989198612d9e565b6000906011600091019889545b8a81841061039b57505050506064929161028291613357565b161161034757600160401b938483101561033157826102a99160016102c795018155612b69565b90919060018060a01b038084549260031b9316831b921b1916179055565b8254918210156103315780610321610308847f3c2b0a7047f708ff533690d2cf89d62667a369de80d02a358419185b1f053bb1966001604097018155612e7f565b819391549060031b9161ffff809116831b921b19161790565b90558151908152426020820152a3005b634e487b7160e01b600052604160045260246000fd5b60405162461bcd60e51b815260206004820152602660248201527f53756d206f662070657263656e746167657320697320677265617465722074686044820152650616e203130360d41b6064820152608490fd5b8394876103af85966103bd94969596612e7f565b90549060031b1c1690613357565b93019190610269565b506064861115610250565b6103dc838792612b69565b90549060031b1c16146103f0578401610238565b60405162461bcd60e51b815260048101849052601d60248201527f54686520726563656976657220697320616c726561647920616464656400000081840152606490fd5b60405162461bcd60e51b815260206004820152602960248201527f4f6e6c79207468652061756374696f6e206f776e65722063616e206164642061604482015268103932b1b2b4bb32b960b91b6064820152608490fd5b6020806003193601126101b1576001600160a01b03806104a961290c565b169081600052600183526104cf6040600020600a810154151590816106f8575b50612ea2565b816000526001835260406000206104e7341515612cf9565b600d810180548034111561069c576007830154341061063d57600883015461050e91612d51565b34106105db57349055600e0180546001600160a01b031990811633179091556040519160808301916001600160401b0383118484101761033157600392604052338452858401858152604085019134835260608601934285528760005285895260406000203360005289528060406000209751168288541617875560018701925116908254161790555160028401555191015560405134815242838201527fdd49bbb40d47a514dddcd458e9718364143bc24a0cca58439ee6f4f45e4ce10d60403392a360405160018152f35b60405162461bcd60e51b815260048101869052603460248201527f42696420616d6f756e74206973206e6f742067726561746572207468616e20746044820152731a19481b5a5b88189a59081a5b98dc995b595b9d60621b6064820152608490fd5b60405162461bcd60e51b815260048101879052603160248201527f42696420616d6f756e74206973206e6f742067726561746572207468616e20746044820152706865207374617274696e6720707269636560781b6064820152608490fd5b60405162461bcd60e51b815260048101879052602e60248201527f42696420616d6f756e74206973206e6f742067726561746572207468616e207460448201526d1a19481a1a59da195cdd08189a5960921b6064820152608490fd5b600b915001544210856104c9565b346101b15760003660031901126101b15760028054610724816129e6565b91610732604051938461296f565b81835261073e826129e6565b60209490601f19018560005b8281106108e85750505060005b8381106107bc57604080518781528651818901819052600092600582901b8301810191898b01918b9085015b8287106107905785850386f35b9091929382806107ac600193603f198a82030186528851612bf6565b9601920196019592919092610783565b8060116108c66107cd600194612b1c565b858060a09593951b03809454600392831b1c166000528593848c526108256040600020928d83604051986108008a612938565b818754168a5286015416908801526108198b8501612a37565b60408801528301612a37565b60608601528060048301541660808601528060058301541660a0860152600682015460c086015260078201548886015260088201546101008601526009820154610120860152600a820154610140860152600b820154610160860152600c820154610180860152600d8201546101a0860152600e820154166101c0850152600f8101546101e08501526108ba60108201612fb6565b61020085015201613010565b6102208201526108d68288612d8a565b526108e18187612d8a565b5001610757565b6108f0612f33565b82828901015201869061074a565b346101b15760203660031901126101b1576001600160a01b0361091f61290c565b16600052600160205261094f61093b6011604060002001613010565b604051918291602083526020830190612bbe565b0390f35b346101b1576020806003193601126101b1576001600160a01b038061097661290c565b1690816000526001835261099581600460406000200154163314612e20565b81600052600183526040600020903390600483015416036109ef577f018b64b6242d32aa550e95d78985b938d71af5b3f10827b0683f55da1639304891604091600c4291015581519081524284820152a160405160018152f35b60405162461bcd60e51b815260048101849052602660248201527f4f6e6c79207468652073656c6c65722063616e2063616e63656c2074686520616044820152653ab1ba34b7b760d11b6064820152608490fd5b346101b15760403660031901126101b157610a5c61290c565b610a64612922565b9060018060a01b038091166000526004602052604060002091166000526020526020604060002054604051908152f35b346101b15760003660031901126101b1576000546040516001600160a01b039091168152602090f35b346101b15760403660031901126101b157610ad661290c565b610ade612922565b60018060a01b03809216806000526001806020526040600020938060048601541693338503610cdc5790610b198187949316958614156132fa565b60009260009360108201948554905b818110610ca2575b5050610b3b90612ee7565b6000835b610b72575b86867f881201a365cfa7a30d2763840b70e4bb9c3b6417202491504fb1237b08a8c10f6020604051428152a3005b845480821015610c9c57839088610b898489612b69565b939054600394851b1c1614610ba2575050830183610b3f565b93919294509460001993848101908111610c865782610bc4610bd59284612b69565b905490891b1c166102a98584612b69565b80548015610c5c57840191610bea8383612b69565b9091825491891b1b1916905555601180930192835490838201918211610c72575090610c30610c1d610308949386612e7f565b905461ffff9591881b1c85169286612e7f565b905582548015610c5c570192610c468484612e7f565b81939154921b1b19169055558280808080610b44565b634e487b7160e01b600052603160045260246000fd5b634e487b7160e01b60005260045260246000fd5b634e487b7160e01b600052601160045260246000fd5b50610b44565b8885610cb2838a969c9b9a612b69565b90549060031b1c1614610ccb5785019791959697610b28565b5095965093945082610b3b81610b30565b60405162461bcd60e51b815260206004820152602c60248201527f4f6e6c79207468652061756374696f6e206f776e65722063616e2072656d6f7660448201526b329030903932b1b2b4bb32b960a11b6064820152608490fd5b346101b15760203660031901126101b1576001600160a01b03610d5761290c565b16600052600160205261094f610d736010604060002001612fb6565b604051918291602083526020830190612b81565b346101b15760203660031901126101b15761094f610da361290c565b610dab612f33565b5060018060a01b038091166000526001602052610e9a6011604060002060405193610dd585612938565b808254168552806001830154166020860152610df360028301612a37565b6040860152610e0460038301612a37565b60608601528060048301541660808601528060058301541660a0860152600682015460c0860152600782015460e086015260088201546101008601526009820154610120860152600a820154610140860152600b820154610160860152600c820154610180860152600d8201546101a0860152600e820154166101c0850152600f8101546101e08501526108ba60108201612fb6565b610220820152604051918291602083526020830190612bf6565b346101b15760003660031901126101b157610ecd6133f9565b600080546001600160a01b0319811682556001600160a01b03167f8be0079c531659141344cd1fd0a4f28419497f9722a3daafe3b4186f6b6457e08280a3005b346101b1576020806003193601126101b157610f2761290c565b506040518091602082019060208352606051809252604083019160809160005b828110610f5657505050500390f35b83516001600160a01b031685528695509381019392810192600101610f47565b346101b15760603660031901126101b157610f8f61290c565b610f97612922565b9060018060a01b03809116908160005260019060016020526040600020918160048401541633036110bd57600094919491600093600096601082018181549416985b848110611065575b50505050505061ffff606492610ff961100293612ee7565b16604435612e0d565b0460008184811561105b575b600092839283928392f11561104f5760407f67b1d074e0231b1d5ea97c0b82a285837b236d627d5a9b89965f961963c39b6c918151908152426020820152a3005b6040513d6000823e3d90fd5b6108fc925061100e565b828a6110718385612b69565b929054600393841b1c161461108857508501610fd9565b9150606497506110029650610ff993945061ffff958693509060116110ae929601612e7f565b9054911b1c1694829489610fe1565b60405162461bcd60e51b815260206004820152602960248201527f4f6e6c79207468652061756374696f6e206f776e65722063616e207472616e73604482015268666572206d6f6e657960b81b6064820152608490fd5b6020806003193601126101b1576001600160a01b038061113261290c565b1680600052600183526111566040600020600a810154151590816106f85750612ea2565b80600052600183526040600020600e81019283541633036111ee5790600d600092019080825460405190815242878201527f785d85162ae7507dad1d0089ba072ba3f2b9c7538085649ddc9b039eadc1a3f660403392a3825260038452604082203383528452816003604082208281558260018201558260028201550155556001600160601b0360a01b815416905560405160018152f35b60405162461bcd60e51b815260048101859052601b60248201527f42696464657220686173206e6f7420706c6163656420612062696400000000006044820152606490fd5b346101b15760203660031901126101b15760206001600160a01b038061125761290c565b1660005260018252600e6040600020015416604051908152f35b346101b15760203660031901126101b1576004356002548110156101b15761129a602091612b1c565b905460405160039290921b1c6001600160a01b03168152f35b346101b1576020806003193601126101b1576001600160a01b03806112d661290c565b1680600052600191600184526112f781600460406000200154163314612e20565b81600052600184526040600020906004820133828254160361160357600c83018054158015906115f5575b156115b957429055600d83019461133f8654600f86015490612d51565b600090601086019060118701845b611550575b5050505050816005840154169260068101549160405163020604bf60e21b81528360048201528881602481895afa90811561104f57600091611523575b508416301480156114b2575b156114565783600e9154169101938385541690803b156101b1576000928360649260405196879586946323b872dd60e01b86526004860152602485015260448401525af1801561104f57611436575b5090608092917f4d31a5599cdb48031c1f03259adbd513be468c5735012719a1a9850869b558b1945491541690604051928352858301526040820152426060820152a160405160018152f35b9291906001600160401b03841161033157604093909352909160806113ea565b60405162461bcd60e51b815260048101899052602e60248201527f436f6e7472616374206973206e6f7420617070726f76656420746f207472616e60448201526d39b332b9103a3432903a37b5b2b760911b6064820152608490fd5b50805460405163e985e9c560e01b815290851660048201523060248201528881604481895afa90811561104f576000916114ed575b5061139b565b90508881813d831161151c575b611504818361296f565b810103126101b1575180151581036101b157896114e7565b503d6114fa565b6115439150893d8b11611549575b61153b818361296f565b810190612d5e565b8961138f565b503d611531565b82548410156115b457600080808061ffff8b60646115816115718c8a612e7f565b949054600395861b1c168a612e0d565b049161158d8b8b612b69565b9054911b1c168282156115ab575bf11561104f57848094019361134d565b506108fc61159b565b611352565b60405162461bcd60e51b8152600481018890526014602482015273105d58dd1a5bdb881a5cc81b9bdd08195b99195960621b6044820152606490fd5b50600b840154421015611322565b60405162461bcd60e51b815260048101879052602360248201527f4f6e6c79207468652073656c6c65722063616e20656e6420746865206175637460448201526234b7b760e91b6064820152608490fd5b346101b15760203660031901126101b1576001600160a01b0361167561290c565b1660005260016020526020600d60406000200154604051908152f35b346101b15760403660031901126101b15760806116ac61290c565b6116b4612922565b60018060a01b038092166000526003602052816040600020911660005260205260406000208181541691600182015416906003600282015491015491604051938452602084015260408301526060820152f35b346101b15760203660031901126101b1576001600160a01b038061172961290c565b16600052600160205260406000209080825416918082600182015416926002820161175390612a37565b9461176060038401612a37565b958260048501541696836005860154166006860154600787015490600888015492600989015494600a8a015496600b8b015498600c8c01549a600d8d01549c600e0154169c600f01549d6040516080526102009160805152608051602001528060805160400152608051016117d491612adc565b6080518103608051606001526117e991612adc565b9b6080516080015260805160a0015260805160c0015260805160e00152608051610100015260805161012001526080516101400152608051610160015260805161018001526080516101a001526080516101c001526080516101e001526080519003608051f35b346101b15760803660031901126101b15761186961290c565b50611872612922565b506064356001600160401b038082116101b157366023830112156101b15781600401359081116101b157369101602401116101b157604051630a85bd0160e11b8152602090f35b346101b1576101603660031901126101b1576004356001600160401b0381116101b1576118ea903690600401612990565b6024356001600160401b0381116101b157611909903690600401612990565b6044356001600160a01b03811690036101b1576084356001600160a01b03811690036101b1576001600160401b0361012435116101b157366023610124350112156101b15761195e61012435600401356129e6565b61196b604051918261296f565b61012435600401358152602081019283366024610124356004013560051b610124350101116101b15760246101243501905b6024610124356004013560051b61012435010182106128485750506001600160401b0361014435116101b157366023610144350112156101b1576119e761014435600401356129e6565b936119f5604051958661296f565b61014435600401358552602085019081366024610144356004013560051b610144350101116101b15760246101443501905b6024610144356004013560051b610144350101821061282b5750506040516331a9108f60e11b815260643560048201526020816024816044356001600160a01b03165afa90811561104f5760009161280c575b50336001600160a01b03909116036127bb5783518651036127645760005b8451811015611b0157600190611ac06001600160a01b03611ab98389612d8a565b511661336d565b50611ae361ffff80611ad2848c612d8a565b511615159081611ae9575b50612d9e565b01611a98565b60649150611af7848c612d8a565b511611158a611add565b508593856040513360601b60208201526001600160601b031960443560601b1660348201526064356048820152604881528060808101106001600160401b03608083011117610331576080810160405280516020909101206001600160a01b031694611b6b612f33565b50604051611b7881612954565b600181526020368183013760405190611b9082612954565b600182526020368184013760405191611ba883612938565b6000835260006020840152604051611bbf81612954565b600781526620bab1ba34b7b760c91b602082015260408401526040518060208101106001600160401b036020830111176103315760208101604052600081526060840152336080840152600060a0840152600060c0840152600060e084015260006101008401526000610120840152426101408401526000610160840152600061018084015260006101a084015260006101c084015260006101e084015281610200840152610220830152611c743391612d7d565b526064611c85610220830151612d7d565b5286600052600160205260406000209060018060a01b038151166001600160601b0360a01b8354161782556001820160018060a01b036020830151166001600160601b0360a01b82541617905560408101518051906001600160401b038211610331578190611cf760028601546129fd565b601f811161272f575b50602090601f83116001146126bd576000926126b2575b50508160011b916000199060031b1c19161760028301555b60608101518051906001600160401b038211610331578190611d5460038601546129fd565b601f811161267d575b50602090601f831160011461260b57600092612600575b50508160011b916000199060031b1c19161760038301555b60808101516004830180546001600160a01b039283166001600160a01b03199182161790915560a083015160058501805491841691831691909117905560c0830151600685015560e0830151600785015561010083015160088501556101208301516009850155610140830151600a850155610160830151600b850155610180830151600c8501556101a0830151600d8501556101c0830151600e850180549190931691161790556101e0810151600f8301556102008101518051906001600160401b03821161033157600160401b82116103315760209060108501548360108701558084106125e0575b500160108401600052602060002060005b8381106125c3575050505061022001518051906001600160401b03821161033157600160401b8211610331576020601191828501548484870155808510612569575b5001920160005260206000209060005b8160041c81106125285750600f1981168082036124d4575b50505050611eff8661336d565b61248e575b611f0d816133b7565b61237b575b50611f1c816133b7565b61225d575b50611f2d60443561336d565b61222c575b606435612212575b611f4560843561336d565b6121e0575b83600052600160205260406000209060a435600783015560c4356121d3575b60e4356121c6575b610104356121b8575b519182612133575b5050508251611fde575b6020827faab8be1e353a93a6790aab2ee44552cf23d58c28a829c5a00becfdcf5bebef1c6080604051838152338582015260018060a01b036044351660408201526064356060820152a1604051908152f35b81600052600160205260116040600020019251906001600160401b03821161033157600160401b82116103315783548285558083106120d9575b509260005260206000208160041c9060005b8281106120985750600f1983169092039182612048575b5050611f8c565b60009485935b808710612065575050602094500155828080612041565b9093602061208d60019261ffff885116908a851b60031b9161ffff809116831b921b19161790565b95019601959061204e565b6000805b601081106120b157508282015560010161202a565b875190979160019160209161ffff60048c901b81811b199092169216901b179201970161209c565b61210b9085600052600f602060002091601e8660011b1680612111575b500160041c810190600f850160041c01612df6565b84612018565b600019908184890160041c8601019182549160200360031b1c169055886120f6565b6001600160401b03831161033157600160401b831161033157601090818301548483850155808510612198575b509101600052602060002060005b83811061217b5750611f82565b82516001600160a01b03168183015560209092019160010161216e565b6121b2908385016000528560206000209182019101612df6565b87612160565b61010435600b830155611f7a565b60e4356009830155611f71565b60c4356008830155611f69565b60008481526001602081905260409091200180546001600160a01b0319166084356001600160a01b0316179055611f4a565b836000526001602052606435600660406000200155611f3a565b600084815260016020526040902060050180546001600160a01b0319166044356001600160a01b0316179055611f32565b8460005260016020526003604060002001908051906001600160401b03821161033157819061228c84546129fd565b601f811161233e575b50602090601f83116001146122d2576000926122c7575b50508160011b916000199060031b1c19161790555b85611f21565b0151905088806122ac565b9250836000526020600020906000935b601f1984168510612323576001945083601f1981161061230a575b505050811b0190556122c1565b015160001960f88460031b161c191690558880806122fd565b818101518355602094850194600190930192909101906122e2565b61236b90856000526020600020601f850160051c81019160208610612371575b601f0160051c0190612df6565b89612295565b909150819061235e565b8560005260016020526002604060002001908051906001600160401b0382116103315781906123aa84546129fd565b601f811161245c575b50602090601f83116001146123f0576000926123e5575b50508160011b916000199060031b1c19161790555b86611f12565b0151905089806123ca565b9250836000526020600020906000935b601f1984168510612441576001945083601f19811610612428575b505050811b0190556123df565b015160001960f88460031b161c1916905589808061241b565b81810151835560209485019460019093019290910190612400565b61248890856000526020600020601f850160051c8101916020861061237157601f0160051c0190612df6565b8a6123b3565b600086815260016020526040902080546001600160a01b03191687179055600254600160401b81101561033157866102a98260016124cf9401600255612b1c565b611f04565b9260009360005b81840381106124f55750505060041c015587808080611ef2565b909194602061251e60019261ffff8951169085851b60031b9161ffff809116831b921b19161790565b96019291016124db565b6000805b60108110612541575083820155600101611eda565b855190959160019160209161ffff60048a901b81811b199092169216901b179201950161252c565b61259c90848701600052600f8460002091601e8860011b16806125a2575b500160041c810190600f870160041c01612df6565b8c611eca565b6000199081848b0160041c86010191825491890360031b1c16905538612587565b82516001600160a01b031681830155602090920191600101611e88565b6125fa906010870160005284846000209182019101612df6565b8c611e77565b015190508b80611d74565b9250600385016000526020600020906000935b601f1984168510612662576001945083601f19811610612649575b505050811b016003830155611d8c565b015160001960f88460031b161c191690558b8080612639565b8181015183556020948501946001909301929091019061261e565b6126ac90600387016000526020600020601f850160051c8101916020861061237157601f0160051c0190612df6565b8c611d5d565b015190508b80611d17565b9250600285016000526020600020906000935b601f1984168510612714576001945083601f198116106126fb575b505050811b016002830155611d2f565b015160001960f88460031b161c191690558b80806126eb565b818101518355602094850194600190930192909101906126d0565b61275e90600287016000526020600020601f850160051c8101916020861061237157601f0160051c0190612df6565b8c611d00565b60405162461bcd60e51b815260206004820152602960248201527f52656365697665727320616e642070657263656e7461676573206c656e677468604482015268040dad2e6dac2e8c6d60bb1b6064820152608490fd5b60405162461bcd60e51b8152602060048201526024808201527f4f6e6c79204e4654206f776e65722063616e2063726561746520616e206175636044820152633a34b7b760e11b6064820152608490fd5b612825915060203d6020116115495761153b818361296f565b87611a7a565b61ffff8235168235036101b1578135815260209182019101611a27565b81356001600160a01b03811690036101b157813581526020918201910161199d565b60203660031901126101b15761287e61290c565b612889341515612cf9565b6001600160a01b03166000818152600160205260409020600f0180546128b0903490612d51565b90556040513481524260208201527f106aac375bbcf013d1e52338bbf9e740009a1a3a6869f8daa1b72aa1620f5fec60403392a260005260046020526040600020336000526020526040600020612908348254612d51565b9055005b600435906001600160a01b03821682036101b157565b602435906001600160a01b03821682036101b157565b61024081019081106001600160401b0382111761033157604052565b604081019081106001600160401b0382111761033157604052565b90601f801991011681019081106001600160401b0382111761033157604052565b81601f820112156101b1578035906001600160401b03821161033157604051926129c4601f8401601f19166020018561296f565b828452602083830101116101b157816000926020809301838601378301015290565b6001600160401b0381116103315760051b60200190565b90600182811c92168015612a2d575b6020831014612a1757565b634e487b7160e01b600052602260045260246000fd5b91607f1691612a0c565b90604051918260008254612a4a816129fd565b90818452602094600191600181169081600014612aba5750600114612a7b575b505050612a799250038361296f565b565b600090815285812095935091905b818310612aa2575050612a799350820101388080612a6a565b85548884018501529485019487945091830191612a89565b92505050612a7994925060ff191682840152151560051b820101388080612a6a565b919082519283825260005b848110612b08575050826000602080949584010152601f8019910116010190565b602081830181015184830182015201612ae7565b600254811015612b535760026000527f405787fa12a823e0f2b7631cc41b3ba8828b3321ca811111fa75cd3aa3bb5ace0190600090565b634e487b7160e01b600052603260045260246000fd5b8054821015612b535760005260206000200190600090565b90815180825260208080930193019160005b828110612ba1575050505090565b83516001600160a01b031685529381019392810192600101612b93565b90815180825260208080930193019160005b828110612bde575050505090565b835161ffff1685529381019392810192600101612bd0565b90612cf691612ce2610240612c47612c3560018060a01b0392838651168752836020870151166020880152604086015190806040890152870190612adc565b60608501518682036060880152612adc565b908060808501511660808601528060a08501511660a086015260c084015160c086015260e084015160e0860152610100808501519086015261012080850151908601526101408085015190860152610160808501519086015261018080850151908601526101a080850151908601526101c0908185015116908501526101e08084015190850152610200808401519085830390860152612b81565b916102208092015191818403910152612bbe565b90565b15612d0057565b60405162461bcd60e51b8152602060048201526024808201527f5468652076616c75652073656e74206973206e6f7420677265617465722074686044820152630616e20360e41b6064820152608490fd5b91908201809211610c8657565b908160209103126101b157516001600160a01b03811681036101b15790565b805115612b535760200190565b8051821015612b535760209160051b010190565b15612da557565b60405162461bcd60e51b8152602060048201526024808201527f50657263656e74616765206d757374206265206265747765656e203120616e646044820152630203130360e41b6064820152608490fd5b818110612e01575050565b60008155600101612df6565b81810292918115918404141715610c8657565b15612e2757565b60405162461bcd60e51b815260206004820152602a60248201527f4f6e6c792061756374696f6e206f776e65722063616e20706572666f726d20746044820152693434b99030b1ba34b7b760b11b6064820152608490fd5b9190918054831015612b5357600052601e60206000208360041c019260011b1690565b15612ea957565b60405162461bcd60e51b815260206004820152601660248201527541756374696f6e206973206e6f74206f6e676f696e6760501b6044820152606490fd5b15612eee57565b60405162461bcd60e51b815260206004820152601960248201527f546865207265636569766572206973206e6f74206164646564000000000000006044820152606490fd5b60405190612f4082612938565b606061022083600080825280602083015283604083015283808301528060808301528060a08301528060c08301528060e08301528061010083015280610120830152806101408301528061016083015280610180830152806101a0830152806101c08301526101e0820152826102008201520152565b90604051918281549182825260209260208301916000526020600020936000905b828210612fed57505050612a799250038361296f565b85546001600160a01b031684526001958601958895509381019390910190612fd7565b9060409160405180938254928383526020918284019160005282600020946000915b81600f84011061322f5750612a799554918482821061321b575b828210613204575b8282106131ee575b8282106131d7575b8282106131c0575b8282106131a9575b828210613192575b82821061317b575b828210613164575b82821061314d575b828210613136575b82821061311f575b828210613108575b8282106130f1575b8282106130da575b50106130cd575b509050038361296f565b60f01c81520180386130c3565b6001919461ffff8560e01c168152019301846130bc565b6001919461ffff8560d01c168152019301846130b4565b6001919461ffff8560c01c168152019301846130ac565b6001919461ffff8560b01c168152019301846130a4565b6001919461ffff8560a01c1681520193018461309c565b6001919461ffff8560901c16815201930184613094565b6001919461ffff8560801c1681520193018461308c565b6001919461ffff8560701c16815201930184613084565b6001919461ffff8560601c1681520193018461307c565b6001919461ffff8560501c16815201930184613074565b6001919461ffff8560401c1681520193018461306c565b6001919461ffff8560301c16815201930184613064565b6001919461ffff85831c1681520193018461305c565b6001919461ffff8560101c16815201930184613054565b6001919461ffff851681520193018461304c565b93959450916001610200601092875461ffff80821683528082871c168b84015280828c1c1689840152818982826060828260301c168189015282826080951c1684890152828260a0828260501c16818c0152828260c0951c16848c0152828260e0988d8a848460701c169101521c166101008c0152828260901c166101208c01521c16610140890152828260b01c166101608901521c16610180860152828260d01c166101a08601521c166101c083015260f01c6101e0820152019501910190949291879492613032565b1561330157565b60405162461bcd60e51b815260206004820152602860248201527f5468652072656365697665722063616e6e6f742062652074686520617563746960448201526737b71037bbb732b960c11b6064820152608490fd5b91909161ffff80809416911601918211610c8657565b6001600160a01b03161561338057600190565b60405162461bcd60e51b815260206004820152600f60248201526e496e76616c6964206164647265737360881b6044820152606490fd5b51156133c257600190565b60405162461bcd60e51b815260206004820152600f60248201526e537472696e6720697320656d70747960881b6044820152606490fd5b6000546001600160a01b0316330361340d57565b60405163118cdaa760e01b8152336004820152602490fdfea26469706673582212207c4e8f820feffcd9749ce067405f91dbc4b26389272ac8f52d9d2c301c8ed10a64736f6c63430008180033","opcodes":"PUSH1 0x80 DUP1 PUSH1 0x40 MSTORE CALLVALUE PUSH2 0x7A JUMPI CALLER ISZERO PUSH2 0x64 JUMPI PUSH1 0x0 DUP1 SLOAD CALLER PUSH1 0x1 PUSH1 0x1 PUSH1 0xA0 SHL SUB NOT DUP3 AND DUP2 OR DUP4 SSTORE PUSH1 0x40 MLOAD SWAP3 SWAP1 SWAP2 PUSH1 0x1 PUSH1 0x1 PUSH1 0xA0 SHL SUB AND SWAP1 PUSH32 0x8BE0079C531659141344CD1FD0A4F28419497F9722A3DAAFE3B4186F6B6457E0 SWAP1 DUP1 LOG3 PUSH2 0x345B SWAP1 DUP2 PUSH2 0x80 DUP3 CODECOPY RETURN JUMPDEST PUSH4 0x1E4FBDF7 PUSH1 0xE0 SHL DUP2 MSTORE PUSH1 0x0 PUSH1 0x4 DUP3 ADD MSTORE PUSH1 0x24 SWAP1 REVERT JUMPDEST PUSH1 0x0 DUP1 REVERT INVALID PUSH1 0xA0 PUSH1 0x40 MSTORE PUSH1 0x4 CALLDATASIZE LT ISZERO PUSH2 0x18 JUMPI JUMPDEST CALLDATASIZE ISZERO PUSH2 0x16 JUMPI STOP JUMPDEST STOP JUMPDEST PUSH1 0xE0 PUSH1 0x0 CALLDATALOAD PUSH1 0xE0 SHR SWAP1 DUP2 PUSH3 0x362A95 EQ PUSH2 0x286A JUMPI DUP2 PUSH4 0x6C64726 EQ PUSH2 0x18B9 JUMPI DUP2 PUSH4 0x150B7A02 EQ PUSH2 0x1850 JUMPI DUP2 PUSH4 0x1D59410A EQ PUSH2 0x1707 JUMPI DUP2 PUSH4 0x1F036524 EQ PUSH2 0x1691 JUMPI DUP2 PUSH4 0x23A75049 EQ PUSH2 0x1654 JUMPI DUP2 PUSH4 0x2872ABBC EQ PUSH2 0x12B3 JUMPI DUP2 PUSH4 0x2A6433BE EQ PUSH2 0x1271 JUMPI DUP2 PUSH4 0x3AE01466 EQ PUSH2 0x1233 JUMPI DUP2 PUSH4 0x4EDE3648 EQ PUSH2 0x1114 JUMPI DUP2 PUSH4 0x6410381C EQ PUSH2 0xF76 JUMPI DUP2 PUSH4 0x694B2323 EQ PUSH2 0xF0D JUMPI DUP2 PUSH4 0x715018A6 EQ PUSH2 0xEB4 JUMPI DUP2 PUSH4 0x79DEAE7B EQ PUSH2 0xD87 JUMPI DUP2 PUSH4 0x8146BCEA EQ PUSH2 0xD36 JUMPI DUP2 PUSH4 0x88C40D94 EQ PUSH2 0xABD JUMPI DUP2 PUSH4 0x8DA5CB5B EQ PUSH2 0xA94 JUMPI DUP2 PUSH4 0x8F3AC946 EQ PUSH2 0xA43 JUMPI DUP2 PUSH4 0xD22CF3A4 EQ PUSH2 0x953 JUMPI DUP2 PUSH4 0xD496D2CB EQ PUSH2 0x8FE JUMPI DUP2 PUSH4 0xD7C06919 EQ PUSH2 0x706 JUMPI POP DUP1 PUSH4 0xE4940157 EQ PUSH2 0x48B JUMPI DUP1 PUSH4 0xE4A74366 EQ PUSH2 0x1B6 JUMPI PUSH4 0xF2FDE38B SUB PUSH2 0xE JUMPI CALLVALUE PUSH2 0x1B1 JUMPI PUSH1 0x20 CALLDATASIZE PUSH1 0x3 NOT ADD SLT PUSH2 0x1B1 JUMPI PUSH2 0x141 PUSH2 0x290C JUMP JUMPDEST PUSH2 0x149 PUSH2 0x33F9 JUMP JUMPDEST PUSH1 0x1 PUSH1 0x1 PUSH1 0xA0 SHL SUB SWAP1 DUP2 AND SWAP1 DUP2 ISZERO PUSH2 0x198 JUMPI PUSH1 0x0 SLOAD DUP3 PUSH1 0x1 PUSH1 0x1 PUSH1 0x60 SHL SUB PUSH1 0xA0 SHL DUP3 AND OR PUSH1 0x0 SSTORE AND PUSH32 0x8BE0079C531659141344CD1FD0A4F28419497F9722A3DAAFE3B4186F6B6457E0 PUSH1 0x0 DUP1 LOG3 STOP JUMPDEST PUSH1 0x40 MLOAD PUSH4 0x1E4FBDF7 PUSH1 0xE0 SHL DUP2 MSTORE PUSH1 0x0 PUSH1 0x4 DUP3 ADD MSTORE PUSH1 0x24 SWAP1 REVERT JUMPDEST PUSH1 0x0 DUP1 REVERT JUMPDEST CALLVALUE PUSH2 0x1B1 JUMPI PUSH1 0x60 CALLDATASIZE PUSH1 0x3 NOT ADD SLT PUSH2 0x1B1 JUMPI PUSH2 0x1CF PUSH2 0x290C JUMP JUMPDEST PUSH2 0x1D7 PUSH2 0x2922 JUMP JUMPDEST PUSH1 0x44 SWAP2 PUSH1 0x44 CALLDATALOAD SWAP3 PUSH2 0xFFFF SWAP2 DUP3 DUP6 AND SWAP1 DUP2 DUP7 SUB PUSH2 0x1B1 JUMPI PUSH1 0x1 DUP1 PUSH1 0xA0 SHL SUB DUP1 SWAP2 AND SWAP5 DUP6 PUSH1 0x0 MSTORE PUSH1 0x1 SWAP5 PUSH1 0x20 SWAP8 PUSH1 0x1 PUSH1 0x20 MSTORE PUSH1 0x40 PUSH1 0x0 KECCAK256 SWAP7 DUP5 PUSH1 0x4 DUP10 ADD SLOAD AND SWAP10 CALLER DUP12 SUB PUSH2 0x434 JUMPI SWAP5 PUSH2 0x22C DUP2 DUP7 AND SWAP12 DUP13 EQ ISZERO PUSH2 0x32FA JUMP JUMPDEST PUSH1 0x0 SWAP6 PUSH1 0x10 DUP11 ADD SWAP9 DUP10 SLOAD SWAP8 JUMPDEST DUP14 DUP12 DUP11 DUP4 LT PUSH2 0x3D1 JUMPI POP POP POP POP POP POP DUP6 ISZERO ISZERO DUP1 PUSH2 0x3C6 JUMPI JUMPDEST PUSH2 0x25C SWAP1 SWAP9 SWAP2 SWAP9 PUSH2 0x2D9E JUMP JUMPDEST PUSH1 0x0 SWAP1 PUSH1 0x11 PUSH1 0x0 SWAP2 ADD SWAP9 DUP10 SLOAD JUMPDEST DUP11 DUP2 DUP5 LT PUSH2 0x39B JUMPI POP POP POP POP PUSH1 0x64 SWAP3 SWAP2 PUSH2 0x282 SWAP2 PUSH2 0x3357 JUMP JUMPDEST AND GT PUSH2 0x347 JUMPI PUSH1 0x1 PUSH1 0x40 SHL SWAP4 DUP5 DUP4 LT ISZERO PUSH2 0x331 JUMPI DUP3 PUSH2 0x2A9 SWAP2 PUSH1 0x1 PUSH2 0x2C7 SWAP6 ADD DUP2 SSTORE PUSH2 0x2B69 JUMP JUMPDEST SWAP1 SWAP2 SWAP1 PUSH1 0x1 DUP1 PUSH1 0xA0 SHL SUB DUP1 DUP5 SLOAD SWAP3 PUSH1 0x3 SHL SWAP4 AND DUP4 SHL SWAP3 SHL NOT AND OR SWAP1 SSTORE JUMP JUMPDEST DUP3 SLOAD SWAP2 DUP3 LT ISZERO PUSH2 0x331 JUMPI DUP1 PUSH2 0x321 PUSH2 0x308 DUP5 PUSH32 0x3C2B0A7047F708FF533690D2CF89D62667A369DE80D02A358419185B1F053BB1 SWAP7 PUSH1 0x1 PUSH1 0x40 SWAP8 ADD DUP2 SSTORE PUSH2 0x2E7F JUMP JUMPDEST DUP2 SWAP4 SWAP2 SLOAD SWAP1 PUSH1 0x3 SHL SWAP2 PUSH2 0xFFFF DUP1 SWAP2 AND DUP4 SHL SWAP3 SHL NOT AND OR SWAP1 JUMP JUMPDEST SWAP1 SSTORE DUP2 MLOAD SWAP1 DUP2 MSTORE TIMESTAMP PUSH1 0x20 DUP3 ADD MSTORE LOG3 STOP JUMPDEST PUSH4 0x4E487B71 PUSH1 0xE0 SHL PUSH1 0x0 MSTORE PUSH1 0x41 PUSH1 0x4 MSTORE PUSH1 0x24 PUSH1 0x0 REVERT JUMPDEST PUSH1 0x40 MLOAD PUSH3 0x461BCD PUSH1 0xE5 SHL DUP2 MSTORE PUSH1 0x20 PUSH1 0x4 DUP3 ADD MSTORE PUSH1 0x26 PUSH1 0x24 DUP3 ADD MSTORE PUSH32 0x53756D206F662070657263656E74616765732069732067726561746572207468 PUSH1 0x44 DUP3 ADD MSTORE PUSH6 0x616E2031303 PUSH1 0xD4 SHL PUSH1 0x64 DUP3 ADD MSTORE PUSH1 0x84 SWAP1 REVERT JUMPDEST DUP4 SWAP5 DUP8 PUSH2 0x3AF DUP6 SWAP7 PUSH2 0x3BD SWAP5 SWAP7 SWAP6 SWAP7 PUSH2 0x2E7F JUMP JUMPDEST SWAP1 SLOAD SWAP1 PUSH1 0x3 SHL SHR AND SWAP1 PUSH2 0x3357 JUMP JUMPDEST SWAP4 ADD SWAP2 SWAP1 PUSH2 0x269 JUMP JUMPDEST POP PUSH1 0x64 DUP7 GT ISZERO PUSH2 0x250 JUMP JUMPDEST PUSH2 0x3DC DUP4 DUP8 SWAP3 PUSH2 0x2B69 JUMP JUMPDEST SWAP1 SLOAD SWAP1 PUSH1 0x3 SHL SHR AND EQ PUSH2 0x3F0 JUMPI DUP5 ADD PUSH2 0x238 JUMP JUMPDEST PUSH1 0x40 MLOAD PUSH3 0x461BCD PUSH1 0xE5 SHL DUP2 MSTORE PUSH1 0x4 DUP2 ADD DUP5 SWAP1 MSTORE PUSH1 0x1D PUSH1 0x24 DUP3 ADD MSTORE PUSH32 0x54686520726563656976657220697320616C7265616479206164646564000000 DUP2 DUP5 ADD MSTORE PUSH1 0x64 SWAP1 REVERT JUMPDEST PUSH1 0x40 MLOAD PUSH3 0x461BCD PUSH1 0xE5 SHL DUP2 MSTORE PUSH1 0x20 PUSH1 0x4 DUP3 ADD MSTORE PUSH1 0x29 PUSH1 0x24 DUP3 ADD MSTORE PUSH32 0x4F6E6C79207468652061756374696F6E206F776E65722063616E206164642061 PUSH1 0x44 DUP3 ADD MSTORE PUSH9 0x103932B1B2B4BB32B9 PUSH1 0xB9 SHL PUSH1 0x64 DUP3 ADD MSTORE PUSH1 0x84 SWAP1 REVERT JUMPDEST PUSH1 0x20 DUP1 PUSH1 0x3 NOT CALLDATASIZE ADD SLT PUSH2 0x1B1 JUMPI PUSH1 0x1 PUSH1 0x1 PUSH1 0xA0 SHL SUB DUP1 PUSH2 0x4A9 PUSH2 0x290C JUMP JUMPDEST AND SWAP1 DUP2 PUSH1 0x0 MSTORE PUSH1 0x1 DUP4 MSTORE PUSH2 0x4CF PUSH1 0x40 PUSH1 0x0 KECCAK256 PUSH1 0xA DUP2 ADD SLOAD ISZERO ISZERO SWAP1 DUP2 PUSH2 0x6F8 JUMPI JUMPDEST POP PUSH2 0x2EA2 JUMP JUMPDEST DUP2 PUSH1 0x0 MSTORE PUSH1 0x1 DUP4 MSTORE PUSH1 0x40 PUSH1 0x0 KECCAK256 PUSH2 0x4E7 CALLVALUE ISZERO ISZERO PUSH2 0x2CF9 JUMP JUMPDEST PUSH1 0xD DUP2 ADD DUP1 SLOAD DUP1 CALLVALUE GT ISZERO PUSH2 0x69C JUMPI PUSH1 0x7 DUP4 ADD SLOAD CALLVALUE LT PUSH2 0x63D JUMPI PUSH1 0x8 DUP4 ADD SLOAD PUSH2 0x50E SWAP2 PUSH2 0x2D51 JUMP JUMPDEST CALLVALUE LT PUSH2 0x5DB JUMPI CALLVALUE SWAP1 SSTORE PUSH1 0xE ADD DUP1 SLOAD PUSH1 0x1 PUSH1 0x1 PUSH1 0xA0 SHL SUB NOT SWAP1 DUP2 AND CALLER OR SWAP1 SWAP2 SSTORE PUSH1 0x40 MLOAD SWAP2 PUSH1 0x80 DUP4 ADD SWAP2 PUSH1 0x1 PUSH1 0x1 PUSH1 0x40 SHL SUB DUP4 GT DUP5 DUP5 LT OR PUSH2 0x331 JUMPI PUSH1 0x3 SWAP3 PUSH1 0x40 MSTORE CALLER DUP5 MSTORE DUP6 DUP5 ADD DUP6 DUP2 MSTORE PUSH1 0x40 DUP6 ADD SWAP2 CALLVALUE DUP4 MSTORE PUSH1 0x60 DUP7 ADD SWAP4 TIMESTAMP DUP6 MSTORE DUP8 PUSH1 0x0 MSTORE DUP6 DUP10 MSTORE PUSH1 0x40 PUSH1 0x0 KECCAK256 CALLER PUSH1 0x0 MSTORE DUP10 MSTORE DUP1 PUSH1 0x40 PUSH1 0x0 KECCAK256 SWAP8 MLOAD AND DUP3 DUP9 SLOAD AND OR DUP8 SSTORE PUSH1 0x1 DUP8 ADD SWAP3 MLOAD AND SWAP1 DUP3 SLOAD AND OR SWAP1 SSTORE MLOAD PUSH1 0x2 DUP5 ADD SSTORE MLOAD SWAP2 ADD SSTORE PUSH1 0x40 MLOAD CALLVALUE DUP2 MSTORE TIMESTAMP DUP4 DUP3 ADD MSTORE PUSH32 0xDD49BBB40D47A514DDDCD458E9718364143BC24A0CCA58439EE6F4F45E4CE10D PUSH1 0x40 CALLER SWAP3 LOG3 PUSH1 0x40 MLOAD PUSH1 0x1 DUP2 MSTORE RETURN JUMPDEST PUSH1 0x40 MLOAD PUSH3 0x461BCD PUSH1 0xE5 SHL DUP2 MSTORE PUSH1 0x4 DUP2 ADD DUP7 SWAP1 MSTORE PUSH1 0x34 PUSH1 0x24 DUP3 ADD MSTORE PUSH32 0x42696420616D6F756E74206973206E6F742067726561746572207468616E2074 PUSH1 0x44 DUP3 ADD MSTORE PUSH20 0x1A19481B5A5B88189A59081A5B98DC995B595B9D PUSH1 0x62 SHL PUSH1 0x64 DUP3 ADD MSTORE PUSH1 0x84 SWAP1 REVERT JUMPDEST PUSH1 0x40 MLOAD PUSH3 0x461BCD PUSH1 0xE5 SHL DUP2 MSTORE PUSH1 0x4 DUP2 ADD DUP8 SWAP1 MSTORE PUSH1 0x31 PUSH1 0x24 DUP3 ADD MSTORE PUSH32 0x42696420616D6F756E74206973206E6F742067726561746572207468616E2074 PUSH1 0x44 DUP3 ADD MSTORE PUSH17 0x6865207374617274696E67207072696365 PUSH1 0x78 SHL PUSH1 0x64 DUP3 ADD MSTORE PUSH1 0x84 SWAP1 REVERT JUMPDEST PUSH1 0x40 MLOAD PUSH3 0x461BCD PUSH1 0xE5 SHL DUP2 MSTORE PUSH1 0x4 DUP2 ADD DUP8 SWAP1 MSTORE PUSH1 0x2E PUSH1 0x24 DUP3 ADD MSTORE PUSH32 0x42696420616D6F756E74206973206E6F742067726561746572207468616E2074 PUSH1 0x44 DUP3 ADD MSTORE PUSH14 0x1A19481A1A59DA195CDD08189A59 PUSH1 0x92 SHL PUSH1 0x64 DUP3 ADD MSTORE PUSH1 0x84 SWAP1 REVERT JUMPDEST PUSH1 0xB SWAP2 POP ADD SLOAD TIMESTAMP LT DUP6 PUSH2 0x4C9 JUMP JUMPDEST CALLVALUE PUSH2 0x1B1 JUMPI PUSH1 0x0 CALLDATASIZE PUSH1 0x3 NOT ADD SLT PUSH2 0x1B1 JUMPI PUSH1 0x2 DUP1 SLOAD PUSH2 0x724 DUP2 PUSH2 0x29E6 JUMP JUMPDEST SWAP2 PUSH2 0x732 PUSH1 0x40 MLOAD SWAP4 DUP5 PUSH2 0x296F JUMP JUMPDEST DUP2 DUP4 MSTORE PUSH2 0x73E DUP3 PUSH2 0x29E6 JUMP JUMPDEST PUSH1 0x20 SWAP5 SWAP1 PUSH1 0x1F NOT ADD DUP6 PUSH1 0x0 JUMPDEST DUP3 DUP2 LT PUSH2 0x8E8 JUMPI POP POP POP PUSH1 0x0 JUMPDEST DUP4 DUP2 LT PUSH2 0x7BC JUMPI PUSH1 0x40 DUP1 MLOAD DUP8 DUP2 MSTORE DUP7 MLOAD DUP2 DUP10 ADD DUP2 SWAP1 MSTORE PUSH1 0x0 SWAP3 PUSH1 0x5 DUP3 SWAP1 SHL DUP4 ADD DUP2 ADD SWAP2 DUP10 DUP12 ADD SWAP2 DUP12 SWAP1 DUP6 ADD JUMPDEST DUP3 DUP8 LT PUSH2 0x790 JUMPI DUP6 DUP6 SUB DUP7 RETURN JUMPDEST SWAP1 SWAP2 SWAP3 SWAP4 DUP3 DUP1 PUSH2 0x7AC PUSH1 0x1 SWAP4 PUSH1 0x3F NOT DUP11 DUP3 SUB ADD DUP7 MSTORE DUP9 MLOAD PUSH2 0x2BF6 JUMP JUMPDEST SWAP7 ADD SWAP3 ADD SWAP7 ADD SWAP6 SWAP3 SWAP2 SWAP1 SWAP3 PUSH2 0x783 JUMP JUMPDEST DUP1 PUSH1 0x11 PUSH2 0x8C6 PUSH2 0x7CD PUSH1 0x1 SWAP5 PUSH2 0x2B1C JUMP JUMPDEST DUP6 DUP1 PUSH1 0xA0 SWAP6 SWAP4 SWAP6 SHL SUB DUP1 SWAP5 SLOAD PUSH1 0x3 SWAP3 DUP4 SHL SHR AND PUSH1 0x0 MSTORE DUP6 SWAP4 DUP5 DUP13 MSTORE PUSH2 0x825 PUSH1 0x40 PUSH1 0x0 KECCAK256 SWAP3 DUP14 DUP4 PUSH1 0x40 MLOAD SWAP9 PUSH2 0x800 DUP11 PUSH2 0x2938 JUMP JUMPDEST DUP2 DUP8 SLOAD AND DUP11 MSTORE DUP7 ADD SLOAD AND SWAP1 DUP9 ADD MSTORE PUSH2 0x819 DUP12 DUP6 ADD PUSH2 0x2A37 JUMP JUMPDEST PUSH1 0x40 DUP9 ADD MSTORE DUP4 ADD PUSH2 0x2A37 JUMP JUMPDEST PUSH1 0x60 DUP7 ADD MSTORE DUP1 PUSH1 0x4 DUP4 ADD SLOAD AND PUSH1 0x80 DUP7 ADD MSTORE DUP1 PUSH1 0x5 DUP4 ADD SLOAD AND PUSH1 0xA0 DUP7 ADD MSTORE PUSH1 0x6 DUP3 ADD SLOAD PUSH1 0xC0 DUP7 ADD MSTORE PUSH1 0x7 DUP3 ADD SLOAD DUP9 DUP7 ADD MSTORE PUSH1 0x8 DUP3 ADD SLOAD PUSH2 0x100 DUP7 ADD MSTORE PUSH1 0x9 DUP3 ADD SLOAD PUSH2 0x120 DUP7 ADD MSTORE PUSH1 0xA DUP3 ADD SLOAD PUSH2 0x140 DUP7 ADD MSTORE PUSH1 0xB DUP3 ADD SLOAD PUSH2 0x160 DUP7 ADD MSTORE PUSH1 0xC DUP3 ADD SLOAD PUSH2 0x180 DUP7 ADD MSTORE PUSH1 0xD DUP3 ADD SLOAD PUSH2 0x1A0 DUP7 ADD MSTORE PUSH1 0xE DUP3 ADD SLOAD AND PUSH2 0x1C0 DUP6 ADD MSTORE PUSH1 0xF DUP2 ADD SLOAD PUSH2 0x1E0 DUP6 ADD MSTORE PUSH2 0x8BA PUSH1 0x10 DUP3 ADD PUSH2 0x2FB6 JUMP JUMPDEST PUSH2 0x200 DUP6 ADD MSTORE ADD PUSH2 0x3010 JUMP JUMPDEST PUSH2 0x220 DUP3 ADD MSTORE PUSH2 0x8D6 DUP3 DUP9 PUSH2 0x2D8A JUMP JUMPDEST MSTORE PUSH2 0x8E1 DUP2 DUP8 PUSH2 0x2D8A JUMP JUMPDEST POP ADD PUSH2 0x757 JUMP JUMPDEST PUSH2 0x8F0 PUSH2 0x2F33 JUMP JUMPDEST DUP3 DUP3 DUP10 ADD ADD MSTORE ADD DUP7 SWAP1 PUSH2 0x74A JUMP JUMPDEST CALLVALUE PUSH2 0x1B1 JUMPI PUSH1 0x20 CALLDATASIZE PUSH1 0x3 NOT ADD SLT PUSH2 0x1B1 JUMPI PUSH1 0x1 PUSH1 0x1 PUSH1 0xA0 SHL SUB PUSH2 0x91F PUSH2 0x290C JUMP JUMPDEST AND PUSH1 0x0 MSTORE PUSH1 0x1 PUSH1 0x20 MSTORE PUSH2 0x94F PUSH2 0x93B PUSH1 0x11 PUSH1 0x40 PUSH1 0x0 KECCAK256 ADD PUSH2 0x3010 JUMP JUMPDEST PUSH1 0x40 MLOAD SWAP2 DUP3 SWAP2 PUSH1 0x20 DUP4 MSTORE PUSH1 0x20 DUP4 ADD SWAP1 PUSH2 0x2BBE JUMP JUMPDEST SUB SWAP1 RETURN JUMPDEST CALLVALUE PUSH2 0x1B1 JUMPI PUSH1 0x20 DUP1 PUSH1 0x3 NOT CALLDATASIZE ADD SLT PUSH2 0x1B1 JUMPI PUSH1 0x1 PUSH1 0x1 PUSH1 0xA0 SHL SUB DUP1 PUSH2 0x976 PUSH2 0x290C JUMP JUMPDEST AND SWAP1 DUP2 PUSH1 0x0 MSTORE PUSH1 0x1 DUP4 MSTORE PUSH2 0x995 DUP2 PUSH1 0x4 PUSH1 0x40 PUSH1 0x0 KECCAK256 ADD SLOAD AND CALLER EQ PUSH2 0x2E20 JUMP JUMPDEST DUP2 PUSH1 0x0 MSTORE PUSH1 0x1 DUP4 MSTORE PUSH1 0x40 PUSH1 0x0 KECCAK256 SWAP1 CALLER SWAP1 PUSH1 0x4 DUP4 ADD SLOAD AND SUB PUSH2 0x9EF JUMPI PUSH32 0x18B64B6242D32AA550E95D78985B938D71AF5B3F10827B0683F55DA16393048 SWAP2 PUSH1 0x40 SWAP2 PUSH1 0xC TIMESTAMP SWAP2 ADD SSTORE DUP2 MLOAD SWAP1 DUP2 MSTORE TIMESTAMP DUP5 DUP3 ADD MSTORE LOG1 PUSH1 0x40 MLOAD PUSH1 0x1 DUP2 MSTORE RETURN JUMPDEST PUSH1 0x40 MLOAD PUSH3 0x461BCD PUSH1 0xE5 SHL DUP2 MSTORE PUSH1 0x4 DUP2 ADD DUP5 SWAP1 MSTORE PUSH1 0x26 PUSH1 0x24 DUP3 ADD MSTORE PUSH32 0x4F6E6C79207468652073656C6C65722063616E2063616E63656C207468652061 PUSH1 0x44 DUP3 ADD MSTORE PUSH6 0x3AB1BA34B7B7 PUSH1 0xD1 SHL PUSH1 0x64 DUP3 ADD MSTORE PUSH1 0x84 SWAP1 REVERT JUMPDEST CALLVALUE PUSH2 0x1B1 JUMPI PUSH1 0x40 CALLDATASIZE PUSH1 0x3 NOT ADD SLT PUSH2 0x1B1 JUMPI PUSH2 0xA5C PUSH2 0x290C JUMP JUMPDEST PUSH2 0xA64 PUSH2 0x2922 JUMP JUMPDEST SWAP1 PUSH1 0x1 DUP1 PUSH1 0xA0 SHL SUB DUP1 SWAP2 AND PUSH1 0x0 MSTORE PUSH1 0x4 PUSH1 0x20 MSTORE PUSH1 0x40 PUSH1 0x0 KECCAK256 SWAP2 AND PUSH1 0x0 MSTORE PUSH1 0x20 MSTORE PUSH1 0x20 PUSH1 0x40 PUSH1 0x0 KECCAK256 SLOAD PUSH1 0x40 MLOAD SWAP1 DUP2 MSTORE RETURN JUMPDEST CALLVALUE PUSH2 0x1B1 JUMPI PUSH1 0x0 CALLDATASIZE PUSH1 0x3 NOT ADD SLT PUSH2 0x1B1 JUMPI PUSH1 0x0 SLOAD PUSH1 0x40 MLOAD PUSH1 0x1 PUSH1 0x1 PUSH1 0xA0 SHL SUB SWAP1 SWAP2 AND DUP2 MSTORE PUSH1 0x20 SWAP1 RETURN JUMPDEST CALLVALUE PUSH2 0x1B1 JUMPI PUSH1 0x40 CALLDATASIZE PUSH1 0x3 NOT ADD SLT PUSH2 0x1B1 JUMPI PUSH2 0xAD6 PUSH2 0x290C JUMP JUMPDEST PUSH2 0xADE PUSH2 0x2922 JUMP JUMPDEST PUSH1 0x1 DUP1 PUSH1 0xA0 SHL SUB DUP1 SWAP3 AND DUP1 PUSH1 0x0 MSTORE PUSH1 0x1 DUP1 PUSH1 0x20 MSTORE PUSH1 0x40 PUSH1 0x0 KECCAK256 SWAP4 DUP1 PUSH1 0x4 DUP7 ADD SLOAD AND SWAP4 CALLER DUP6 SUB PUSH2 0xCDC JUMPI SWAP1 PUSH2 0xB19 DUP2 DUP8 SWAP5 SWAP4 AND SWAP6 DUP7 EQ ISZERO PUSH2 0x32FA JUMP JUMPDEST PUSH1 0x0 SWAP3 PUSH1 0x0 SWAP4 PUSH1 0x10 DUP3 ADD SWAP5 DUP6 SLOAD SWAP1 JUMPDEST DUP2 DUP2 LT PUSH2 0xCA2 JUMPI JUMPDEST POP POP PUSH2 0xB3B SWAP1 PUSH2 0x2EE7 JUMP JUMPDEST PUSH1 0x0 DUP4 JUMPDEST PUSH2 0xB72 JUMPI JUMPDEST DUP7 DUP7 PUSH32 0x881201A365CFA7A30D2763840B70E4BB9C3B6417202491504FB1237B08A8C10F PUSH1 0x20 PUSH1 0x40 MLOAD TIMESTAMP DUP2 MSTORE LOG3 STOP JUMPDEST DUP5 SLOAD DUP1 DUP3 LT ISZERO PUSH2 0xC9C JUMPI DUP4 SWAP1 DUP9 PUSH2 0xB89 DUP5 DUP10 PUSH2 0x2B69 JUMP JUMPDEST SWAP4 SWAP1 SLOAD PUSH1 0x3 SWAP5 DUP6 SHL SHR AND EQ PUSH2 0xBA2 JUMPI POP POP DUP4 ADD DUP4 PUSH2 0xB3F JUMP JUMPDEST SWAP4 SWAP2 SWAP3 SWAP5 POP SWAP5 PUSH1 0x0 NOT SWAP4 DUP5 DUP2 ADD SWAP1 DUP2 GT PUSH2 0xC86 JUMPI DUP3 PUSH2 0xBC4 PUSH2 0xBD5 SWAP3 DUP5 PUSH2 0x2B69 JUMP JUMPDEST SWAP1 SLOAD SWAP1 DUP10 SHL SHR AND PUSH2 0x2A9 DUP6 DUP5 PUSH2 0x2B69 JUMP JUMPDEST DUP1 SLOAD DUP1 ISZERO PUSH2 0xC5C JUMPI DUP5 ADD SWAP2 PUSH2 0xBEA DUP4 DUP4 PUSH2 0x2B69 JUMP JUMPDEST SWAP1 SWAP2 DUP3 SLOAD SWAP2 DUP10 SHL SHL NOT AND SWAP1 SSTORE SSTORE PUSH1 0x11 DUP1 SWAP4 ADD SWAP3 DUP4 SLOAD SWAP1 DUP4 DUP3 ADD SWAP2 DUP3 GT PUSH2 0xC72 JUMPI POP SWAP1 PUSH2 0xC30 PUSH2 0xC1D PUSH2 0x308 SWAP5 SWAP4 DUP7 PUSH2 0x2E7F JUMP JUMPDEST SWAP1 SLOAD PUSH2 0xFFFF SWAP6 SWAP2 DUP9 SHL SHR DUP6 AND SWAP3 DUP7 PUSH2 0x2E7F JUMP JUMPDEST SWAP1 SSTORE DUP3 SLOAD DUP1 ISZERO PUSH2 0xC5C JUMPI ADD SWAP3 PUSH2 0xC46 DUP5 DUP5 PUSH2 0x2E7F JUMP JUMPDEST DUP2 SWAP4 SWAP2 SLOAD SWAP3 SHL SHL NOT AND SWAP1 SSTORE SSTORE DUP3 DUP1 DUP1 DUP1 DUP1 PUSH2 0xB44 JUMP JUMPDEST PUSH4 0x4E487B71 PUSH1 0xE0 SHL PUSH1 0x0 MSTORE PUSH1 0x31 PUSH1 0x4 MSTORE PUSH1 0x24 PUSH1 0x0 REVERT JUMPDEST PUSH4 0x4E487B71 PUSH1 0xE0 SHL PUSH1 0x0 MSTORE PUSH1 0x4 MSTORE PUSH1 0x24 PUSH1 0x0 REVERT JUMPDEST PUSH4 0x4E487B71 PUSH1 0xE0 SHL PUSH1 0x0 MSTORE PUSH1 0x11 PUSH1 0x4 MSTORE PUSH1 0x24 PUSH1 0x0 REVERT JUMPDEST POP PUSH2 0xB44 JUMP JUMPDEST DUP9 DUP6 PUSH2 0xCB2 DUP4 DUP11 SWAP7 SWAP13 SWAP12 SWAP11 PUSH2 0x2B69 JUMP JUMPDEST SWAP1 SLOAD SWAP1 PUSH1 0x3 SHL SHR AND EQ PUSH2 0xCCB JUMPI DUP6 ADD SWAP8 SWAP2 SWAP6 SWAP7 SWAP8 PUSH2 0xB28 JUMP JUMPDEST POP SWAP6 SWAP7 POP SWAP4 SWAP5 POP DUP3 PUSH2 0xB3B DUP2 PUSH2 0xB30 JUMP JUMPDEST PUSH1 0x40 MLOAD PUSH3 0x461BCD PUSH1 0xE5 SHL DUP2 MSTORE PUSH1 0x20 PUSH1 0x4 DUP3 ADD MSTORE PUSH1 0x2C PUSH1 0x24 DUP3 ADD MSTORE PUSH32 0x4F6E6C79207468652061756374696F6E206F776E65722063616E2072656D6F76 PUSH1 0x44 DUP3 ADD MSTORE PUSH12 0x329030903932B1B2B4BB32B9 PUSH1 0xA1 SHL PUSH1 0x64 DUP3 ADD MSTORE PUSH1 0x84 SWAP1 REVERT JUMPDEST CALLVALUE PUSH2 0x1B1 JUMPI PUSH1 0x20 CALLDATASIZE PUSH1 0x3 NOT ADD SLT PUSH2 0x1B1 JUMPI PUSH1 0x1 PUSH1 0x1 PUSH1 0xA0 SHL SUB PUSH2 0xD57 PUSH2 0x290C JUMP JUMPDEST AND PUSH1 0x0 MSTORE PUSH1 0x1 PUSH1 0x20 MSTORE PUSH2 0x94F PUSH2 0xD73 PUSH1 0x10 PUSH1 0x40 PUSH1 0x0 KECCAK256 ADD PUSH2 0x2FB6 JUMP JUMPDEST PUSH1 0x40 MLOAD SWAP2 DUP3 SWAP2 PUSH1 0x20 DUP4 MSTORE PUSH1 0x20 DUP4 ADD SWAP1 PUSH2 0x2B81 JUMP JUMPDEST CALLVALUE PUSH2 0x1B1 JUMPI PUSH1 0x20 CALLDATASIZE PUSH1 0x3 NOT ADD SLT PUSH2 0x1B1 JUMPI PUSH2 0x94F PUSH2 0xDA3 PUSH2 0x290C JUMP JUMPDEST PUSH2 0xDAB PUSH2 0x2F33 JUMP JUMPDEST POP PUSH1 0x1 DUP1 PUSH1 0xA0 SHL SUB DUP1 SWAP2 AND PUSH1 0x0 MSTORE PUSH1 0x1 PUSH1 0x20 MSTORE PUSH2 0xE9A PUSH1 0x11 PUSH1 0x40 PUSH1 0x0 KECCAK256 PUSH1 0x40 MLOAD SWAP4 PUSH2 0xDD5 DUP6 PUSH2 0x2938 JUMP JUMPDEST DUP1 DUP3 SLOAD AND DUP6 MSTORE DUP1 PUSH1 0x1 DUP4 ADD SLOAD AND PUSH1 0x20 DUP7 ADD MSTORE PUSH2 0xDF3 PUSH1 0x2 DUP4 ADD PUSH2 0x2A37 JUMP JUMPDEST PUSH1 0x40 DUP7 ADD MSTORE PUSH2 0xE04 PUSH1 0x3 DUP4 ADD PUSH2 0x2A37 JUMP JUMPDEST PUSH1 0x60 DUP7 ADD MSTORE DUP1 PUSH1 0x4 DUP4 ADD SLOAD AND PUSH1 0x80 DUP7 ADD MSTORE DUP1 PUSH1 0x5 DUP4 ADD SLOAD AND PUSH1 0xA0 DUP7 ADD MSTORE PUSH1 0x6 DUP3 ADD SLOAD PUSH1 0xC0 DUP7 ADD MSTORE PUSH1 0x7 DUP3 ADD SLOAD PUSH1 0xE0 DUP7 ADD MSTORE PUSH1 0x8 DUP3 ADD SLOAD PUSH2 0x100 DUP7 ADD MSTORE PUSH1 0x9 DUP3 ADD SLOAD PUSH2 0x120 DUP7 ADD MSTORE PUSH1 0xA DUP3 ADD SLOAD PUSH2 0x140 DUP7 ADD MSTORE PUSH1 0xB DUP3 ADD SLOAD PUSH2 0x160 DUP7 ADD MSTORE PUSH1 0xC DUP3 ADD SLOAD PUSH2 0x180 DUP7 ADD MSTORE PUSH1 0xD DUP3 ADD SLOAD PUSH2 0x1A0 DUP7 ADD MSTORE PUSH1 0xE DUP3 ADD SLOAD AND PUSH2 0x1C0 DUP6 ADD MSTORE PUSH1 0xF DUP2 ADD SLOAD PUSH2 0x1E0 DUP6 ADD MSTORE PUSH2 0x8BA PUSH1 0x10 DUP3 ADD PUSH2 0x2FB6 JUMP JUMPDEST PUSH2 0x220 DUP3 ADD MSTORE PUSH1 0x40 MLOAD SWAP2 DUP3 SWAP2 PUSH1 0x20 DUP4 MSTORE PUSH1 0x20 DUP4 ADD SWAP1 PUSH2 0x2BF6 JUMP JUMPDEST CALLVALUE PUSH2 0x1B1 JUMPI PUSH1 0x0 CALLDATASIZE PUSH1 0x3 NOT ADD SLT PUSH2 0x1B1 JUMPI PUSH2 0xECD PUSH2 0x33F9 JUMP JUMPDEST PUSH1 0x0 DUP1 SLOAD PUSH1 0x1 PUSH1 0x1 PUSH1 0xA0 SHL SUB NOT DUP2 AND DUP3 SSTORE PUSH1 0x1 PUSH1 0x1 PUSH1 0xA0 SHL SUB AND PUSH32 0x8BE0079C531659141344CD1FD0A4F28419497F9722A3DAAFE3B4186F6B6457E0 DUP3 DUP1 LOG3 STOP JUMPDEST CALLVALUE PUSH2 0x1B1 JUMPI PUSH1 0x20 DUP1 PUSH1 0x3 NOT CALLDATASIZE ADD SLT PUSH2 0x1B1 JUMPI PUSH2 0xF27 PUSH2 0x290C JUMP JUMPDEST POP PUSH1 0x40 MLOAD DUP1 SWAP2 PUSH1 0x20 DUP3 ADD SWAP1 PUSH1 0x20 DUP4 MSTORE PUSH1 0x60 MLOAD DUP1 SWAP3 MSTORE PUSH1 0x40 DUP4 ADD SWAP2 PUSH1 0x80 SWAP2 PUSH1 0x0 JUMPDEST DUP3 DUP2 LT PUSH2 0xF56 JUMPI POP POP POP POP SUB SWAP1 RETURN JUMPDEST DUP4 MLOAD PUSH1 0x1 PUSH1 0x1 PUSH1 0xA0 SHL SUB AND DUP6 MSTORE DUP7 SWAP6 POP SWAP4 DUP2 ADD SWAP4 SWAP3 DUP2 ADD SWAP3 PUSH1 0x1 ADD PUSH2 0xF47 JUMP JUMPDEST CALLVALUE PUSH2 0x1B1 JUMPI PUSH1 0x60 CALLDATASIZE PUSH1 0x3 NOT ADD SLT PUSH2 0x1B1 JUMPI PUSH2 0xF8F PUSH2 0x290C JUMP JUMPDEST PUSH2 0xF97 PUSH2 0x2922 JUMP JUMPDEST SWAP1 PUSH1 0x1 DUP1 PUSH1 0xA0 SHL SUB DUP1 SWAP2 AND SWAP1 DUP2 PUSH1 0x0 MSTORE PUSH1 0x1 SWAP1 PUSH1 0x1 PUSH1 0x20 MSTORE PUSH1 0x40 PUSH1 0x0 KECCAK256 SWAP2 DUP2 PUSH1 0x4 DUP5 ADD SLOAD AND CALLER SUB PUSH2 0x10BD JUMPI PUSH1 0x0 SWAP5 SWAP2 SWAP5 SWAP2 PUSH1 0x0 SWAP4 PUSH1 0x0 SWAP7 PUSH1 0x10 DUP3 ADD DUP2 DUP2 SLOAD SWAP5 AND SWAP9 JUMPDEST DUP5 DUP2 LT PUSH2 0x1065 JUMPI JUMPDEST POP POP POP POP POP POP PUSH2 0xFFFF PUSH1 0x64 SWAP3 PUSH2 0xFF9 PUSH2 0x1002 SWAP4 PUSH2 0x2EE7 JUMP JUMPDEST AND PUSH1 0x44 CALLDATALOAD PUSH2 0x2E0D JUMP JUMPDEST DIV PUSH1 0x0 DUP2 DUP5 DUP2 ISZERO PUSH2 0x105B JUMPI JUMPDEST PUSH1 0x0 SWAP3 DUP4 SWAP3 DUP4 SWAP3 DUP4 SWAP3 CALL ISZERO PUSH2 0x104F JUMPI PUSH1 0x40 PUSH32 0x67B1D074E0231B1D5EA97C0B82A285837B236D627D5A9B89965F961963C39B6C SWAP2 DUP2 MLOAD SWAP1 DUP2 MSTORE TIMESTAMP PUSH1 0x20 DUP3 ADD MSTORE LOG3 STOP JUMPDEST PUSH1 0x40 MLOAD RETURNDATASIZE PUSH1 0x0 DUP3 RETURNDATACOPY RETURNDATASIZE SWAP1 REVERT JUMPDEST PUSH2 0x8FC SWAP3 POP PUSH2 0x100E JUMP JUMPDEST DUP3 DUP11 PUSH2 0x1071 DUP4 DUP6 PUSH2 0x2B69 JUMP JUMPDEST SWAP3 SWAP1 SLOAD PUSH1 0x3 SWAP4 DUP5 SHL SHR AND EQ PUSH2 0x1088 JUMPI POP DUP6 ADD PUSH2 0xFD9 JUMP JUMPDEST SWAP2 POP PUSH1 0x64 SWAP8 POP PUSH2 0x1002 SWAP7 POP PUSH2 0xFF9 SWAP4 SWAP5 POP PUSH2 0xFFFF SWAP6 DUP7 SWAP4 POP SWAP1 PUSH1 0x11 PUSH2 0x10AE SWAP3 SWAP7 ADD PUSH2 0x2E7F JUMP JUMPDEST SWAP1 SLOAD SWAP2 SHL SHR AND SWAP5 DUP3 SWAP5 DUP10 PUSH2 0xFE1 JUMP JUMPDEST PUSH1 0x40 MLOAD PUSH3 0x461BCD PUSH1 0xE5 SHL DUP2 MSTORE PUSH1 0x20 PUSH1 0x4 DUP3 ADD MSTORE PUSH1 0x29 PUSH1 0x24 DUP3 ADD MSTORE PUSH32 0x4F6E6C79207468652061756374696F6E206F776E65722063616E207472616E73 PUSH1 0x44 DUP3 ADD MSTORE PUSH9 0x666572206D6F6E6579 PUSH1 0xB8 SHL PUSH1 0x64 DUP3 ADD MSTORE PUSH1 0x84 SWAP1 REVERT JUMPDEST PUSH1 0x20 DUP1 PUSH1 0x3 NOT CALLDATASIZE ADD SLT PUSH2 0x1B1 JUMPI PUSH1 0x1 PUSH1 0x1 PUSH1 0xA0 SHL SUB DUP1 PUSH2 0x1132 PUSH2 0x290C JUMP JUMPDEST AND DUP1 PUSH1 0x0 MSTORE PUSH1 0x1 DUP4 MSTORE PUSH2 0x1156 PUSH1 0x40 PUSH1 0x0 KECCAK256 PUSH1 0xA DUP2 ADD SLOAD ISZERO ISZERO SWAP1 DUP2 PUSH2 0x6F8 JUMPI POP PUSH2 0x2EA2 JUMP JUMPDEST DUP1 PUSH1 0x0 MSTORE PUSH1 0x1 DUP4 MSTORE PUSH1 0x40 PUSH1 0x0 KECCAK256 PUSH1 0xE DUP2 ADD SWAP3 DUP4 SLOAD AND CALLER SUB PUSH2 0x11EE JUMPI SWAP1 PUSH1 0xD PUSH1 0x0 SWAP3 ADD SWAP1 DUP1 DUP3 SLOAD PUSH1 0x40 MLOAD SWAP1 DUP2 MSTORE TIMESTAMP DUP8 DUP3 ADD MSTORE PUSH32 0x785D85162AE7507DAD1D0089BA072BA3F2B9C7538085649DDC9B039EADC1A3F6 PUSH1 0x40 CALLER SWAP3 LOG3 DUP3 MSTORE PUSH1 0x3 DUP5 MSTORE PUSH1 0x40 DUP3 KECCAK256 CALLER DUP4 MSTORE DUP5 MSTORE DUP2 PUSH1 0x3 PUSH1 0x40 DUP3 KECCAK256 DUP3 DUP2 SSTORE DUP3 PUSH1 0x1 DUP3 ADD SSTORE DUP3 PUSH1 0x2 DUP3 ADD SSTORE ADD SSTORE SSTORE PUSH1 0x1 PUSH1 0x1 PUSH1 0x60 SHL SUB PUSH1 0xA0 SHL DUP2 SLOAD AND SWAP1 SSTORE PUSH1 0x40 MLOAD PUSH1 0x1 DUP2 MSTORE RETURN JUMPDEST PUSH1 0x40 MLOAD PUSH3 0x461BCD PUSH1 0xE5 SHL DUP2 MSTORE PUSH1 0x4 DUP2 ADD DUP6 SWAP1 MSTORE PUSH1 0x1B PUSH1 0x24 DUP3 ADD MSTORE PUSH32 0x42696464657220686173206E6F7420706C616365642061206269640000000000 PUSH1 0x44 DUP3 ADD MSTORE PUSH1 0x64 SWAP1 REVERT JUMPDEST CALLVALUE PUSH2 0x1B1 JUMPI PUSH1 0x20 CALLDATASIZE PUSH1 0x3 NOT ADD SLT PUSH2 0x1B1 JUMPI PUSH1 0x20 PUSH1 0x1 PUSH1 0x1 PUSH1 0xA0 SHL SUB DUP1 PUSH2 0x1257 PUSH2 0x290C JUMP JUMPDEST AND PUSH1 0x0 MSTORE PUSH1 0x1 DUP3 MSTORE PUSH1 0xE PUSH1 0x40 PUSH1 0x0 KECCAK256 ADD SLOAD AND PUSH1 0x40 MLOAD SWAP1 DUP2 MSTORE RETURN JUMPDEST CALLVALUE PUSH2 0x1B1 JUMPI PUSH1 0x20 CALLDATASIZE PUSH1 0x3 NOT ADD SLT PUSH2 0x1B1 JUMPI PUSH1 0x4 CALLDATALOAD PUSH1 0x2 SLOAD DUP2 LT ISZERO PUSH2 0x1B1 JUMPI PUSH2 0x129A PUSH1 0x20 SWAP2 PUSH2 0x2B1C JUMP JUMPDEST SWAP1 SLOAD PUSH1 0x40 MLOAD PUSH1 0x3 SWAP3 SWAP1 SWAP3 SHL SHR PUSH1 0x1 PUSH1 0x1 PUSH1 0xA0 SHL SUB AND DUP2 MSTORE RETURN JUMPDEST CALLVALUE PUSH2 0x1B1 JUMPI PUSH1 0x20 DUP1 PUSH1 0x3 NOT CALLDATASIZE ADD SLT PUSH2 0x1B1 JUMPI PUSH1 0x1 PUSH1 0x1 PUSH1 0xA0 SHL SUB DUP1 PUSH2 0x12D6 PUSH2 0x290C JUMP JUMPDEST AND DUP1 PUSH1 0x0 MSTORE PUSH1 0x1 SWAP2 PUSH1 0x1 DUP5 MSTORE PUSH2 0x12F7 DUP2 PUSH1 0x4 PUSH1 0x40 PUSH1 0x0 KECCAK256 ADD SLOAD AND CALLER EQ PUSH2 0x2E20 JUMP JUMPDEST DUP2 PUSH1 0x0 MSTORE PUSH1 0x1 DUP5 MSTORE PUSH1 0x40 PUSH1 0x0 KECCAK256 SWAP1 PUSH1 0x4 DUP3 ADD CALLER DUP3 DUP3 SLOAD AND SUB PUSH2 0x1603 JUMPI PUSH1 0xC DUP4 ADD DUP1 SLOAD ISZERO DUP1 ISZERO SWAP1 PUSH2 0x15F5 JUMPI JUMPDEST ISZERO PUSH2 0x15B9 JUMPI TIMESTAMP SWAP1 SSTORE PUSH1 0xD DUP4 ADD SWAP5 PUSH2 0x133F DUP7 SLOAD PUSH1 0xF DUP7 ADD SLOAD SWAP1 PUSH2 0x2D51 JUMP JUMPDEST PUSH1 0x0 SWAP1 PUSH1 0x10 DUP7 ADD SWAP1 PUSH1 0x11 DUP8 ADD DUP5 JUMPDEST PUSH2 0x1550 JUMPI JUMPDEST POP POP POP POP POP DUP2 PUSH1 0x5 DUP5 ADD SLOAD AND SWAP3 PUSH1 0x6 DUP2 ADD SLOAD SWAP2 PUSH1 0x40 MLOAD PUSH4 0x20604BF PUSH1 0xE2 SHL DUP2 MSTORE DUP4 PUSH1 0x4 DUP3 ADD MSTORE DUP9 DUP2 PUSH1 0x24 DUP2 DUP10 GAS STATICCALL SWAP1 DUP2 ISZERO PUSH2 0x104F JUMPI PUSH1 0x0 SWAP2 PUSH2 0x1523 JUMPI JUMPDEST POP DUP5 AND ADDRESS EQ DUP1 ISZERO PUSH2 0x14B2 JUMPI JUMPDEST ISZERO PUSH2 0x1456 JUMPI DUP4 PUSH1 0xE SWAP2 SLOAD AND SWAP2 ADD SWAP4 DUP4 DUP6 SLOAD AND SWAP1 DUP1 EXTCODESIZE ISZERO PUSH2 0x1B1 JUMPI PUSH1 0x0 SWAP3 DUP4 PUSH1 0x64 SWAP3 PUSH1 0x40 MLOAD SWAP7 DUP8 SWAP6 DUP7 SWAP5 PUSH4 0x23B872DD PUSH1 0xE0 SHL DUP7 MSTORE PUSH1 0x4 DUP7 ADD MSTORE PUSH1 0x24 DUP6 ADD MSTORE PUSH1 0x44 DUP5 ADD MSTORE GAS CALL DUP1 ISZERO PUSH2 0x104F JUMPI PUSH2 0x1436 JUMPI JUMPDEST POP SWAP1 PUSH1 0x80 SWAP3 SWAP2 PUSH32 0x4D31A5599CDB48031C1F03259ADBD513BE468C5735012719A1A9850869B558B1 SWAP5 SLOAD SWAP2 SLOAD AND SWAP1 PUSH1 0x40 MLOAD SWAP3 DUP4 MSTORE DUP6 DUP4 ADD MSTORE PUSH1 0x40 DUP3 ADD MSTORE TIMESTAMP PUSH1 0x60 DUP3 ADD MSTORE LOG1 PUSH1 0x40 MLOAD PUSH1 0x1 DUP2 MSTORE RETURN JUMPDEST SWAP3 SWAP2 SWAP1 PUSH1 0x1 PUSH1 0x1 PUSH1 0x40 SHL SUB DUP5 GT PUSH2 0x331 JUMPI PUSH1 0x40 SWAP4 SWAP1 SWAP4 MSTORE SWAP1 SWAP2 PUSH1 0x80 PUSH2 0x13EA JUMP JUMPDEST PUSH1 0x40 MLOAD PUSH3 0x461BCD PUSH1 0xE5 SHL DUP2 MSTORE PUSH1 0x4 DUP2 ADD DUP10 SWAP1 MSTORE PUSH1 0x2E PUSH1 0x24 DUP3 ADD MSTORE PUSH32 0x436F6E7472616374206973206E6F7420617070726F76656420746F207472616E PUSH1 0x44 DUP3 ADD MSTORE PUSH14 0x39B332B9103A3432903A37B5B2B7 PUSH1 0x91 SHL PUSH1 0x64 DUP3 ADD MSTORE PUSH1 0x84 SWAP1 REVERT JUMPDEST POP DUP1 SLOAD PUSH1 0x40 MLOAD PUSH4 0xE985E9C5 PUSH1 0xE0 SHL DUP2 MSTORE SWAP1 DUP6 AND PUSH1 0x4 DUP3 ADD MSTORE ADDRESS PUSH1 0x24 DUP3 ADD MSTORE DUP9 DUP2 PUSH1 0x44 DUP2 DUP10 GAS STATICCALL SWAP1 DUP2 ISZERO PUSH2 0x104F JUMPI PUSH1 0x0 SWAP2 PUSH2 0x14ED JUMPI JUMPDEST POP PUSH2 0x139B JUMP JUMPDEST SWAP1 POP DUP9 DUP2 DUP2 RETURNDATASIZE DUP4 GT PUSH2 0x151C JUMPI JUMPDEST PUSH2 0x1504 DUP2 DUP4 PUSH2 0x296F JUMP JUMPDEST DUP2 ADD SUB SLT PUSH2 0x1B1 JUMPI MLOAD DUP1 ISZERO ISZERO DUP2 SUB PUSH2 0x1B1 JUMPI DUP10 PUSH2 0x14E7 JUMP JUMPDEST POP RETURNDATASIZE PUSH2 0x14FA JUMP JUMPDEST PUSH2 0x1543 SWAP2 POP DUP10 RETURNDATASIZE DUP12 GT PUSH2 0x1549 JUMPI JUMPDEST PUSH2 0x153B DUP2 DUP4 PUSH2 0x296F JUMP JUMPDEST DUP2 ADD SWAP1 PUSH2 0x2D5E JUMP JUMPDEST DUP10 PUSH2 0x138F JUMP JUMPDEST POP RETURNDATASIZE PUSH2 0x1531 JUMP JUMPDEST DUP3 SLOAD DUP5 LT ISZERO PUSH2 0x15B4 JUMPI PUSH1 0x0 DUP1 DUP1 DUP1 PUSH2 0xFFFF DUP12 PUSH1 0x64 PUSH2 0x1581 PUSH2 0x1571 DUP13 DUP11 PUSH2 0x2E7F JUMP JUMPDEST SWAP5 SWAP1 SLOAD PUSH1 0x3 SWAP6 DUP7 SHL SHR AND DUP11 PUSH2 0x2E0D JUMP JUMPDEST DIV SWAP2 PUSH2 0x158D DUP12 DUP12 PUSH2 0x2B69 JUMP JUMPDEST SWAP1 SLOAD SWAP2 SHL SHR AND DUP3 DUP3 ISZERO PUSH2 0x15AB JUMPI JUMPDEST CALL ISZERO PUSH2 0x104F JUMPI DUP5 DUP1 SWAP5 ADD SWAP4 PUSH2 0x134D JUMP JUMPDEST POP PUSH2 0x8FC PUSH2 0x159B JUMP JUMPDEST PUSH2 0x1352 JUMP JUMPDEST PUSH1 0x40 MLOAD PUSH3 0x461BCD PUSH1 0xE5 SHL DUP2 MSTORE PUSH1 0x4 DUP2 ADD DUP9 SWAP1 MSTORE PUSH1 0x14 PUSH1 0x24 DUP3 ADD MSTORE PUSH20 0x105D58DD1A5BDB881A5CC81B9BDD08195B991959 PUSH1 0x62 SHL PUSH1 0x44 DUP3 ADD MSTORE PUSH1 0x64 SWAP1 REVERT JUMPDEST POP PUSH1 0xB DUP5 ADD SLOAD TIMESTAMP LT ISZERO PUSH2 0x1322 JUMP JUMPDEST PUSH1 0x40 MLOAD PUSH3 0x461BCD PUSH1 0xE5 SHL DUP2 MSTORE PUSH1 0x4 DUP2 ADD DUP8 SWAP1 MSTORE PUSH1 0x23 PUSH1 0x24 DUP3 ADD MSTORE PUSH32 0x4F6E6C79207468652073656C6C65722063616E20656E64207468652061756374 PUSH1 0x44 DUP3 ADD MSTORE PUSH3 0x34B7B7 PUSH1 0xE9 SHL PUSH1 0x64 DUP3 ADD MSTORE PUSH1 0x84 SWAP1 REVERT JUMPDEST CALLVALUE PUSH2 0x1B1 JUMPI PUSH1 0x20 CALLDATASIZE PUSH1 0x3 NOT ADD SLT PUSH2 0x1B1 JUMPI PUSH1 0x1 PUSH1 0x1 PUSH1 0xA0 SHL SUB PUSH2 0x1675 PUSH2 0x290C JUMP JUMPDEST AND PUSH1 0x0 MSTORE PUSH1 0x1 PUSH1 0x20 MSTORE PUSH1 0x20 PUSH1 0xD PUSH1 0x40 PUSH1 0x0 KECCAK256 ADD SLOAD PUSH1 0x40 MLOAD SWAP1 DUP2 MSTORE RETURN JUMPDEST CALLVALUE PUSH2 0x1B1 JUMPI PUSH1 0x40 CALLDATASIZE PUSH1 0x3 NOT ADD SLT PUSH2 0x1B1 JUMPI PUSH1 0x80 PUSH2 0x16AC PUSH2 0x290C JUMP JUMPDEST PUSH2 0x16B4 PUSH2 0x2922 JUMP JUMPDEST PUSH1 0x1 DUP1 PUSH1 0xA0 SHL SUB DUP1 SWAP3 AND PUSH1 0x0 MSTORE PUSH1 0x3 PUSH1 0x20 MSTORE DUP2 PUSH1 0x40 PUSH1 0x0 KECCAK256 SWAP2 AND PUSH1 0x0 MSTORE PUSH1 0x20 MSTORE PUSH1 0x40 PUSH1 0x0 KECCAK256 DUP2 DUP2 SLOAD AND SWAP2 PUSH1 0x1 DUP3 ADD SLOAD AND SWAP1 PUSH1 0x3 PUSH1 0x2 DUP3 ADD SLOAD SWAP2 ADD SLOAD SWAP2 PUSH1 0x40 MLOAD SWAP4 DUP5 MSTORE PUSH1 0x20 DUP5 ADD MSTORE PUSH1 0x40 DUP4 ADD MSTORE PUSH1 0x60 DUP3 ADD MSTORE RETURN JUMPDEST CALLVALUE PUSH2 0x1B1 JUMPI PUSH1 0x20 CALLDATASIZE PUSH1 0x3 NOT ADD SLT PUSH2 0x1B1 JUMPI PUSH1 0x1 PUSH1 0x1 PUSH1 0xA0 SHL SUB DUP1 PUSH2 0x1729 PUSH2 0x290C JUMP JUMPDEST AND PUSH1 0x0 MSTORE PUSH1 0x1 PUSH1 0x20 MSTORE PUSH1 0x40 PUSH1 0x0 KECCAK256 SWAP1 DUP1 DUP3 SLOAD AND SWAP2 DUP1 DUP3 PUSH1 0x1 DUP3 ADD SLOAD AND SWAP3 PUSH1 0x2 DUP3 ADD PUSH2 0x1753 SWAP1 PUSH2 0x2A37 JUMP JUMPDEST SWAP5 PUSH2 0x1760 PUSH1 0x3 DUP5 ADD PUSH2 0x2A37 JUMP JUMPDEST SWAP6 DUP3 PUSH1 0x4 DUP6 ADD SLOAD AND SWAP7 DUP4 PUSH1 0x5 DUP7 ADD SLOAD AND PUSH1 0x6 DUP7 ADD SLOAD PUSH1 0x7 DUP8 ADD SLOAD SWAP1 PUSH1 0x8 DUP9 ADD SLOAD SWAP3 PUSH1 0x9 DUP10 ADD SLOAD SWAP5 PUSH1 0xA DUP11 ADD SLOAD SWAP7 PUSH1 0xB DUP12 ADD SLOAD SWAP9 PUSH1 0xC DUP13 ADD SLOAD SWAP11 PUSH1 0xD DUP14 ADD SLOAD SWAP13 PUSH1 0xE ADD SLOAD AND SWAP13 PUSH1 0xF ADD SLOAD SWAP14 PUSH1 0x40 MLOAD PUSH1 0x80 MSTORE PUSH2 0x200 SWAP2 PUSH1 0x80 MLOAD MSTORE PUSH1 0x80 MLOAD PUSH1 0x20 ADD MSTORE DUP1 PUSH1 0x80 MLOAD PUSH1 0x40 ADD MSTORE PUSH1 0x80 MLOAD ADD PUSH2 0x17D4 SWAP2 PUSH2 0x2ADC JUMP JUMPDEST PUSH1 0x80 MLOAD DUP2 SUB PUSH1 0x80 MLOAD PUSH1 0x60 ADD MSTORE PUSH2 0x17E9 SWAP2 PUSH2 0x2ADC JUMP JUMPDEST SWAP12 PUSH1 0x80 MLOAD PUSH1 0x80 ADD MSTORE PUSH1 0x80 MLOAD PUSH1 0xA0 ADD MSTORE PUSH1 0x80 MLOAD PUSH1 0xC0 ADD MSTORE PUSH1 0x80 MLOAD PUSH1 0xE0 ADD MSTORE PUSH1 0x80 MLOAD PUSH2 0x100 ADD MSTORE PUSH1 0x80 MLOAD PUSH2 0x120 ADD MSTORE PUSH1 0x80 MLOAD PUSH2 0x140 ADD MSTORE PUSH1 0x80 MLOAD PUSH2 0x160 ADD MSTORE PUSH1 0x80 MLOAD PUSH2 0x180 ADD MSTORE PUSH1 0x80 MLOAD PUSH2 0x1A0 ADD MSTORE PUSH1 0x80 MLOAD PUSH2 0x1C0 ADD MSTORE PUSH1 0x80 MLOAD PUSH2 0x1E0 ADD MSTORE PUSH1 0x80 MLOAD SWAP1 SUB PUSH1 0x80 MLOAD RETURN JUMPDEST CALLVALUE PUSH2 0x1B1 JUMPI PUSH1 0x80 CALLDATASIZE PUSH1 0x3 NOT ADD SLT PUSH2 0x1B1 JUMPI PUSH2 0x1869 PUSH2 0x290C JUMP JUMPDEST POP PUSH2 0x1872 PUSH2 0x2922 JUMP JUMPDEST POP PUSH1 0x64 CALLDATALOAD PUSH1 0x1 PUSH1 0x1 PUSH1 0x40 SHL SUB DUP1 DUP3 GT PUSH2 0x1B1 JUMPI CALLDATASIZE PUSH1 0x23 DUP4 ADD SLT ISZERO PUSH2 0x1B1 JUMPI DUP2 PUSH1 0x4 ADD CALLDATALOAD SWAP1 DUP2 GT PUSH2 0x1B1 JUMPI CALLDATASIZE SWAP2 ADD PUSH1 0x24 ADD GT PUSH2 0x1B1 JUMPI PUSH1 0x40 MLOAD PUSH4 0xA85BD01 PUSH1 0xE1 SHL DUP2 MSTORE PUSH1 0x20 SWAP1 RETURN JUMPDEST CALLVALUE PUSH2 0x1B1 JUMPI PUSH2 0x160 CALLDATASIZE PUSH1 0x3 NOT ADD SLT PUSH2 0x1B1 JUMPI PUSH1 0x4 CALLDATALOAD PUSH1 0x1 PUSH1 0x1 PUSH1 0x40 SHL SUB DUP2 GT PUSH2 0x1B1 JUMPI PUSH2 0x18EA SWAP1 CALLDATASIZE SWAP1 PUSH1 0x4 ADD PUSH2 0x2990 JUMP JUMPDEST PUSH1 0x24 CALLDATALOAD PUSH1 0x1 PUSH1 0x1 PUSH1 0x40 SHL SUB DUP2 GT PUSH2 0x1B1 JUMPI PUSH2 0x1909 SWAP1 CALLDATASIZE SWAP1 PUSH1 0x4 ADD PUSH2 0x2990 JUMP JUMPDEST PUSH1 0x44 CALLDATALOAD PUSH1 0x1 PUSH1 0x1 PUSH1 0xA0 SHL SUB DUP2 AND SWAP1 SUB PUSH2 0x1B1 JUMPI PUSH1 0x84 CALLDATALOAD PUSH1 0x1 PUSH1 0x1 PUSH1 0xA0 SHL SUB DUP2 AND SWAP1 SUB PUSH2 0x1B1 JUMPI PUSH1 0x1 PUSH1 0x1 PUSH1 0x40 SHL SUB PUSH2 0x124 CALLDATALOAD GT PUSH2 0x1B1 JUMPI CALLDATASIZE PUSH1 0x23 PUSH2 0x124 CALLDATALOAD ADD SLT ISZERO PUSH2 0x1B1 JUMPI PUSH2 0x195E PUSH2 0x124 CALLDATALOAD PUSH1 0x4 ADD CALLDATALOAD PUSH2 0x29E6 JUMP JUMPDEST PUSH2 0x196B PUSH1 0x40 MLOAD SWAP2 DUP3 PUSH2 0x296F JUMP JUMPDEST PUSH2 0x124 CALLDATALOAD PUSH1 0x4 ADD CALLDATALOAD DUP2 MSTORE PUSH1 0x20 DUP2 ADD SWAP3 DUP4 CALLDATASIZE PUSH1 0x24 PUSH2 0x124 CALLDATALOAD PUSH1 0x4 ADD CALLDATALOAD PUSH1 0x5 SHL PUSH2 0x124 CALLDATALOAD ADD ADD GT PUSH2 0x1B1 JUMPI PUSH1 0x24 PUSH2 0x124 CALLDATALOAD ADD SWAP1 JUMPDEST PUSH1 0x24 PUSH2 0x124 CALLDATALOAD PUSH1 0x4 ADD CALLDATALOAD PUSH1 0x5 SHL PUSH2 0x124 CALLDATALOAD ADD ADD DUP3 LT PUSH2 0x2848 JUMPI POP POP PUSH1 0x1 PUSH1 0x1 PUSH1 0x40 SHL SUB PUSH2 0x144 CALLDATALOAD GT PUSH2 0x1B1 JUMPI CALLDATASIZE PUSH1 0x23 PUSH2 0x144 CALLDATALOAD ADD SLT ISZERO PUSH2 0x1B1 JUMPI PUSH2 0x19E7 PUSH2 0x144 CALLDATALOAD PUSH1 0x4 ADD CALLDATALOAD PUSH2 0x29E6 JUMP JUMPDEST SWAP4 PUSH2 0x19F5 PUSH1 0x40 MLOAD SWAP6 DUP7 PUSH2 0x296F JUMP JUMPDEST PUSH2 0x144 CALLDATALOAD PUSH1 0x4 ADD CALLDATALOAD DUP6 MSTORE PUSH1 0x20 DUP6 ADD SWAP1 DUP2 CALLDATASIZE PUSH1 0x24 PUSH2 0x144 CALLDATALOAD PUSH1 0x4 ADD CALLDATALOAD PUSH1 0x5 SHL PUSH2 0x144 CALLDATALOAD ADD ADD GT PUSH2 0x1B1 JUMPI PUSH1 0x24 PUSH2 0x144 CALLDATALOAD ADD SWAP1 JUMPDEST PUSH1 0x24 PUSH2 0x144 CALLDATALOAD PUSH1 0x4 ADD CALLDATALOAD PUSH1 0x5 SHL PUSH2 0x144 CALLDATALOAD ADD ADD DUP3 LT PUSH2 0x282B JUMPI POP POP PUSH1 0x40 MLOAD PUSH4 0x31A9108F PUSH1 0xE1 SHL DUP2 MSTORE PUSH1 0x64 CALLDATALOAD PUSH1 0x4 DUP3 ADD MSTORE PUSH1 0x20 DUP2 PUSH1 0x24 DUP2 PUSH1 0x44 CALLDATALOAD PUSH1 0x1 PUSH1 0x1 PUSH1 0xA0 SHL SUB AND GAS STATICCALL SWAP1 DUP2 ISZERO PUSH2 0x104F JUMPI PUSH1 0x0 SWAP2 PUSH2 0x280C JUMPI JUMPDEST POP CALLER PUSH1 0x1 PUSH1 0x1 PUSH1 0xA0 SHL SUB SWAP1 SWAP2 AND SUB PUSH2 0x27BB JUMPI DUP4 MLOAD DUP7 MLOAD SUB PUSH2 0x2764 JUMPI PUSH1 0x0 JUMPDEST DUP5 MLOAD DUP2 LT ISZERO PUSH2 0x1B01 JUMPI PUSH1 0x1 SWAP1 PUSH2 0x1AC0 PUSH1 0x1 PUSH1 0x1 PUSH1 0xA0 SHL SUB PUSH2 0x1AB9 DUP4 DUP10 PUSH2 0x2D8A JUMP JUMPDEST MLOAD AND PUSH2 0x336D JUMP JUMPDEST POP PUSH2 0x1AE3 PUSH2 0xFFFF DUP1 PUSH2 0x1AD2 DUP5 DUP13 PUSH2 0x2D8A JUMP JUMPDEST MLOAD AND ISZERO ISZERO SWAP1 DUP2 PUSH2 0x1AE9 JUMPI JUMPDEST POP PUSH2 0x2D9E JUMP JUMPDEST ADD PUSH2 0x1A98 JUMP JUMPDEST PUSH1 0x64 SWAP2 POP PUSH2 0x1AF7 DUP5 DUP13 PUSH2 0x2D8A JUMP JUMPDEST MLOAD AND GT ISZERO DUP11 PUSH2 0x1ADD JUMP JUMPDEST POP DUP6 SWAP4 DUP6 PUSH1 0x40 MLOAD CALLER PUSH1 0x60 SHL PUSH1 0x20 DUP3 ADD MSTORE PUSH1 0x1 PUSH1 0x1 PUSH1 0x60 SHL SUB NOT PUSH1 0x44 CALLDATALOAD PUSH1 0x60 SHL AND PUSH1 0x34 DUP3 ADD MSTORE PUSH1 0x64 CALLDATALOAD PUSH1 0x48 DUP3 ADD MSTORE PUSH1 0x48 DUP2 MSTORE DUP1 PUSH1 0x80 DUP2 ADD LT PUSH1 0x1 PUSH1 0x1 PUSH1 0x40 SHL SUB PUSH1 0x80 DUP4 ADD GT OR PUSH2 0x331 JUMPI PUSH1 0x80 DUP2 ADD PUSH1 0x40 MSTORE DUP1 MLOAD PUSH1 0x20 SWAP1 SWAP2 ADD KECCAK256 PUSH1 0x1 PUSH1 0x1 PUSH1 0xA0 SHL SUB AND SWAP5 PUSH2 0x1B6B PUSH2 0x2F33 JUMP JUMPDEST POP PUSH1 0x40 MLOAD PUSH2 0x1B78 DUP2 PUSH2 0x2954 JUMP JUMPDEST PUSH1 0x1 DUP2 MSTORE PUSH1 0x20 CALLDATASIZE DUP2 DUP4 ADD CALLDATACOPY PUSH1 0x40 MLOAD SWAP1 PUSH2 0x1B90 DUP3 PUSH2 0x2954 JUMP JUMPDEST PUSH1 0x1 DUP3 MSTORE PUSH1 0x20 CALLDATASIZE DUP2 DUP5 ADD CALLDATACOPY PUSH1 0x40 MLOAD SWAP2 PUSH2 0x1BA8 DUP4 PUSH2 0x2938 JUMP JUMPDEST PUSH1 0x0 DUP4 MSTORE PUSH1 0x0 PUSH1 0x20 DUP5 ADD MSTORE PUSH1 0x40 MLOAD PUSH2 0x1BBF DUP2 PUSH2 0x2954 JUMP JUMPDEST PUSH1 0x7 DUP2 MSTORE PUSH7 0x20BAB1BA34B7B7 PUSH1 0xC9 SHL PUSH1 0x20 DUP3 ADD MSTORE PUSH1 0x40 DUP5 ADD MSTORE PUSH1 0x40 MLOAD DUP1 PUSH1 0x20 DUP2 ADD LT PUSH1 0x1 PUSH1 0x1 PUSH1 0x40 SHL SUB PUSH1 0x20 DUP4 ADD GT OR PUSH2 0x331 JUMPI PUSH1 0x20 DUP2 ADD PUSH1 0x40 MSTORE PUSH1 0x0 DUP2 MSTORE PUSH1 0x60 DUP5 ADD MSTORE CALLER PUSH1 0x80 DUP5 ADD MSTORE PUSH1 0x0 PUSH1 0xA0 DUP5 ADD MSTORE PUSH1 0x0 PUSH1 0xC0 DUP5 ADD MSTORE PUSH1 0x0 PUSH1 0xE0 DUP5 ADD MSTORE PUSH1 0x0 PUSH2 0x100 DUP5 ADD MSTORE PUSH1 0x0 PUSH2 0x120 DUP5 ADD MSTORE TIMESTAMP PUSH2 0x140 DUP5 ADD MSTORE PUSH1 0x0 PUSH2 0x160 DUP5 ADD MSTORE PUSH1 0x0 PUSH2 0x180 DUP5 ADD MSTORE PUSH1 0x0 PUSH2 0x1A0 DUP5 ADD MSTORE PUSH1 0x0 PUSH2 0x1C0 DUP5 ADD MSTORE PUSH1 0x0 PUSH2 0x1E0 DUP5 ADD MSTORE DUP2 PUSH2 0x200 DUP5 ADD MSTORE PUSH2 0x220 DUP4 ADD MSTORE PUSH2 0x1C74 CALLER SWAP2 PUSH2 0x2D7D JUMP JUMPDEST MSTORE PUSH1 0x64 PUSH2 0x1C85 PUSH2 0x220 DUP4 ADD MLOAD PUSH2 0x2D7D JUMP JUMPDEST MSTORE DUP7 PUSH1 0x0 MSTORE PUSH1 0x1 PUSH1 0x20 MSTORE PUSH1 0x40 PUSH1 0x0 KECCAK256 SWAP1 PUSH1 0x1 DUP1 PUSH1 0xA0 SHL SUB DUP2 MLOAD AND PUSH1 0x1 PUSH1 0x1 PUSH1 0x60 SHL SUB PUSH1 0xA0 SHL DUP4 SLOAD AND OR DUP3 SSTORE PUSH1 0x1 DUP3 ADD PUSH1 0x1 DUP1 PUSH1 0xA0 SHL SUB PUSH1 0x20 DUP4 ADD MLOAD AND PUSH1 0x1 PUSH1 0x1 PUSH1 0x60 SHL SUB PUSH1 0xA0 SHL DUP3 SLOAD AND OR SWAP1 SSTORE PUSH1 0x40 DUP2 ADD MLOAD DUP1 MLOAD SWAP1 PUSH1 0x1 PUSH1 0x1 PUSH1 0x40 SHL SUB DUP3 GT PUSH2 0x331 JUMPI DUP2 SWAP1 PUSH2 0x1CF7 PUSH1 0x2 DUP7 ADD SLOAD PUSH2 0x29FD JUMP JUMPDEST PUSH1 0x1F DUP2 GT PUSH2 0x272F JUMPI JUMPDEST POP PUSH1 0x20 SWAP1 PUSH1 0x1F DUP4 GT PUSH1 0x1 EQ PUSH2 0x26BD JUMPI PUSH1 0x0 SWAP3 PUSH2 0x26B2 JUMPI JUMPDEST POP POP DUP2 PUSH1 0x1 SHL SWAP2 PUSH1 0x0 NOT SWAP1 PUSH1 0x3 SHL SHR NOT AND OR PUSH1 0x2 DUP4 ADD SSTORE JUMPDEST PUSH1 0x60 DUP2 ADD MLOAD DUP1 MLOAD SWAP1 PUSH1 0x1 PUSH1 0x1 PUSH1 0x40 SHL SUB DUP3 GT PUSH2 0x331 JUMPI DUP2 SWAP1 PUSH2 0x1D54 PUSH1 0x3 DUP7 ADD SLOAD PUSH2 0x29FD JUMP JUMPDEST PUSH1 0x1F DUP2 GT PUSH2 0x267D JUMPI JUMPDEST POP PUSH1 0x20 SWAP1 PUSH1 0x1F DUP4 GT PUSH1 0x1 EQ PUSH2 0x260B JUMPI PUSH1 0x0 SWAP3 PUSH2 0x2600 JUMPI JUMPDEST POP POP DUP2 PUSH1 0x1 SHL SWAP2 PUSH1 0x0 NOT SWAP1 PUSH1 0x3 SHL SHR NOT AND OR PUSH1 0x3 DUP4 ADD SSTORE JUMPDEST PUSH1 0x80 DUP2 ADD MLOAD PUSH1 0x4 DUP4 ADD DUP1 SLOAD PUSH1 0x1 PUSH1 0x1 PUSH1 0xA0 SHL SUB SWAP3 DUP4 AND PUSH1 0x1 PUSH1 0x1 PUSH1 0xA0 SHL SUB NOT SWAP2 DUP3 AND OR SWAP1 SWAP2 SSTORE PUSH1 0xA0 DUP4 ADD MLOAD PUSH1 0x5 DUP6 ADD DUP1 SLOAD SWAP2 DUP5 AND SWAP2 DUP4 AND SWAP2 SWAP1 SWAP2 OR SWAP1 SSTORE PUSH1 0xC0 DUP4 ADD MLOAD PUSH1 0x6 DUP6 ADD SSTORE PUSH1 0xE0 DUP4 ADD MLOAD PUSH1 0x7 DUP6 ADD SSTORE PUSH2 0x100 DUP4 ADD MLOAD PUSH1 0x8 DUP6 ADD SSTORE PUSH2 0x120 DUP4 ADD MLOAD PUSH1 0x9 DUP6 ADD SSTORE PUSH2 0x140 DUP4 ADD MLOAD PUSH1 0xA DUP6 ADD SSTORE PUSH2 0x160 DUP4 ADD MLOAD PUSH1 0xB DUP6 ADD SSTORE PUSH2 0x180 DUP4 ADD MLOAD PUSH1 0xC DUP6 ADD SSTORE PUSH2 0x1A0 DUP4 ADD MLOAD PUSH1 0xD DUP6 ADD SSTORE PUSH2 0x1C0 DUP4 ADD MLOAD PUSH1 0xE DUP6 ADD DUP1 SLOAD SWAP2 SWAP1 SWAP4 AND SWAP2 AND OR SWAP1 SSTORE PUSH2 0x1E0 DUP2 ADD MLOAD PUSH1 0xF DUP4 ADD SSTORE PUSH2 0x200 DUP2 ADD MLOAD DUP1 MLOAD SWAP1 PUSH1 0x1 PUSH1 0x1 PUSH1 0x40 SHL SUB DUP3 GT PUSH2 0x331 JUMPI PUSH1 0x1 PUSH1 0x40 SHL DUP3 GT PUSH2 0x331 JUMPI PUSH1 0x20 SWAP1 PUSH1 0x10 DUP6 ADD SLOAD DUP4 PUSH1 0x10 DUP8 ADD SSTORE DUP1 DUP5 LT PUSH2 0x25E0 JUMPI JUMPDEST POP ADD PUSH1 0x10 DUP5 ADD PUSH1 0x0 MSTORE PUSH1 0x20 PUSH1 0x0 KECCAK256 PUSH1 0x0 JUMPDEST DUP4 DUP2 LT PUSH2 0x25C3 JUMPI POP POP POP POP PUSH2 0x220 ADD MLOAD DUP1 MLOAD SWAP1 PUSH1 0x1 PUSH1 0x1 PUSH1 0x40 SHL SUB DUP3 GT PUSH2 0x331 JUMPI PUSH1 0x1 PUSH1 0x40 SHL DUP3 GT PUSH2 0x331 JUMPI PUSH1 0x20 PUSH1 0x11 SWAP2 DUP3 DUP6 ADD SLOAD DUP5 DUP5 DUP8 ADD SSTORE DUP1 DUP6 LT PUSH2 0x2569 JUMPI JUMPDEST POP ADD SWAP3 ADD PUSH1 0x0 MSTORE PUSH1 0x20 PUSH1 0x0 KECCAK256 SWAP1 PUSH1 0x0 JUMPDEST DUP2 PUSH1 0x4 SHR DUP2 LT PUSH2 0x2528 JUMPI POP PUSH1 0xF NOT DUP2 AND DUP1 DUP3 SUB PUSH2 0x24D4 JUMPI JUMPDEST POP POP POP POP PUSH2 0x1EFF DUP7 PUSH2 0x336D JUMP JUMPDEST PUSH2 0x248E JUMPI JUMPDEST PUSH2 0x1F0D DUP2 PUSH2 0x33B7 JUMP JUMPDEST PUSH2 0x237B JUMPI JUMPDEST POP PUSH2 0x1F1C DUP2 PUSH2 0x33B7 JUMP JUMPDEST PUSH2 0x225D JUMPI JUMPDEST POP PUSH2 0x1F2D PUSH1 0x44 CALLDATALOAD PUSH2 0x336D JUMP JUMPDEST PUSH2 0x222C JUMPI JUMPDEST PUSH1 0x64 CALLDATALOAD PUSH2 0x2212 JUMPI JUMPDEST PUSH2 0x1F45 PUSH1 0x84 CALLDATALOAD PUSH2 0x336D JUMP JUMPDEST PUSH2 0x21E0 JUMPI JUMPDEST DUP4 PUSH1 0x0 MSTORE PUSH1 0x1 PUSH1 0x20 MSTORE PUSH1 0x40 PUSH1 0x0 KECCAK256 SWAP1 PUSH1 0xA4 CALLDATALOAD PUSH1 0x7 DUP4 ADD SSTORE PUSH1 0xC4 CALLDATALOAD PUSH2 0x21D3 JUMPI JUMPDEST PUSH1 0xE4 CALLDATALOAD PUSH2 0x21C6 JUMPI JUMPDEST PUSH2 0x104 CALLDATALOAD PUSH2 0x21B8 JUMPI JUMPDEST MLOAD SWAP2 DUP3 PUSH2 0x2133 JUMPI JUMPDEST POP POP POP DUP3 MLOAD PUSH2 0x1FDE JUMPI JUMPDEST PUSH1 0x20 DUP3 PUSH32 0xAAB8BE1E353A93A6790AAB2EE44552CF23D58C28A829C5A00BECFDCF5BEBEF1C PUSH1 0x80 PUSH1 0x40 MLOAD DUP4 DUP2 MSTORE CALLER DUP6 DUP3 ADD MSTORE PUSH1 0x1 DUP1 PUSH1 0xA0 SHL SUB PUSH1 0x44 CALLDATALOAD AND PUSH1 0x40 DUP3 ADD MSTORE PUSH1 0x64 CALLDATALOAD PUSH1 0x60 DUP3 ADD MSTORE LOG1 PUSH1 0x40 MLOAD SWAP1 DUP2 MSTORE RETURN JUMPDEST DUP2 PUSH1 0x0 MSTORE PUSH1 0x1 PUSH1 0x20 MSTORE PUSH1 0x11 PUSH1 0x40 PUSH1 0x0 KECCAK256 ADD SWAP3 MLOAD SWAP1 PUSH1 0x1 PUSH1 0x1 PUSH1 0x40 SHL SUB DUP3 GT PUSH2 0x331 JUMPI PUSH1 0x1 PUSH1 0x40 SHL DUP3 GT PUSH2 0x331 JUMPI DUP4 SLOAD DUP3 DUP6 SSTORE DUP1 DUP4 LT PUSH2 0x20D9 JUMPI JUMPDEST POP SWAP3 PUSH1 0x0 MSTORE PUSH1 0x20 PUSH1 0x0 KECCAK256 DUP2 PUSH1 0x4 SHR SWAP1 PUSH1 0x0 JUMPDEST DUP3 DUP2 LT PUSH2 0x2098 JUMPI POP PUSH1 0xF NOT DUP4 AND SWAP1 SWAP3 SUB SWAP2 DUP3 PUSH2 0x2048 JUMPI JUMPDEST POP POP PUSH2 0x1F8C JUMP JUMPDEST PUSH1 0x0 SWAP5 DUP6 SWAP4 JUMPDEST DUP1 DUP8 LT PUSH2 0x2065 JUMPI POP POP PUSH1 0x20 SWAP5 POP ADD SSTORE DUP3 DUP1 DUP1 PUSH2 0x2041 JUMP JUMPDEST SWAP1 SWAP4 PUSH1 0x20 PUSH2 0x208D PUSH1 0x1 SWAP3 PUSH2 0xFFFF DUP9 MLOAD AND SWAP1 DUP11 DUP6 SHL PUSH1 0x3 SHL SWAP2 PUSH2 0xFFFF DUP1 SWAP2 AND DUP4 SHL SWAP3 SHL NOT AND OR SWAP1 JUMP JUMPDEST SWAP6 ADD SWAP7 ADD SWAP6 SWAP1 PUSH2 0x204E JUMP JUMPDEST PUSH1 0x0 DUP1 JUMPDEST PUSH1 0x10 DUP2 LT PUSH2 0x20B1 JUMPI POP DUP3 DUP3 ADD SSTORE PUSH1 0x1 ADD PUSH2 0x202A JUMP JUMPDEST DUP8 MLOAD SWAP1 SWAP8 SWAP2 PUSH1 0x1 SWAP2 PUSH1 0x20 SWAP2 PUSH2 0xFFFF PUSH1 0x4 DUP13 SWAP1 SHL DUP2 DUP2 SHL NOT SWAP1 SWAP3 AND SWAP3 AND SWAP1 SHL OR SWAP3 ADD SWAP8 ADD PUSH2 0x209C JUMP JUMPDEST PUSH2 0x210B SWAP1 DUP6 PUSH1 0x0 MSTORE PUSH1 0xF PUSH1 0x20 PUSH1 0x0 KECCAK256 SWAP2 PUSH1 0x1E DUP7 PUSH1 0x1 SHL AND DUP1 PUSH2 0x2111 JUMPI JUMPDEST POP ADD PUSH1 0x4 SHR DUP2 ADD SWAP1 PUSH1 0xF DUP6 ADD PUSH1 0x4 SHR ADD PUSH2 0x2DF6 JUMP JUMPDEST DUP5 PUSH2 0x2018 JUMP JUMPDEST PUSH1 0x0 NOT SWAP1 DUP2 DUP5 DUP10 ADD PUSH1 0x4 SHR DUP7 ADD ADD SWAP2 DUP3 SLOAD SWAP2 PUSH1 0x20 SUB PUSH1 0x3 SHL SHR AND SWAP1 SSTORE DUP9 PUSH2 0x20F6 JUMP JUMPDEST PUSH1 0x1 PUSH1 0x1 PUSH1 0x40 SHL SUB DUP4 GT PUSH2 0x331 JUMPI PUSH1 0x1 PUSH1 0x40 SHL DUP4 GT PUSH2 0x331 JUMPI PUSH1 0x10 SWAP1 DUP2 DUP4 ADD SLOAD DUP5 DUP4 DUP6 ADD SSTORE DUP1 DUP6 LT PUSH2 0x2198 JUMPI JUMPDEST POP SWAP2 ADD PUSH1 0x0 MSTORE PUSH1 0x20 PUSH1 0x0 KECCAK256 PUSH1 0x0 JUMPDEST DUP4 DUP2 LT PUSH2 0x217B JUMPI POP PUSH2 0x1F82 JUMP JUMPDEST DUP3 MLOAD PUSH1 0x1 PUSH1 0x1 PUSH1 0xA0 SHL SUB AND DUP2 DUP4 ADD SSTORE PUSH1 0x20 SWAP1 SWAP3 ADD SWAP2 PUSH1 0x1 ADD PUSH2 0x216E JUMP JUMPDEST PUSH2 0x21B2 SWAP1 DUP4 DUP6 ADD PUSH1 0x0 MSTORE DUP6 PUSH1 0x20 PUSH1 0x0 KECCAK256 SWAP2 DUP3 ADD SWAP2 ADD PUSH2 0x2DF6 JUMP JUMPDEST DUP8 PUSH2 0x2160 JUMP JUMPDEST PUSH2 0x104 CALLDATALOAD PUSH1 0xB DUP4 ADD SSTORE PUSH2 0x1F7A JUMP JUMPDEST PUSH1 0xE4 CALLDATALOAD PUSH1 0x9 DUP4 ADD SSTORE PUSH2 0x1F71 JUMP JUMPDEST PUSH1 0xC4 CALLDATALOAD PUSH1 0x8 DUP4 ADD SSTORE PUSH2 0x1F69 JUMP JUMPDEST PUSH1 0x0 DUP5 DUP2 MSTORE PUSH1 0x1 PUSH1 0x20 DUP2 SWAP1 MSTORE PUSH1 0x40 SWAP1 SWAP2 KECCAK256 ADD DUP1 SLOAD PUSH1 0x1 PUSH1 0x1 PUSH1 0xA0 SHL SUB NOT AND PUSH1 0x84 CALLDATALOAD PUSH1 0x1 PUSH1 0x1 PUSH1 0xA0 SHL SUB AND OR SWAP1 SSTORE PUSH2 0x1F4A JUMP JUMPDEST DUP4 PUSH1 0x0 MSTORE PUSH1 0x1 PUSH1 0x20 MSTORE PUSH1 0x64 CALLDATALOAD PUSH1 0x6 PUSH1 0x40 PUSH1 0x0 KECCAK256 ADD SSTORE PUSH2 0x1F3A JUMP JUMPDEST PUSH1 0x0 DUP5 DUP2 MSTORE PUSH1 0x1 PUSH1 0x20 MSTORE PUSH1 0x40 SWAP1 KECCAK256 PUSH1 0x5 ADD DUP1 SLOAD PUSH1 0x1 PUSH1 0x1 PUSH1 0xA0 SHL SUB NOT AND PUSH1 0x44 CALLDATALOAD PUSH1 0x1 PUSH1 0x1 PUSH1 0xA0 SHL SUB AND OR SWAP1 SSTORE PUSH2 0x1F32 JUMP JUMPDEST DUP5 PUSH1 0x0 MSTORE PUSH1 0x1 PUSH1 0x20 MSTORE PUSH1 0x3 PUSH1 0x40 PUSH1 0x0 KECCAK256 ADD SWAP1 DUP1 MLOAD SWAP1 PUSH1 0x1 PUSH1 0x1 PUSH1 0x40 SHL SUB DUP3 GT PUSH2 0x331 JUMPI DUP2 SWAP1 PUSH2 0x228C DUP5 SLOAD PUSH2 0x29FD JUMP JUMPDEST PUSH1 0x1F DUP2 GT PUSH2 0x233E JUMPI JUMPDEST POP PUSH1 0x20 SWAP1 PUSH1 0x1F DUP4 GT PUSH1 0x1 EQ PUSH2 0x22D2 JUMPI PUSH1 0x0 SWAP3 PUSH2 0x22C7 JUMPI JUMPDEST POP POP DUP2 PUSH1 0x1 SHL SWAP2 PUSH1 0x0 NOT SWAP1 PUSH1 0x3 SHL SHR NOT AND OR SWAP1 SSTORE JUMPDEST DUP6 PUSH2 0x1F21 JUMP JUMPDEST ADD MLOAD SWAP1 POP DUP9 DUP1 PUSH2 0x22AC JUMP JUMPDEST SWAP3 POP DUP4 PUSH1 0x0 MSTORE PUSH1 0x20 PUSH1 0x0 KECCAK256 SWAP1 PUSH1 0x0 SWAP4 JUMPDEST PUSH1 0x1F NOT DUP5 AND DUP6 LT PUSH2 0x2323 JUMPI PUSH1 0x1 SWAP5 POP DUP4 PUSH1 0x1F NOT DUP2 AND LT PUSH2 0x230A JUMPI JUMPDEST POP POP POP DUP2 SHL ADD SWAP1 SSTORE PUSH2 0x22C1 JUMP JUMPDEST ADD MLOAD PUSH1 0x0 NOT PUSH1 0xF8 DUP5 PUSH1 0x3 SHL AND SHR NOT AND SWAP1 SSTORE DUP9 DUP1 DUP1 PUSH2 0x22FD JUMP JUMPDEST DUP2 DUP2 ADD MLOAD DUP4 SSTORE PUSH1 0x20 SWAP5 DUP6 ADD SWAP5 PUSH1 0x1 SWAP1 SWAP4 ADD SWAP3 SWAP1 SWAP2 ADD SWAP1 PUSH2 0x22E2 JUMP JUMPDEST PUSH2 0x236B SWAP1 DUP6 PUSH1 0x0 MSTORE PUSH1 0x20 PUSH1 0x0 KECCAK256 PUSH1 0x1F DUP6 ADD PUSH1 0x5 SHR DUP2 ADD SWAP2 PUSH1 0x20 DUP7 LT PUSH2 0x2371 JUMPI JUMPDEST PUSH1 0x1F ADD PUSH1 0x5 SHR ADD SWAP1 PUSH2 0x2DF6 JUMP JUMPDEST DUP10 PUSH2 0x2295 JUMP JUMPDEST SWAP1 SWAP2 POP DUP2 SWAP1 PUSH2 0x235E JUMP JUMPDEST DUP6 PUSH1 0x0 MSTORE PUSH1 0x1 PUSH1 0x20 MSTORE PUSH1 0x2 PUSH1 0x40 PUSH1 0x0 KECCAK256 ADD SWAP1 DUP1 MLOAD SWAP1 PUSH1 0x1 PUSH1 0x1 PUSH1 0x40 SHL SUB DUP3 GT PUSH2 0x331 JUMPI DUP2 SWAP1 PUSH2 0x23AA DUP5 SLOAD PUSH2 0x29FD JUMP JUMPDEST PUSH1 0x1F DUP2 GT PUSH2 0x245C JUMPI JUMPDEST POP PUSH1 0x20 SWAP1 PUSH1 0x1F DUP4 GT PUSH1 0x1 EQ PUSH2 0x23F0 JUMPI PUSH1 0x0 SWAP3 PUSH2 0x23E5 JUMPI JUMPDEST POP POP DUP2 PUSH1 0x1 SHL SWAP2 PUSH1 0x0 NOT SWAP1 PUSH1 0x3 SHL SHR NOT AND OR SWAP1 SSTORE JUMPDEST DUP7 PUSH2 0x1F12 JUMP JUMPDEST ADD MLOAD SWAP1 POP DUP10 DUP1 PUSH2 0x23CA JUMP JUMPDEST SWAP3 POP DUP4 PUSH1 0x0 MSTORE PUSH1 0x20 PUSH1 0x0 KECCAK256 SWAP1 PUSH1 0x0 SWAP4 JUMPDEST PUSH1 0x1F NOT DUP5 AND DUP6 LT PUSH2 0x2441 JUMPI PUSH1 0x1 SWAP5 POP DUP4 PUSH1 0x1F NOT DUP2 AND LT PUSH2 0x2428 JUMPI JUMPDEST POP POP POP DUP2 SHL ADD SWAP1 SSTORE PUSH2 0x23DF JUMP JUMPDEST ADD MLOAD PUSH1 0x0 NOT PUSH1 0xF8 DUP5 PUSH1 0x3 SHL AND SHR NOT AND SWAP1 SSTORE DUP10 DUP1 DUP1 PUSH2 0x241B JUMP JUMPDEST DUP2 DUP2 ADD MLOAD DUP4 SSTORE PUSH1 0x20 SWAP5 DUP6 ADD SWAP5 PUSH1 0x1 SWAP1 SWAP4 ADD SWAP3 SWAP1 SWAP2 ADD SWAP1 PUSH2 0x2400 JUMP JUMPDEST PUSH2 0x2488 SWAP1 DUP6 PUSH1 0x0 MSTORE PUSH1 0x20 PUSH1 0x0 KECCAK256 PUSH1 0x1F DUP6 ADD PUSH1 0x5 SHR DUP2 ADD SWAP2 PUSH1 0x20 DUP7 LT PUSH2 0x2371 JUMPI PUSH1 0x1F ADD PUSH1 0x5 SHR ADD SWAP1 PUSH2 0x2DF6 JUMP JUMPDEST DUP11 PUSH2 0x23B3 JUMP JUMPDEST PUSH1 0x0 DUP7 DUP2 MSTORE PUSH1 0x1 PUSH1 0x20 MSTORE PUSH1 0x40 SWAP1 KECCAK256 DUP1 SLOAD PUSH1 0x1 PUSH1 0x1 PUSH1 0xA0 SHL SUB NOT AND DUP8 OR SWAP1 SSTORE PUSH1 0x2 SLOAD PUSH1 0x1 PUSH1 0x40 SHL DUP2 LT ISZERO PUSH2 0x331 JUMPI DUP7 PUSH2 0x2A9 DUP3 PUSH1 0x1 PUSH2 0x24CF SWAP5 ADD PUSH1 0x2 SSTORE PUSH2 0x2B1C JUMP JUMPDEST PUSH2 0x1F04 JUMP JUMPDEST SWAP3 PUSH1 0x0 SWAP4 PUSH1 0x0 JUMPDEST DUP2 DUP5 SUB DUP2 LT PUSH2 0x24F5 JUMPI POP POP POP PUSH1 0x4 SHR ADD SSTORE DUP8 DUP1 DUP1 DUP1 PUSH2 0x1EF2 JUMP JUMPDEST SWAP1 SWAP2 SWAP5 PUSH1 0x20 PUSH2 0x251E PUSH1 0x1 SWAP3 PUSH2 0xFFFF DUP10 MLOAD AND SWAP1 DUP6 DUP6 SHL PUSH1 0x3 SHL SWAP2 PUSH2 0xFFFF DUP1 SWAP2 AND DUP4 SHL SWAP3 SHL NOT AND OR SWAP1 JUMP JUMPDEST SWAP7 ADD SWAP3 SWAP2 ADD PUSH2 0x24DB JUMP JUMPDEST PUSH1 0x0 DUP1 JUMPDEST PUSH1 0x10 DUP2 LT PUSH2 0x2541 JUMPI POP DUP4 DUP3 ADD SSTORE PUSH1 0x1 ADD PUSH2 0x1EDA JUMP JUMPDEST DUP6 MLOAD SWAP1 SWAP6 SWAP2 PUSH1 0x1 SWAP2 PUSH1 0x20 SWAP2 PUSH2 0xFFFF PUSH1 0x4 DUP11 SWAP1 SHL DUP2 DUP2 SHL NOT SWAP1 SWAP3 AND SWAP3 AND SWAP1 SHL OR SWAP3 ADD SWAP6 ADD PUSH2 0x252C JUMP JUMPDEST PUSH2 0x259C SWAP1 DUP5 DUP8 ADD PUSH1 0x0 MSTORE PUSH1 0xF DUP5 PUSH1 0x0 KECCAK256 SWAP2 PUSH1 0x1E DUP9 PUSH1 0x1 SHL AND DUP1 PUSH2 0x25A2 JUMPI JUMPDEST POP ADD PUSH1 0x4 SHR DUP2 ADD SWAP1 PUSH1 0xF DUP8 ADD PUSH1 0x4 SHR ADD PUSH2 0x2DF6 JUMP JUMPDEST DUP13 PUSH2 0x1ECA JUMP JUMPDEST PUSH1 0x0 NOT SWAP1 DUP2 DUP5 DUP12 ADD PUSH1 0x4 SHR DUP7 ADD ADD SWAP2 DUP3 SLOAD SWAP2 DUP10 SUB PUSH1 0x3 SHL SHR AND SWAP1 SSTORE CODESIZE PUSH2 0x2587 JUMP JUMPDEST DUP3 MLOAD PUSH1 0x1 PUSH1 0x1 PUSH1 0xA0 SHL SUB AND DUP2 DUP4 ADD SSTORE PUSH1 0x20 SWAP1 SWAP3 ADD SWAP2 PUSH1 0x1 ADD PUSH2 0x1E88 JUMP JUMPDEST PUSH2 0x25FA SWAP1 PUSH1 0x10 DUP8 ADD PUSH1 0x0 MSTORE DUP5 DUP5 PUSH1 0x0 KECCAK256 SWAP2 DUP3 ADD SWAP2 ADD PUSH2 0x2DF6 JUMP JUMPDEST DUP13 PUSH2 0x1E77 JUMP JUMPDEST ADD MLOAD SWAP1 POP DUP12 DUP1 PUSH2 0x1D74 JUMP JUMPDEST SWAP3 POP PUSH1 0x3 DUP6 ADD PUSH1 0x0 MSTORE PUSH1 0x20 PUSH1 0x0 KECCAK256 SWAP1 PUSH1 0x0 SWAP4 JUMPDEST PUSH1 0x1F NOT DUP5 AND DUP6 LT PUSH2 0x2662 JUMPI PUSH1 0x1 SWAP5 POP DUP4 PUSH1 0x1F NOT DUP2 AND LT PUSH2 0x2649 JUMPI JUMPDEST POP POP POP DUP2 SHL ADD PUSH1 0x3 DUP4 ADD SSTORE PUSH2 0x1D8C JUMP JUMPDEST ADD MLOAD PUSH1 0x0 NOT PUSH1 0xF8 DUP5 PUSH1 0x3 SHL AND SHR NOT AND SWAP1 SSTORE DUP12 DUP1 DUP1 PUSH2 0x2639 JUMP JUMPDEST DUP2 DUP2 ADD MLOAD DUP4 SSTORE PUSH1 0x20 SWAP5 DUP6 ADD SWAP5 PUSH1 0x1 SWAP1 SWAP4 ADD SWAP3 SWAP1 SWAP2 ADD SWAP1 PUSH2 0x261E JUMP JUMPDEST PUSH2 0x26AC SWAP1 PUSH1 0x3 DUP8 ADD PUSH1 0x0 MSTORE PUSH1 0x20 PUSH1 0x0 KECCAK256 PUSH1 0x1F DUP6 ADD PUSH1 0x5 SHR DUP2 ADD SWAP2 PUSH1 0x20 DUP7 LT PUSH2 0x2371 JUMPI PUSH1 0x1F ADD PUSH1 0x5 SHR ADD SWAP1 PUSH2 0x2DF6 JUMP JUMPDEST DUP13 PUSH2 0x1D5D JUMP JUMPDEST ADD MLOAD SWAP1 POP DUP12 DUP1 PUSH2 0x1D17 JUMP JUMPDEST SWAP3 POP PUSH1 0x2 DUP6 ADD PUSH1 0x0 MSTORE PUSH1 0x20 PUSH1 0x0 KECCAK256 SWAP1 PUSH1 0x0 SWAP4 JUMPDEST PUSH1 0x1F NOT DUP5 AND DUP6 LT PUSH2 0x2714 JUMPI PUSH1 0x1 SWAP5 POP DUP4 PUSH1 0x1F NOT DUP2 AND LT PUSH2 0x26FB JUMPI JUMPDEST POP POP POP DUP2 SHL ADD PUSH1 0x2 DUP4 ADD SSTORE PUSH2 0x1D2F JUMP JUMPDEST ADD MLOAD PUSH1 0x0 NOT PUSH1 0xF8 DUP5 PUSH1 0x3 SHL AND SHR NOT AND SWAP1 SSTORE DUP12 DUP1 DUP1 PUSH2 0x26EB JUMP JUMPDEST DUP2 DUP2 ADD MLOAD DUP4 SSTORE PUSH1 0x20 SWAP5 DUP6 ADD SWAP5 PUSH1 0x1 SWAP1 SWAP4 ADD SWAP3 SWAP1 SWAP2 ADD SWAP1 PUSH2 0x26D0 JUMP JUMPDEST PUSH2 0x275E SWAP1 PUSH1 0x2 DUP8 ADD PUSH1 0x0 MSTORE PUSH1 0x20 PUSH1 0x0 KECCAK256 PUSH1 0x1F DUP6 ADD PUSH1 0x5 SHR DUP2 ADD SWAP2 PUSH1 0x20 DUP7 LT PUSH2 0x2371 JUMPI PUSH1 0x1F ADD PUSH1 0x5 SHR ADD SWAP1 PUSH2 0x2DF6 JUMP JUMPDEST DUP13 PUSH2 0x1D00 JUMP JUMPDEST PUSH1 0x40 MLOAD PUSH3 0x461BCD PUSH1 0xE5 SHL DUP2 MSTORE PUSH1 0x20 PUSH1 0x4 DUP3 ADD MSTORE PUSH1 0x29 PUSH1 0x24 DUP3 ADD MSTORE PUSH32 0x52656365697665727320616E642070657263656E7461676573206C656E677468 PUSH1 0x44 DUP3 ADD MSTORE PUSH9 0x40DAD2E6DAC2E8C6D PUSH1 0xBB SHL PUSH1 0x64 DUP3 ADD MSTORE PUSH1 0x84 SWAP1 REVERT JUMPDEST PUSH1 0x40 MLOAD PUSH3 0x461BCD PUSH1 0xE5 SHL DUP2 MSTORE PUSH1 0x20 PUSH1 0x4 DUP3 ADD MSTORE PUSH1 0x24 DUP1 DUP3 ADD MSTORE PUSH32 0x4F6E6C79204E4654206F776E65722063616E2063726561746520616E20617563 PUSH1 0x44 DUP3 ADD MSTORE PUSH4 0x3A34B7B7 PUSH1 0xE1 SHL PUSH1 0x64 DUP3 ADD MSTORE PUSH1 0x84 SWAP1 REVERT JUMPDEST PUSH2 0x2825 SWAP2 POP PUSH1 0x20 RETURNDATASIZE PUSH1 0x20 GT PUSH2 0x1549 JUMPI PUSH2 0x153B DUP2 DUP4 PUSH2 0x296F JUMP JUMPDEST DUP8 PUSH2 0x1A7A JUMP JUMPDEST PUSH2 0xFFFF DUP3 CALLDATALOAD AND DUP3 CALLDATALOAD SUB PUSH2 0x1B1 JUMPI DUP2 CALLDATALOAD DUP2 MSTORE PUSH1 0x20 SWAP2 DUP3 ADD SWAP2 ADD PUSH2 0x1A27 JUMP JUMPDEST DUP2 CALLDATALOAD PUSH1 0x1 PUSH1 0x1 PUSH1 0xA0 SHL SUB DUP2 AND SWAP1 SUB PUSH2 0x1B1 JUMPI DUP2 CALLDATALOAD DUP2 MSTORE PUSH1 0x20 SWAP2 DUP3 ADD SWAP2 ADD PUSH2 0x199D JUMP JUMPDEST PUSH1 0x20 CALLDATASIZE PUSH1 0x3 NOT ADD SLT PUSH2 0x1B1 JUMPI PUSH2 0x287E PUSH2 0x290C JUMP JUMPDEST PUSH2 0x2889 CALLVALUE ISZERO ISZERO PUSH2 0x2CF9 JUMP JUMPDEST PUSH1 0x1 PUSH1 0x1 PUSH1 0xA0 SHL SUB AND PUSH1 0x0 DUP2 DUP2 MSTORE PUSH1 0x1 PUSH1 0x20 MSTORE PUSH1 0x40 SWAP1 KECCAK256 PUSH1 0xF ADD DUP1 SLOAD PUSH2 0x28B0 SWAP1 CALLVALUE SWAP1 PUSH2 0x2D51 JUMP JUMPDEST SWAP1 SSTORE PUSH1 0x40 MLOAD CALLVALUE DUP2 MSTORE TIMESTAMP PUSH1 0x20 DUP3 ADD MSTORE PUSH32 0x106AAC375BBCF013D1E52338BBF9E740009A1A3A6869F8DAA1B72AA1620F5FEC PUSH1 0x40 CALLER SWAP3 LOG2 PUSH1 0x0 MSTORE PUSH1 0x4 PUSH1 0x20 MSTORE PUSH1 0x40 PUSH1 0x0 KECCAK256 CALLER PUSH1 0x0 MSTORE PUSH1 0x20 MSTORE PUSH1 0x40 PUSH1 0x0 KECCAK256 PUSH2 0x2908 CALLVALUE DUP3 SLOAD PUSH2 0x2D51 JUMP JUMPDEST SWAP1 SSTORE STOP JUMPDEST PUSH1 0x4 CALLDATALOAD SWAP1 PUSH1 0x1 PUSH1 0x1 PUSH1 0xA0 SHL SUB DUP3 AND DUP3 SUB PUSH2 0x1B1 JUMPI JUMP JUMPDEST PUSH1 0x24 CALLDATALOAD SWAP1 PUSH1 0x1 PUSH1 0x1 PUSH1 0xA0 SHL SUB DUP3 AND DUP3 SUB PUSH2 0x1B1 JUMPI JUMP JUMPDEST PUSH2 0x240 DUP2 ADD SWAP1 DUP2 LT PUSH1 0x1 PUSH1 0x1 PUSH1 0x40 SHL SUB DUP3 GT OR PUSH2 0x331 JUMPI PUSH1 0x40 MSTORE JUMP JUMPDEST PUSH1 0x40 DUP2 ADD SWAP1 DUP2 LT PUSH1 0x1 PUSH1 0x1 PUSH1 0x40 SHL SUB DUP3 GT OR PUSH2 0x331 JUMPI PUSH1 0x40 MSTORE JUMP JUMPDEST SWAP1 PUSH1 0x1F DUP1 NOT SWAP2 ADD AND DUP2 ADD SWAP1 DUP2 LT PUSH1 0x1 PUSH1 0x1 PUSH1 0x40 SHL SUB DUP3 GT OR PUSH2 0x331 JUMPI PUSH1 0x40 MSTORE JUMP JUMPDEST DUP2 PUSH1 0x1F DUP3 ADD SLT ISZERO PUSH2 0x1B1 JUMPI DUP1 CALLDATALOAD SWAP1 PUSH1 0x1 PUSH1 0x1 PUSH1 0x40 SHL SUB DUP3 GT PUSH2 0x331 JUMPI PUSH1 0x40 MLOAD SWAP3 PUSH2 0x29C4 PUSH1 0x1F DUP5 ADD PUSH1 0x1F NOT AND PUSH1 0x20 ADD DUP6 PUSH2 0x296F JUMP JUMPDEST DUP3 DUP5 MSTORE PUSH1 0x20 DUP4 DUP4 ADD ADD GT PUSH2 0x1B1 JUMPI DUP2 PUSH1 0x0 SWAP3 PUSH1 0x20 DUP1 SWAP4 ADD DUP4 DUP7 ADD CALLDATACOPY DUP4 ADD ADD MSTORE SWAP1 JUMP JUMPDEST PUSH1 0x1 PUSH1 0x1 PUSH1 0x40 SHL SUB DUP2 GT PUSH2 0x331 JUMPI PUSH1 0x5 SHL PUSH1 0x20 ADD SWAP1 JUMP JUMPDEST SWAP1 PUSH1 0x1 DUP3 DUP2 SHR SWAP3 AND DUP1 ISZERO PUSH2 0x2A2D JUMPI JUMPDEST PUSH1 0x20 DUP4 LT EQ PUSH2 0x2A17 JUMPI JUMP JUMPDEST PUSH4 0x4E487B71 PUSH1 0xE0 SHL PUSH1 0x0 MSTORE PUSH1 0x22 PUSH1 0x4 MSTORE PUSH1 0x24 PUSH1 0x0 REVERT JUMPDEST SWAP2 PUSH1 0x7F AND SWAP2 PUSH2 0x2A0C JUMP JUMPDEST SWAP1 PUSH1 0x40 MLOAD SWAP2 DUP3 PUSH1 0x0 DUP3 SLOAD PUSH2 0x2A4A DUP2 PUSH2 0x29FD JUMP JUMPDEST SWAP1 DUP2 DUP5 MSTORE PUSH1 0x20 SWAP5 PUSH1 0x1 SWAP2 PUSH1 0x1 DUP2 AND SWAP1 DUP2 PUSH1 0x0 EQ PUSH2 0x2ABA JUMPI POP PUSH1 0x1 EQ PUSH2 0x2A7B JUMPI JUMPDEST POP POP POP PUSH2 0x2A79 SWAP3 POP SUB DUP4 PUSH2 0x296F JUMP JUMPDEST JUMP JUMPDEST PUSH1 0x0 SWAP1 DUP2 MSTORE DUP6 DUP2 KECCAK256 SWAP6 SWAP4 POP SWAP2 SWAP1 JUMPDEST DUP2 DUP4 LT PUSH2 0x2AA2 JUMPI POP POP PUSH2 0x2A79 SWAP4 POP DUP3 ADD ADD CODESIZE DUP1 DUP1 PUSH2 0x2A6A JUMP JUMPDEST DUP6 SLOAD DUP9 DUP5 ADD DUP6 ADD MSTORE SWAP5 DUP6 ADD SWAP5 DUP8 SWAP5 POP SWAP2 DUP4 ADD SWAP2 PUSH2 0x2A89 JUMP JUMPDEST SWAP3 POP POP POP PUSH2 0x2A79 SWAP5 SWAP3 POP PUSH1 0xFF NOT AND DUP3 DUP5 ADD MSTORE ISZERO ISZERO PUSH1 0x5 SHL DUP3 ADD ADD CODESIZE DUP1 DUP1 PUSH2 0x2A6A JUMP JUMPDEST SWAP2 SWAP1 DUP3 MLOAD SWAP3 DUP4 DUP3 MSTORE PUSH1 0x0 JUMPDEST DUP5 DUP2 LT PUSH2 0x2B08 JUMPI POP POP DUP3 PUSH1 0x0 PUSH1 0x20 DUP1 SWAP5 SWAP6 DUP5 ADD ADD MSTORE PUSH1 0x1F DUP1 NOT SWAP2 ADD AND ADD ADD SWAP1 JUMP JUMPDEST PUSH1 0x20 DUP2 DUP4 ADD DUP2 ADD MLOAD DUP5 DUP4 ADD DUP3 ADD MSTORE ADD PUSH2 0x2AE7 JUMP JUMPDEST PUSH1 0x2 SLOAD DUP2 LT ISZERO PUSH2 0x2B53 JUMPI PUSH1 0x2 PUSH1 0x0 MSTORE PUSH32 0x405787FA12A823E0F2B7631CC41B3BA8828B3321CA811111FA75CD3AA3BB5ACE ADD SWAP1 PUSH1 0x0 SWAP1 JUMP JUMPDEST PUSH4 0x4E487B71 PUSH1 0xE0 SHL PUSH1 0x0 MSTORE PUSH1 0x32 PUSH1 0x4 MSTORE PUSH1 0x24 PUSH1 0x0 REVERT JUMPDEST DUP1 SLOAD DUP3 LT ISZERO PUSH2 0x2B53 JUMPI PUSH1 0x0 MSTORE PUSH1 0x20 PUSH1 0x0 KECCAK256 ADD SWAP1 PUSH1 0x0 SWAP1 JUMP JUMPDEST SWAP1 DUP2 MLOAD DUP1 DUP3 MSTORE PUSH1 0x20 DUP1 DUP1 SWAP4 ADD SWAP4 ADD SWAP2 PUSH1 0x0 JUMPDEST DUP3 DUP2 LT PUSH2 0x2BA1 JUMPI POP POP POP POP SWAP1 JUMP JUMPDEST DUP4 MLOAD PUSH1 0x1 PUSH1 0x1 PUSH1 0xA0 SHL SUB AND DUP6 MSTORE SWAP4 DUP2 ADD SWAP4 SWAP3 DUP2 ADD SWAP3 PUSH1 0x1 ADD PUSH2 0x2B93 JUMP JUMPDEST SWAP1 DUP2 MLOAD DUP1 DUP3 MSTORE PUSH1 0x20 DUP1 DUP1 SWAP4 ADD SWAP4 ADD SWAP2 PUSH1 0x0 JUMPDEST DUP3 DUP2 LT PUSH2 0x2BDE JUMPI POP POP POP POP SWAP1 JUMP JUMPDEST DUP4 MLOAD PUSH2 0xFFFF AND DUP6 MSTORE SWAP4 DUP2 ADD SWAP4 SWAP3 DUP2 ADD SWAP3 PUSH1 0x1 ADD PUSH2 0x2BD0 JUMP JUMPDEST SWAP1 PUSH2 0x2CF6 SWAP2 PUSH2 0x2CE2 PUSH2 0x240 PUSH2 0x2C47 PUSH2 0x2C35 PUSH1 0x1 DUP1 PUSH1 0xA0 SHL SUB SWAP3 DUP4 DUP7 MLOAD AND DUP8 MSTORE DUP4 PUSH1 0x20 DUP8 ADD MLOAD AND PUSH1 0x20 DUP9 ADD MSTORE PUSH1 0x40 DUP7 ADD MLOAD SWAP1 DUP1 PUSH1 0x40 DUP10 ADD MSTORE DUP8 ADD SWAP1 PUSH2 0x2ADC JUMP JUMPDEST PUSH1 0x60 DUP6 ADD MLOAD DUP7 DUP3 SUB PUSH1 0x60 DUP9 ADD MSTORE PUSH2 0x2ADC JUMP JUMPDEST SWAP1 DUP1 PUSH1 0x80 DUP6 ADD MLOAD AND PUSH1 0x80 DUP7 ADD MSTORE DUP1 PUSH1 0xA0 DUP6 ADD MLOAD AND PUSH1 0xA0 DUP7 ADD MSTORE PUSH1 0xC0 DUP5 ADD MLOAD PUSH1 0xC0 DUP7 ADD MSTORE PUSH1 0xE0 DUP5 ADD MLOAD PUSH1 0xE0 DUP7 ADD MSTORE PUSH2 0x100 DUP1 DUP6 ADD MLOAD SWAP1 DUP7 ADD MSTORE PUSH2 0x120 DUP1 DUP6 ADD MLOAD SWAP1 DUP7 ADD MSTORE PUSH2 0x140 DUP1 DUP6 ADD MLOAD SWAP1 DUP7 ADD MSTORE PUSH2 0x160 DUP1 DUP6 ADD MLOAD SWAP1 DUP7 ADD MSTORE PUSH2 0x180 DUP1 DUP6 ADD MLOAD SWAP1 DUP7 ADD MSTORE PUSH2 0x1A0 DUP1 DUP6 ADD MLOAD SWAP1 DUP7 ADD MSTORE PUSH2 0x1C0 SWAP1 DUP2 DUP6 ADD MLOAD AND SWAP1 DUP6 ADD MSTORE PUSH2 0x1E0 DUP1 DUP5 ADD MLOAD SWAP1 DUP6 ADD MSTORE PUSH2 0x200 DUP1 DUP5 ADD MLOAD SWAP1 DUP6 DUP4 SUB SWAP1 DUP7 ADD MSTORE PUSH2 0x2B81 JUMP JUMPDEST SWAP2 PUSH2 0x220 DUP1 SWAP3 ADD MLOAD SWAP2 DUP2 DUP5 SUB SWAP2 ADD MSTORE PUSH2 0x2BBE JUMP JUMPDEST SWAP1 JUMP JUMPDEST ISZERO PUSH2 0x2D00 JUMPI JUMP JUMPDEST PUSH1 0x40 MLOAD PUSH3 0x461BCD PUSH1 0xE5 SHL DUP2 MSTORE PUSH1 0x20 PUSH1 0x4 DUP3 ADD MSTORE PUSH1 0x24 DUP1 DUP3 ADD MSTORE PUSH32 0x5468652076616C75652073656E74206973206E6F742067726561746572207468 PUSH1 0x44 DUP3 ADD MSTORE PUSH4 0x616E203 PUSH1 0xE4 SHL PUSH1 0x64 DUP3 ADD MSTORE PUSH1 0x84 SWAP1 REVERT JUMPDEST SWAP2 SWAP1 DUP3 ADD DUP1 SWAP3 GT PUSH2 0xC86 JUMPI JUMP JUMPDEST SWAP1 DUP2 PUSH1 0x20 SWAP2 SUB SLT PUSH2 0x1B1 JUMPI MLOAD PUSH1 0x1 PUSH1 0x1 PUSH1 0xA0 SHL SUB DUP2 AND DUP2 SUB PUSH2 0x1B1 JUMPI SWAP1 JUMP JUMPDEST DUP1 MLOAD ISZERO PUSH2 0x2B53 JUMPI PUSH1 0x20 ADD SWAP1 JUMP JUMPDEST DUP1 MLOAD DUP3 LT ISZERO PUSH2 0x2B53 JUMPI PUSH1 0x20 SWAP2 PUSH1 0x5 SHL ADD ADD SWAP1 JUMP JUMPDEST ISZERO PUSH2 0x2DA5 JUMPI JUMP JUMPDEST PUSH1 0x40 MLOAD PUSH3 0x461BCD PUSH1 0xE5 SHL DUP2 MSTORE PUSH1 0x20 PUSH1 0x4 DUP3 ADD MSTORE PUSH1 0x24 DUP1 DUP3 ADD MSTORE PUSH32 0x50657263656E74616765206D757374206265206265747765656E203120616E64 PUSH1 0x44 DUP3 ADD MSTORE PUSH4 0x2031303 PUSH1 0xE4 SHL PUSH1 0x64 DUP3 ADD MSTORE PUSH1 0x84 SWAP1 REVERT JUMPDEST DUP2 DUP2 LT PUSH2 0x2E01 JUMPI POP POP JUMP JUMPDEST PUSH1 0x0 DUP2 SSTORE PUSH1 0x1 ADD PUSH2 0x2DF6 JUMP JUMPDEST DUP2 DUP2 MUL SWAP3 SWAP2 DUP2 ISZERO SWAP2 DUP5 DIV EQ OR ISZERO PUSH2 0xC86 JUMPI JUMP JUMPDEST ISZERO PUSH2 0x2E27 JUMPI JUMP JUMPDEST PUSH1 0x40 MLOAD PUSH3 0x461BCD PUSH1 0xE5 SHL DUP2 MSTORE PUSH1 0x20 PUSH1 0x4 DUP3 ADD MSTORE PUSH1 0x2A PUSH1 0x24 DUP3 ADD MSTORE PUSH32 0x4F6E6C792061756374696F6E206F776E65722063616E20706572666F726D2074 PUSH1 0x44 DUP3 ADD MSTORE PUSH10 0x3434B99030B1BA34B7B7 PUSH1 0xB1 SHL PUSH1 0x64 DUP3 ADD MSTORE PUSH1 0x84 SWAP1 REVERT JUMPDEST SWAP2 SWAP1 SWAP2 DUP1 SLOAD DUP4 LT ISZERO PUSH2 0x2B53 JUMPI PUSH1 0x0 MSTORE PUSH1 0x1E PUSH1 0x20 PUSH1 0x0 KECCAK256 DUP4 PUSH1 0x4 SHR ADD SWAP3 PUSH1 0x1 SHL AND SWAP1 JUMP JUMPDEST ISZERO PUSH2 0x2EA9 JUMPI JUMP JUMPDEST PUSH1 0x40 MLOAD PUSH3 0x461BCD PUSH1 0xE5 SHL DUP2 MSTORE PUSH1 0x20 PUSH1 0x4 DUP3 ADD MSTORE PUSH1 0x16 PUSH1 0x24 DUP3 ADD MSTORE PUSH22 0x41756374696F6E206973206E6F74206F6E676F696E67 PUSH1 0x50 SHL PUSH1 0x44 DUP3 ADD MSTORE PUSH1 0x64 SWAP1 REVERT JUMPDEST ISZERO PUSH2 0x2EEE JUMPI JUMP JUMPDEST PUSH1 0x40 MLOAD PUSH3 0x461BCD PUSH1 0xE5 SHL DUP2 MSTORE PUSH1 0x20 PUSH1 0x4 DUP3 ADD MSTORE PUSH1 0x19 PUSH1 0x24 DUP3 ADD MSTORE PUSH32 0x546865207265636569766572206973206E6F7420616464656400000000000000 PUSH1 0x44 DUP3 ADD MSTORE PUSH1 0x64 SWAP1 REVERT JUMPDEST PUSH1 0x40 MLOAD SWAP1 PUSH2 0x2F40 DUP3 PUSH2 0x2938 JUMP JUMPDEST PUSH1 0x60 PUSH2 0x220 DUP4 PUSH1 0x0 DUP1 DUP3 MSTORE DUP1 PUSH1 0x20 DUP4 ADD MSTORE DUP4 PUSH1 0x40 DUP4 ADD MSTORE DUP4 DUP1 DUP4 ADD MSTORE DUP1 PUSH1 0x80 DUP4 ADD MSTORE DUP1 PUSH1 0xA0 DUP4 ADD MSTORE DUP1 PUSH1 0xC0 DUP4 ADD MSTORE DUP1 PUSH1 0xE0 DUP4 ADD MSTORE DUP1 PUSH2 0x100 DUP4 ADD MSTORE DUP1 PUSH2 0x120 DUP4 ADD MSTORE DUP1 PUSH2 0x140 DUP4 ADD MSTORE DUP1 PUSH2 0x160 DUP4 ADD MSTORE DUP1 PUSH2 0x180 DUP4 ADD MSTORE DUP1 PUSH2 0x1A0 DUP4 ADD MSTORE DUP1 PUSH2 0x1C0 DUP4 ADD MSTORE PUSH2 0x1E0 DUP3 ADD MSTORE DUP3 PUSH2 0x200 DUP3 ADD MSTORE ADD MSTORE JUMP JUMPDEST SWAP1 PUSH1 0x40 MLOAD SWAP2 DUP3 DUP2 SLOAD SWAP2 DUP3 DUP3 MSTORE PUSH1 0x20 SWAP3 PUSH1 0x20 DUP4 ADD SWAP2 PUSH1 0x0 MSTORE PUSH1 0x20 PUSH1 0x0 KECCAK256 SWAP4 PUSH1 0x0 SWAP1 JUMPDEST DUP3 DUP3 LT PUSH2 0x2FED JUMPI POP POP POP PUSH2 0x2A79 SWAP3 POP SUB DUP4 PUSH2 0x296F JUMP JUMPDEST DUP6 SLOAD PUSH1 0x1 PUSH1 0x1 PUSH1 0xA0 SHL SUB AND DUP5 MSTORE PUSH1 0x1 SWAP6 DUP7 ADD SWAP6 DUP9 SWAP6 POP SWAP4 DUP2 ADD SWAP4 SWAP1 SWAP2 ADD SWAP1 PUSH2 0x2FD7 JUMP JUMPDEST SWAP1 PUSH1 0x40 SWAP2 PUSH1 0x40 MLOAD DUP1 SWAP4 DUP3 SLOAD SWAP3 DUP4 DUP4 MSTORE PUSH1 0x20 SWAP2 DUP3 DUP5 ADD SWAP2 PUSH1 0x0 MSTORE DUP3 PUSH1 0x0 KECCAK256 SWAP5 PUSH1 0x0 SWAP2 JUMPDEST DUP2 PUSH1 0xF DUP5 ADD LT PUSH2 0x322F JUMPI POP PUSH2 0x2A79 SWAP6 SLOAD SWAP2 DUP5 DUP3 DUP3 LT PUSH2 0x321B JUMPI JUMPDEST DUP3 DUP3 LT PUSH2 0x3204 JUMPI JUMPDEST DUP3 DUP3 LT PUSH2 0x31EE JUMPI JUMPDEST DUP3 DUP3 LT PUSH2 0x31D7 JUMPI JUMPDEST DUP3 DUP3 LT PUSH2 0x31C0 JUMPI JUMPDEST DUP3 DUP3 LT PUSH2 0x31A9 JUMPI JUMPDEST DUP3 DUP3 LT PUSH2 0x3192 JUMPI JUMPDEST DUP3 DUP3 LT PUSH2 0x317B JUMPI JUMPDEST DUP3 DUP3 LT PUSH2 0x3164 JUMPI JUMPDEST DUP3 DUP3 LT PUSH2 0x314D JUMPI JUMPDEST DUP3 DUP3 LT PUSH2 0x3136 JUMPI JUMPDEST DUP3 DUP3 LT PUSH2 0x311F JUMPI JUMPDEST DUP3 DUP3 LT PUSH2 0x3108 JUMPI JUMPDEST DUP3 DUP3 LT PUSH2 0x30F1 JUMPI JUMPDEST DUP3 DUP3 LT PUSH2 0x30DA JUMPI JUMPDEST POP LT PUSH2 0x30CD JUMPI JUMPDEST POP SWAP1 POP SUB DUP4 PUSH2 0x296F JUMP JUMPDEST PUSH1 0xF0 SHR DUP2 MSTORE ADD DUP1 CODESIZE PUSH2 0x30C3 JUMP JUMPDEST PUSH1 0x1 SWAP2 SWAP5 PUSH2 0xFFFF DUP6 PUSH1 0xE0 SHR AND DUP2 MSTORE ADD SWAP4 ADD DUP5 PUSH2 0x30BC JUMP JUMPDEST PUSH1 0x1 SWAP2 SWAP5 PUSH2 0xFFFF DUP6 PUSH1 0xD0 SHR AND DUP2 MSTORE ADD SWAP4 ADD DUP5 PUSH2 0x30B4 JUMP JUMPDEST PUSH1 0x1 SWAP2 SWAP5 PUSH2 0xFFFF DUP6 PUSH1 0xC0 SHR AND DUP2 MSTORE ADD SWAP4 ADD DUP5 PUSH2 0x30AC JUMP JUMPDEST PUSH1 0x1 SWAP2 SWAP5 PUSH2 0xFFFF DUP6 PUSH1 0xB0 SHR AND DUP2 MSTORE ADD SWAP4 ADD DUP5 PUSH2 0x30A4 JUMP JUMPDEST PUSH1 0x1 SWAP2 SWAP5 PUSH2 0xFFFF DUP6 PUSH1 0xA0 SHR AND DUP2 MSTORE ADD SWAP4 ADD DUP5 PUSH2 0x309C JUMP JUMPDEST PUSH1 0x1 SWAP2 SWAP5 PUSH2 0xFFFF DUP6 PUSH1 0x90 SHR AND DUP2 MSTORE ADD SWAP4 ADD DUP5 PUSH2 0x3094 JUMP JUMPDEST PUSH1 0x1 SWAP2 SWAP5 PUSH2 0xFFFF DUP6 PUSH1 0x80 SHR AND DUP2 MSTORE ADD SWAP4 ADD DUP5 PUSH2 0x308C JUMP JUMPDEST PUSH1 0x1 SWAP2 SWAP5 PUSH2 0xFFFF DUP6 PUSH1 0x70 SHR AND DUP2 MSTORE ADD SWAP4 ADD DUP5 PUSH2 0x3084 JUMP JUMPDEST PUSH1 0x1 SWAP2 SWAP5 PUSH2 0xFFFF DUP6 PUSH1 0x60 SHR AND DUP2 MSTORE ADD SWAP4 ADD DUP5 PUSH2 0x307C JUMP JUMPDEST PUSH1 0x1 SWAP2 SWAP5 PUSH2 0xFFFF DUP6 PUSH1 0x50 SHR AND DUP2 MSTORE ADD SWAP4 ADD DUP5 PUSH2 0x3074 JUMP JUMPDEST PUSH1 0x1 SWAP2 SWAP5 PUSH2 0xFFFF DUP6 PUSH1 0x40 SHR AND DUP2 MSTORE ADD SWAP4 ADD DUP5 PUSH2 0x306C JUMP JUMPDEST PUSH1 0x1 SWAP2 SWAP5 PUSH2 0xFFFF DUP6 PUSH1 0x30 SHR AND DUP2 MSTORE ADD SWAP4 ADD DUP5 PUSH2 0x3064 JUMP JUMPDEST PUSH1 0x1 SWAP2 SWAP5 PUSH2 0xFFFF DUP6 DUP4 SHR AND DUP2 MSTORE ADD SWAP4 ADD DUP5 PUSH2 0x305C JUMP JUMPDEST PUSH1 0x1 SWAP2 SWAP5 PUSH2 0xFFFF DUP6 PUSH1 0x10 SHR AND DUP2 MSTORE ADD SWAP4 ADD DUP5 PUSH2 0x3054 JUMP JUMPDEST PUSH1 0x1 SWAP2 SWAP5 PUSH2 0xFFFF DUP6 AND DUP2 MSTORE ADD SWAP4 ADD DUP5 PUSH2 0x304C JUMP JUMPDEST SWAP4 SWAP6 SWAP5 POP SWAP2 PUSH1 0x1 PUSH2 0x200 PUSH1 0x10 SWAP3 DUP8 SLOAD PUSH2 0xFFFF DUP1 DUP3 AND DUP4 MSTORE DUP1 DUP3 DUP8 SHR AND DUP12 DUP5 ADD MSTORE DUP1 DUP3 DUP13 SHR AND DUP10 DUP5 ADD MSTORE DUP2 DUP10 DUP3 DUP3 PUSH1 0x60 DUP3 DUP3 PUSH1 0x30 SHR AND DUP2 DUP10 ADD MSTORE DUP3 DUP3 PUSH1 0x80 SWAP6 SHR AND DUP5 DUP10 ADD MSTORE DUP3 DUP3 PUSH1 0xA0 DUP3 DUP3 PUSH1 0x50 SHR AND DUP2 DUP13 ADD MSTORE DUP3 DUP3 PUSH1 0xC0 SWAP6 SHR AND DUP5 DUP13 ADD MSTORE DUP3 DUP3 PUSH1 0xE0 SWAP9 DUP14 DUP11 DUP5 DUP5 PUSH1 0x70 SHR AND SWAP2 ADD MSTORE SHR AND PUSH2 0x100 DUP13 ADD MSTORE DUP3 DUP3 PUSH1 0x90 SHR AND PUSH2 0x120 DUP13 ADD MSTORE SHR AND PUSH2 0x140 DUP10 ADD MSTORE DUP3 DUP3 PUSH1 0xB0 SHR AND PUSH2 0x160 DUP10 ADD MSTORE SHR AND PUSH2 0x180 DUP7 ADD MSTORE DUP3 DUP3 PUSH1 0xD0 SHR AND PUSH2 0x1A0 DUP7 ADD MSTORE SHR AND PUSH2 0x1C0 DUP4 ADD MSTORE PUSH1 0xF0 SHR PUSH2 0x1E0 DUP3 ADD MSTORE ADD SWAP6 ADD SWAP2 ADD SWAP1 SWAP5 SWAP3 SWAP2 DUP8 SWAP5 SWAP3 PUSH2 0x3032 JUMP JUMPDEST ISZERO PUSH2 0x3301 JUMPI JUMP JUMPDEST PUSH1 0x40 MLOAD PUSH3 0x461BCD PUSH1 0xE5 SHL DUP2 MSTORE PUSH1 0x20 PUSH1 0x4 DUP3 ADD MSTORE PUSH1 0x28 PUSH1 0x24 DUP3 ADD MSTORE PUSH32 0x5468652072656365697665722063616E6E6F7420626520746865206175637469 PUSH1 0x44 DUP3 ADD MSTORE PUSH8 0x37B71037BBB732B9 PUSH1 0xC1 SHL PUSH1 0x64 DUP3 ADD MSTORE PUSH1 0x84 SWAP1 REVERT JUMPDEST SWAP2 SWAP1 SWAP2 PUSH2 0xFFFF DUP1 DUP1 SWAP5 AND SWAP2 AND ADD SWAP2 DUP3 GT PUSH2 0xC86 JUMPI JUMP JUMPDEST PUSH1 0x1 PUSH1 0x1 PUSH1 0xA0 SHL SUB AND ISZERO PUSH2 0x3380 JUMPI PUSH1 0x1 SWAP1 JUMP JUMPDEST PUSH1 0x40 MLOAD PUSH3 0x461BCD PUSH1 0xE5 SHL DUP2 MSTORE PUSH1 0x20 PUSH1 0x4 DUP3 ADD MSTORE PUSH1 0xF PUSH1 0x24 DUP3 ADD MSTORE PUSH15 0x496E76616C69642061646472657373 PUSH1 0x88 SHL PUSH1 0x44 DUP3 ADD MSTORE PUSH1 0x64 SWAP1 REVERT JUMPDEST MLOAD ISZERO PUSH2 0x33C2 JUMPI PUSH1 0x1 SWAP1 JUMP JUMPDEST PUSH1 0x40 MLOAD PUSH3 0x461BCD PUSH1 0xE5 SHL DUP2 MSTORE PUSH1 0x20 PUSH1 0x4 DUP3 ADD MSTORE PUSH1 0xF PUSH1 0x24 DUP3 ADD MSTORE PUSH15 0x537472696E6720697320656D707479 PUSH1 0x88 SHL PUSH1 0x44 DUP3 ADD MSTORE PUSH1 0x64 SWAP1 REVERT JUMPDEST PUSH1 0x0 SLOAD PUSH1 0x1 PUSH1 0x1 PUSH1 0xA0 SHL SUB AND CALLER SUB PUSH2 0x340D JUMPI JUMP JUMPDEST PUSH1 0x40 MLOAD PUSH4 0x118CDAA7 PUSH1 0xE0 SHL DUP2 MSTORE CALLER PUSH1 0x4 DUP3 ADD MSTORE PUSH1 0x24 SWAP1 REVERT INVALID LOG2 PUSH5 0x6970667358 0x22 SLT KECCAK256 PUSH29 0x4E8F820FEFFCD9749CE067405F91DBC4B26389272AC8F52D9D2C301C8E 0xD1 EXP PUSH5 0x736F6C6343 STOP ADDMOD XOR STOP CALLER "},"methodIdentifiers":{"addReceiver(address,address,uint16)":"e4a74366","auctionIds(uint256)":"2a6433be","auctions(address)":"1d59410a","bids(address,address)":"1f036524","cancelAuction(address)":"d22cf3a4","createAuction(string,string,address,uint256,address,uint256,uint256,uint256,uint256,address[],uint16[])":"06c64726","donate(address)":"00362a95","donors(address,address)":"8f3ac946","endAuction(address)":"2872abbc","getAuction(address)":"79deae7b","getAuctions()":"d7c06919","getDonors(address)":"694b2323","getHighestBid(address)":"23a75049","getHighestBidder(address)":"3ae01466","getPercentages(address)":"d496d2cb","getReceivers(address)":"8146bcea","onERC721Received(address,address,uint256,bytes)":"150b7a02","owner()":"8da5cb5b","placeBid(address)":"e4940157","removeReceiver(address,address)":"88c40d94","renounceOwnership()":"715018a6","transferMoney(address,address,uint256)":"6410381c","transferOwnership(address)":"f2fde38b","withdrawBid(address)":"4ede3648"}}}}}