{"contracts/auction/NFTAuctionManager.sol":{"NFTAuctionManager":{"abi":[{"inputs":[{"internalType":"address","name":"owner","type":"address"}],"name":"OwnableInvalidOwner","type":"error"},{"inputs":[{"internalType":"address","name":"account","type":"address"}],"name":"OwnableUnauthorizedAccount","type":"error"},{"anonymous":false,"inputs":[{"indexed":false,"internalType":"address","name":"auctionId","type":"address"},{"indexed":false,"internalType":"uint256","name":"endedAt","type":"uint256"}],"name":"AuctionCancelled","type":"event"},{"anonymous":false,"inputs":[{"indexed":false,"internalType":"address","name":"auctionId","type":"address"},{"indexed":false,"internalType":"address","name":"seller","type":"address"},{"indexed":false,"internalType":"uint256","name":"startingPrice","type":"uint256"},{"indexed":false,"internalType":"uint256","name":"endingPrice","type":"uint256"},{"indexed":false,"internalType":"uint32","name":"bidPeriod","type":"uint32"},{"indexed":false,"internalType":"uint256","name":"duration","type":"uint256"},{"indexed":false,"internalType":"uint256","name":"startedAt","type":"uint256"}],"name":"AuctionCreated","type":"event"},{"anonymous":false,"inputs":[{"indexed":false,"internalType":"address","name":"auctionId","type":"address"},{"indexed":false,"internalType":"uint256","name":"highestBid","type":"uint256"},{"indexed":false,"internalType":"address","name":"highestBidder","type":"address"},{"indexed":false,"internalType":"uint256","name":"endedAt","type":"uint256"}],"name":"AuctionEnded","type":"event"},{"anonymous":false,"inputs":[{"indexed":true,"internalType":"address","name":"bidder","type":"address"},{"indexed":true,"internalType":"address","name":"auctionId","type":"address"},{"indexed":false,"internalType":"uint256","name":"amount","type":"uint256"},{"indexed":false,"internalType":"uint256","name":"timestamp","type":"uint256"}],"name":"BidPlaced","type":"event"},{"anonymous":false,"inputs":[{"indexed":true,"internalType":"address","name":"bidder","type":"address"},{"indexed":true,"internalType":"address","name":"auctionId","type":"address"},{"indexed":false,"internalType":"uint256","name":"amount","type":"uint256"},{"indexed":false,"internalType":"uint256","name":"timestamp","type":"uint256"}],"name":"BidWithdrawn","type":"event"},{"anonymous":false,"inputs":[{"indexed":true,"internalType":"address","name":"donor","type":"address"},{"indexed":false,"internalType":"uint256","name":"amount","type":"uint256"},{"indexed":false,"internalType":"uint256","name":"timestamp","type":"uint256"}],"name":"Donation","type":"event"},{"anonymous":false,"inputs":[{"indexed":true,"internalType":"address","name":"previousOwner","type":"address"},{"indexed":true,"internalType":"address","name":"newOwner","type":"address"}],"name":"OwnershipTransferred","type":"event"},{"stateMutability":"payable","type":"fallback"},{"inputs":[{"internalType":"address","name":"","type":"address"}],"name":"auctions","outputs":[{"internalType":"string","name":"name","type":"string"},{"internalType":"string","name":"description","type":"string"},{"internalType":"address","name":"seller","type":"address"},{"internalType":"address","name":"tokenAddress","type":"address"},{"internalType":"uint256","name":"tokenId","type":"uint256"},{"internalType":"uint256","name":"startingPrice","type":"uint256"},{"internalType":"uint256","name":"endingPrice","type":"uint256"},{"internalType":"uint32","name":"bidPeriod","type":"uint32"},{"internalType":"uint256","name":"duration","type":"uint256"},{"internalType":"uint256","name":"startedAt","type":"uint256"},{"internalType":"uint256","name":"endedAt","type":"uint256"},{"internalType":"uint256","name":"highestBid","type":"uint256"},{"internalType":"address","name":"highestBidder","type":"address"}],"stateMutability":"view","type":"function"},{"inputs":[{"internalType":"address","name":"","type":"address"},{"internalType":"address","name":"","type":"address"}],"name":"bids","outputs":[{"internalType":"address","name":"bidder","type":"address"},{"internalType":"address","name":"auctionId","type":"address"},{"internalType":"uint256","name":"amount","type":"uint256"},{"internalType":"uint256","name":"timestamp","type":"uint256"}],"stateMutability":"view","type":"function"},{"inputs":[{"internalType":"address","name":"_auctionId","type":"address"}],"name":"cancelAuction","outputs":[{"internalType":"bool","name":"","type":"bool"}],"stateMutability":"nonpayable","type":"function"},{"inputs":[{"internalType":"string","name":"_name","type":"string"},{"internalType":"string","name":"_description","type":"string"},{"internalType":"address","name":"_tokenAddress","type":"address"},{"internalType":"uint256","name":"_tokenId","type":"uint256"},{"internalType":"uint256","name":"_startingPrice","type":"uint256"},{"internalType":"uint256","name":"_endingPrice","type":"uint256"},{"internalType":"uint32","name":"_bidPeriod","type":"uint32"},{"internalType":"uint256","name":"_duration","type":"uint256"}],"name":"createAuction","outputs":[{"internalType":"address","name":"","type":"address"}],"stateMutability":"nonpayable","type":"function"},{"inputs":[],"name":"donate","outputs":[],"stateMutability":"payable","type":"function"},{"inputs":[],"name":"donation","outputs":[{"internalType":"uint256","name":"","type":"uint256"}],"stateMutability":"view","type":"function"},{"inputs":[{"internalType":"address","name":"","type":"address"}],"name":"donors","outputs":[{"internalType":"uint256","name":"","type":"uint256"}],"stateMutability":"view","type":"function"},{"inputs":[{"internalType":"address","name":"_auctionId","type":"address"}],"name":"endAuction","outputs":[{"internalType":"bool","name":"","type":"bool"}],"stateMutability":"nonpayable","type":"function"},{"inputs":[{"internalType":"address","name":"_auctionId","type":"address"}],"name":"getHighestBid","outputs":[{"internalType":"uint256","name":"","type":"uint256"}],"stateMutability":"view","type":"function"},{"inputs":[{"internalType":"address","name":"_auctionId","type":"address"}],"name":"getHighestBidder","outputs":[{"internalType":"address","name":"","type":"address"}],"stateMutability":"view","type":"function"},{"inputs":[{"internalType":"address","name":"operator","type":"address"},{"internalType":"address","name":"from","type":"address"},{"internalType":"uint256","name":"tokenId","type":"uint256"},{"internalType":"bytes","name":"data","type":"bytes"}],"name":"onERC721Received","outputs":[{"internalType":"bytes4","name":"","type":"bytes4"}],"stateMutability":"pure","type":"function"},{"inputs":[],"name":"owner","outputs":[{"internalType":"address","name":"","type":"address"}],"stateMutability":"view","type":"function"},{"inputs":[{"internalType":"address","name":"_auctionId","type":"address"},{"internalType":"uint256","name":"_amount","type":"uint256"}],"name":"placeBid","outputs":[{"internalType":"bool","name":"","type":"bool"}],"stateMutability":"payable","type":"function"},{"inputs":[],"name":"renounceOwnership","outputs":[],"stateMutability":"nonpayable","type":"function"},{"inputs":[{"internalType":"address","name":"newOwner","type":"address"}],"name":"transferOwnership","outputs":[],"stateMutability":"nonpayable","type":"function"},{"inputs":[{"internalType":"address","name":"_auctionId","type":"address"}],"name":"withdrawBid","outputs":[{"internalType":"bool","name":"","type":"bool"}],"stateMutability":"payable","type":"function"},{"stateMutability":"payable","type":"receive"}],"evm":{"bytecode":{"linkReferences":{},"object":"6080806040523461007f5733156100695760008054336001600160a01b03198216811783556040519290916001600160a01b0316907f8be0079c531659141344cd1fd0a4f28419497f9722a3daafe3b4186f6b6457e09080a360006004556116e890816100858239f35b631e4fbdf760e01b815260006004820152602490fd5b600080fdfe608080604052600436101561001a575b50361561001857005b005b600090813560e01c908163150b7a02146113b8575080631d59410a146112bd5780631f0365241461124a57806323a750491461120d5780632872abbc146110ae5780633ae014661461106e5780634ede364814610d14578063715018a614610cba57806386487916146106a35780638da5cb5b1461067c5780638edeb15d1461065e578063ca0cdea814610625578063d22cf3a414610539578063d98b9bb514610220578063ed88c68e146101605763f2fde38b0361000f573461015d57602036600319011261015d576100ec611421565b6100f4611686565b6001600160a01b0390811690811561014457600054826001600160601b0360a01b821617600055167f8be0079c531659141344cd1fd0a4f28419497f9722a3daafe3b4186f6b6457e0600080a380f35b604051631e4fbdf760e01b815260048101849052602490fd5b80fd5b508060031936011261015d5734156101cf5761017e34600454611644565b6004556040513481524260208201527f106aac375bbcf013d1e52338bbf9e740009a1a3a6869f8daa1b72aa1620f5fec60403392a23381526003602052604081206101ca348254611644565b905580f35b60405162461bcd60e51b8152602060048201526024808201527f5468652076616c75652073656e74206973206e6f7420677265617465722074686044820152630616e20360e41b6064820152608490fd5b50604036600319011261015d57610235611421565b90602480359060018060a01b0380941692838152602094600186526040822060098101541515908161052c575b50156104e8578482526001865260408220600b8101805486111561048d576005820154861061042f57600682015486116103d65785340361037c57859055600c0180546001600160a01b0319908116331790915560405193608085019067ffffffffffffffff8211868310176103685750906003939291604052338552878501908782526040860192878452604060608801954287528a815260028c5220336000528a528060406000209751168288541617875560018701925116908254161790555160028401555191015560405190815242838201527fdd49bbb40d47a514dddcd458e9718364143bc24a0cca58439ee6f4f45e4ce10d60403392a360405160018152f35b634e487b7160e01b60009081526041600452fd5b60405162461bcd60e51b815260048101899052602d818701527f5468652076616c75652073656e74206973206e6f7420657175616c20746f207460448201526c1a1948189a5908185b5bdd5b9d609a1b6064820152608490fd5b60405162461bcd60e51b815260048101899052602c818701527f42696420616d6f756e74206973206e6f74206c657373207468616e207468652060448201526b656e64696e6720707269636560a01b6064820152608490fd5b60405162461bcd60e51b8152600481018990526031818701527f42696420616d6f756e74206973206e6f742067726561746572207468616e20746044820152706865207374617274696e6720707269636560781b6064820152608490fd5b60405162461bcd60e51b815260048101899052602e818701527f42696420616d6f756e74206973206e6f742067726561746572207468616e207460448201526d1a19481a1a59da195cdd08189a5960921b6064820152608490fd5b60405162461bcd60e51b8152600481018790526017818501527f41756374696f6e206973206e6f74206f6e20676f696e670000000000000000006044820152606490fd5b600a915001541538610262565b503461015d576020908160031936011261015d576001600160a01b03604081610560611421565b16928381526001855261057c83600284842001541633146115e5565b8381526001855220903390600283015416036105d1577f018b64b6242d32aa550e95d78985b938d71af5b3f10827b0683f55da1639304891604091600a4291015581519081524284820152a160405160018152f35b60405162461bcd60e51b815260048101849052602660248201527f4f6e6c79207468652073656c6c65722063616e2063616e63656c2074686520616044820152653ab1ba34b7b760d11b6064820152608490fd5b503461015d57602036600319011261015d576020906040906001600160a01b0361064d611421565b168152600383522054604051908152f35b503461015d578060031936011261015d576020600454604051908152f35b503461015d578060031936011261015d57546040516001600160a01b039091168152602090f35b503461015d5761010036600319011261015d5760043567ffffffffffffffff8111610cb6576106d690369060040161158e565b60243567ffffffffffffffff8111610cb2576106f690369060040161158e565b6044356001600160a01b0381169003610cad5760c4359063ffffffff82168203610ca9576040516331a9108f60e11b815260643560048201526020816024816044356001600160a01b03165afa908115610c9e578591610c6f575b50336001600160a01b0390911603610c1e57604051904260208301523360601b60408301526001600160601b031960443560601b1660548301526064356068830152606882528160a081011067ffffffffffffffff60a084011117610c085760a082016040819052825160208401206001600160a01b0316949067ffffffffffffffff6102408501908111911117610c0857610240830160405260a083015260c08201523360e082015260018060a01b036044351661010082015260643561012082015260843561014082015260a43561016082015263ffffffff821661018082015260e4356101a0820152426101c0820152836101e0820152836102008201528361022082015282845260016020526040842060a082015180519067ffffffffffffffff8211610b33578190610888845461144d565b601f8111610bbb575b50602090601f8311600114610b52578892610b47575b50508160011b916000199060031b1c19161781555b60c082015180519067ffffffffffffffff8211610b33576108e0600184015461144d565b601f8111610aef575b50956020968791601f8411600114610a5f579280600c937fe98ed15ae59d71e47b556b1164ab1d4cf06e34971b124935263c5f08b02a357f98969360e0989692610a54575b50508160011b916000199060031b1c19161760018201555b60018060a01b0385840151166001600160601b0360a01b6002830154161760028201556003810160018060a01b03610100850151166001600160601b0360a01b8254161790556101208301516004820155610140830151600582015561016083015160068201556007810163ffffffff6101808501511663ffffffff198254161790556101a083015160088201556101c083015160098201556101e0830151600a820155610200830151600b820155019061022060018060a01b03910151166001600160601b0360a01b82541617905563ffffffff604051918583523387840152608435604084015260a435606084015216608082015260e43560a08201524260c0820152a1604051908152f35b01519050388061092e565b9190601f198416600186018452898420935b818110610ad8575093600c937fe98ed15ae59d71e47b556b1164ab1d4cf06e34971b124935263c5f08b02a357f9896936001938360e09a9810610abf575b505050811b016001820155610946565b015160001960f88460031b161c19169055388080610aaf565b92938a600181928786015181550195019301610a71565b60018401885260208820601f840160051c810160208510610b2c575b601f830160051c82018110610b215750506108e9565b898155600101610b0b565b5080610b0b565b634e487b7160e01b87526041600452602487fd5b0151905038806108a7565b9250838852602088209088935b601f1984168510610ba0576001945083601f19811610610b87575b505050811b0181556108bc565b015160001960f88460031b161c19169055388080610b7a565b81810151835560209485019460019093019290910190610b5f565b90915083885260208820601f840160051c810160208510610c01575b90849392915b601f830160051c82018110610bf3575050610891565b8a8155859450600101610bdd565b5080610bd7565b634e487b7160e01b600052604160045260246000fd5b60405162461bcd60e51b8152602060048201526024808201527f4f6e6c79204e4654206f776e65722063616e2063726561746520616e206175636044820152633a34b7b760e11b6064820152608490fd5b610c91915060203d602011610c97575b610c898183611487565b810190611667565b38610751565b503d610c7f565b6040513d87823e3d90fd5b8380fd5b600080fd5b8280fd5b5080fd5b503461015d578060031936011261015d57610cd3611686565b600080546001600160a01b0319811682556001600160a01b03167f8be0079c531659141344cd1fd0a4f28419497f9722a3daafe3b4186f6b6457e08280a380f35b506020908160031936011261015d576001600160a01b0380610d34611421565b1690818352600184526040832090610d556009830154600884015490611644565b42101561103057600c820191818354163303610feb57600b810192858080808754818115610fe2575b3390f115610c9e5785808080600454818115610fd9575b3390f115610c9e578584556001600160601b0360a01b8154169055816003820154169160048201549160405163020604bf60e21b81528360048201528881602481885afa908115610fb1578891610fbc575b50821630148015610f3a575b15610ede576002015416823b15610eda5790606486928360405195869485936323b872dd60e01b8552600485015233602485015260448401525af18015610ecf57610e9f575b5081905460405190815242858201527f785d85162ae7507dad1d0089ba072ba3f2b9c7538085649ddc9b039eadc1a3f660403392a38152600282526040812033600052825260036040600020828155826001820155826002820155015560405160018152f35b67ffffffffffffffff8194929411610ebb576040529181610e39565b634e487b7160e01b82526041600452602482fd5b6040513d86823e3d90fd5b8580fd5b60405162461bcd60e51b815260048101899052602e60248201527f436f6e7472616374206973206e6f7420617070726f76656420746f207472616e60448201526d39b332b9103a3432903a37b5b2b760911b6064820152608490fd5b50600281015460405163e985e9c560e01b815290831660048201523060248201528881604481885afa908115610fb1578891610f77575b50610df3565b90508881813d8311610faa575b610f8e8183611487565b81010312610fa657518015158103610fa65738610f71565b8780fd5b503d610f84565b6040513d8a823e3d90fd5b610fd39150893d8b11610c9757610c898183611487565b38610de7565b506108fc610d95565b506108fc610d7e565b60405162461bcd60e51b815260048101879052601b60248201527f42696464657220686173206e6f7420706c6163656420612062696400000000006044820152606490fd5b60405162461bcd60e51b815260048101869052601660248201527541756374696f6e206973206e6f74206f6e676f696e6760501b6044820152606490fd5b503461015d57602036600319011261015d576020906001600160a01b0390600c906040908361109b611421565b1681526001855220015416604051908152f35b503461015d576020908160031936011261015d576001600160a01b036040816110d5611421565b1692838152600185526110f183600284842001541633146115e5565b8381526001855220903381600284015416036111bc5761111a6009830154600884015490611644565b421061117757916080917f4d31a5599cdb48031c1f03259adbd513be468c5735012719a1a9850869b558b19342600a830155600c600b8301549201541690604051928352858301526040820152426060820152a160405160018152f35b60405162461bcd60e51b815260048101859052601e60248201527f41756374696f6e206475726174696f6e20686173206e6f7420656e64656400006044820152606490fd5b60405162461bcd60e51b815260048101859052602360248201527f4f6e6c79207468652073656c6c65722063616e20656e6420746865206175637460448201526234b7b760e91b6064820152608490fd5b503461015d57602036600319011261015d57602090600b906040906001600160a01b03611238611421565b16815260018452200154604051908152f35b503461015d57604036600319011261015d576080906040611269611421565b91611272611437565b60018060a01b03809416825260026020528383832091168252602052208181541691600182015416906003600282015491015491604051938452602084015260408301526060820152f35b503461015d57602036600319011261015d576001600160a01b039061136990604090836112e8611421565b168152600160205220916112fb836114a9565b611307600185016114a9565b9382600282015416928060038301541660048301546005840154600685015463ffffffff60078701541691600887015493600988015495611377600a8a015498600c600b8c01549b0154169a6040519e8f9e8f926101a080855284019061154e565b91602081840391015261154e565b9a60408d015260608c015260808b015260a08a015260c089015260e08801526101008701526101208601526101408501526101608401526101808301520390f35b905034610cb6576080366003190112610cb6576113d3611421565b506113dc611437565b5060643567ffffffffffffffff808211610ca95736602383011215610ca9578160040135908111610ca95736910160240111610cb657630a85bd0160e11b8152602090f35b600435906001600160a01b0382168203610cad57565b602435906001600160a01b0382168203610cad57565b90600182811c9216801561147d575b602083101461146757565b634e487b7160e01b600052602260045260246000fd5b91607f169161145c565b90601f8019910116810190811067ffffffffffffffff821117610c0857604052565b906040519182600082546114bc8161144d565b9081845260209460019160018116908160001461152c57506001146114ed575b5050506114eb92500383611487565b565b600090815285812095935091905b8183106115145750506114eb93508201013880806114dc565b855488840185015294850194879450918301916114fb565b925050506114eb94925060ff191682840152151560051b8201013880806114dc565b919082519283825260005b84811061157a575050826000602080949584010152601f8019910116010190565b602081830181015184830182015201611559565b81601f82011215610cad5780359067ffffffffffffffff8211610c0857604051926115c3601f8401601f191660200185611487565b82845260208383010111610cad57816000926020809301838601378301015290565b156115ec57565b60405162461bcd60e51b815260206004820152602a60248201527f4f6e6c792061756374696f6e206f776e65722063616e20706572666f726d20746044820152693434b99030b1ba34b7b760b11b6064820152608490fd5b9190820180921161165157565b634e487b7160e01b600052601160045260246000fd5b90816020910312610cad57516001600160a01b0381168103610cad5790565b6000546001600160a01b0316330361169a57565b60405163118cdaa760e01b8152336004820152602490fdfea2646970667358221220fcc60cf98e370281e7e59fdf678bbbfa75f53a31021c418462df04b91378ca4564736f6c63430008180033","opcodes":"PUSH1 0x80 DUP1 PUSH1 0x40 MSTORE CALLVALUE PUSH2 0x7F JUMPI CALLER ISZERO PUSH2 0x69 JUMPI PUSH1 0x0 DUP1 SLOAD CALLER PUSH1 0x1 PUSH1 0x1 PUSH1 0xA0 SHL SUB NOT DUP3 AND DUP2 OR DUP4 SSTORE PUSH1 0x40 MLOAD SWAP3 SWAP1 SWAP2 PUSH1 0x1 PUSH1 0x1 PUSH1 0xA0 SHL SUB AND SWAP1 PUSH32 0x8BE0079C531659141344CD1FD0A4F28419497F9722A3DAAFE3B4186F6B6457E0 SWAP1 DUP1 LOG3 PUSH1 0x0 PUSH1 0x4 SSTORE PUSH2 0x16E8 SWAP1 DUP2 PUSH2 0x85 DUP3 CODECOPY RETURN JUMPDEST PUSH4 0x1E4FBDF7 PUSH1 0xE0 SHL DUP2 MSTORE PUSH1 0x0 PUSH1 0x4 DUP3 ADD MSTORE PUSH1 0x24 SWAP1 REVERT JUMPDEST PUSH1 0x0 DUP1 REVERT INVALID PUSH1 0x80 DUP1 PUSH1 0x40 MSTORE PUSH1 0x4 CALLDATASIZE LT ISZERO PUSH2 0x1A JUMPI JUMPDEST POP CALLDATASIZE ISZERO PUSH2 0x18 JUMPI STOP JUMPDEST STOP JUMPDEST PUSH1 0x0 SWAP1 DUP2 CALLDATALOAD PUSH1 0xE0 SHR SWAP1 DUP2 PUSH4 0x150B7A02 EQ PUSH2 0x13B8 JUMPI POP DUP1 PUSH4 0x1D59410A EQ PUSH2 0x12BD JUMPI DUP1 PUSH4 0x1F036524 EQ PUSH2 0x124A JUMPI DUP1 PUSH4 0x23A75049 EQ PUSH2 0x120D JUMPI DUP1 PUSH4 0x2872ABBC EQ PUSH2 0x10AE JUMPI DUP1 PUSH4 0x3AE01466 EQ PUSH2 0x106E JUMPI DUP1 PUSH4 0x4EDE3648 EQ PUSH2 0xD14 JUMPI DUP1 PUSH4 0x715018A6 EQ PUSH2 0xCBA JUMPI DUP1 PUSH4 0x86487916 EQ PUSH2 0x6A3 JUMPI DUP1 PUSH4 0x8DA5CB5B EQ PUSH2 0x67C JUMPI DUP1 PUSH4 0x8EDEB15D EQ PUSH2 0x65E JUMPI DUP1 PUSH4 0xCA0CDEA8 EQ PUSH2 0x625 JUMPI DUP1 PUSH4 0xD22CF3A4 EQ PUSH2 0x539 JUMPI DUP1 PUSH4 0xD98B9BB5 EQ PUSH2 0x220 JUMPI DUP1 PUSH4 0xED88C68E EQ PUSH2 0x160 JUMPI PUSH4 0xF2FDE38B SUB PUSH2 0xF JUMPI CALLVALUE PUSH2 0x15D JUMPI PUSH1 0x20 CALLDATASIZE PUSH1 0x3 NOT ADD SLT PUSH2 0x15D JUMPI PUSH2 0xEC PUSH2 0x1421 JUMP JUMPDEST PUSH2 0xF4 PUSH2 0x1686 JUMP JUMPDEST PUSH1 0x1 PUSH1 0x1 PUSH1 0xA0 SHL SUB SWAP1 DUP2 AND SWAP1 DUP2 ISZERO PUSH2 0x144 JUMPI PUSH1 0x0 SLOAD DUP3 PUSH1 0x1 PUSH1 0x1 PUSH1 0x60 SHL SUB PUSH1 0xA0 SHL DUP3 AND OR PUSH1 0x0 SSTORE AND PUSH32 0x8BE0079C531659141344CD1FD0A4F28419497F9722A3DAAFE3B4186F6B6457E0 PUSH1 0x0 DUP1 LOG3 DUP1 RETURN JUMPDEST PUSH1 0x40 MLOAD PUSH4 0x1E4FBDF7 PUSH1 0xE0 SHL DUP2 MSTORE PUSH1 0x4 DUP2 ADD DUP5 SWAP1 MSTORE PUSH1 0x24 SWAP1 REVERT JUMPDEST DUP1 REVERT JUMPDEST POP DUP1 PUSH1 0x3 NOT CALLDATASIZE ADD SLT PUSH2 0x15D JUMPI CALLVALUE ISZERO PUSH2 0x1CF JUMPI PUSH2 0x17E CALLVALUE PUSH1 0x4 SLOAD PUSH2 0x1644 JUMP JUMPDEST PUSH1 0x4 SSTORE PUSH1 0x40 MLOAD CALLVALUE DUP2 MSTORE TIMESTAMP PUSH1 0x20 DUP3 ADD MSTORE PUSH32 0x106AAC375BBCF013D1E52338BBF9E740009A1A3A6869F8DAA1B72AA1620F5FEC PUSH1 0x40 CALLER SWAP3 LOG2 CALLER DUP2 MSTORE PUSH1 0x3 PUSH1 0x20 MSTORE PUSH1 0x40 DUP2 KECCAK256 PUSH2 0x1CA CALLVALUE DUP3 SLOAD PUSH2 0x1644 JUMP JUMPDEST SWAP1 SSTORE DUP1 RETURN JUMPDEST PUSH1 0x40 MLOAD PUSH3 0x461BCD PUSH1 0xE5 SHL DUP2 MSTORE PUSH1 0x20 PUSH1 0x4 DUP3 ADD MSTORE PUSH1 0x24 DUP1 DUP3 ADD MSTORE PUSH32 0x5468652076616C75652073656E74206973206E6F742067726561746572207468 PUSH1 0x44 DUP3 ADD MSTORE PUSH4 0x616E203 PUSH1 0xE4 SHL PUSH1 0x64 DUP3 ADD MSTORE PUSH1 0x84 SWAP1 REVERT JUMPDEST POP PUSH1 0x40 CALLDATASIZE PUSH1 0x3 NOT ADD SLT PUSH2 0x15D JUMPI PUSH2 0x235 PUSH2 0x1421 JUMP JUMPDEST SWAP1 PUSH1 0x24 DUP1 CALLDATALOAD SWAP1 PUSH1 0x1 DUP1 PUSH1 0xA0 SHL SUB DUP1 SWAP5 AND SWAP3 DUP4 DUP2 MSTORE PUSH1 0x20 SWAP5 PUSH1 0x1 DUP7 MSTORE PUSH1 0x40 DUP3 KECCAK256 PUSH1 0x9 DUP2 ADD SLOAD ISZERO ISZERO SWAP1 DUP2 PUSH2 0x52C JUMPI JUMPDEST POP ISZERO PUSH2 0x4E8 JUMPI DUP5 DUP3 MSTORE PUSH1 0x1 DUP7 MSTORE PUSH1 0x40 DUP3 KECCAK256 PUSH1 0xB DUP2 ADD DUP1 SLOAD DUP7 GT ISZERO PUSH2 0x48D JUMPI PUSH1 0x5 DUP3 ADD SLOAD DUP7 LT PUSH2 0x42F JUMPI PUSH1 0x6 DUP3 ADD SLOAD DUP7 GT PUSH2 0x3D6 JUMPI DUP6 CALLVALUE SUB PUSH2 0x37C JUMPI DUP6 SWAP1 SSTORE PUSH1 0xC ADD DUP1 SLOAD PUSH1 0x1 PUSH1 0x1 PUSH1 0xA0 SHL SUB NOT SWAP1 DUP2 AND CALLER OR SWAP1 SWAP2 SSTORE PUSH1 0x40 MLOAD SWAP4 PUSH1 0x80 DUP6 ADD SWAP1 PUSH8 0xFFFFFFFFFFFFFFFF DUP3 GT DUP7 DUP4 LT OR PUSH2 0x368 JUMPI POP SWAP1 PUSH1 0x3 SWAP4 SWAP3 SWAP2 PUSH1 0x40 MSTORE CALLER DUP6 MSTORE DUP8 DUP6 ADD SWAP1 DUP8 DUP3 MSTORE PUSH1 0x40 DUP7 ADD SWAP3 DUP8 DUP5 MSTORE PUSH1 0x40 PUSH1 0x60 DUP9 ADD SWAP6 TIMESTAMP DUP8 MSTORE DUP11 DUP2 MSTORE PUSH1 0x2 DUP13 MSTORE KECCAK256 CALLER PUSH1 0x0 MSTORE DUP11 MSTORE DUP1 PUSH1 0x40 PUSH1 0x0 KECCAK256 SWAP8 MLOAD AND DUP3 DUP9 SLOAD AND OR DUP8 SSTORE PUSH1 0x1 DUP8 ADD SWAP3 MLOAD AND SWAP1 DUP3 SLOAD AND OR SWAP1 SSTORE MLOAD PUSH1 0x2 DUP5 ADD SSTORE MLOAD SWAP2 ADD SSTORE PUSH1 0x40 MLOAD SWAP1 DUP2 MSTORE TIMESTAMP DUP4 DUP3 ADD MSTORE PUSH32 0xDD49BBB40D47A514DDDCD458E9718364143BC24A0CCA58439EE6F4F45E4CE10D PUSH1 0x40 CALLER SWAP3 LOG3 PUSH1 0x40 MLOAD PUSH1 0x1 DUP2 MSTORE RETURN JUMPDEST PUSH4 0x4E487B71 PUSH1 0xE0 SHL PUSH1 0x0 SWAP1 DUP2 MSTORE PUSH1 0x41 PUSH1 0x4 MSTORE REVERT JUMPDEST PUSH1 0x40 MLOAD PUSH3 0x461BCD PUSH1 0xE5 SHL DUP2 MSTORE PUSH1 0x4 DUP2 ADD DUP10 SWAP1 MSTORE PUSH1 0x2D DUP2 DUP8 ADD MSTORE PUSH32 0x5468652076616C75652073656E74206973206E6F7420657175616C20746F2074 PUSH1 0x44 DUP3 ADD MSTORE PUSH13 0x1A1948189A5908185B5BDD5B9D PUSH1 0x9A SHL PUSH1 0x64 DUP3 ADD MSTORE PUSH1 0x84 SWAP1 REVERT JUMPDEST PUSH1 0x40 MLOAD PUSH3 0x461BCD PUSH1 0xE5 SHL DUP2 MSTORE PUSH1 0x4 DUP2 ADD DUP10 SWAP1 MSTORE PUSH1 0x2C DUP2 DUP8 ADD MSTORE PUSH32 0x42696420616D6F756E74206973206E6F74206C657373207468616E2074686520 PUSH1 0x44 DUP3 ADD MSTORE PUSH12 0x656E64696E67207072696365 PUSH1 0xA0 SHL PUSH1 0x64 DUP3 ADD MSTORE PUSH1 0x84 SWAP1 REVERT JUMPDEST PUSH1 0x40 MLOAD PUSH3 0x461BCD PUSH1 0xE5 SHL DUP2 MSTORE PUSH1 0x4 DUP2 ADD DUP10 SWAP1 MSTORE PUSH1 0x31 DUP2 DUP8 ADD MSTORE PUSH32 0x42696420616D6F756E74206973206E6F742067726561746572207468616E2074 PUSH1 0x44 DUP3 ADD MSTORE PUSH17 0x6865207374617274696E67207072696365 PUSH1 0x78 SHL PUSH1 0x64 DUP3 ADD MSTORE PUSH1 0x84 SWAP1 REVERT JUMPDEST PUSH1 0x40 MLOAD PUSH3 0x461BCD PUSH1 0xE5 SHL DUP2 MSTORE PUSH1 0x4 DUP2 ADD DUP10 SWAP1 MSTORE PUSH1 0x2E DUP2 DUP8 ADD MSTORE PUSH32 0x42696420616D6F756E74206973206E6F742067726561746572207468616E2074 PUSH1 0x44 DUP3 ADD MSTORE PUSH14 0x1A19481A1A59DA195CDD08189A59 PUSH1 0x92 SHL PUSH1 0x64 DUP3 ADD MSTORE PUSH1 0x84 SWAP1 REVERT JUMPDEST PUSH1 0x40 MLOAD PUSH3 0x461BCD PUSH1 0xE5 SHL DUP2 MSTORE PUSH1 0x4 DUP2 ADD DUP8 SWAP1 MSTORE PUSH1 0x17 DUP2 DUP6 ADD MSTORE PUSH32 0x41756374696F6E206973206E6F74206F6E20676F696E67000000000000000000 PUSH1 0x44 DUP3 ADD MSTORE PUSH1 0x64 SWAP1 REVERT JUMPDEST PUSH1 0xA SWAP2 POP ADD SLOAD ISZERO CODESIZE PUSH2 0x262 JUMP JUMPDEST POP CALLVALUE PUSH2 0x15D JUMPI PUSH1 0x20 SWAP1 DUP2 PUSH1 0x3 NOT CALLDATASIZE ADD SLT PUSH2 0x15D JUMPI PUSH1 0x1 PUSH1 0x1 PUSH1 0xA0 SHL SUB PUSH1 0x40 DUP2 PUSH2 0x560 PUSH2 0x1421 JUMP JUMPDEST AND SWAP3 DUP4 DUP2 MSTORE PUSH1 0x1 DUP6 MSTORE PUSH2 0x57C DUP4 PUSH1 0x2 DUP5 DUP5 KECCAK256 ADD SLOAD AND CALLER EQ PUSH2 0x15E5 JUMP JUMPDEST DUP4 DUP2 MSTORE PUSH1 0x1 DUP6 MSTORE KECCAK256 SWAP1 CALLER SWAP1 PUSH1 0x2 DUP4 ADD SLOAD AND SUB PUSH2 0x5D1 JUMPI PUSH32 0x18B64B6242D32AA550E95D78985B938D71AF5B3F10827B0683F55DA16393048 SWAP2 PUSH1 0x40 SWAP2 PUSH1 0xA TIMESTAMP SWAP2 ADD SSTORE DUP2 MLOAD SWAP1 DUP2 MSTORE TIMESTAMP DUP5 DUP3 ADD MSTORE LOG1 PUSH1 0x40 MLOAD PUSH1 0x1 DUP2 MSTORE RETURN JUMPDEST PUSH1 0x40 MLOAD PUSH3 0x461BCD PUSH1 0xE5 SHL DUP2 MSTORE PUSH1 0x4 DUP2 ADD DUP5 SWAP1 MSTORE PUSH1 0x26 PUSH1 0x24 DUP3 ADD MSTORE PUSH32 0x4F6E6C79207468652073656C6C65722063616E2063616E63656C207468652061 PUSH1 0x44 DUP3 ADD MSTORE PUSH6 0x3AB1BA34B7B7 PUSH1 0xD1 SHL PUSH1 0x64 DUP3 ADD MSTORE PUSH1 0x84 SWAP1 REVERT JUMPDEST POP CALLVALUE PUSH2 0x15D JUMPI PUSH1 0x20 CALLDATASIZE PUSH1 0x3 NOT ADD SLT PUSH2 0x15D JUMPI PUSH1 0x20 SWAP1 PUSH1 0x40 SWAP1 PUSH1 0x1 PUSH1 0x1 PUSH1 0xA0 SHL SUB PUSH2 0x64D PUSH2 0x1421 JUMP JUMPDEST AND DUP2 MSTORE PUSH1 0x3 DUP4 MSTORE KECCAK256 SLOAD PUSH1 0x40 MLOAD SWAP1 DUP2 MSTORE RETURN JUMPDEST POP CALLVALUE PUSH2 0x15D JUMPI DUP1 PUSH1 0x3 NOT CALLDATASIZE ADD SLT PUSH2 0x15D JUMPI PUSH1 0x20 PUSH1 0x4 SLOAD PUSH1 0x40 MLOAD SWAP1 DUP2 MSTORE RETURN JUMPDEST POP CALLVALUE PUSH2 0x15D JUMPI DUP1 PUSH1 0x3 NOT CALLDATASIZE ADD SLT PUSH2 0x15D JUMPI SLOAD PUSH1 0x40 MLOAD PUSH1 0x1 PUSH1 0x1 PUSH1 0xA0 SHL SUB SWAP1 SWAP2 AND DUP2 MSTORE PUSH1 0x20 SWAP1 RETURN JUMPDEST POP CALLVALUE PUSH2 0x15D JUMPI PUSH2 0x100 CALLDATASIZE PUSH1 0x3 NOT ADD SLT PUSH2 0x15D JUMPI PUSH1 0x4 CALLDATALOAD PUSH8 0xFFFFFFFFFFFFFFFF DUP2 GT PUSH2 0xCB6 JUMPI PUSH2 0x6D6 SWAP1 CALLDATASIZE SWAP1 PUSH1 0x4 ADD PUSH2 0x158E JUMP JUMPDEST PUSH1 0x24 CALLDATALOAD PUSH8 0xFFFFFFFFFFFFFFFF DUP2 GT PUSH2 0xCB2 JUMPI PUSH2 0x6F6 SWAP1 CALLDATASIZE SWAP1 PUSH1 0x4 ADD PUSH2 0x158E JUMP JUMPDEST PUSH1 0x44 CALLDATALOAD PUSH1 0x1 PUSH1 0x1 PUSH1 0xA0 SHL SUB DUP2 AND SWAP1 SUB PUSH2 0xCAD JUMPI PUSH1 0xC4 CALLDATALOAD SWAP1 PUSH4 0xFFFFFFFF DUP3 AND DUP3 SUB PUSH2 0xCA9 JUMPI PUSH1 0x40 MLOAD PUSH4 0x31A9108F PUSH1 0xE1 SHL DUP2 MSTORE PUSH1 0x64 CALLDATALOAD PUSH1 0x4 DUP3 ADD MSTORE PUSH1 0x20 DUP2 PUSH1 0x24 DUP2 PUSH1 0x44 CALLDATALOAD PUSH1 0x1 PUSH1 0x1 PUSH1 0xA0 SHL SUB AND GAS STATICCALL SWAP1 DUP2 ISZERO PUSH2 0xC9E JUMPI DUP6 SWAP2 PUSH2 0xC6F JUMPI JUMPDEST POP CALLER PUSH1 0x1 PUSH1 0x1 PUSH1 0xA0 SHL SUB SWAP1 SWAP2 AND SUB PUSH2 0xC1E JUMPI PUSH1 0x40 MLOAD SWAP1 TIMESTAMP PUSH1 0x20 DUP4 ADD MSTORE CALLER PUSH1 0x60 SHL PUSH1 0x40 DUP4 ADD MSTORE PUSH1 0x1 PUSH1 0x1 PUSH1 0x60 SHL SUB NOT PUSH1 0x44 CALLDATALOAD PUSH1 0x60 SHL AND PUSH1 0x54 DUP4 ADD MSTORE PUSH1 0x64 CALLDATALOAD PUSH1 0x68 DUP4 ADD MSTORE PUSH1 0x68 DUP3 MSTORE DUP2 PUSH1 0xA0 DUP2 ADD LT PUSH8 0xFFFFFFFFFFFFFFFF PUSH1 0xA0 DUP5 ADD GT OR PUSH2 0xC08 JUMPI PUSH1 0xA0 DUP3 ADD PUSH1 0x40 DUP2 SWAP1 MSTORE DUP3 MLOAD PUSH1 0x20 DUP5 ADD KECCAK256 PUSH1 0x1 PUSH1 0x1 PUSH1 0xA0 SHL SUB AND SWAP5 SWAP1 PUSH8 0xFFFFFFFFFFFFFFFF PUSH2 0x240 DUP6 ADD SWAP1 DUP2 GT SWAP2 GT OR PUSH2 0xC08 JUMPI PUSH2 0x240 DUP4 ADD PUSH1 0x40 MSTORE PUSH1 0xA0 DUP4 ADD MSTORE PUSH1 0xC0 DUP3 ADD MSTORE CALLER PUSH1 0xE0 DUP3 ADD MSTORE PUSH1 0x1 DUP1 PUSH1 0xA0 SHL SUB PUSH1 0x44 CALLDATALOAD AND PUSH2 0x100 DUP3 ADD MSTORE PUSH1 0x64 CALLDATALOAD PUSH2 0x120 DUP3 ADD MSTORE PUSH1 0x84 CALLDATALOAD PUSH2 0x140 DUP3 ADD MSTORE PUSH1 0xA4 CALLDATALOAD PUSH2 0x160 DUP3 ADD MSTORE PUSH4 0xFFFFFFFF DUP3 AND PUSH2 0x180 DUP3 ADD MSTORE PUSH1 0xE4 CALLDATALOAD PUSH2 0x1A0 DUP3 ADD MSTORE TIMESTAMP PUSH2 0x1C0 DUP3 ADD MSTORE DUP4 PUSH2 0x1E0 DUP3 ADD MSTORE DUP4 PUSH2 0x200 DUP3 ADD MSTORE DUP4 PUSH2 0x220 DUP3 ADD MSTORE DUP3 DUP5 MSTORE PUSH1 0x1 PUSH1 0x20 MSTORE PUSH1 0x40 DUP5 KECCAK256 PUSH1 0xA0 DUP3 ADD MLOAD DUP1 MLOAD SWAP1 PUSH8 0xFFFFFFFFFFFFFFFF DUP3 GT PUSH2 0xB33 JUMPI DUP2 SWAP1 PUSH2 0x888 DUP5 SLOAD PUSH2 0x144D JUMP JUMPDEST PUSH1 0x1F DUP2 GT PUSH2 0xBBB JUMPI JUMPDEST POP PUSH1 0x20 SWAP1 PUSH1 0x1F DUP4 GT PUSH1 0x1 EQ PUSH2 0xB52 JUMPI DUP9 SWAP3 PUSH2 0xB47 JUMPI JUMPDEST POP POP DUP2 PUSH1 0x1 SHL SWAP2 PUSH1 0x0 NOT SWAP1 PUSH1 0x3 SHL SHR NOT AND OR DUP2 SSTORE JUMPDEST PUSH1 0xC0 DUP3 ADD MLOAD DUP1 MLOAD SWAP1 PUSH8 0xFFFFFFFFFFFFFFFF DUP3 GT PUSH2 0xB33 JUMPI PUSH2 0x8E0 PUSH1 0x1 DUP5 ADD SLOAD PUSH2 0x144D JUMP JUMPDEST PUSH1 0x1F DUP2 GT PUSH2 0xAEF JUMPI JUMPDEST POP SWAP6 PUSH1 0x20 SWAP7 DUP8 SWAP2 PUSH1 0x1F DUP5 GT PUSH1 0x1 EQ PUSH2 0xA5F JUMPI SWAP3 DUP1 PUSH1 0xC SWAP4 PUSH32 0xE98ED15AE59D71E47B556B1164AB1D4CF06E34971B124935263C5F08B02A357F SWAP9 SWAP7 SWAP4 PUSH1 0xE0 SWAP9 SWAP7 SWAP3 PUSH2 0xA54 JUMPI JUMPDEST POP POP DUP2 PUSH1 0x1 SHL SWAP2 PUSH1 0x0 NOT SWAP1 PUSH1 0x3 SHL SHR NOT AND OR PUSH1 0x1 DUP3 ADD SSTORE JUMPDEST PUSH1 0x1 DUP1 PUSH1 0xA0 SHL SUB DUP6 DUP5 ADD MLOAD AND PUSH1 0x1 PUSH1 0x1 PUSH1 0x60 SHL SUB PUSH1 0xA0 SHL PUSH1 0x2 DUP4 ADD SLOAD AND OR PUSH1 0x2 DUP3 ADD SSTORE PUSH1 0x3 DUP2 ADD PUSH1 0x1 DUP1 PUSH1 0xA0 SHL SUB PUSH2 0x100 DUP6 ADD MLOAD AND PUSH1 0x1 PUSH1 0x1 PUSH1 0x60 SHL SUB PUSH1 0xA0 SHL DUP3 SLOAD AND OR SWAP1 SSTORE PUSH2 0x120 DUP4 ADD MLOAD PUSH1 0x4 DUP3 ADD SSTORE PUSH2 0x140 DUP4 ADD MLOAD PUSH1 0x5 DUP3 ADD SSTORE PUSH2 0x160 DUP4 ADD MLOAD PUSH1 0x6 DUP3 ADD SSTORE PUSH1 0x7 DUP2 ADD PUSH4 0xFFFFFFFF PUSH2 0x180 DUP6 ADD MLOAD AND PUSH4 0xFFFFFFFF NOT DUP3 SLOAD AND OR SWAP1 SSTORE PUSH2 0x1A0 DUP4 ADD MLOAD PUSH1 0x8 DUP3 ADD SSTORE PUSH2 0x1C0 DUP4 ADD MLOAD PUSH1 0x9 DUP3 ADD SSTORE PUSH2 0x1E0 DUP4 ADD MLOAD PUSH1 0xA DUP3 ADD SSTORE PUSH2 0x200 DUP4 ADD MLOAD PUSH1 0xB DUP3 ADD SSTORE ADD SWAP1 PUSH2 0x220 PUSH1 0x1 DUP1 PUSH1 0xA0 SHL SUB SWAP2 ADD MLOAD AND PUSH1 0x1 PUSH1 0x1 PUSH1 0x60 SHL SUB PUSH1 0xA0 SHL DUP3 SLOAD AND OR SWAP1 SSTORE PUSH4 0xFFFFFFFF PUSH1 0x40 MLOAD SWAP2 DUP6 DUP4 MSTORE CALLER DUP8 DUP5 ADD MSTORE PUSH1 0x84 CALLDATALOAD PUSH1 0x40 DUP5 ADD MSTORE PUSH1 0xA4 CALLDATALOAD PUSH1 0x60 DUP5 ADD MSTORE AND PUSH1 0x80 DUP3 ADD MSTORE PUSH1 0xE4 CALLDATALOAD PUSH1 0xA0 DUP3 ADD MSTORE TIMESTAMP PUSH1 0xC0 DUP3 ADD MSTORE LOG1 PUSH1 0x40 MLOAD SWAP1 DUP2 MSTORE RETURN JUMPDEST ADD MLOAD SWAP1 POP CODESIZE DUP1 PUSH2 0x92E JUMP JUMPDEST SWAP2 SWAP1 PUSH1 0x1F NOT DUP5 AND PUSH1 0x1 DUP7 ADD DUP5 MSTORE DUP10 DUP5 KECCAK256 SWAP4 JUMPDEST DUP2 DUP2 LT PUSH2 0xAD8 JUMPI POP SWAP4 PUSH1 0xC SWAP4 PUSH32 0xE98ED15AE59D71E47B556B1164AB1D4CF06E34971B124935263C5F08B02A357F SWAP9 SWAP7 SWAP4 PUSH1 0x1 SWAP4 DUP4 PUSH1 0xE0 SWAP11 SWAP9 LT PUSH2 0xABF JUMPI JUMPDEST POP POP POP DUP2 SHL ADD PUSH1 0x1 DUP3 ADD SSTORE PUSH2 0x946 JUMP JUMPDEST ADD MLOAD PUSH1 0x0 NOT PUSH1 0xF8 DUP5 PUSH1 0x3 SHL AND SHR NOT AND SWAP1 SSTORE CODESIZE DUP1 DUP1 PUSH2 0xAAF JUMP JUMPDEST SWAP3 SWAP4 DUP11 PUSH1 0x1 DUP2 SWAP3 DUP8 DUP7 ADD MLOAD DUP2 SSTORE ADD SWAP6 ADD SWAP4 ADD PUSH2 0xA71 JUMP JUMPDEST PUSH1 0x1 DUP5 ADD DUP9 MSTORE PUSH1 0x20 DUP9 KECCAK256 PUSH1 0x1F DUP5 ADD PUSH1 0x5 SHR DUP2 ADD PUSH1 0x20 DUP6 LT PUSH2 0xB2C JUMPI JUMPDEST PUSH1 0x1F DUP4 ADD PUSH1 0x5 SHR DUP3 ADD DUP2 LT PUSH2 0xB21 JUMPI POP POP PUSH2 0x8E9 JUMP JUMPDEST DUP10 DUP2 SSTORE PUSH1 0x1 ADD PUSH2 0xB0B JUMP JUMPDEST POP DUP1 PUSH2 0xB0B JUMP JUMPDEST PUSH4 0x4E487B71 PUSH1 0xE0 SHL DUP8 MSTORE PUSH1 0x41 PUSH1 0x4 MSTORE PUSH1 0x24 DUP8 REVERT JUMPDEST ADD MLOAD SWAP1 POP CODESIZE DUP1 PUSH2 0x8A7 JUMP JUMPDEST SWAP3 POP DUP4 DUP9 MSTORE PUSH1 0x20 DUP9 KECCAK256 SWAP1 DUP9 SWAP4 JUMPDEST PUSH1 0x1F NOT DUP5 AND DUP6 LT PUSH2 0xBA0 JUMPI PUSH1 0x1 SWAP5 POP DUP4 PUSH1 0x1F NOT DUP2 AND LT PUSH2 0xB87 JUMPI JUMPDEST POP POP POP DUP2 SHL ADD DUP2 SSTORE PUSH2 0x8BC JUMP JUMPDEST ADD MLOAD PUSH1 0x0 NOT PUSH1 0xF8 DUP5 PUSH1 0x3 SHL AND SHR NOT AND SWAP1 SSTORE CODESIZE DUP1 DUP1 PUSH2 0xB7A JUMP JUMPDEST DUP2 DUP2 ADD MLOAD DUP4 SSTORE PUSH1 0x20 SWAP5 DUP6 ADD SWAP5 PUSH1 0x1 SWAP1 SWAP4 ADD SWAP3 SWAP1 SWAP2 ADD SWAP1 PUSH2 0xB5F JUMP JUMPDEST SWAP1 SWAP2 POP DUP4 DUP9 MSTORE PUSH1 0x20 DUP9 KECCAK256 PUSH1 0x1F DUP5 ADD PUSH1 0x5 SHR DUP2 ADD PUSH1 0x20 DUP6 LT PUSH2 0xC01 JUMPI JUMPDEST SWAP1 DUP5 SWAP4 SWAP3 SWAP2 JUMPDEST PUSH1 0x1F DUP4 ADD PUSH1 0x5 SHR DUP3 ADD DUP2 LT PUSH2 0xBF3 JUMPI POP POP PUSH2 0x891 JUMP JUMPDEST DUP11 DUP2 SSTORE DUP6 SWAP5 POP PUSH1 0x1 ADD PUSH2 0xBDD JUMP JUMPDEST POP DUP1 PUSH2 0xBD7 JUMP JUMPDEST PUSH4 0x4E487B71 PUSH1 0xE0 SHL PUSH1 0x0 MSTORE PUSH1 0x41 PUSH1 0x4 MSTORE PUSH1 0x24 PUSH1 0x0 REVERT JUMPDEST PUSH1 0x40 MLOAD PUSH3 0x461BCD PUSH1 0xE5 SHL DUP2 MSTORE PUSH1 0x20 PUSH1 0x4 DUP3 ADD MSTORE PUSH1 0x24 DUP1 DUP3 ADD MSTORE PUSH32 0x4F6E6C79204E4654206F776E65722063616E2063726561746520616E20617563 PUSH1 0x44 DUP3 ADD MSTORE PUSH4 0x3A34B7B7 PUSH1 0xE1 SHL PUSH1 0x64 DUP3 ADD MSTORE PUSH1 0x84 SWAP1 REVERT JUMPDEST PUSH2 0xC91 SWAP2 POP PUSH1 0x20 RETURNDATASIZE PUSH1 0x20 GT PUSH2 0xC97 JUMPI JUMPDEST PUSH2 0xC89 DUP2 DUP4 PUSH2 0x1487 JUMP JUMPDEST DUP2 ADD SWAP1 PUSH2 0x1667 JUMP JUMPDEST CODESIZE PUSH2 0x751 JUMP JUMPDEST POP RETURNDATASIZE PUSH2 0xC7F JUMP JUMPDEST PUSH1 0x40 MLOAD RETURNDATASIZE DUP8 DUP3 RETURNDATACOPY RETURNDATASIZE SWAP1 REVERT JUMPDEST DUP4 DUP1 REVERT JUMPDEST PUSH1 0x0 DUP1 REVERT JUMPDEST DUP3 DUP1 REVERT JUMPDEST POP DUP1 REVERT JUMPDEST POP CALLVALUE PUSH2 0x15D JUMPI DUP1 PUSH1 0x3 NOT CALLDATASIZE ADD SLT PUSH2 0x15D JUMPI PUSH2 0xCD3 PUSH2 0x1686 JUMP JUMPDEST PUSH1 0x0 DUP1 SLOAD PUSH1 0x1 PUSH1 0x1 PUSH1 0xA0 SHL SUB NOT DUP2 AND DUP3 SSTORE PUSH1 0x1 PUSH1 0x1 PUSH1 0xA0 SHL SUB AND PUSH32 0x8BE0079C531659141344CD1FD0A4F28419497F9722A3DAAFE3B4186F6B6457E0 DUP3 DUP1 LOG3 DUP1 RETURN JUMPDEST POP PUSH1 0x20 SWAP1 DUP2 PUSH1 0x3 NOT CALLDATASIZE ADD SLT PUSH2 0x15D JUMPI PUSH1 0x1 PUSH1 0x1 PUSH1 0xA0 SHL SUB DUP1 PUSH2 0xD34 PUSH2 0x1421 JUMP JUMPDEST AND SWAP1 DUP2 DUP4 MSTORE PUSH1 0x1 DUP5 MSTORE PUSH1 0x40 DUP4 KECCAK256 SWAP1 PUSH2 0xD55 PUSH1 0x9 DUP4 ADD SLOAD PUSH1 0x8 DUP5 ADD SLOAD SWAP1 PUSH2 0x1644 JUMP JUMPDEST TIMESTAMP LT ISZERO PUSH2 0x1030 JUMPI PUSH1 0xC DUP3 ADD SWAP2 DUP2 DUP4 SLOAD AND CALLER SUB PUSH2 0xFEB JUMPI PUSH1 0xB DUP2 ADD SWAP3 DUP6 DUP1 DUP1 DUP1 DUP8 SLOAD DUP2 DUP2 ISZERO PUSH2 0xFE2 JUMPI JUMPDEST CALLER SWAP1 CALL ISZERO PUSH2 0xC9E JUMPI DUP6 DUP1 DUP1 DUP1 PUSH1 0x4 SLOAD DUP2 DUP2 ISZERO PUSH2 0xFD9 JUMPI JUMPDEST CALLER SWAP1 CALL ISZERO PUSH2 0xC9E JUMPI DUP6 DUP5 SSTORE PUSH1 0x1 PUSH1 0x1 PUSH1 0x60 SHL SUB PUSH1 0xA0 SHL DUP2 SLOAD AND SWAP1 SSTORE DUP2 PUSH1 0x3 DUP3 ADD SLOAD AND SWAP2 PUSH1 0x4 DUP3 ADD SLOAD SWAP2 PUSH1 0x40 MLOAD PUSH4 0x20604BF PUSH1 0xE2 SHL DUP2 MSTORE DUP4 PUSH1 0x4 DUP3 ADD MSTORE DUP9 DUP2 PUSH1 0x24 DUP2 DUP9 GAS STATICCALL SWAP1 DUP2 ISZERO PUSH2 0xFB1 JUMPI DUP9 SWAP2 PUSH2 0xFBC JUMPI JUMPDEST POP DUP3 AND ADDRESS EQ DUP1 ISZERO PUSH2 0xF3A JUMPI JUMPDEST ISZERO PUSH2 0xEDE JUMPI PUSH1 0x2 ADD SLOAD AND DUP3 EXTCODESIZE ISZERO PUSH2 0xEDA JUMPI SWAP1 PUSH1 0x64 DUP7 SWAP3 DUP4 PUSH1 0x40 MLOAD SWAP6 DUP7 SWAP5 DUP6 SWAP4 PUSH4 0x23B872DD PUSH1 0xE0 SHL DUP6 MSTORE PUSH1 0x4 DUP6 ADD MSTORE CALLER PUSH1 0x24 DUP6 ADD MSTORE PUSH1 0x44 DUP5 ADD MSTORE GAS CALL DUP1 ISZERO PUSH2 0xECF JUMPI PUSH2 0xE9F JUMPI JUMPDEST POP DUP2 SWAP1 SLOAD PUSH1 0x40 MLOAD SWAP1 DUP2 MSTORE TIMESTAMP DUP6 DUP3 ADD MSTORE PUSH32 0x785D85162AE7507DAD1D0089BA072BA3F2B9C7538085649DDC9B039EADC1A3F6 PUSH1 0x40 CALLER SWAP3 LOG3 DUP2 MSTORE PUSH1 0x2 DUP3 MSTORE PUSH1 0x40 DUP2 KECCAK256 CALLER PUSH1 0x0 MSTORE DUP3 MSTORE PUSH1 0x3 PUSH1 0x40 PUSH1 0x0 KECCAK256 DUP3 DUP2 SSTORE DUP3 PUSH1 0x1 DUP3 ADD SSTORE DUP3 PUSH1 0x2 DUP3 ADD SSTORE ADD SSTORE PUSH1 0x40 MLOAD PUSH1 0x1 DUP2 MSTORE RETURN JUMPDEST PUSH8 0xFFFFFFFFFFFFFFFF DUP2 SWAP5 SWAP3 SWAP5 GT PUSH2 0xEBB JUMPI PUSH1 0x40 MSTORE SWAP2 DUP2 PUSH2 0xE39 JUMP JUMPDEST PUSH4 0x4E487B71 PUSH1 0xE0 SHL DUP3 MSTORE PUSH1 0x41 PUSH1 0x4 MSTORE PUSH1 0x24 DUP3 REVERT JUMPDEST PUSH1 0x40 MLOAD RETURNDATASIZE DUP7 DUP3 RETURNDATACOPY RETURNDATASIZE SWAP1 REVERT JUMPDEST DUP6 DUP1 REVERT JUMPDEST PUSH1 0x40 MLOAD PUSH3 0x461BCD PUSH1 0xE5 SHL DUP2 MSTORE PUSH1 0x4 DUP2 ADD DUP10 SWAP1 MSTORE PUSH1 0x2E PUSH1 0x24 DUP3 ADD MSTORE PUSH32 0x436F6E7472616374206973206E6F7420617070726F76656420746F207472616E PUSH1 0x44 DUP3 ADD MSTORE PUSH14 0x39B332B9103A3432903A37B5B2B7 PUSH1 0x91 SHL PUSH1 0x64 DUP3 ADD MSTORE PUSH1 0x84 SWAP1 REVERT JUMPDEST POP PUSH1 0x2 DUP2 ADD SLOAD PUSH1 0x40 MLOAD PUSH4 0xE985E9C5 PUSH1 0xE0 SHL DUP2 MSTORE SWAP1 DUP4 AND PUSH1 0x4 DUP3 ADD MSTORE ADDRESS PUSH1 0x24 DUP3 ADD MSTORE DUP9 DUP2 PUSH1 0x44 DUP2 DUP9 GAS STATICCALL SWAP1 DUP2 ISZERO PUSH2 0xFB1 JUMPI DUP9 SWAP2 PUSH2 0xF77 JUMPI JUMPDEST POP PUSH2 0xDF3 JUMP JUMPDEST SWAP1 POP DUP9 DUP2 DUP2 RETURNDATASIZE DUP4 GT PUSH2 0xFAA JUMPI JUMPDEST PUSH2 0xF8E DUP2 DUP4 PUSH2 0x1487 JUMP JUMPDEST DUP2 ADD SUB SLT PUSH2 0xFA6 JUMPI MLOAD DUP1 ISZERO ISZERO DUP2 SUB PUSH2 0xFA6 JUMPI CODESIZE PUSH2 0xF71 JUMP JUMPDEST DUP8 DUP1 REVERT JUMPDEST POP RETURNDATASIZE PUSH2 0xF84 JUMP JUMPDEST PUSH1 0x40 MLOAD RETURNDATASIZE DUP11 DUP3 RETURNDATACOPY RETURNDATASIZE SWAP1 REVERT JUMPDEST PUSH2 0xFD3 SWAP2 POP DUP10 RETURNDATASIZE DUP12 GT PUSH2 0xC97 JUMPI PUSH2 0xC89 DUP2 DUP4 PUSH2 0x1487 JUMP JUMPDEST CODESIZE PUSH2 0xDE7 JUMP JUMPDEST POP PUSH2 0x8FC PUSH2 0xD95 JUMP JUMPDEST POP PUSH2 0x8FC PUSH2 0xD7E JUMP JUMPDEST PUSH1 0x40 MLOAD PUSH3 0x461BCD PUSH1 0xE5 SHL DUP2 MSTORE PUSH1 0x4 DUP2 ADD DUP8 SWAP1 MSTORE PUSH1 0x1B PUSH1 0x24 DUP3 ADD MSTORE PUSH32 0x42696464657220686173206E6F7420706C616365642061206269640000000000 PUSH1 0x44 DUP3 ADD MSTORE PUSH1 0x64 SWAP1 REVERT JUMPDEST PUSH1 0x40 MLOAD PUSH3 0x461BCD PUSH1 0xE5 SHL DUP2 MSTORE PUSH1 0x4 DUP2 ADD DUP7 SWAP1 MSTORE PUSH1 0x16 PUSH1 0x24 DUP3 ADD MSTORE PUSH22 0x41756374696F6E206973206E6F74206F6E676F696E67 PUSH1 0x50 SHL PUSH1 0x44 DUP3 ADD MSTORE PUSH1 0x64 SWAP1 REVERT JUMPDEST POP CALLVALUE PUSH2 0x15D JUMPI PUSH1 0x20 CALLDATASIZE PUSH1 0x3 NOT ADD SLT PUSH2 0x15D JUMPI PUSH1 0x20 SWAP1 PUSH1 0x1 PUSH1 0x1 PUSH1 0xA0 SHL SUB SWAP1 PUSH1 0xC SWAP1 PUSH1 0x40 SWAP1 DUP4 PUSH2 0x109B PUSH2 0x1421 JUMP JUMPDEST AND DUP2 MSTORE PUSH1 0x1 DUP6 MSTORE KECCAK256 ADD SLOAD AND PUSH1 0x40 MLOAD SWAP1 DUP2 MSTORE RETURN JUMPDEST POP CALLVALUE PUSH2 0x15D JUMPI PUSH1 0x20 SWAP1 DUP2 PUSH1 0x3 NOT CALLDATASIZE ADD SLT PUSH2 0x15D JUMPI PUSH1 0x1 PUSH1 0x1 PUSH1 0xA0 SHL SUB PUSH1 0x40 DUP2 PUSH2 0x10D5 PUSH2 0x1421 JUMP JUMPDEST AND SWAP3 DUP4 DUP2 MSTORE PUSH1 0x1 DUP6 MSTORE PUSH2 0x10F1 DUP4 PUSH1 0x2 DUP5 DUP5 KECCAK256 ADD SLOAD AND CALLER EQ PUSH2 0x15E5 JUMP JUMPDEST DUP4 DUP2 MSTORE PUSH1 0x1 DUP6 MSTORE KECCAK256 SWAP1 CALLER DUP2 PUSH1 0x2 DUP5 ADD SLOAD AND SUB PUSH2 0x11BC JUMPI PUSH2 0x111A PUSH1 0x9 DUP4 ADD SLOAD PUSH1 0x8 DUP5 ADD SLOAD SWAP1 PUSH2 0x1644 JUMP JUMPDEST TIMESTAMP LT PUSH2 0x1177 JUMPI SWAP2 PUSH1 0x80 SWAP2 PUSH32 0x4D31A5599CDB48031C1F03259ADBD513BE468C5735012719A1A9850869B558B1 SWAP4 TIMESTAMP PUSH1 0xA DUP4 ADD SSTORE PUSH1 0xC PUSH1 0xB DUP4 ADD SLOAD SWAP3 ADD SLOAD AND SWAP1 PUSH1 0x40 MLOAD SWAP3 DUP4 MSTORE DUP6 DUP4 ADD MSTORE PUSH1 0x40 DUP3 ADD MSTORE TIMESTAMP PUSH1 0x60 DUP3 ADD MSTORE LOG1 PUSH1 0x40 MLOAD PUSH1 0x1 DUP2 MSTORE RETURN JUMPDEST PUSH1 0x40 MLOAD PUSH3 0x461BCD PUSH1 0xE5 SHL DUP2 MSTORE PUSH1 0x4 DUP2 ADD DUP6 SWAP1 MSTORE PUSH1 0x1E PUSH1 0x24 DUP3 ADD MSTORE PUSH32 0x41756374696F6E206475726174696F6E20686173206E6F7420656E6465640000 PUSH1 0x44 DUP3 ADD MSTORE PUSH1 0x64 SWAP1 REVERT JUMPDEST PUSH1 0x40 MLOAD PUSH3 0x461BCD PUSH1 0xE5 SHL DUP2 MSTORE PUSH1 0x4 DUP2 ADD DUP6 SWAP1 MSTORE PUSH1 0x23 PUSH1 0x24 DUP3 ADD MSTORE PUSH32 0x4F6E6C79207468652073656C6C65722063616E20656E64207468652061756374 PUSH1 0x44 DUP3 ADD MSTORE PUSH3 0x34B7B7 PUSH1 0xE9 SHL PUSH1 0x64 DUP3 ADD MSTORE PUSH1 0x84 SWAP1 REVERT JUMPDEST POP CALLVALUE PUSH2 0x15D JUMPI PUSH1 0x20 CALLDATASIZE PUSH1 0x3 NOT ADD SLT PUSH2 0x15D JUMPI PUSH1 0x20 SWAP1 PUSH1 0xB SWAP1 PUSH1 0x40 SWAP1 PUSH1 0x1 PUSH1 0x1 PUSH1 0xA0 SHL SUB PUSH2 0x1238 PUSH2 0x1421 JUMP JUMPDEST AND DUP2 MSTORE PUSH1 0x1 DUP5 MSTORE KECCAK256 ADD SLOAD PUSH1 0x40 MLOAD SWAP1 DUP2 MSTORE RETURN JUMPDEST POP CALLVALUE PUSH2 0x15D JUMPI PUSH1 0x40 CALLDATASIZE PUSH1 0x3 NOT ADD SLT PUSH2 0x15D JUMPI PUSH1 0x80 SWAP1 PUSH1 0x40 PUSH2 0x1269 PUSH2 0x1421 JUMP JUMPDEST SWAP2 PUSH2 0x1272 PUSH2 0x1437 JUMP JUMPDEST PUSH1 0x1 DUP1 PUSH1 0xA0 SHL SUB DUP1 SWAP5 AND DUP3 MSTORE PUSH1 0x2 PUSH1 0x20 MSTORE DUP4 DUP4 DUP4 KECCAK256 SWAP2 AND DUP3 MSTORE PUSH1 0x20 MSTORE KECCAK256 DUP2 DUP2 SLOAD AND SWAP2 PUSH1 0x1 DUP3 ADD SLOAD AND SWAP1 PUSH1 0x3 PUSH1 0x2 DUP3 ADD SLOAD SWAP2 ADD SLOAD SWAP2 PUSH1 0x40 MLOAD SWAP4 DUP5 MSTORE PUSH1 0x20 DUP5 ADD MSTORE PUSH1 0x40 DUP4 ADD MSTORE PUSH1 0x60 DUP3 ADD MSTORE RETURN JUMPDEST POP CALLVALUE PUSH2 0x15D JUMPI PUSH1 0x20 CALLDATASIZE PUSH1 0x3 NOT ADD SLT PUSH2 0x15D JUMPI PUSH1 0x1 PUSH1 0x1 PUSH1 0xA0 SHL SUB SWAP1 PUSH2 0x1369 SWAP1 PUSH1 0x40 SWAP1 DUP4 PUSH2 0x12E8 PUSH2 0x1421 JUMP JUMPDEST AND DUP2 MSTORE PUSH1 0x1 PUSH1 0x20 MSTORE KECCAK256 SWAP2 PUSH2 0x12FB DUP4 PUSH2 0x14A9 JUMP JUMPDEST PUSH2 0x1307 PUSH1 0x1 DUP6 ADD PUSH2 0x14A9 JUMP JUMPDEST SWAP4 DUP3 PUSH1 0x2 DUP3 ADD SLOAD AND SWAP3 DUP1 PUSH1 0x3 DUP4 ADD SLOAD AND PUSH1 0x4 DUP4 ADD SLOAD PUSH1 0x5 DUP5 ADD SLOAD PUSH1 0x6 DUP6 ADD SLOAD PUSH4 0xFFFFFFFF PUSH1 0x7 DUP8 ADD SLOAD AND SWAP2 PUSH1 0x8 DUP8 ADD SLOAD SWAP4 PUSH1 0x9 DUP9 ADD SLOAD SWAP6 PUSH2 0x1377 PUSH1 0xA DUP11 ADD SLOAD SWAP9 PUSH1 0xC PUSH1 0xB DUP13 ADD SLOAD SWAP12 ADD SLOAD AND SWAP11 PUSH1 0x40 MLOAD SWAP15 DUP16 SWAP15 DUP16 SWAP3 PUSH2 0x1A0 DUP1 DUP6 MSTORE DUP5 ADD SWAP1 PUSH2 0x154E JUMP JUMPDEST SWAP2 PUSH1 0x20 DUP2 DUP5 SUB SWAP2 ADD MSTORE PUSH2 0x154E JUMP JUMPDEST SWAP11 PUSH1 0x40 DUP14 ADD MSTORE PUSH1 0x60 DUP13 ADD MSTORE PUSH1 0x80 DUP12 ADD MSTORE PUSH1 0xA0 DUP11 ADD MSTORE PUSH1 0xC0 DUP10 ADD MSTORE PUSH1 0xE0 DUP9 ADD MSTORE PUSH2 0x100 DUP8 ADD MSTORE PUSH2 0x120 DUP7 ADD MSTORE PUSH2 0x140 DUP6 ADD MSTORE PUSH2 0x160 DUP5 ADD MSTORE PUSH2 0x180 DUP4 ADD MSTORE SUB SWAP1 RETURN JUMPDEST SWAP1 POP CALLVALUE PUSH2 0xCB6 JUMPI PUSH1 0x80 CALLDATASIZE PUSH1 0x3 NOT ADD SLT PUSH2 0xCB6 JUMPI PUSH2 0x13D3 PUSH2 0x1421 JUMP JUMPDEST POP PUSH2 0x13DC PUSH2 0x1437 JUMP JUMPDEST POP PUSH1 0x64 CALLDATALOAD PUSH8 0xFFFFFFFFFFFFFFFF DUP1 DUP3 GT PUSH2 0xCA9 JUMPI CALLDATASIZE PUSH1 0x23 DUP4 ADD SLT ISZERO PUSH2 0xCA9 JUMPI DUP2 PUSH1 0x4 ADD CALLDATALOAD SWAP1 DUP2 GT PUSH2 0xCA9 JUMPI CALLDATASIZE SWAP2 ADD PUSH1 0x24 ADD GT PUSH2 0xCB6 JUMPI PUSH4 0xA85BD01 PUSH1 0xE1 SHL DUP2 MSTORE PUSH1 0x20 SWAP1 RETURN JUMPDEST PUSH1 0x4 CALLDATALOAD SWAP1 PUSH1 0x1 PUSH1 0x1 PUSH1 0xA0 SHL SUB DUP3 AND DUP3 SUB PUSH2 0xCAD JUMPI JUMP JUMPDEST PUSH1 0x24 CALLDATALOAD SWAP1 PUSH1 0x1 PUSH1 0x1 PUSH1 0xA0 SHL SUB DUP3 AND DUP3 SUB PUSH2 0xCAD JUMPI JUMP JUMPDEST SWAP1 PUSH1 0x1 DUP3 DUP2 SHR SWAP3 AND DUP1 ISZERO PUSH2 0x147D JUMPI JUMPDEST PUSH1 0x20 DUP4 LT EQ PUSH2 0x1467 JUMPI JUMP JUMPDEST PUSH4 0x4E487B71 PUSH1 0xE0 SHL PUSH1 0x0 MSTORE PUSH1 0x22 PUSH1 0x4 MSTORE PUSH1 0x24 PUSH1 0x0 REVERT JUMPDEST SWAP2 PUSH1 0x7F AND SWAP2 PUSH2 0x145C JUMP JUMPDEST SWAP1 PUSH1 0x1F DUP1 NOT SWAP2 ADD AND DUP2 ADD SWAP1 DUP2 LT PUSH8 0xFFFFFFFFFFFFFFFF DUP3 GT OR PUSH2 0xC08 JUMPI PUSH1 0x40 MSTORE JUMP JUMPDEST SWAP1 PUSH1 0x40 MLOAD SWAP2 DUP3 PUSH1 0x0 DUP3 SLOAD PUSH2 0x14BC DUP2 PUSH2 0x144D JUMP JUMPDEST SWAP1 DUP2 DUP5 MSTORE PUSH1 0x20 SWAP5 PUSH1 0x1 SWAP2 PUSH1 0x1 DUP2 AND SWAP1 DUP2 PUSH1 0x0 EQ PUSH2 0x152C JUMPI POP PUSH1 0x1 EQ PUSH2 0x14ED JUMPI JUMPDEST POP POP POP PUSH2 0x14EB SWAP3 POP SUB DUP4 PUSH2 0x1487 JUMP JUMPDEST JUMP JUMPDEST PUSH1 0x0 SWAP1 DUP2 MSTORE DUP6 DUP2 KECCAK256 SWAP6 SWAP4 POP SWAP2 SWAP1 JUMPDEST DUP2 DUP4 LT PUSH2 0x1514 JUMPI POP POP PUSH2 0x14EB SWAP4 POP DUP3 ADD ADD CODESIZE DUP1 DUP1 PUSH2 0x14DC JUMP JUMPDEST DUP6 SLOAD DUP9 DUP5 ADD DUP6 ADD MSTORE SWAP5 DUP6 ADD SWAP5 DUP8 SWAP5 POP SWAP2 DUP4 ADD SWAP2 PUSH2 0x14FB JUMP JUMPDEST SWAP3 POP POP POP PUSH2 0x14EB SWAP5 SWAP3 POP PUSH1 0xFF NOT AND DUP3 DUP5 ADD MSTORE ISZERO ISZERO PUSH1 0x5 SHL DUP3 ADD ADD CODESIZE DUP1 DUP1 PUSH2 0x14DC JUMP JUMPDEST SWAP2 SWAP1 DUP3 MLOAD SWAP3 DUP4 DUP3 MSTORE PUSH1 0x0 JUMPDEST DUP5 DUP2 LT PUSH2 0x157A JUMPI POP POP DUP3 PUSH1 0x0 PUSH1 0x20 DUP1 SWAP5 SWAP6 DUP5 ADD ADD MSTORE PUSH1 0x1F DUP1 NOT SWAP2 ADD AND ADD ADD SWAP1 JUMP JUMPDEST PUSH1 0x20 DUP2 DUP4 ADD DUP2 ADD MLOAD DUP5 DUP4 ADD DUP3 ADD MSTORE ADD PUSH2 0x1559 JUMP JUMPDEST DUP2 PUSH1 0x1F DUP3 ADD SLT ISZERO PUSH2 0xCAD JUMPI DUP1 CALLDATALOAD SWAP1 PUSH8 0xFFFFFFFFFFFFFFFF DUP3 GT PUSH2 0xC08 JUMPI PUSH1 0x40 MLOAD SWAP3 PUSH2 0x15C3 PUSH1 0x1F DUP5 ADD PUSH1 0x1F NOT AND PUSH1 0x20 ADD DUP6 PUSH2 0x1487 JUMP JUMPDEST DUP3 DUP5 MSTORE PUSH1 0x20 DUP4 DUP4 ADD ADD GT PUSH2 0xCAD JUMPI DUP2 PUSH1 0x0 SWAP3 PUSH1 0x20 DUP1 SWAP4 ADD DUP4 DUP7 ADD CALLDATACOPY DUP4 ADD ADD MSTORE SWAP1 JUMP JUMPDEST ISZERO PUSH2 0x15EC JUMPI JUMP JUMPDEST PUSH1 0x40 MLOAD PUSH3 0x461BCD PUSH1 0xE5 SHL DUP2 MSTORE PUSH1 0x20 PUSH1 0x4 DUP3 ADD MSTORE PUSH1 0x2A PUSH1 0x24 DUP3 ADD MSTORE PUSH32 0x4F6E6C792061756374696F6E206F776E65722063616E20706572666F726D2074 PUSH1 0x44 DUP3 ADD MSTORE PUSH10 0x3434B99030B1BA34B7B7 PUSH1 0xB1 SHL PUSH1 0x64 DUP3 ADD MSTORE PUSH1 0x84 SWAP1 REVERT JUMPDEST SWAP2 SWAP1 DUP3 ADD DUP1 SWAP3 GT PUSH2 0x1651 JUMPI JUMP JUMPDEST PUSH4 0x4E487B71 PUSH1 0xE0 SHL PUSH1 0x0 MSTORE PUSH1 0x11 PUSH1 0x4 MSTORE PUSH1 0x24 PUSH1 0x0 REVERT JUMPDEST SWAP1 DUP2 PUSH1 0x20 SWAP2 SUB SLT PUSH2 0xCAD JUMPI MLOAD PUSH1 0x1 PUSH1 0x1 PUSH1 0xA0 SHL SUB DUP2 AND DUP2 SUB PUSH2 0xCAD JUMPI SWAP1 JUMP JUMPDEST PUSH1 0x0 SLOAD PUSH1 0x1 PUSH1 0x1 PUSH1 0xA0 SHL SUB AND CALLER SUB PUSH2 0x169A JUMPI JUMP JUMPDEST PUSH1 0x40 MLOAD PUSH4 0x118CDAA7 PUSH1 0xE0 SHL DUP2 MSTORE CALLER PUSH1 0x4 DUP3 ADD MSTORE PUSH1 0x24 SWAP1 REVERT INVALID LOG2 PUSH5 0x6970667358 0x22 SLT KECCAK256 0xFC 0xC6 0xC 0xF9 DUP15 CALLDATACOPY MUL DUP2 0xE7 0xE5 SWAP16 0xDF PUSH8 0x8BBBFA75F53A3102 SHR COINBASE DUP5 PUSH3 0xDF04B9 SGT PUSH25 0xCA4564736F6C63430008180033000000000000000000000000 "},"methodIdentifiers":{"auctions(address)":"1d59410a","bids(address,address)":"1f036524","cancelAuction(address)":"d22cf3a4","createAuction(string,string,address,uint256,uint256,uint256,uint32,uint256)":"86487916","donate()":"ed88c68e","donation()":"8edeb15d","donors(address)":"ca0cdea8","endAuction(address)":"2872abbc","getHighestBid(address)":"23a75049","getHighestBidder(address)":"3ae01466","onERC721Received(address,address,uint256,bytes)":"150b7a02","owner()":"8da5cb5b","placeBid(address,uint256)":"d98b9bb5","renounceOwnership()":"715018a6","transferOwnership(address)":"f2fde38b","withdrawBid(address)":"4ede3648"}}}}}