{
  "_format": "hh-sol-artifact-1",
  "contractName": "NFTAuctionManager",
  "sourceName": "contracts/auction/NFTAuctionManager.sol",
  "abi": [
    {
      "inputs": [
        {
          "internalType": "address",
          "name": "owner",
          "type": "address"
        }
      ],
      "name": "OwnableInvalidOwner",
      "type": "error"
    },
    {
      "inputs": [
        {
          "internalType": "address",
          "name": "account",
          "type": "address"
        }
      ],
      "name": "OwnableUnauthorizedAccount",
      "type": "error"
    },
    {
      "anonymous": false,
      "inputs": [
        {
          "indexed": false,
          "internalType": "address",
          "name": "auctionId",
          "type": "address"
        },
        {
          "indexed": false,
          "internalType": "uint256",
          "name": "endedAt",
          "type": "uint256"
        }
      ],
      "name": "AuctionCancelled",
      "type": "event"
    },
    {
      "anonymous": false,
      "inputs": [
        {
          "indexed": false,
          "internalType": "address",
          "name": "auctionId",
          "type": "address"
        },
        {
          "indexed": false,
          "internalType": "address",
          "name": "seller",
          "type": "address"
        },
        {
          "indexed": false,
          "internalType": "address",
          "name": "tokenAddress",
          "type": "address"
        },
        {
          "indexed": false,
          "internalType": "uint256",
          "name": "tokenId",
          "type": "uint256"
        }
      ],
      "name": "AuctionCreated",
      "type": "event"
    },
    {
      "anonymous": false,
      "inputs": [
        {
          "indexed": false,
          "internalType": "address",
          "name": "auctionId",
          "type": "address"
        },
        {
          "indexed": false,
          "internalType": "uint256",
          "name": "highestBid",
          "type": "uint256"
        },
        {
          "indexed": false,
          "internalType": "address",
          "name": "highestBidder",
          "type": "address"
        },
        {
          "indexed": false,
          "internalType": "uint256",
          "name": "endedAt",
          "type": "uint256"
        }
      ],
      "name": "AuctionEnded",
      "type": "event"
    },
    {
      "anonymous": false,
      "inputs": [
        {
          "indexed": true,
          "internalType": "address",
          "name": "bidder",
          "type": "address"
        },
        {
          "indexed": true,
          "internalType": "address",
          "name": "auctionId",
          "type": "address"
        },
        {
          "indexed": false,
          "internalType": "uint256",
          "name": "amount",
          "type": "uint256"
        },
        {
          "indexed": false,
          "internalType": "uint256",
          "name": "timestamp",
          "type": "uint256"
        }
      ],
      "name": "BidPlaced",
      "type": "event"
    },
    {
      "anonymous": false,
      "inputs": [
        {
          "indexed": true,
          "internalType": "address",
          "name": "bidder",
          "type": "address"
        },
        {
          "indexed": true,
          "internalType": "address",
          "name": "auctionId",
          "type": "address"
        },
        {
          "indexed": false,
          "internalType": "uint256",
          "name": "amount",
          "type": "uint256"
        },
        {
          "indexed": false,
          "internalType": "uint256",
          "name": "timestamp",
          "type": "uint256"
        }
      ],
      "name": "BidWithdrawn",
      "type": "event"
    },
    {
      "anonymous": false,
      "inputs": [
        {
          "indexed": true,
          "internalType": "address",
          "name": "donor",
          "type": "address"
        },
        {
          "indexed": false,
          "internalType": "uint256",
          "name": "amount",
          "type": "uint256"
        },
        {
          "indexed": false,
          "internalType": "uint256",
          "name": "timestamp",
          "type": "uint256"
        }
      ],
      "name": "Donation",
      "type": "event"
    },
    {
      "anonymous": false,
      "inputs": [
        {
          "indexed": true,
          "internalType": "address",
          "name": "auctionId",
          "type": "address"
        },
        {
          "indexed": true,
          "internalType": "address",
          "name": "receiver",
          "type": "address"
        },
        {
          "indexed": false,
          "internalType": "uint256",
          "name": "amount",
          "type": "uint256"
        },
        {
          "indexed": false,
          "internalType": "uint256",
          "name": "timestamp",
          "type": "uint256"
        }
      ],
      "name": "MoneyTransfered",
      "type": "event"
    },
    {
      "anonymous": false,
      "inputs": [
        {
          "indexed": true,
          "internalType": "address",
          "name": "previousOwner",
          "type": "address"
        },
        {
          "indexed": true,
          "internalType": "address",
          "name": "newOwner",
          "type": "address"
        }
      ],
      "name": "OwnershipTransferred",
      "type": "event"
    },
    {
      "anonymous": false,
      "inputs": [
        {
          "indexed": true,
          "internalType": "address",
          "name": "auctionId",
          "type": "address"
        },
        {
          "indexed": true,
          "internalType": "address",
          "name": "receiver",
          "type": "address"
        },
        {
          "indexed": false,
          "internalType": "uint16",
          "name": "percentage",
          "type": "uint16"
        },
        {
          "indexed": false,
          "internalType": "uint256",
          "name": "timestamp",
          "type": "uint256"
        }
      ],
      "name": "ReceiverAdded",
      "type": "event"
    },
    {
      "anonymous": false,
      "inputs": [
        {
          "indexed": true,
          "internalType": "address",
          "name": "auctionId",
          "type": "address"
        },
        {
          "indexed": true,
          "internalType": "address",
          "name": "receiver",
          "type": "address"
        },
        {
          "indexed": false,
          "internalType": "uint256",
          "name": "timestamp",
          "type": "uint256"
        }
      ],
      "name": "ReceiverRemoved",
      "type": "event"
    },
    {
      "stateMutability": "payable",
      "type": "fallback"
    },
    {
      "inputs": [
        {
          "internalType": "address",
          "name": "_auctionId",
          "type": "address"
        },
        {
          "internalType": "address",
          "name": "_receiver",
          "type": "address"
        },
        {
          "internalType": "uint16",
          "name": "_percentage",
          "type": "uint16"
        }
      ],
      "name": "addReceiver",
      "outputs": [],
      "stateMutability": "nonpayable",
      "type": "function"
    },
    {
      "inputs": [
        {
          "internalType": "uint256",
          "name": "",
          "type": "uint256"
        }
      ],
      "name": "auctionIds",
      "outputs": [
        {
          "internalType": "address",
          "name": "",
          "type": "address"
        }
      ],
      "stateMutability": "view",
      "type": "function"
    },
    {
      "inputs": [
        {
          "internalType": "address",
          "name": "",
          "type": "address"
        }
      ],
      "name": "auctions",
      "outputs": [
        {
          "internalType": "address",
          "name": "id",
          "type": "address"
        },
        {
          "internalType": "address",
          "name": "topicId",
          "type": "address"
        },
        {
          "internalType": "string",
          "name": "name",
          "type": "string"
        },
        {
          "internalType": "string",
          "name": "description",
          "type": "string"
        },
        {
          "internalType": "address",
          "name": "seller",
          "type": "address"
        },
        {
          "internalType": "address",
          "name": "tokenAddress",
          "type": "address"
        },
        {
          "internalType": "uint256",
          "name": "tokenId",
          "type": "uint256"
        },
        {
          "internalType": "uint256",
          "name": "startingPrice",
          "type": "uint256"
        },
        {
          "internalType": "uint256",
          "name": "minBidIncrement",
          "type": "uint256"
        },
        {
          "internalType": "uint256",
          "name": "endingPrice",
          "type": "uint256"
        },
        {
          "internalType": "uint256",
          "name": "startedAt",
          "type": "uint256"
        },
        {
          "internalType": "uint256",
          "name": "endingAt",
          "type": "uint256"
        },
        {
          "internalType": "uint256",
          "name": "endedAt",
          "type": "uint256"
        },
        {
          "internalType": "uint256",
          "name": "highestBid",
          "type": "uint256"
        },
        {
          "internalType": "address",
          "name": "highestBidder",
          "type": "address"
        },
        {
          "internalType": "uint256",
          "name": "donation",
          "type": "uint256"
        }
      ],
      "stateMutability": "view",
      "type": "function"
    },
    {
      "inputs": [
        {
          "internalType": "address",
          "name": "",
          "type": "address"
        },
        {
          "internalType": "address",
          "name": "",
          "type": "address"
        }
      ],
      "name": "bids",
      "outputs": [
        {
          "internalType": "address",
          "name": "bidder",
          "type": "address"
        },
        {
          "internalType": "address",
          "name": "auctionId",
          "type": "address"
        },
        {
          "internalType": "uint256",
          "name": "amount",
          "type": "uint256"
        },
        {
          "internalType": "uint256",
          "name": "timestamp",
          "type": "uint256"
        }
      ],
      "stateMutability": "view",
      "type": "function"
    },
    {
      "inputs": [
        {
          "internalType": "address",
          "name": "_auctionId",
          "type": "address"
        }
      ],
      "name": "cancelAuction",
      "outputs": [
        {
          "internalType": "bool",
          "name": "",
          "type": "bool"
        }
      ],
      "stateMutability": "nonpayable",
      "type": "function"
    },
    {
      "inputs": [
        {
          "internalType": "string",
          "name": "_name",
          "type": "string"
        },
        {
          "internalType": "string",
          "name": "_description",
          "type": "string"
        },
        {
          "internalType": "address",
          "name": "_tokenAddress",
          "type": "address"
        },
        {
          "internalType": "uint256",
          "name": "_tokenId",
          "type": "uint256"
        },
        {
          "internalType": "address",
          "name": "_topicId",
          "type": "address"
        },
        {
          "internalType": "uint256",
          "name": "_startingPrice",
          "type": "uint256"
        },
        {
          "internalType": "uint256",
          "name": "_minBidIncrement",
          "type": "uint256"
        },
        {
          "internalType": "uint256",
          "name": "_endingPrice",
          "type": "uint256"
        },
        {
          "internalType": "uint256",
          "name": "_endingAt",
          "type": "uint256"
        },
        {
          "internalType": "address[]",
          "name": "_receivers",
          "type": "address[]"
        },
        {
          "internalType": "uint16[]",
          "name": "_percentages",
          "type": "uint16[]"
        }
      ],
      "name": "createAuction",
      "outputs": [
        {
          "internalType": "address",
          "name": "",
          "type": "address"
        }
      ],
      "stateMutability": "nonpayable",
      "type": "function"
    },
    {
      "inputs": [
        {
          "internalType": "address",
          "name": "_auctionId",
          "type": "address"
        }
      ],
      "name": "donate",
      "outputs": [],
      "stateMutability": "payable",
      "type": "function"
    },
    {
      "inputs": [
        {
          "internalType": "address",
          "name": "",
          "type": "address"
        },
        {
          "internalType": "address",
          "name": "",
          "type": "address"
        }
      ],
      "name": "donors",
      "outputs": [
        {
          "internalType": "uint256",
          "name": "",
          "type": "uint256"
        }
      ],
      "stateMutability": "view",
      "type": "function"
    },
    {
      "inputs": [
        {
          "internalType": "address",
          "name": "_auctionId",
          "type": "address"
        }
      ],
      "name": "endAuction",
      "outputs": [
        {
          "internalType": "bool",
          "name": "",
          "type": "bool"
        }
      ],
      "stateMutability": "nonpayable",
      "type": "function"
    },
    {
      "inputs": [
        {
          "internalType": "address",
          "name": "_auctionId",
          "type": "address"
        }
      ],
      "name": "getAuction",
      "outputs": [
        {
          "components": [
            {
              "internalType": "address",
              "name": "id",
              "type": "address"
            },
            {
              "internalType": "address",
              "name": "topicId",
              "type": "address"
            },
            {
              "internalType": "string",
              "name": "name",
              "type": "string"
            },
            {
              "internalType": "string",
              "name": "description",
              "type": "string"
            },
            {
              "internalType": "address",
              "name": "seller",
              "type": "address"
            },
            {
              "internalType": "address",
              "name": "tokenAddress",
              "type": "address"
            },
            {
              "internalType": "uint256",
              "name": "tokenId",
              "type": "uint256"
            },
            {
              "internalType": "uint256",
              "name": "startingPrice",
              "type": "uint256"
            },
            {
              "internalType": "uint256",
              "name": "minBidIncrement",
              "type": "uint256"
            },
            {
              "internalType": "uint256",
              "name": "endingPrice",
              "type": "uint256"
            },
            {
              "internalType": "uint256",
              "name": "startedAt",
              "type": "uint256"
            },
            {
              "internalType": "uint256",
              "name": "endingAt",
              "type": "uint256"
            },
            {
              "internalType": "uint256",
              "name": "endedAt",
              "type": "uint256"
            },
            {
              "internalType": "uint256",
              "name": "highestBid",
              "type": "uint256"
            },
            {
              "internalType": "address",
              "name": "highestBidder",
              "type": "address"
            },
            {
              "internalType": "uint256",
              "name": "donation",
              "type": "uint256"
            },
            {
              "internalType": "address[]",
              "name": "receivers",
              "type": "address[]"
            },
            {
              "internalType": "uint16[]",
              "name": "percentages",
              "type": "uint16[]"
            }
          ],
          "internalType": "struct IAuction.Auction",
          "name": "",
          "type": "tuple"
        }
      ],
      "stateMutability": "view",
      "type": "function"
    },
    {
      "inputs": [],
      "name": "getAuctions",
      "outputs": [
        {
          "components": [
            {
              "internalType": "address",
              "name": "id",
              "type": "address"
            },
            {
              "internalType": "address",
              "name": "topicId",
              "type": "address"
            },
            {
              "internalType": "string",
              "name": "name",
              "type": "string"
            },
            {
              "internalType": "string",
              "name": "description",
              "type": "string"
            },
            {
              "internalType": "address",
              "name": "seller",
              "type": "address"
            },
            {
              "internalType": "address",
              "name": "tokenAddress",
              "type": "address"
            },
            {
              "internalType": "uint256",
              "name": "tokenId",
              "type": "uint256"
            },
            {
              "internalType": "uint256",
              "name": "startingPrice",
              "type": "uint256"
            },
            {
              "internalType": "uint256",
              "name": "minBidIncrement",
              "type": "uint256"
            },
            {
              "internalType": "uint256",
              "name": "endingPrice",
              "type": "uint256"
            },
            {
              "internalType": "uint256",
              "name": "startedAt",
              "type": "uint256"
            },
            {
              "internalType": "uint256",
              "name": "endingAt",
              "type": "uint256"
            },
            {
              "internalType": "uint256",
              "name": "endedAt",
              "type": "uint256"
            },
            {
              "internalType": "uint256",
              "name": "highestBid",
              "type": "uint256"
            },
            {
              "internalType": "address",
              "name": "highestBidder",
              "type": "address"
            },
            {
              "internalType": "uint256",
              "name": "donation",
              "type": "uint256"
            },
            {
              "internalType": "address[]",
              "name": "receivers",
              "type": "address[]"
            },
            {
              "internalType": "uint16[]",
              "name": "percentages",
              "type": "uint16[]"
            }
          ],
          "internalType": "struct IAuction.Auction[]",
          "name": "",
          "type": "tuple[]"
        }
      ],
      "stateMutability": "view",
      "type": "function"
    },
    {
      "inputs": [
        {
          "internalType": "address",
          "name": "_auctionId",
          "type": "address"
        }
      ],
      "name": "getDonors",
      "outputs": [
        {
          "internalType": "address[]",
          "name": "",
          "type": "address[]"
        }
      ],
      "stateMutability": "view",
      "type": "function"
    },
    {
      "inputs": [
        {
          "internalType": "address",
          "name": "_auctionId",
          "type": "address"
        }
      ],
      "name": "getHighestBid",
      "outputs": [
        {
          "internalType": "uint256",
          "name": "",
          "type": "uint256"
        }
      ],
      "stateMutability": "view",
      "type": "function"
    },
    {
      "inputs": [
        {
          "internalType": "address",
          "name": "_auctionId",
          "type": "address"
        }
      ],
      "name": "getHighestBidder",
      "outputs": [
        {
          "internalType": "address",
          "name": "",
          "type": "address"
        }
      ],
      "stateMutability": "view",
      "type": "function"
    },
    {
      "inputs": [
        {
          "internalType": "address",
          "name": "_auctionId",
          "type": "address"
        }
      ],
      "name": "getPercentages",
      "outputs": [
        {
          "internalType": "uint16[]",
          "name": "",
          "type": "uint16[]"
        }
      ],
      "stateMutability": "view",
      "type": "function"
    },
    {
      "inputs": [
        {
          "internalType": "address",
          "name": "_auctionId",
          "type": "address"
        }
      ],
      "name": "getReceivers",
      "outputs": [
        {
          "internalType": "address[]",
          "name": "",
          "type": "address[]"
        }
      ],
      "stateMutability": "view",
      "type": "function"
    },
    {
      "inputs": [
        {
          "internalType": "address",
          "name": "operator",
          "type": "address"
        },
        {
          "internalType": "address",
          "name": "from",
          "type": "address"
        },
        {
          "internalType": "uint256",
          "name": "tokenId",
          "type": "uint256"
        },
        {
          "internalType": "bytes",
          "name": "data",
          "type": "bytes"
        }
      ],
      "name": "onERC721Received",
      "outputs": [
        {
          "internalType": "bytes4",
          "name": "",
          "type": "bytes4"
        }
      ],
      "stateMutability": "pure",
      "type": "function"
    },
    {
      "inputs": [],
      "name": "owner",
      "outputs": [
        {
          "internalType": "address",
          "name": "",
          "type": "address"
        }
      ],
      "stateMutability": "view",
      "type": "function"
    },
    {
      "inputs": [
        {
          "internalType": "address",
          "name": "_auctionId",
          "type": "address"
        }
      ],
      "name": "placeBid",
      "outputs": [
        {
          "internalType": "bool",
          "name": "",
          "type": "bool"
        }
      ],
      "stateMutability": "payable",
      "type": "function"
    },
    {
      "inputs": [
        {
          "internalType": "address",
          "name": "_auctionId",
          "type": "address"
        },
        {
          "internalType": "address",
          "name": "_receiver",
          "type": "address"
        }
      ],
      "name": "removeReceiver",
      "outputs": [],
      "stateMutability": "nonpayable",
      "type": "function"
    },
    {
      "inputs": [],
      "name": "renounceOwnership",
      "outputs": [],
      "stateMutability": "nonpayable",
      "type": "function"
    },
    {
      "inputs": [
        {
          "internalType": "address",
          "name": "_auctionId",
          "type": "address"
        },
        {
          "internalType": "address",
          "name": "_receiver",
          "type": "address"
        },
        {
          "internalType": "uint256",
          "name": "_amount",
          "type": "uint256"
        }
      ],
      "name": "transferMoney",
      "outputs": [],
      "stateMutability": "nonpayable",
      "type": "function"
    },
    {
      "inputs": [
        {
          "internalType": "address",
          "name": "newOwner",
          "type": "address"
        }
      ],
      "name": "transferOwnership",
      "outputs": [],
      "stateMutability": "nonpayable",
      "type": "function"
    },
    {
      "inputs": [
        {
          "internalType": "address",
          "name": "_auctionId",
          "type": "address"
        }
      ],
      "name": "withdrawBid",
      "outputs": [
        {
          "internalType": "bool",
          "name": "",
          "type": "bool"
        }
      ],
      "stateMutability": "payable",
      "type": "function"
    },
    {
      "stateMutability": "payable",
      "type": "receive"
    }
  ],
  "bytecode": "0x6080806040523461007a5733156100645760008054336001600160a01b03198216811783556040519290916001600160a01b0316907f8be0079c531659141344cd1fd0a4f28419497f9722a3daafe3b4186f6b6457e09080a361345b90816100808239f35b631e4fbdf760e01b815260006004820152602490fd5b600080fdfe60a06040526004361015610018575b361561001657005b005b60e060003560e01c908162362a951461286a57816306c64726146118b9578163150b7a02146118505781631d59410a146117075781631f0365241461169157816323a75049146116545781632872abbc146112b35781632a6433be146112715781633ae01466146112335781634ede3648146111145781636410381c14610f76578163694b232314610f0d578163715018a614610eb457816379deae7b14610d875781638146bcea14610d3657816388c40d9414610abd5781638da5cb5b14610a945781638f3ac94614610a43578163d22cf3a414610953578163d496d2cb146108fe578163d7c069191461070657508063e49401571461048b578063e4a74366146101b65763f2fde38b0361000e57346101b15760203660031901126101b15761014161290c565b6101496133f9565b6001600160a01b0390811690811561019857600054826001600160601b0360a01b821617600055167f8be0079c531659141344cd1fd0a4f28419497f9722a3daafe3b4186f6b6457e0600080a3005b604051631e4fbdf760e01b815260006004820152602490fd5b600080fd5b346101b15760603660031901126101b1576101cf61290c565b6101d7612922565b6044916044359261ffff91828516908186036101b15760018060a01b03809116948560005260019460209760016020526040600020968460048901541699338b03610434579461022c8186169b8c14156132fa565b60009560108a01988954975b8d8b8a83106103d157505050505050851515806103c6575b61025c90989198612d9e565b6000906011600091019889545b8a81841061039b57505050506064929161028291613357565b161161034757600160401b938483101561033157826102a99160016102c795018155612b69565b90919060018060a01b038084549260031b9316831b921b1916179055565b8254918210156103315780610321610308847f3c2b0a7047f708ff533690d2cf89d62667a369de80d02a358419185b1f053bb1966001604097018155612e7f565b819391549060031b9161ffff809116831b921b19161790565b90558151908152426020820152a3005b634e487b7160e01b600052604160045260246000fd5b60405162461bcd60e51b815260206004820152602660248201527f53756d206f662070657263656e746167657320697320677265617465722074686044820152650616e203130360d41b6064820152608490fd5b8394876103af85966103bd94969596612e7f565b90549060031b1c1690613357565b93019190610269565b506064861115610250565b6103dc838792612b69565b90549060031b1c16146103f0578401610238565b60405162461bcd60e51b815260048101849052601d60248201527f54686520726563656976657220697320616c726561647920616464656400000081840152606490fd5b60405162461bcd60e51b815260206004820152602960248201527f4f6e6c79207468652061756374696f6e206f776e65722063616e206164642061604482015268103932b1b2b4bb32b960b91b6064820152608490fd5b6020806003193601126101b1576001600160a01b03806104a961290c565b169081600052600183526104cf6040600020600a810154151590816106f8575b50612ea2565b816000526001835260406000206104e7341515612cf9565b600d810180548034111561069c576007830154341061063d57600883015461050e91612d51565b34106105db57349055600e0180546001600160a01b031990811633179091556040519160808301916001600160401b0383118484101761033157600392604052338452858401858152604085019134835260608601934285528760005285895260406000203360005289528060406000209751168288541617875560018701925116908254161790555160028401555191015560405134815242838201527fdd49bbb40d47a514dddcd458e9718364143bc24a0cca58439ee6f4f45e4ce10d60403392a360405160018152f35b60405162461bcd60e51b815260048101869052603460248201527f42696420616d6f756e74206973206e6f742067726561746572207468616e20746044820152731a19481b5a5b88189a59081a5b98dc995b595b9d60621b6064820152608490fd5b60405162461bcd60e51b815260048101879052603160248201527f42696420616d6f756e74206973206e6f742067726561746572207468616e20746044820152706865207374617274696e6720707269636560781b6064820152608490fd5b60405162461bcd60e51b815260048101879052602e60248201527f42696420616d6f756e74206973206e6f742067726561746572207468616e207460448201526d1a19481a1a59da195cdd08189a5960921b6064820152608490fd5b600b915001544210856104c9565b346101b15760003660031901126101b15760028054610724816129e6565b91610732604051938461296f565b81835261073e826129e6565b60209490601f19018560005b8281106108e85750505060005b8381106107bc57604080518781528651818901819052600092600582901b8301810191898b01918b9085015b8287106107905785850386f35b9091929382806107ac600193603f198a82030186528851612bf6565b9601920196019592919092610783565b8060116108c66107cd600194612b1c565b858060a09593951b03809454600392831b1c166000528593848c526108256040600020928d83604051986108008a612938565b818754168a5286015416908801526108198b8501612a37565b60408801528301612a37565b60608601528060048301541660808601528060058301541660a0860152600682015460c086015260078201548886015260088201546101008601526009820154610120860152600a820154610140860152600b820154610160860152600c820154610180860152600d8201546101a0860152600e820154166101c0850152600f8101546101e08501526108ba60108201612fb6565b61020085015201613010565b6102208201526108d68288612d8a565b526108e18187612d8a565b5001610757565b6108f0612f33565b82828901015201869061074a565b346101b15760203660031901126101b1576001600160a01b0361091f61290c565b16600052600160205261094f61093b6011604060002001613010565b604051918291602083526020830190612bbe565b0390f35b346101b1576020806003193601126101b1576001600160a01b038061097661290c565b1690816000526001835261099581600460406000200154163314612e20565b81600052600183526040600020903390600483015416036109ef577f018b64b6242d32aa550e95d78985b938d71af5b3f10827b0683f55da1639304891604091600c4291015581519081524284820152a160405160018152f35b60405162461bcd60e51b815260048101849052602660248201527f4f6e6c79207468652073656c6c65722063616e2063616e63656c2074686520616044820152653ab1ba34b7b760d11b6064820152608490fd5b346101b15760403660031901126101b157610a5c61290c565b610a64612922565b9060018060a01b038091166000526004602052604060002091166000526020526020604060002054604051908152f35b346101b15760003660031901126101b1576000546040516001600160a01b039091168152602090f35b346101b15760403660031901126101b157610ad661290c565b610ade612922565b60018060a01b03809216806000526001806020526040600020938060048601541693338503610cdc5790610b198187949316958614156132fa565b60009260009360108201948554905b818110610ca2575b5050610b3b90612ee7565b6000835b610b72575b86867f881201a365cfa7a30d2763840b70e4bb9c3b6417202491504fb1237b08a8c10f6020604051428152a3005b845480821015610c9c57839088610b898489612b69565b939054600394851b1c1614610ba2575050830183610b3f565b93919294509460001993848101908111610c865782610bc4610bd59284612b69565b905490891b1c166102a98584612b69565b80548015610c5c57840191610bea8383612b69565b9091825491891b1b1916905555601180930192835490838201918211610c72575090610c30610c1d610308949386612e7f565b905461ffff9591881b1c85169286612e7f565b905582548015610c5c570192610c468484612e7f565b81939154921b1b19169055558280808080610b44565b634e487b7160e01b600052603160045260246000fd5b634e487b7160e01b60005260045260246000fd5b634e487b7160e01b600052601160045260246000fd5b50610b44565b8885610cb2838a969c9b9a612b69565b90549060031b1c1614610ccb5785019791959697610b28565b5095965093945082610b3b81610b30565b60405162461bcd60e51b815260206004820152602c60248201527f4f6e6c79207468652061756374696f6e206f776e65722063616e2072656d6f7660448201526b329030903932b1b2b4bb32b960a11b6064820152608490fd5b346101b15760203660031901126101b1576001600160a01b03610d5761290c565b16600052600160205261094f610d736010604060002001612fb6565b604051918291602083526020830190612b81565b346101b15760203660031901126101b15761094f610da361290c565b610dab612f33565b5060018060a01b038091166000526001602052610e9a6011604060002060405193610dd585612938565b808254168552806001830154166020860152610df360028301612a37565b6040860152610e0460038301612a37565b60608601528060048301541660808601528060058301541660a0860152600682015460c0860152600782015460e086015260088201546101008601526009820154610120860152600a820154610140860152600b820154610160860152600c820154610180860152600d8201546101a0860152600e820154166101c0850152600f8101546101e08501526108ba60108201612fb6565b610220820152604051918291602083526020830190612bf6565b346101b15760003660031901126101b157610ecd6133f9565b600080546001600160a01b0319811682556001600160a01b03167f8be0079c531659141344cd1fd0a4f28419497f9722a3daafe3b4186f6b6457e08280a3005b346101b1576020806003193601126101b157610f2761290c565b506040518091602082019060208352606051809252604083019160809160005b828110610f5657505050500390f35b83516001600160a01b031685528695509381019392810192600101610f47565b346101b15760603660031901126101b157610f8f61290c565b610f97612922565b9060018060a01b03809116908160005260019060016020526040600020918160048401541633036110bd57600094919491600093600096601082018181549416985b848110611065575b50505050505061ffff606492610ff961100293612ee7565b16604435612e0d565b0460008184811561105b575b600092839283928392f11561104f5760407f67b1d074e0231b1d5ea97c0b82a285837b236d627d5a9b89965f961963c39b6c918151908152426020820152a3005b6040513d6000823e3d90fd5b6108fc925061100e565b828a6110718385612b69565b929054600393841b1c161461108857508501610fd9565b9150606497506110029650610ff993945061ffff958693509060116110ae929601612e7f565b9054911b1c1694829489610fe1565b60405162461bcd60e51b815260206004820152602960248201527f4f6e6c79207468652061756374696f6e206f776e65722063616e207472616e73604482015268666572206d6f6e657960b81b6064820152608490fd5b6020806003193601126101b1576001600160a01b038061113261290c565b1680600052600183526111566040600020600a810154151590816106f85750612ea2565b80600052600183526040600020600e81019283541633036111ee5790600d600092019080825460405190815242878201527f785d85162ae7507dad1d0089ba072ba3f2b9c7538085649ddc9b039eadc1a3f660403392a3825260038452604082203383528452816003604082208281558260018201558260028201550155556001600160601b0360a01b815416905560405160018152f35b60405162461bcd60e51b815260048101859052601b60248201527f42696464657220686173206e6f7420706c6163656420612062696400000000006044820152606490fd5b346101b15760203660031901126101b15760206001600160a01b038061125761290c565b1660005260018252600e6040600020015416604051908152f35b346101b15760203660031901126101b1576004356002548110156101b15761129a602091612b1c565b905460405160039290921b1c6001600160a01b03168152f35b346101b1576020806003193601126101b1576001600160a01b03806112d661290c565b1680600052600191600184526112f781600460406000200154163314612e20565b81600052600184526040600020906004820133828254160361160357600c83018054158015906115f5575b156115b957429055600d83019461133f8654600f86015490612d51565b600090601086019060118701845b611550575b5050505050816005840154169260068101549160405163020604bf60e21b81528360048201528881602481895afa90811561104f57600091611523575b508416301480156114b2575b156114565783600e9154169101938385541690803b156101b1576000928360649260405196879586946323b872dd60e01b86526004860152602485015260448401525af1801561104f57611436575b5090608092917f4d31a5599cdb48031c1f03259adbd513be468c5735012719a1a9850869b558b1945491541690604051928352858301526040820152426060820152a160405160018152f35b9291906001600160401b03841161033157604093909352909160806113ea565b60405162461bcd60e51b815260048101899052602e60248201527f436f6e7472616374206973206e6f7420617070726f76656420746f207472616e60448201526d39b332b9103a3432903a37b5b2b760911b6064820152608490fd5b50805460405163e985e9c560e01b815290851660048201523060248201528881604481895afa90811561104f576000916114ed575b5061139b565b90508881813d831161151c575b611504818361296f565b810103126101b1575180151581036101b157896114e7565b503d6114fa565b6115439150893d8b11611549575b61153b818361296f565b810190612d5e565b8961138f565b503d611531565b82548410156115b457600080808061ffff8b60646115816115718c8a612e7f565b949054600395861b1c168a612e0d565b049161158d8b8b612b69565b9054911b1c168282156115ab575bf11561104f57848094019361134d565b506108fc61159b565b611352565b60405162461bcd60e51b8152600481018890526014602482015273105d58dd1a5bdb881a5cc81b9bdd08195b99195960621b6044820152606490fd5b50600b840154421015611322565b60405162461bcd60e51b815260048101879052602360248201527f4f6e6c79207468652073656c6c65722063616e20656e6420746865206175637460448201526234b7b760e91b6064820152608490fd5b346101b15760203660031901126101b1576001600160a01b0361167561290c565b1660005260016020526020600d60406000200154604051908152f35b346101b15760403660031901126101b15760806116ac61290c565b6116b4612922565b60018060a01b038092166000526003602052816040600020911660005260205260406000208181541691600182015416906003600282015491015491604051938452602084015260408301526060820152f35b346101b15760203660031901126101b1576001600160a01b038061172961290c565b16600052600160205260406000209080825416918082600182015416926002820161175390612a37565b9461176060038401612a37565b958260048501541696836005860154166006860154600787015490600888015492600989015494600a8a015496600b8b015498600c8c01549a600d8d01549c600e0154169c600f01549d6040516080526102009160805152608051602001528060805160400152608051016117d491612adc565b6080518103608051606001526117e991612adc565b9b6080516080015260805160a0015260805160c0015260805160e00152608051610100015260805161012001526080516101400152608051610160015260805161018001526080516101a001526080516101c001526080516101e001526080519003608051f35b346101b15760803660031901126101b15761186961290c565b50611872612922565b506064356001600160401b038082116101b157366023830112156101b15781600401359081116101b157369101602401116101b157604051630a85bd0160e11b8152602090f35b346101b1576101603660031901126101b1576004356001600160401b0381116101b1576118ea903690600401612990565b6024356001600160401b0381116101b157611909903690600401612990565b6044356001600160a01b03811690036101b1576084356001600160a01b03811690036101b1576001600160401b0361012435116101b157366023610124350112156101b15761195e61012435600401356129e6565b61196b604051918261296f565b61012435600401358152602081019283366024610124356004013560051b610124350101116101b15760246101243501905b6024610124356004013560051b61012435010182106128485750506001600160401b0361014435116101b157366023610144350112156101b1576119e761014435600401356129e6565b936119f5604051958661296f565b61014435600401358552602085019081366024610144356004013560051b610144350101116101b15760246101443501905b6024610144356004013560051b610144350101821061282b5750506040516331a9108f60e11b815260643560048201526020816024816044356001600160a01b03165afa90811561104f5760009161280c575b50336001600160a01b03909116036127bb5783518651036127645760005b8451811015611b0157600190611ac06001600160a01b03611ab98389612d8a565b511661336d565b50611ae361ffff80611ad2848c612d8a565b511615159081611ae9575b50612d9e565b01611a98565b60649150611af7848c612d8a565b511611158a611add565b508593856040513360601b60208201526001600160601b031960443560601b1660348201526064356048820152604881528060808101106001600160401b03608083011117610331576080810160405280516020909101206001600160a01b031694611b6b612f33565b50604051611b7881612954565b600181526020368183013760405190611b9082612954565b600182526020368184013760405191611ba883612938565b6000835260006020840152604051611bbf81612954565b600781526620bab1ba34b7b760c91b602082015260408401526040518060208101106001600160401b036020830111176103315760208101604052600081526060840152336080840152600060a0840152600060c0840152600060e084015260006101008401526000610120840152426101408401526000610160840152600061018084015260006101a084015260006101c084015260006101e084015281610200840152610220830152611c743391612d7d565b526064611c85610220830151612d7d565b5286600052600160205260406000209060018060a01b038151166001600160601b0360a01b8354161782556001820160018060a01b036020830151166001600160601b0360a01b82541617905560408101518051906001600160401b038211610331578190611cf760028601546129fd565b601f811161272f575b50602090601f83116001146126bd576000926126b2575b50508160011b916000199060031b1c19161760028301555b60608101518051906001600160401b038211610331578190611d5460038601546129fd565b601f811161267d575b50602090601f831160011461260b57600092612600575b50508160011b916000199060031b1c19161760038301555b60808101516004830180546001600160a01b039283166001600160a01b03199182161790915560a083015160058501805491841691831691909117905560c0830151600685015560e0830151600785015561010083015160088501556101208301516009850155610140830151600a850155610160830151600b850155610180830151600c8501556101a0830151600d8501556101c0830151600e850180549190931691161790556101e0810151600f8301556102008101518051906001600160401b03821161033157600160401b82116103315760209060108501548360108701558084106125e0575b500160108401600052602060002060005b8381106125c3575050505061022001518051906001600160401b03821161033157600160401b8211610331576020601191828501548484870155808510612569575b5001920160005260206000209060005b8160041c81106125285750600f1981168082036124d4575b50505050611eff8661336d565b61248e575b611f0d816133b7565b61237b575b50611f1c816133b7565b61225d575b50611f2d60443561336d565b61222c575b606435612212575b611f4560843561336d565b6121e0575b83600052600160205260406000209060a435600783015560c4356121d3575b60e4356121c6575b610104356121b8575b519182612133575b5050508251611fde575b6020827faab8be1e353a93a6790aab2ee44552cf23d58c28a829c5a00becfdcf5bebef1c6080604051838152338582015260018060a01b036044351660408201526064356060820152a1604051908152f35b81600052600160205260116040600020019251906001600160401b03821161033157600160401b82116103315783548285558083106120d9575b509260005260206000208160041c9060005b8281106120985750600f1983169092039182612048575b5050611f8c565b60009485935b808710612065575050602094500155828080612041565b9093602061208d60019261ffff885116908a851b60031b9161ffff809116831b921b19161790565b95019601959061204e565b6000805b601081106120b157508282015560010161202a565b875190979160019160209161ffff60048c901b81811b199092169216901b179201970161209c565b61210b9085600052600f602060002091601e8660011b1680612111575b500160041c810190600f850160041c01612df6565b84612018565b600019908184890160041c8601019182549160200360031b1c169055886120f6565b6001600160401b03831161033157600160401b831161033157601090818301548483850155808510612198575b509101600052602060002060005b83811061217b5750611f82565b82516001600160a01b03168183015560209092019160010161216e565b6121b2908385016000528560206000209182019101612df6565b87612160565b61010435600b830155611f7a565b60e4356009830155611f71565b60c4356008830155611f69565b60008481526001602081905260409091200180546001600160a01b0319166084356001600160a01b0316179055611f4a565b836000526001602052606435600660406000200155611f3a565b600084815260016020526040902060050180546001600160a01b0319166044356001600160a01b0316179055611f32565b8460005260016020526003604060002001908051906001600160401b03821161033157819061228c84546129fd565b601f811161233e575b50602090601f83116001146122d2576000926122c7575b50508160011b916000199060031b1c19161790555b85611f21565b0151905088806122ac565b9250836000526020600020906000935b601f1984168510612323576001945083601f1981161061230a575b505050811b0190556122c1565b015160001960f88460031b161c191690558880806122fd565b818101518355602094850194600190930192909101906122e2565b61236b90856000526020600020601f850160051c81019160208610612371575b601f0160051c0190612df6565b89612295565b909150819061235e565b8560005260016020526002604060002001908051906001600160401b0382116103315781906123aa84546129fd565b601f811161245c575b50602090601f83116001146123f0576000926123e5575b50508160011b916000199060031b1c19161790555b86611f12565b0151905089806123ca565b9250836000526020600020906000935b601f1984168510612441576001945083601f19811610612428575b505050811b0190556123df565b015160001960f88460031b161c1916905589808061241b565b81810151835560209485019460019093019290910190612400565b61248890856000526020600020601f850160051c8101916020861061237157601f0160051c0190612df6565b8a6123b3565b600086815260016020526040902080546001600160a01b03191687179055600254600160401b81101561033157866102a98260016124cf9401600255612b1c565b611f04565b9260009360005b81840381106124f55750505060041c015587808080611ef2565b909194602061251e60019261ffff8951169085851b60031b9161ffff809116831b921b19161790565b96019291016124db565b6000805b60108110612541575083820155600101611eda565b855190959160019160209161ffff60048a901b81811b199092169216901b179201950161252c565b61259c90848701600052600f8460002091601e8860011b16806125a2575b500160041c810190600f870160041c01612df6565b8c611eca565b6000199081848b0160041c86010191825491890360031b1c16905538612587565b82516001600160a01b031681830155602090920191600101611e88565b6125fa906010870160005284846000209182019101612df6565b8c611e77565b015190508b80611d74565b9250600385016000526020600020906000935b601f1984168510612662576001945083601f19811610612649575b505050811b016003830155611d8c565b015160001960f88460031b161c191690558b8080612639565b8181015183556020948501946001909301929091019061261e565b6126ac90600387016000526020600020601f850160051c8101916020861061237157601f0160051c0190612df6565b8c611d5d565b015190508b80611d17565b9250600285016000526020600020906000935b601f1984168510612714576001945083601f198116106126fb575b505050811b016002830155611d2f565b015160001960f88460031b161c191690558b80806126eb565b818101518355602094850194600190930192909101906126d0565b61275e90600287016000526020600020601f850160051c8101916020861061237157601f0160051c0190612df6565b8c611d00565b60405162461bcd60e51b815260206004820152602960248201527f52656365697665727320616e642070657263656e7461676573206c656e677468604482015268040dad2e6dac2e8c6d60bb1b6064820152608490fd5b60405162461bcd60e51b8152602060048201526024808201527f4f6e6c79204e4654206f776e65722063616e2063726561746520616e206175636044820152633a34b7b760e11b6064820152608490fd5b612825915060203d6020116115495761153b818361296f565b87611a7a565b61ffff8235168235036101b1578135815260209182019101611a27565b81356001600160a01b03811690036101b157813581526020918201910161199d565b60203660031901126101b15761287e61290c565b612889341515612cf9565b6001600160a01b03166000818152600160205260409020600f0180546128b0903490612d51565b90556040513481524260208201527f106aac375bbcf013d1e52338bbf9e740009a1a3a6869f8daa1b72aa1620f5fec60403392a260005260046020526040600020336000526020526040600020612908348254612d51565b9055005b600435906001600160a01b03821682036101b157565b602435906001600160a01b03821682036101b157565b61024081019081106001600160401b0382111761033157604052565b604081019081106001600160401b0382111761033157604052565b90601f801991011681019081106001600160401b0382111761033157604052565b81601f820112156101b1578035906001600160401b03821161033157604051926129c4601f8401601f19166020018561296f565b828452602083830101116101b157816000926020809301838601378301015290565b6001600160401b0381116103315760051b60200190565b90600182811c92168015612a2d575b6020831014612a1757565b634e487b7160e01b600052602260045260246000fd5b91607f1691612a0c565b90604051918260008254612a4a816129fd565b90818452602094600191600181169081600014612aba5750600114612a7b575b505050612a799250038361296f565b565b600090815285812095935091905b818310612aa2575050612a799350820101388080612a6a565b85548884018501529485019487945091830191612a89565b92505050612a7994925060ff191682840152151560051b820101388080612a6a565b919082519283825260005b848110612b08575050826000602080949584010152601f8019910116010190565b602081830181015184830182015201612ae7565b600254811015612b535760026000527f405787fa12a823e0f2b7631cc41b3ba8828b3321ca811111fa75cd3aa3bb5ace0190600090565b634e487b7160e01b600052603260045260246000fd5b8054821015612b535760005260206000200190600090565b90815180825260208080930193019160005b828110612ba1575050505090565b83516001600160a01b031685529381019392810192600101612b93565b90815180825260208080930193019160005b828110612bde575050505090565b835161ffff1685529381019392810192600101612bd0565b90612cf691612ce2610240612c47612c3560018060a01b0392838651168752836020870151166020880152604086015190806040890152870190612adc565b60608501518682036060880152612adc565b908060808501511660808601528060a08501511660a086015260c084015160c086015260e084015160e0860152610100808501519086015261012080850151908601526101408085015190860152610160808501519086015261018080850151908601526101a080850151908601526101c0908185015116908501526101e08084015190850152610200808401519085830390860152612b81565b916102208092015191818403910152612bbe565b90565b15612d0057565b60405162461bcd60e51b8152602060048201526024808201527f5468652076616c75652073656e74206973206e6f7420677265617465722074686044820152630616e20360e41b6064820152608490fd5b91908201809211610c8657565b908160209103126101b157516001600160a01b03811681036101b15790565b805115612b535760200190565b8051821015612b535760209160051b010190565b15612da557565b60405162461bcd60e51b8152602060048201526024808201527f50657263656e74616765206d757374206265206265747765656e203120616e646044820152630203130360e41b6064820152608490fd5b818110612e01575050565b60008155600101612df6565b81810292918115918404141715610c8657565b15612e2757565b60405162461bcd60e51b815260206004820152602a60248201527f4f6e6c792061756374696f6e206f776e65722063616e20706572666f726d20746044820152693434b99030b1ba34b7b760b11b6064820152608490fd5b9190918054831015612b5357600052601e60206000208360041c019260011b1690565b15612ea957565b60405162461bcd60e51b815260206004820152601660248201527541756374696f6e206973206e6f74206f6e676f696e6760501b6044820152606490fd5b15612eee57565b60405162461bcd60e51b815260206004820152601960248201527f546865207265636569766572206973206e6f74206164646564000000000000006044820152606490fd5b60405190612f4082612938565b606061022083600080825280602083015283604083015283808301528060808301528060a08301528060c08301528060e08301528061010083015280610120830152806101408301528061016083015280610180830152806101a0830152806101c08301526101e0820152826102008201520152565b90604051918281549182825260209260208301916000526020600020936000905b828210612fed57505050612a799250038361296f565b85546001600160a01b031684526001958601958895509381019390910190612fd7565b9060409160405180938254928383526020918284019160005282600020946000915b81600f84011061322f5750612a799554918482821061321b575b828210613204575b8282106131ee575b8282106131d7575b8282106131c0575b8282106131a9575b828210613192575b82821061317b575b828210613164575b82821061314d575b828210613136575b82821061311f575b828210613108575b8282106130f1575b8282106130da575b50106130cd575b509050038361296f565b60f01c81520180386130c3565b6001919461ffff8560e01c168152019301846130bc565b6001919461ffff8560d01c168152019301846130b4565b6001919461ffff8560c01c168152019301846130ac565b6001919461ffff8560b01c168152019301846130a4565b6001919461ffff8560a01c1681520193018461309c565b6001919461ffff8560901c16815201930184613094565b6001919461ffff8560801c1681520193018461308c565b6001919461ffff8560701c16815201930184613084565b6001919461ffff8560601c1681520193018461307c565b6001919461ffff8560501c16815201930184613074565b6001919461ffff8560401c1681520193018461306c565b6001919461ffff8560301c16815201930184613064565b6001919461ffff85831c1681520193018461305c565b6001919461ffff8560101c16815201930184613054565b6001919461ffff851681520193018461304c565b93959450916001610200601092875461ffff80821683528082871c168b84015280828c1c1689840152818982826060828260301c168189015282826080951c1684890152828260a0828260501c16818c0152828260c0951c16848c0152828260e0988d8a848460701c169101521c166101008c0152828260901c166101208c01521c16610140890152828260b01c166101608901521c16610180860152828260d01c166101a08601521c166101c083015260f01c6101e0820152019501910190949291879492613032565b1561330157565b60405162461bcd60e51b815260206004820152602860248201527f5468652072656365697665722063616e6e6f742062652074686520617563746960448201526737b71037bbb732b960c11b6064820152608490fd5b91909161ffff80809416911601918211610c8657565b6001600160a01b03161561338057600190565b60405162461bcd60e51b815260206004820152600f60248201526e496e76616c6964206164647265737360881b6044820152606490fd5b51156133c257600190565b60405162461bcd60e51b815260206004820152600f60248201526e537472696e6720697320656d70747960881b6044820152606490fd5b6000546001600160a01b0316330361340d57565b60405163118cdaa760e01b8152336004820152602490fdfea26469706673582212207c4e8f820feffcd9749ce067405f91dbc4b26389272ac8f52d9d2c301c8ed10a64736f6c63430008180033",
  "linkReferences": {},
  "deployedLinkReferences": {}
}